{
	"SimpleSwap.sol": {
		"SimpleSwap": {
			"abi": [
				{
					"inputs": [
						{
							"internalType": "address",
							"name": "_tokenA",
							"type": "address"
						},
						{
							"internalType": "address",
							"name": "_tokenB",
							"type": "address"
						}
					],
					"stateMutability": "nonpayable",
					"type": "constructor"
				},
				{
					"anonymous": false,
					"inputs": [
						{
							"indexed": true,
							"internalType": "address",
							"name": "provider",
							"type": "address"
						},
						{
							"indexed": false,
							"internalType": "uint256",
							"name": "amountA",
							"type": "uint256"
						},
						{
							"indexed": false,
							"internalType": "uint256",
							"name": "amountB",
							"type": "uint256"
						},
						{
							"indexed": false,
							"internalType": "uint256",
							"name": "liquidityMinted",
							"type": "uint256"
						}
					],
					"name": "InitialLiquidityAdded",
					"type": "event"
				},
				{
					"anonymous": false,
					"inputs": [
						{
							"indexed": true,
							"internalType": "address",
							"name": "provider",
							"type": "address"
						},
						{
							"indexed": false,
							"internalType": "uint256",
							"name": "amountA",
							"type": "uint256"
						},
						{
							"indexed": false,
							"internalType": "uint256",
							"name": "amountB",
							"type": "uint256"
						},
						{
							"indexed": false,
							"internalType": "uint256",
							"name": "liquidityMinted",
							"type": "uint256"
						}
					],
					"name": "LiquidityAdded",
					"type": "event"
				},
				{
					"anonymous": false,
					"inputs": [
						{
							"indexed": true,
							"internalType": "address",
							"name": "provider",
							"type": "address"
						},
						{
							"indexed": false,
							"internalType": "uint256",
							"name": "amountA",
							"type": "uint256"
						},
						{
							"indexed": false,
							"internalType": "uint256",
							"name": "amountB",
							"type": "uint256"
						},
						{
							"indexed": false,
							"internalType": "uint256",
							"name": "liquidityBurned",
							"type": "uint256"
						}
					],
					"name": "LiquidityRemoved",
					"type": "event"
				},
				{
					"anonymous": false,
					"inputs": [
						{
							"indexed": true,
							"internalType": "address",
							"name": "swapper",
							"type": "address"
						},
						{
							"indexed": false,
							"internalType": "address",
							"name": "tokenIn",
							"type": "address"
						},
						{
							"indexed": false,
							"internalType": "uint256",
							"name": "amountIn",
							"type": "uint256"
						},
						{
							"indexed": false,
							"internalType": "address",
							"name": "tokenOut",
							"type": "address"
						},
						{
							"indexed": false,
							"internalType": "uint256",
							"name": "amountOut",
							"type": "uint256"
						}
					],
					"name": "TokensSwapped",
					"type": "event"
				},
				{
					"inputs": [
						{
							"internalType": "address",
							"name": "tokenA_",
							"type": "address"
						},
						{
							"internalType": "address",
							"name": "tokenB_",
							"type": "address"
						},
						{
							"internalType": "uint256",
							"name": "amountADesired",
							"type": "uint256"
						},
						{
							"internalType": "uint256",
							"name": "amountBDesired",
							"type": "uint256"
						},
						{
							"internalType": "uint256",
							"name": "amountAMin",
							"type": "uint256"
						},
						{
							"internalType": "uint256",
							"name": "amountBMin",
							"type": "uint256"
						},
						{
							"internalType": "address",
							"name": "to",
							"type": "address"
						},
						{
							"internalType": "uint256",
							"name": "deadline",
							"type": "uint256"
						}
					],
					"name": "addLiquidity",
					"outputs": [
						{
							"internalType": "uint256",
							"name": "amountA",
							"type": "uint256"
						},
						{
							"internalType": "uint256",
							"name": "amountB",
							"type": "uint256"
						},
						{
							"internalType": "uint256",
							"name": "liquidity",
							"type": "uint256"
						}
					],
					"stateMutability": "nonpayable",
					"type": "function"
				},
				{
					"inputs": [],
					"name": "decimals",
					"outputs": [
						{
							"internalType": "uint8",
							"name": "",
							"type": "uint8"
						}
					],
					"stateMutability": "view",
					"type": "function"
				},
				{
					"inputs": [],
					"name": "name",
					"outputs": [
						{
							"internalType": "string",
							"name": "",
							"type": "string"
						}
					],
					"stateMutability": "view",
					"type": "function"
				},
				{
					"inputs": [],
					"name": "owner",
					"outputs": [
						{
							"internalType": "address",
							"name": "",
							"type": "address"
						}
					],
					"stateMutability": "view",
					"type": "function"
				},
				{
					"inputs": [
						{
							"internalType": "address",
							"name": "tokenA_",
							"type": "address"
						},
						{
							"internalType": "address",
							"name": "tokenB_",
							"type": "address"
						},
						{
							"internalType": "uint256",
							"name": "liquidity",
							"type": "uint256"
						},
						{
							"internalType": "uint256",
							"name": "amountAMin",
							"type": "uint256"
						},
						{
							"internalType": "uint256",
							"name": "amountBMin",
							"type": "uint256"
						},
						{
							"internalType": "address",
							"name": "to",
							"type": "address"
						},
						{
							"internalType": "uint256",
							"name": "deadline",
							"type": "uint256"
						}
					],
					"name": "removeLiquidity",
					"outputs": [
						{
							"internalType": "uint256",
							"name": "amountA",
							"type": "uint256"
						},
						{
							"internalType": "uint256",
							"name": "amountB",
							"type": "uint256"
						}
					],
					"stateMutability": "nonpayable",
					"type": "function"
				},
				{
					"inputs": [],
					"name": "reserveA",
					"outputs": [
						{
							"internalType": "uint256",
							"name": "",
							"type": "uint256"
						}
					],
					"stateMutability": "view",
					"type": "function"
				},
				{
					"inputs": [],
					"name": "reserveB",
					"outputs": [
						{
							"internalType": "uint256",
							"name": "",
							"type": "uint256"
						}
					],
					"stateMutability": "view",
					"type": "function"
				},
				{
					"inputs": [
						{
							"internalType": "uint256",
							"name": "amountIn",
							"type": "uint256"
						},
						{
							"internalType": "uint256",
							"name": "amountOutMin",
							"type": "uint256"
						},
						{
							"internalType": "address[]",
							"name": "path",
							"type": "address[]"
						},
						{
							"internalType": "address",
							"name": "to",
							"type": "address"
						},
						{
							"internalType": "uint256",
							"name": "deadline",
							"type": "uint256"
						}
					],
					"name": "swapExactTokensForTokens",
					"outputs": [
						{
							"internalType": "uint256[]",
							"name": "amounts",
							"type": "uint256[]"
						}
					],
					"stateMutability": "nonpayable",
					"type": "function"
				},
				{
					"inputs": [],
					"name": "symbol",
					"outputs": [
						{
							"internalType": "string",
							"name": "",
							"type": "string"
						}
					],
					"stateMutability": "view",
					"type": "function"
				},
				{
					"inputs": [],
					"name": "tokenA",
					"outputs": [
						{
							"internalType": "address",
							"name": "",
							"type": "address"
						}
					],
					"stateMutability": "view",
					"type": "function"
				},
				{
					"inputs": [],
					"name": "tokenB",
					"outputs": [
						{
							"internalType": "address",
							"name": "",
							"type": "address"
						}
					],
					"stateMutability": "view",
					"type": "function"
				}
			],
			"devdoc": {
				"author": "Pablo Gianferro",
				"details": "This contract handles tokenA and tokenB liquidity pools and manages internal LP tokens.      LP tokens are not ERC20-compatible but are tracked via internal mappings.",
				"events": {
					"InitialLiquidityAdded(address,uint256,uint256,uint256)": {
						"params": {
							"amountA": "Amount of token A added",
							"amountB": "Amount of token B added",
							"liquidityMinted": "Amount of LP tokens minted",
							"provider": "Address of the liquidity provider"
						}
					},
					"LiquidityAdded(address,uint256,uint256,uint256)": {
						"params": {
							"amountA": "Amount of token A added",
							"amountB": "Amount of token B added",
							"liquidityMinted": "Amount of LP tokens minted",
							"provider": "Address of the liquidity provider"
						}
					},
					"LiquidityRemoved(address,uint256,uint256,uint256)": {
						"params": {
							"amountA": "Amount of token A returned",
							"amountB": "Amount of token B returned",
							"liquidityBurned": "Amount of LP tokens burned",
							"provider": "Address of the liquidity provider"
						}
					},
					"TokensSwapped(address,address,uint256,address,uint256)": {
						"params": {
							"amountIn": "Amount of token sent",
							"amountOut": "Amount of token received",
							"swapper": "Address performing the swap",
							"tokenIn": "Address of the token sent in",
							"tokenOut": "Address of the token received"
						}
					}
				},
				"kind": "dev",
				"methods": {
					"addLiquidity(address,address,uint256,uint256,uint256,uint256,address,uint256)": {
						"params": {
							"amountADesired": "Amount of token A to add",
							"amountAMin": "Minimum accepted amount of token A",
							"amountBDesired": "Amount of token B to add",
							"amountBMin": "Minimum accepted amount of token B",
							"deadline": "Transaction expiry timestamp",
							"to": "Address to receive LP tokens",
							"tokenA_": "address of tokenA",
							"tokenB_": "address of tokenB"
						},
						"returns": {
							"amountA": "Final amount of token A added",
							"amountB": "Final amount of token B added",
							"liquidity": "Amount of LP tokens minted"
						}
					},
					"constructor": {
						"params": {
							"_tokenA": "Address of token A",
							"_tokenB": "Address of token B"
						}
					},
					"removeLiquidity(address,address,uint256,uint256,uint256,address,uint256)": {
						"params": {
							"amountAMin": "Minimum accepted amount of token A",
							"amountBMin": "Minimum accepted amount of token B",
							"deadline": "Transaction expiry timestamp",
							"liquidity": "amount of LP tokens to burn",
							"to": "Address to receive tokens",
							"tokenA_": "address of tokenA",
							"tokenB_": "address of tokenB"
						},
						"returns": {
							"amountA": "Final amount of token A added",
							"amountB": "Final amount of token B added"
						}
					},
					"swapExactTokensForTokens(uint256,uint256,address[],address,uint256)": {
						"params": {
							"amountIn": "Amount of input tokens.",
							"amountOutMin": ": Minimum acceptable number of output tokens.",
							"amounts": ": Array with input and output amounts.",
							"deadline": ": Timestamp for the transaction.",
							"path": ": Array of token addresses. (input token, output token) param to: Recipient address."
						}
					}
				},
				"title": "SimpleSwap",
				"version": 1
			},
			"evm": {
				"assembly": "    /* \"SimpleSwap.sol\":516:10884  contract SimpleSwap {... */\n  mstore(0x40, 0x80)\n    /* \"SimpleSwap.sol\":1576:1770  constructor(address _tokenA, address _tokenB) {... */\n  callvalue\n  dup1\n  iszero\n  tag_1\n  jumpi\n  revert(0x00, 0x00)\ntag_1:\n  pop\n  mload(0x40)\n  sub(codesize, bytecodeSize)\n  dup1\n  bytecodeSize\n  dup4\n  codecopy\n  dup2\n  dup2\n  add\n  0x40\n  mstore\n  dup2\n  add\n  swap1\n  tag_2\n  swap2\n  swap1\n  tag_3\n  jump\t// in\ntag_2:\n    /* \"SimpleSwap.sol\":1637:1644  _tokenA */\n  dup2\n    /* \"SimpleSwap.sol\":1628:1634  tokenA */\n  0x03\n  0x01\n    /* \"SimpleSwap.sol\":1628:1644  tokenA = _tokenA */\n  0x0100\n  exp\n  dup2\n  sload\n  dup2\n  0xffffffffffffffffffffffffffffffffffffffff\n  mul\n  not\n  and\n  swap1\n  dup4\n  0xffffffffffffffffffffffffffffffffffffffff\n  and\n  mul\n  or\n  swap1\n  sstore\n  pop\n    /* \"SimpleSwap.sol\":1659:1666  _tokenB */\n  dup1\n    /* \"SimpleSwap.sol\":1650:1656  tokenB */\n  0x04\n  0x00\n    /* \"SimpleSwap.sol\":1650:1666  tokenB = _tokenB */\n  0x0100\n  exp\n  dup2\n  sload\n  dup2\n  0xffffffffffffffffffffffffffffffffffffffff\n  mul\n  not\n  and\n  swap1\n  dup4\n  0xffffffffffffffffffffffffffffffffffffffff\n  and\n  mul\n  or\n  swap1\n  sstore\n  pop\n    /* \"SimpleSwap.sol\":1672:1701  _name = \"SimpleSwap LP Token\" */\n  mload(0x40)\n  dup1\n  0x40\n  add\n  0x40\n  mstore\n  dup1\n  0x13\n  dup2\n  mstore\n  0x20\n  add\n  0x53696d706c6553776170204c5020546f6b656e00000000000000000000000000\n  dup2\n  mstore\n  pop\n    /* \"SimpleSwap.sol\":1672:1677  _name */\n  0x01\n    /* \"SimpleSwap.sol\":1672:1701  _name = \"SimpleSwap LP Token\" */\n  swap1\n  dup2\n  tag_6\n  swap2\n  swap1\n  tag_7\n  jump\t// in\ntag_6:\n  pop\n    /* \"SimpleSwap.sol\":1707:1723  _symbol = \"SSLP\" */\n  mload(0x40)\n  dup1\n  0x40\n  add\n  0x40\n  mstore\n  dup1\n  0x04\n  dup2\n  mstore\n  0x20\n  add\n  0x53534c5000000000000000000000000000000000000000000000000000000000\n  dup2\n  mstore\n  pop\n    /* \"SimpleSwap.sol\":1707:1714  _symbol */\n  0x02\n    /* \"SimpleSwap.sol\":1707:1723  _symbol = \"SSLP\" */\n  swap1\n  dup2\n  tag_8\n  swap2\n  swap1\n  tag_7\n  jump\t// in\ntag_8:\n  pop\n    /* \"SimpleSwap.sol\":1741:1743  18 */\n  0x12\n    /* \"SimpleSwap.sol\":1729:1738  _decimals */\n  0x03\n  0x00\n    /* \"SimpleSwap.sol\":1729:1743  _decimals = 18 */\n  0x0100\n  exp\n  dup2\n  sload\n  dup2\n  0xff\n  mul\n  not\n  and\n  swap1\n  dup4\n  0xff\n  and\n  mul\n  or\n  swap1\n  sstore\n  pop\n    /* \"SimpleSwap.sol\":1757:1767  msg.sender */\n  caller\n    /* \"SimpleSwap.sol\":1749:1754  owner */\n  0x00\n  0x00\n    /* \"SimpleSwap.sol\":1749:1767  owner = msg.sender */\n  0x0100\n  exp\n  dup2\n  sload\n  dup2\n  0xffffffffffffffffffffffffffffffffffffffff\n  mul\n  not\n  and\n  swap1\n  dup4\n  0xffffffffffffffffffffffffffffffffffffffff\n  and\n  mul\n  or\n  swap1\n  sstore\n  pop\n    /* \"SimpleSwap.sol\":1576:1770  constructor(address _tokenA, address _tokenB) {... */\n  pop\n  pop\n    /* \"SimpleSwap.sol\":516:10884  contract SimpleSwap {... */\n  jump(tag_9)\n    /* \"#utility.yul\":88:205   */\ntag_11:\n    /* \"#utility.yul\":197:198   */\n  0x00\n    /* \"#utility.yul\":194:195   */\n  0x00\n    /* \"#utility.yul\":187:199   */\n  revert\n    /* \"#utility.yul\":334:460   */\ntag_13:\n    /* \"#utility.yul\":371:378   */\n  0x00\n    /* \"#utility.yul\":411:453   */\n  0xffffffffffffffffffffffffffffffffffffffff\n    /* \"#utility.yul\":404:409   */\n  dup3\n    /* \"#utility.yul\":400:454   */\n  and\n    /* \"#utility.yul\":389:454   */\n  swap1\n  pop\n    /* \"#utility.yul\":334:460   */\n  swap2\n  swap1\n  pop\n  jump\t// out\n    /* \"#utility.yul\":466:562   */\ntag_14:\n    /* \"#utility.yul\":503:510   */\n  0x00\n    /* \"#utility.yul\":532:556   */\n  tag_43\n    /* \"#utility.yul\":550:555   */\n  dup3\n    /* \"#utility.yul\":532:556   */\n  tag_13\n  jump\t// in\ntag_43:\n    /* \"#utility.yul\":521:556   */\n  swap1\n  pop\n    /* \"#utility.yul\":466:562   */\n  swap2\n  swap1\n  pop\n  jump\t// out\n    /* \"#utility.yul\":568:690   */\ntag_15:\n    /* \"#utility.yul\":641:665   */\n  tag_45\n    /* \"#utility.yul\":659:664   */\n  dup2\n    /* \"#utility.yul\":641:665   */\n  tag_14\n  jump\t// in\ntag_45:\n    /* \"#utility.yul\":634:639   */\n  dup2\n    /* \"#utility.yul\":631:666   */\n  eq\n    /* \"#utility.yul\":621:684   */\n  tag_46\n  jumpi\n    /* \"#utility.yul\":680:681   */\n  0x00\n    /* \"#utility.yul\":677:678   */\n  0x00\n    /* \"#utility.yul\":670:682   */\n  revert\n    /* \"#utility.yul\":621:684   */\ntag_46:\n    /* \"#utility.yul\":568:690   */\n  pop\n  jump\t// out\n    /* \"#utility.yul\":696:839   */\ntag_16:\n    /* \"#utility.yul\":753:758   */\n  0x00\n    /* \"#utility.yul\":784:790   */\n  dup2\n    /* \"#utility.yul\":778:791   */\n  mload\n    /* \"#utility.yul\":769:791   */\n  swap1\n  pop\n    /* \"#utility.yul\":800:833   */\n  tag_48\n    /* \"#utility.yul\":827:832   */\n  dup2\n    /* \"#utility.yul\":800:833   */\n  tag_15\n  jump\t// in\ntag_48:\n    /* \"#utility.yul\":696:839   */\n  swap3\n  swap2\n  pop\n  pop\n  jump\t// out\n    /* \"#utility.yul\":845:1352   */\ntag_3:\n    /* \"#utility.yul\":924:930   */\n  0x00\n    /* \"#utility.yul\":932:938   */\n  0x00\n    /* \"#utility.yul\":981:983   */\n  0x40\n    /* \"#utility.yul\":969:978   */\n  dup4\n    /* \"#utility.yul\":960:967   */\n  dup6\n    /* \"#utility.yul\":956:979   */\n  sub\n    /* \"#utility.yul\":952:984   */\n  slt\n    /* \"#utility.yul\":949:1068   */\n  iszero\n  tag_50\n  jumpi\n    /* \"#utility.yul\":987:1066   */\n  tag_51\n  tag_11\n  jump\t// in\ntag_51:\n    /* \"#utility.yul\":949:1068   */\ntag_50:\n    /* \"#utility.yul\":1107:1108   */\n  0x00\n    /* \"#utility.yul\":1132:1196   */\n  tag_52\n    /* \"#utility.yul\":1188:1195   */\n  dup6\n    /* \"#utility.yul\":1179:1185   */\n  dup3\n    /* \"#utility.yul\":1168:1177   */\n  dup7\n    /* \"#utility.yul\":1164:1186   */\n  add\n    /* \"#utility.yul\":1132:1196   */\n  tag_16\n  jump\t// in\ntag_52:\n    /* \"#utility.yul\":1122:1196   */\n  swap3\n  pop\n    /* \"#utility.yul\":1078:1206   */\n  pop\n    /* \"#utility.yul\":1245:1247   */\n  0x20\n    /* \"#utility.yul\":1271:1335   */\n  tag_53\n    /* \"#utility.yul\":1327:1334   */\n  dup6\n    /* \"#utility.yul\":1318:1324   */\n  dup3\n    /* \"#utility.yul\":1307:1316   */\n  dup7\n    /* \"#utility.yul\":1303:1325   */\n  add\n    /* \"#utility.yul\":1271:1335   */\n  tag_16\n  jump\t// in\ntag_53:\n    /* \"#utility.yul\":1261:1335   */\n  swap2\n  pop\n    /* \"#utility.yul\":1216:1345   */\n  pop\n    /* \"#utility.yul\":845:1352   */\n  swap3\n  pop\n  swap3\n  swap1\n  pop\n  jump\t// out\n    /* \"#utility.yul\":1358:1457   */\ntag_17:\n    /* \"#utility.yul\":1410:1416   */\n  0x00\n    /* \"#utility.yul\":1444:1449   */\n  dup2\n    /* \"#utility.yul\":1438:1450   */\n  mload\n    /* \"#utility.yul\":1428:1450   */\n  swap1\n  pop\n    /* \"#utility.yul\":1358:1457   */\n  swap2\n  swap1\n  pop\n  jump\t// out\n    /* \"#utility.yul\":1463:1643   */\ntag_18:\n    /* \"#utility.yul\":1511:1588   */\n  0x4e487b7100000000000000000000000000000000000000000000000000000000\n    /* \"#utility.yul\":1508:1509   */\n  0x00\n    /* \"#utility.yul\":1501:1589   */\n  mstore\n    /* \"#utility.yul\":1608:1612   */\n  0x41\n    /* \"#utility.yul\":1605:1606   */\n  0x04\n    /* \"#utility.yul\":1598:1613   */\n  mstore\n    /* \"#utility.yul\":1632:1636   */\n  0x24\n    /* \"#utility.yul\":1629:1630   */\n  0x00\n    /* \"#utility.yul\":1622:1637   */\n  revert\n    /* \"#utility.yul\":1649:1829   */\ntag_19:\n    /* \"#utility.yul\":1697:1774   */\n  0x4e487b7100000000000000000000000000000000000000000000000000000000\n    /* \"#utility.yul\":1694:1695   */\n  0x00\n    /* \"#utility.yul\":1687:1775   */\n  mstore\n    /* \"#utility.yul\":1794:1798   */\n  0x22\n    /* \"#utility.yul\":1791:1792   */\n  0x04\n    /* \"#utility.yul\":1784:1799   */\n  mstore\n    /* \"#utility.yul\":1818:1822   */\n  0x24\n    /* \"#utility.yul\":1815:1816   */\n  0x00\n    /* \"#utility.yul\":1808:1823   */\n  revert\n    /* \"#utility.yul\":1835:2155   */\ntag_20:\n    /* \"#utility.yul\":1879:1885   */\n  0x00\n    /* \"#utility.yul\":1916:1917   */\n  0x02\n    /* \"#utility.yul\":1910:1914   */\n  dup3\n    /* \"#utility.yul\":1906:1918   */\n  div\n    /* \"#utility.yul\":1896:1918   */\n  swap1\n  pop\n    /* \"#utility.yul\":1963:1964   */\n  0x01\n    /* \"#utility.yul\":1957:1961   */\n  dup3\n    /* \"#utility.yul\":1953:1965   */\n  and\n    /* \"#utility.yul\":1984:2002   */\n  dup1\n    /* \"#utility.yul\":1974:2055   */\n  tag_58\n  jumpi\n    /* \"#utility.yul\":2040:2044   */\n  0x7f\n    /* \"#utility.yul\":2032:2038   */\n  dup3\n    /* \"#utility.yul\":2028:2045   */\n  and\n    /* \"#utility.yul\":2018:2045   */\n  swap2\n  pop\n    /* \"#utility.yul\":1974:2055   */\ntag_58:\n    /* \"#utility.yul\":2102:2104   */\n  0x20\n    /* \"#utility.yul\":2094:2100   */\n  dup3\n    /* \"#utility.yul\":2091:2105   */\n  lt\n    /* \"#utility.yul\":2071:2089   */\n  dup2\n    /* \"#utility.yul\":2068:2106   */\n  sub\n    /* \"#utility.yul\":2065:2149   */\n  tag_59\n  jumpi\n    /* \"#utility.yul\":2121:2139   */\n  tag_60\n  tag_19\n  jump\t// in\ntag_60:\n    /* \"#utility.yul\":2065:2149   */\ntag_59:\n    /* \"#utility.yul\":1886:2155   */\n  pop\n    /* \"#utility.yul\":1835:2155   */\n  swap2\n  swap1\n  pop\n  jump\t// out\n    /* \"#utility.yul\":2161:2302   */\ntag_21:\n    /* \"#utility.yul\":2210:2214   */\n  0x00\n    /* \"#utility.yul\":2233:2236   */\n  dup2\n    /* \"#utility.yul\":2225:2236   */\n  swap1\n  pop\n    /* \"#utility.yul\":2256:2259   */\n  dup2\n    /* \"#utility.yul\":2253:2254   */\n  0x00\n    /* \"#utility.yul\":2246:2260   */\n  mstore\n    /* \"#utility.yul\":2290:2294   */\n  0x20\n    /* \"#utility.yul\":2287:2288   */\n  0x00\n    /* \"#utility.yul\":2277:2295   */\n  keccak256\n    /* \"#utility.yul\":2269:2295   */\n  swap1\n  pop\n    /* \"#utility.yul\":2161:2302   */\n  swap2\n  swap1\n  pop\n  jump\t// out\n    /* \"#utility.yul\":2308:2401   */\ntag_22:\n    /* \"#utility.yul\":2345:2351   */\n  0x00\n    /* \"#utility.yul\":2392:2394   */\n  0x20\n    /* \"#utility.yul\":2387:2389   */\n  0x1f\n    /* \"#utility.yul\":2380:2385   */\n  dup4\n    /* \"#utility.yul\":2376:2390   */\n  add\n    /* \"#utility.yul\":2372:2395   */\n  div\n    /* \"#utility.yul\":2362:2395   */\n  swap1\n  pop\n    /* \"#utility.yul\":2308:2401   */\n  swap2\n  swap1\n  pop\n  jump\t// out\n    /* \"#utility.yul\":2407:2514   */\ntag_23:\n    /* \"#utility.yul\":2451:2459   */\n  0x00\n    /* \"#utility.yul\":2501:2506   */\n  dup3\n    /* \"#utility.yul\":2495:2499   */\n  dup3\n    /* \"#utility.yul\":2491:2507   */\n  shl\n    /* \"#utility.yul\":2470:2507   */\n  swap1\n  pop\n    /* \"#utility.yul\":2407:2514   */\n  swap3\n  swap2\n  pop\n  pop\n  jump\t// out\n    /* \"#utility.yul\":2520:2913   */\ntag_24:\n    /* \"#utility.yul\":2589:2595   */\n  0x00\n    /* \"#utility.yul\":2639:2640   */\n  0x08\n    /* \"#utility.yul\":2627:2637   */\n  dup4\n    /* \"#utility.yul\":2623:2641   */\n  mul\n    /* \"#utility.yul\":2662:2759   */\n  tag_65\n    /* \"#utility.yul\":2692:2758   */\n  0xffffffffffffffffffffffffffffffffffffffffffffffffffffffffffffffff\n    /* \"#utility.yul\":2681:2690   */\n  dup3\n    /* \"#utility.yul\":2662:2759   */\n  tag_23\n  jump\t// in\ntag_65:\n    /* \"#utility.yul\":2780:2819   */\n  tag_66\n    /* \"#utility.yul\":2810:2818   */\n  dup7\n    /* \"#utility.yul\":2799:2808   */\n  dup4\n    /* \"#utility.yul\":2780:2819   */\n  tag_23\n  jump\t// in\ntag_66:\n    /* \"#utility.yul\":2768:2819   */\n  swap6\n  pop\n    /* \"#utility.yul\":2852:2856   */\n  dup1\n    /* \"#utility.yul\":2848:2857   */\n  not\n    /* \"#utility.yul\":2841:2846   */\n  dup5\n    /* \"#utility.yul\":2837:2858   */\n  and\n    /* \"#utility.yul\":2828:2858   */\n  swap4\n  pop\n    /* \"#utility.yul\":2901:2905   */\n  dup1\n    /* \"#utility.yul\":2891:2899   */\n  dup7\n    /* \"#utility.yul\":2887:2906   */\n  and\n    /* \"#utility.yul\":2880:2885   */\n  dup5\n    /* \"#utility.yul\":2877:2907   */\n  or\n    /* \"#utility.yul\":2867:2907   */\n  swap3\n  pop\n    /* \"#utility.yul\":2596:2913   */\n  pop\n  pop\n    /* \"#utility.yul\":2520:2913   */\n  swap4\n  swap3\n  pop\n  pop\n  pop\n  jump\t// out\n    /* \"#utility.yul\":2919:2996   */\ntag_25:\n    /* \"#utility.yul\":2956:2963   */\n  0x00\n    /* \"#utility.yul\":2985:2990   */\n  dup2\n    /* \"#utility.yul\":2974:2990   */\n  swap1\n  pop\n    /* \"#utility.yul\":2919:2996   */\n  swap2\n  swap1\n  pop\n  jump\t// out\n    /* \"#utility.yul\":3002:3062   */\ntag_26:\n    /* \"#utility.yul\":3030:3033   */\n  0x00\n    /* \"#utility.yul\":3051:3056   */\n  dup2\n    /* \"#utility.yul\":3044:3056   */\n  swap1\n  pop\n    /* \"#utility.yul\":3002:3062   */\n  swap2\n  swap1\n  pop\n  jump\t// out\n    /* \"#utility.yul\":3068:3210   */\ntag_27:\n    /* \"#utility.yul\":3118:3127   */\n  0x00\n    /* \"#utility.yul\":3151:3204   */\n  tag_70\n    /* \"#utility.yul\":3169:3203   */\n  tag_71\n    /* \"#utility.yul\":3178:3202   */\n  tag_72\n    /* \"#utility.yul\":3196:3201   */\n  dup5\n    /* \"#utility.yul\":3178:3202   */\n  tag_25\n  jump\t// in\ntag_72:\n    /* \"#utility.yul\":3169:3203   */\n  tag_26\n  jump\t// in\ntag_71:\n    /* \"#utility.yul\":3151:3204   */\n  tag_25\n  jump\t// in\ntag_70:\n    /* \"#utility.yul\":3138:3204   */\n  swap1\n  pop\n    /* \"#utility.yul\":3068:3210   */\n  swap2\n  swap1\n  pop\n  jump\t// out\n    /* \"#utility.yul\":3216:3291   */\ntag_28:\n    /* \"#utility.yul\":3259:3262   */\n  0x00\n    /* \"#utility.yul\":3280:3285   */\n  dup2\n    /* \"#utility.yul\":3273:3285   */\n  swap1\n  pop\n    /* \"#utility.yul\":3216:3291   */\n  swap2\n  swap1\n  pop\n  jump\t// out\n    /* \"#utility.yul\":3297:3566   */\ntag_29:\n    /* \"#utility.yul\":3407:3446   */\n  tag_75\n    /* \"#utility.yul\":3438:3445   */\n  dup4\n    /* \"#utility.yul\":3407:3446   */\n  tag_27\n  jump\t// in\ntag_75:\n    /* \"#utility.yul\":3468:3559   */\n  tag_76\n    /* \"#utility.yul\":3517:3558   */\n  tag_77\n    /* \"#utility.yul\":3541:3557   */\n  dup3\n    /* \"#utility.yul\":3517:3558   */\n  tag_28\n  jump\t// in\ntag_77:\n    /* \"#utility.yul\":3509:3515   */\n  dup5\n    /* \"#utility.yul\":3502:3506   */\n  dup5\n    /* \"#utility.yul\":3496:3507   */\n  sload\n    /* \"#utility.yul\":3468:3559   */\n  tag_24\n  jump\t// in\ntag_76:\n    /* \"#utility.yul\":3462:3466   */\n  dup3\n    /* \"#utility.yul\":3455:3560   */\n  sstore\n    /* \"#utility.yul\":3373:3566   */\n  pop\n    /* \"#utility.yul\":3297:3566   */\n  pop\n  pop\n  pop\n  jump\t// out\n    /* \"#utility.yul\":3572:3645   */\ntag_30:\n    /* \"#utility.yul\":3617:3620   */\n  0x00\n    /* \"#utility.yul\":3638:3639   */\n  0x00\n    /* \"#utility.yul\":3631:3639   */\n  swap1\n  pop\n    /* \"#utility.yul\":3572:3645   */\n  swap1\n  jump\t// out\n    /* \"#utility.yul\":3651:3840   */\ntag_31:\n    /* \"#utility.yul\":3728:3760   */\n  tag_80\n  tag_30\n  jump\t// in\ntag_80:\n    /* \"#utility.yul\":3769:3834   */\n  tag_81\n    /* \"#utility.yul\":3827:3833   */\n  dup2\n    /* \"#utility.yul\":3819:3825   */\n  dup5\n    /* \"#utility.yul\":3813:3817   */\n  dup5\n    /* \"#utility.yul\":3769:3834   */\n  tag_29\n  jump\t// in\ntag_81:\n    /* \"#utility.yul\":3704:3840   */\n  pop\n    /* \"#utility.yul\":3651:3840   */\n  pop\n  pop\n  jump\t// out\n    /* \"#utility.yul\":3846:4032   */\ntag_32:\n    /* \"#utility.yul\":3906:4026   */\ntag_83:\n    /* \"#utility.yul\":3923:3926   */\n  dup2\n    /* \"#utility.yul\":3916:3921   */\n  dup2\n    /* \"#utility.yul\":3913:3927   */\n  lt\n    /* \"#utility.yul\":3906:4026   */\n  iszero\n  tag_85\n  jumpi\n    /* \"#utility.yul\":3977:4016   */\n  tag_86\n    /* \"#utility.yul\":4014:4015   */\n  0x00\n    /* \"#utility.yul\":4007:4012   */\n  dup3\n    /* \"#utility.yul\":3977:4016   */\n  tag_31\n  jump\t// in\ntag_86:\n    /* \"#utility.yul\":3950:3951   */\n  0x01\n    /* \"#utility.yul\":3943:3948   */\n  dup2\n    /* \"#utility.yul\":3939:3952   */\n  add\n    /* \"#utility.yul\":3930:3952   */\n  swap1\n  pop\n    /* \"#utility.yul\":3906:4026   */\n  jump(tag_83)\ntag_85:\n    /* \"#utility.yul\":3846:4032   */\n  pop\n  pop\n  jump\t// out\n    /* \"#utility.yul\":4038:4581   */\ntag_33:\n    /* \"#utility.yul\":4139:4141   */\n  0x1f\n    /* \"#utility.yul\":4134:4137   */\n  dup3\n    /* \"#utility.yul\":4131:4142   */\n  gt\n    /* \"#utility.yul\":4128:4574   */\n  iszero\n  tag_88\n  jumpi\n    /* \"#utility.yul\":4173:4211   */\n  tag_89\n    /* \"#utility.yul\":4205:4210   */\n  dup2\n    /* \"#utility.yul\":4173:4211   */\n  tag_21\n  jump\t// in\ntag_89:\n    /* \"#utility.yul\":4257:4286   */\n  tag_90\n    /* \"#utility.yul\":4275:4285   */\n  dup5\n    /* \"#utility.yul\":4257:4286   */\n  tag_22\n  jump\t// in\ntag_90:\n    /* \"#utility.yul\":4247:4255   */\n  dup2\n    /* \"#utility.yul\":4243:4287   */\n  add\n    /* \"#utility.yul\":4440:4442   */\n  0x20\n    /* \"#utility.yul\":4428:4438   */\n  dup6\n    /* \"#utility.yul\":4425:4443   */\n  lt\n    /* \"#utility.yul\":4422:4471   */\n  iszero\n  tag_91\n  jumpi\n    /* \"#utility.yul\":4461:4469   */\n  dup2\n    /* \"#utility.yul\":4446:4469   */\n  swap1\n  pop\n    /* \"#utility.yul\":4422:4471   */\ntag_91:\n    /* \"#utility.yul\":4484:4564   */\n  tag_92\n    /* \"#utility.yul\":4540:4562   */\n  tag_93\n    /* \"#utility.yul\":4558:4561   */\n  dup6\n    /* \"#utility.yul\":4540:4562   */\n  tag_22\n  jump\t// in\ntag_93:\n    /* \"#utility.yul\":4530:4538   */\n  dup4\n    /* \"#utility.yul\":4526:4563   */\n  add\n    /* \"#utility.yul\":4513:4524   */\n  dup3\n    /* \"#utility.yul\":4484:4564   */\n  tag_32\n  jump\t// in\ntag_92:\n    /* \"#utility.yul\":4143:4574   */\n  pop\n  pop\n    /* \"#utility.yul\":4128:4574   */\ntag_88:\n    /* \"#utility.yul\":4038:4581   */\n  pop\n  pop\n  pop\n  jump\t// out\n    /* \"#utility.yul\":4587:4704   */\ntag_34:\n    /* \"#utility.yul\":4641:4649   */\n  0x00\n    /* \"#utility.yul\":4691:4696   */\n  dup3\n    /* \"#utility.yul\":4685:4689   */\n  dup3\n    /* \"#utility.yul\":4681:4697   */\n  shr\n    /* \"#utility.yul\":4660:4697   */\n  swap1\n  pop\n    /* \"#utility.yul\":4587:4704   */\n  swap3\n  swap2\n  pop\n  pop\n  jump\t// out\n    /* \"#utility.yul\":4710:4879   */\ntag_35:\n    /* \"#utility.yul\":4754:4760   */\n  0x00\n    /* \"#utility.yul\":4787:4838   */\n  tag_96\n    /* \"#utility.yul\":4835:4836   */\n  0x00\n    /* \"#utility.yul\":4831:4837   */\n  not\n    /* \"#utility.yul\":4823:4828   */\n  dup5\n    /* \"#utility.yul\":4820:4821   */\n  0x08\n    /* \"#utility.yul\":4816:4829   */\n  mul\n    /* \"#utility.yul\":4787:4838   */\n  tag_34\n  jump\t// in\ntag_96:\n    /* \"#utility.yul\":4783:4839   */\n  not\n    /* \"#utility.yul\":4868:4872   */\n  dup1\n    /* \"#utility.yul\":4862:4866   */\n  dup4\n    /* \"#utility.yul\":4858:4873   */\n  and\n    /* \"#utility.yul\":4848:4873   */\n  swap2\n  pop\n    /* \"#utility.yul\":4761:4879   */\n  pop\n    /* \"#utility.yul\":4710:4879   */\n  swap3\n  swap2\n  pop\n  pop\n  jump\t// out\n    /* \"#utility.yul\":4884:5179   */\ntag_36:\n    /* \"#utility.yul\":4960:4964   */\n  0x00\n    /* \"#utility.yul\":5106:5135   */\n  tag_98\n    /* \"#utility.yul\":5131:5134   */\n  dup4\n    /* \"#utility.yul\":5125:5129   */\n  dup4\n    /* \"#utility.yul\":5106:5135   */\n  tag_35\n  jump\t// in\ntag_98:\n    /* \"#utility.yul\":5098:5135   */\n  swap2\n  pop\n    /* \"#utility.yul\":5168:5171   */\n  dup3\n    /* \"#utility.yul\":5165:5166   */\n  0x02\n    /* \"#utility.yul\":5161:5172   */\n  mul\n    /* \"#utility.yul\":5155:5159   */\n  dup3\n    /* \"#utility.yul\":5152:5173   */\n  or\n    /* \"#utility.yul\":5144:5173   */\n  swap1\n  pop\n    /* \"#utility.yul\":4884:5179   */\n  swap3\n  swap2\n  pop\n  pop\n  jump\t// out\n    /* \"#utility.yul\":5184:6579   */\ntag_7:\n    /* \"#utility.yul\":5301:5338   */\n  tag_100\n    /* \"#utility.yul\":5334:5337   */\n  dup3\n    /* \"#utility.yul\":5301:5338   */\n  tag_17\n  jump\t// in\ntag_100:\n    /* \"#utility.yul\":5403:5421   */\n  0xffffffffffffffff\n    /* \"#utility.yul\":5395:5401   */\n  dup2\n    /* \"#utility.yul\":5392:5422   */\n  gt\n    /* \"#utility.yul\":5389:5445   */\n  iszero\n  tag_101\n  jumpi\n    /* \"#utility.yul\":5425:5443   */\n  tag_102\n  tag_18\n  jump\t// in\ntag_102:\n    /* \"#utility.yul\":5389:5445   */\ntag_101:\n    /* \"#utility.yul\":5469:5507   */\n  tag_103\n    /* \"#utility.yul\":5501:5505   */\n  dup3\n    /* \"#utility.yul\":5495:5506   */\n  sload\n    /* \"#utility.yul\":5469:5507   */\n  tag_20\n  jump\t// in\ntag_103:\n    /* \"#utility.yul\":5554:5621   */\n  tag_104\n    /* \"#utility.yul\":5614:5620   */\n  dup3\n    /* \"#utility.yul\":5606:5612   */\n  dup3\n    /* \"#utility.yul\":5600:5604   */\n  dup6\n    /* \"#utility.yul\":5554:5621   */\n  tag_33\n  jump\t// in\ntag_104:\n    /* \"#utility.yul\":5648:5649   */\n  0x00\n    /* \"#utility.yul\":5672:5676   */\n  0x20\n    /* \"#utility.yul\":5659:5676   */\n  swap1\n  pop\n    /* \"#utility.yul\":5704:5706   */\n  0x1f\n    /* \"#utility.yul\":5696:5702   */\n  dup4\n    /* \"#utility.yul\":5693:5707   */\n  gt\n    /* \"#utility.yul\":5721:5722   */\n  0x01\n    /* \"#utility.yul\":5716:6334   */\n  dup2\n  eq\n  tag_106\n  jumpi\n    /* \"#utility.yul\":6378:6379   */\n  0x00\n    /* \"#utility.yul\":6395:6401   */\n  dup5\n    /* \"#utility.yul\":6392:6469   */\n  iszero\n  tag_107\n  jumpi\n    /* \"#utility.yul\":6444:6453   */\n  dup3\n    /* \"#utility.yul\":6439:6442   */\n  dup8\n    /* \"#utility.yul\":6435:6454   */\n  add\n    /* \"#utility.yul\":6429:6455   */\n  mload\n    /* \"#utility.yul\":6420:6455   */\n  swap1\n  pop\n    /* \"#utility.yul\":6392:6469   */\ntag_107:\n    /* \"#utility.yul\":6495:6562   */\n  tag_108\n    /* \"#utility.yul\":6555:6561   */\n  dup6\n    /* \"#utility.yul\":6548:6553   */\n  dup3\n    /* \"#utility.yul\":6495:6562   */\n  tag_36\n  jump\t// in\ntag_108:\n    /* \"#utility.yul\":6489:6493   */\n  dup7\n    /* \"#utility.yul\":6482:6563   */\n  sstore\n    /* \"#utility.yul\":6351:6573   */\n  pop\n    /* \"#utility.yul\":5686:6573   */\n  jump(tag_105)\n    /* \"#utility.yul\":5716:6334   */\ntag_106:\n    /* \"#utility.yul\":5768:5772   */\n  0x1f\n    /* \"#utility.yul\":5764:5773   */\n  not\n    /* \"#utility.yul\":5756:5762   */\n  dup5\n    /* \"#utility.yul\":5752:5774   */\n  and\n    /* \"#utility.yul\":5802:5839   */\n  tag_109\n    /* \"#utility.yul\":5834:5838   */\n  dup7\n    /* \"#utility.yul\":5802:5839   */\n  tag_21\n  jump\t// in\ntag_109:\n    /* \"#utility.yul\":5861:5862   */\n  0x00\n    /* \"#utility.yul\":5875:6083   */\ntag_110:\n    /* \"#utility.yul\":5889:5896   */\n  dup3\n    /* \"#utility.yul\":5886:5887   */\n  dup2\n    /* \"#utility.yul\":5883:5897   */\n  lt\n    /* \"#utility.yul\":5875:6083   */\n  iszero\n  tag_112\n  jumpi\n    /* \"#utility.yul\":5968:5977   */\n  dup5\n    /* \"#utility.yul\":5963:5966   */\n  dup10\n    /* \"#utility.yul\":5959:5978   */\n  add\n    /* \"#utility.yul\":5953:5979   */\n  mload\n    /* \"#utility.yul\":5945:5951   */\n  dup3\n    /* \"#utility.yul\":5938:5980   */\n  sstore\n    /* \"#utility.yul\":6019:6020   */\n  0x01\n    /* \"#utility.yul\":6011:6017   */\n  dup3\n    /* \"#utility.yul\":6007:6021   */\n  add\n    /* \"#utility.yul\":5997:6021   */\n  swap2\n  pop\n    /* \"#utility.yul\":6066:6068   */\n  0x20\n    /* \"#utility.yul\":6055:6064   */\n  dup6\n    /* \"#utility.yul\":6051:6069   */\n  add\n    /* \"#utility.yul\":6038:6069   */\n  swap5\n  pop\n    /* \"#utility.yul\":5912:5916   */\n  0x20\n    /* \"#utility.yul\":5909:5910   */\n  dup2\n    /* \"#utility.yul\":5905:5917   */\n  add\n    /* \"#utility.yul\":5900:5917   */\n  swap1\n  pop\n    /* \"#utility.yul\":5875:6083   */\n  jump(tag_110)\ntag_112:\n    /* \"#utility.yul\":6111:6117   */\n  dup7\n    /* \"#utility.yul\":6102:6109   */\n  dup4\n    /* \"#utility.yul\":6099:6118   */\n  lt\n    /* \"#utility.yul\":6096:6275   */\n  iszero\n  tag_113\n  jumpi\n    /* \"#utility.yul\":6169:6178   */\n  dup5\n    /* \"#utility.yul\":6164:6167   */\n  dup10\n    /* \"#utility.yul\":6160:6179   */\n  add\n    /* \"#utility.yul\":6154:6180   */\n  mload\n    /* \"#utility.yul\":6212:6260   */\n  tag_114\n    /* \"#utility.yul\":6254:6258   */\n  0x1f\n    /* \"#utility.yul\":6246:6252   */\n  dup10\n    /* \"#utility.yul\":6242:6259   */\n  and\n    /* \"#utility.yul\":6231:6240   */\n  dup3\n    /* \"#utility.yul\":6212:6260   */\n  tag_35\n  jump\t// in\ntag_114:\n    /* \"#utility.yul\":6204:6210   */\n  dup4\n    /* \"#utility.yul\":6197:6261   */\n  sstore\n    /* \"#utility.yul\":6119:6275   */\n  pop\n    /* \"#utility.yul\":6096:6275   */\ntag_113:\n    /* \"#utility.yul\":6321:6322   */\n  0x01\n    /* \"#utility.yul\":6317:6318   */\n  0x02\n    /* \"#utility.yul\":6309:6315   */\n  dup9\n    /* \"#utility.yul\":6305:6319   */\n  mul\n    /* \"#utility.yul\":6301:6323   */\n  add\n    /* \"#utility.yul\":6295:6299   */\n  dup9\n    /* \"#utility.yul\":6288:6324   */\n  sstore\n    /* \"#utility.yul\":5723:6334   */\n  pop\n  pop\n  pop\n    /* \"#utility.yul\":5686:6573   */\ntag_105:\n  pop\n    /* \"#utility.yul\":5276:6579   */\n  pop\n  pop\n  pop\n    /* \"#utility.yul\":5184:6579   */\n  pop\n  pop\n  jump\t// out\n    /* \"SimpleSwap.sol\":516:10884  contract SimpleSwap {... */\ntag_9:\n  dataSize(sub_0)\n  dup1\n  dataOffset(sub_0)\n  0x00\n  codecopy\n  0x00\n  return\nstop\n\nsub_0: assembly {\n        /* \"SimpleSwap.sol\":516:10884  contract SimpleSwap {... */\n      mstore(0x40, 0x80)\n      callvalue\n      dup1\n      iszero\n      tag_1\n      jumpi\n      revert(0x00, 0x00)\n    tag_1:\n      pop\n      jumpi(tag_2, lt(calldatasize, 0x04))\n      shr(0xe0, calldataload(0x00))\n      dup1\n      0x5f64b55b\n      gt\n      tag_14\n      jumpi\n      dup1\n      0x5f64b55b\n      eq\n      tag_8\n      jumpi\n      dup1\n      0x8da5cb5b\n      eq\n      tag_9\n      jumpi\n      dup1\n      0x95d89b41\n      eq\n      tag_10\n      jumpi\n      dup1\n      0xbaa2abde\n      eq\n      tag_11\n      jumpi\n      dup1\n      0xdc5fa6c5\n      eq\n      tag_12\n      jumpi\n      dup1\n      0xe8e33700\n      eq\n      tag_13\n      jumpi\n      jump(tag_2)\n    tag_14:\n      dup1\n      0x06fdde03\n      eq\n      tag_3\n      jumpi\n      dup1\n      0x0fc63d10\n      eq\n      tag_4\n      jumpi\n      dup1\n      0x19e36f3b\n      eq\n      tag_5\n      jumpi\n      dup1\n      0x313ce567\n      eq\n      tag_6\n      jumpi\n      dup1\n      0x38ed1739\n      eq\n      tag_7\n      jumpi\n    tag_2:\n      revert(0x00, 0x00)\n        /* \"SimpleSwap.sol\":3430:3513  function name() external view returns (string memory) {... */\n    tag_3:\n      tag_15\n      tag_16\n      jump\t// in\n    tag_15:\n      mload(0x40)\n      tag_17\n      swap2\n      swap1\n      tag_18\n      jump\t// in\n    tag_17:\n      mload(0x40)\n      dup1\n      swap2\n      sub\n      swap1\n      return\n        /* \"SimpleSwap.sol\":958:979  address public tokenA */\n    tag_4:\n      tag_19\n      tag_20\n      jump\t// in\n    tag_19:\n      mload(0x40)\n      tag_21\n      swap2\n      swap1\n      tag_22\n      jump\t// in\n    tag_21:\n      mload(0x40)\n      dup1\n      swap2\n      sub\n      swap1\n      return\n        /* \"SimpleSwap.sol\":1199:1222  uint256 public reserveB */\n    tag_5:\n      tag_23\n      tag_24\n      jump\t// in\n    tag_23:\n      mload(0x40)\n      tag_25\n      swap2\n      swap1\n      tag_26\n      jump\t// in\n    tag_25:\n      mload(0x40)\n      dup1\n      swap2\n      sub\n      swap1\n      return\n        /* \"SimpleSwap.sol\":3732:3815  function decimals() external view returns (uint8) {... */\n    tag_6:\n      tag_27\n      tag_28\n      jump\t// in\n    tag_27:\n      mload(0x40)\n      tag_29\n      swap2\n      swap1\n      tag_30\n      jump\t// in\n    tag_29:\n      mload(0x40)\n      dup1\n      swap2\n      sub\n      swap1\n      return\n        /* \"SimpleSwap.sol\":9356:10882  function swapExactTokensForTokens(uint amountIn, uint amountOutMin, address[] calldata path, address to, uint deadline) external returns (uint[] memory amounts) {... */\n    tag_7:\n      tag_31\n      0x04\n      dup1\n      calldatasize\n      sub\n      dup2\n      add\n      swap1\n      tag_32\n      swap2\n      swap1\n      tag_33\n      jump\t// in\n    tag_32:\n      tag_34\n      jump\t// in\n    tag_31:\n      mload(0x40)\n      tag_35\n      swap2\n      swap1\n      tag_36\n      jump\t// in\n    tag_35:\n      mload(0x40)\n      dup1\n      swap2\n      sub\n      swap1\n      return\n        /* \"SimpleSwap.sol\":1021:1042  address public tokenB */\n    tag_8:\n      tag_37\n      tag_38\n      jump\t// in\n    tag_37:\n      mload(0x40)\n      tag_39\n      swap2\n      swap1\n      tag_22\n      jump\t// in\n    tag_39:\n      mload(0x40)\n      dup1\n      swap2\n      sub\n      swap1\n      return\n        /* \"SimpleSwap.sol\":632:652  address public owner */\n    tag_9:\n      tag_40\n      tag_41\n      jump\t// in\n    tag_40:\n      mload(0x40)\n      tag_42\n      swap2\n      swap1\n      tag_22\n      jump\t// in\n    tag_42:\n      mload(0x40)\n      dup1\n      swap2\n      sub\n      swap1\n      return\n        /* \"SimpleSwap.sol\":3570:3657  function symbol() external view returns (string memory) {... */\n    tag_10:\n      tag_43\n      tag_44\n      jump\t// in\n    tag_43:\n      mload(0x40)\n      tag_45\n      swap2\n      swap1\n      tag_18\n      jump\t// in\n    tag_45:\n      mload(0x40)\n      dup1\n      swap2\n      sub\n      swap1\n      return\n        /* \"SimpleSwap.sol\":7648:8931  function removeLiquidity (address tokenA_, address tokenB_, uint liquidity, uint amountAMin, uint amountBMin, address to, uint deadline) external returns (uint amountA, uint amountB) {... */\n    tag_11:\n      tag_46\n      0x04\n      dup1\n      calldatasize\n      sub\n      dup2\n      add\n      swap1\n      tag_47\n      swap2\n      swap1\n      tag_48\n      jump\t// in\n    tag_47:\n      tag_49\n      jump\t// in\n    tag_46:\n      mload(0x40)\n      tag_50\n      swap3\n      swap2\n      swap1\n      tag_51\n      jump\t// in\n    tag_50:\n      mload(0x40)\n      dup1\n      swap2\n      sub\n      swap1\n      return\n        /* \"SimpleSwap.sol\":1109:1132  uint256 public reserveA */\n    tag_12:\n      tag_52\n      tag_53\n      jump\t// in\n    tag_52:\n      mload(0x40)\n      tag_54\n      swap2\n      swap1\n      tag_26\n      jump\t// in\n    tag_54:\n      mload(0x40)\n      dup1\n      swap2\n      sub\n      swap1\n      return\n        /* \"SimpleSwap.sol\":4459:7112  function addLiquidity(address tokenA_, address tokenB_, uint amountADesired, uint amountBDesired, uint amountAMin, uint amountBMin, address to, uint deadline) external returns (uint amountA, uint amountB, uint liquidity) {... */\n    tag_13:\n      tag_55\n      0x04\n      dup1\n      calldatasize\n      sub\n      dup2\n      add\n      swap1\n      tag_56\n      swap2\n      swap1\n      tag_57\n      jump\t// in\n    tag_56:\n      tag_58\n      jump\t// in\n    tag_55:\n      mload(0x40)\n      tag_59\n      swap4\n      swap3\n      swap2\n      swap1\n      tag_60\n      jump\t// in\n    tag_59:\n      mload(0x40)\n      dup1\n      swap2\n      sub\n      swap1\n      return\n        /* \"SimpleSwap.sol\":3430:3513  function name() external view returns (string memory) {... */\n    tag_16:\n        /* \"SimpleSwap.sol\":3469:3482  string memory */\n      0x60\n        /* \"SimpleSwap.sol\":3501:3506  _name */\n      0x01\n        /* \"SimpleSwap.sol\":3494:3506  return _name */\n      dup1\n      sload\n      tag_62\n      swap1\n      tag_63\n      jump\t// in\n    tag_62:\n      dup1\n      0x1f\n      add\n      0x20\n      dup1\n      swap2\n      div\n      mul\n      0x20\n      add\n      mload(0x40)\n      swap1\n      dup2\n      add\n      0x40\n      mstore\n      dup1\n      swap3\n      swap2\n      swap1\n      dup2\n      dup2\n      mstore\n      0x20\n      add\n      dup3\n      dup1\n      sload\n      tag_64\n      swap1\n      tag_63\n      jump\t// in\n    tag_64:\n      dup1\n      iszero\n      tag_65\n      jumpi\n      dup1\n      0x1f\n      lt\n      tag_66\n      jumpi\n      0x0100\n      dup1\n      dup4\n      sload\n      div\n      mul\n      dup4\n      mstore\n      swap2\n      0x20\n      add\n      swap2\n      jump(tag_65)\n    tag_66:\n      dup3\n      add\n      swap2\n      swap1\n      0x00\n      mstore\n      keccak256(0x00, 0x20)\n      swap1\n    tag_67:\n      dup2\n      sload\n      dup2\n      mstore\n      swap1\n      0x01\n      add\n      swap1\n      0x20\n      add\n      dup1\n      dup4\n      gt\n      tag_67\n      jumpi\n      dup3\n      swap1\n      sub\n      0x1f\n      and\n      dup3\n      add\n      swap2\n    tag_65:\n      pop\n      pop\n      pop\n      pop\n      pop\n      swap1\n      pop\n        /* \"SimpleSwap.sol\":3430:3513  function name() external view returns (string memory) {... */\n      swap1\n      jump\t// out\n        /* \"SimpleSwap.sol\":958:979  address public tokenA */\n    tag_20:\n      0x03\n      0x01\n      swap1\n      sload\n      swap1\n      0x0100\n      exp\n      swap1\n      div\n      0xffffffffffffffffffffffffffffffffffffffff\n      and\n      dup2\n      jump\t// out\n        /* \"SimpleSwap.sol\":1199:1222  uint256 public reserveB */\n    tag_24:\n      sload(0x06)\n      dup2\n      jump\t// out\n        /* \"SimpleSwap.sol\":3732:3815  function decimals() external view returns (uint8) {... */\n    tag_28:\n        /* \"SimpleSwap.sol\":3775:3780  uint8 */\n      0x00\n        /* \"SimpleSwap.sol\":3799:3808  _decimals */\n      0x03\n      0x00\n      swap1\n      sload\n      swap1\n      0x0100\n      exp\n      swap1\n      div\n      0xff\n      and\n        /* \"SimpleSwap.sol\":3792:3808  return _decimals */\n      swap1\n      pop\n        /* \"SimpleSwap.sol\":3732:3815  function decimals() external view returns (uint8) {... */\n      swap1\n      jump\t// out\n        /* \"SimpleSwap.sol\":9356:10882  function swapExactTokensForTokens(uint amountIn, uint amountOutMin, address[] calldata path, address to, uint deadline) external returns (uint[] memory amounts) {... */\n    tag_34:\n        /* \"SimpleSwap.sol\":9494:9515  uint[] memory amounts */\n      0x60\n        /* \"SimpleSwap.sol\":9555:9570  block.timestamp */\n      timestamp\n        /* \"SimpleSwap.sol\":9544:9552  deadline */\n      dup3\n        /* \"SimpleSwap.sol\":9544:9570  deadline > block.timestamp */\n      gt\n        /* \"SimpleSwap.sol\":9536:9594  require(deadline > block.timestamp, \"Transaction expired\") */\n      tag_70\n      jumpi\n      mload(0x40)\n      0x08c379a000000000000000000000000000000000000000000000000000000000\n      dup2\n      mstore\n      0x04\n      add\n      tag_71\n      swap1\n      tag_72\n      jump\t// in\n    tag_71:\n      mload(0x40)\n      dup1\n      swap2\n      sub\n      swap1\n      revert\n    tag_70:\n        /* \"SimpleSwap.sol\":9627:9628  2 */\n      0x02\n        /* \"SimpleSwap.sol\":9612:9616  path */\n      dup6\n      dup6\n        /* \"SimpleSwap.sol\":9612:9623  path.length */\n      swap1\n      pop\n        /* \"SimpleSwap.sol\":9612:9628  path.length == 2 */\n      eq\n        /* \"SimpleSwap.sol\":9612:9650  path.length == 2 && path[0] != path[1] */\n      dup1\n      iszero\n      tag_73\n      jumpi\n      pop\n        /* \"SimpleSwap.sol\":9643:9647  path */\n      dup5\n      dup5\n        /* \"SimpleSwap.sol\":9648:9649  1 */\n      0x01\n        /* \"SimpleSwap.sol\":9643:9650  path[1] */\n      dup2\n      dup2\n      lt\n      tag_74\n      jumpi\n      tag_75\n      tag_76\n      jump\t// in\n    tag_75:\n    tag_74:\n      swap1\n      pop\n      0x20\n      mul\n      add\n      0x20\n      dup2\n      add\n      swap1\n      tag_77\n      swap2\n      swap1\n      tag_78\n      jump\t// in\n    tag_77:\n        /* \"SimpleSwap.sol\":9632:9650  path[0] != path[1] */\n      0xffffffffffffffffffffffffffffffffffffffff\n      and\n        /* \"SimpleSwap.sol\":9632:9636  path */\n      dup6\n      dup6\n        /* \"SimpleSwap.sol\":9637:9638  0 */\n      0x00\n        /* \"SimpleSwap.sol\":9632:9639  path[0] */\n      dup2\n      dup2\n      lt\n      tag_79\n      jumpi\n      tag_80\n      tag_76\n      jump\t// in\n    tag_80:\n    tag_79:\n      swap1\n      pop\n      0x20\n      mul\n      add\n      0x20\n      dup2\n      add\n      swap1\n      tag_81\n      swap2\n      swap1\n      tag_78\n      jump\t// in\n    tag_81:\n        /* \"SimpleSwap.sol\":9632:9650  path[0] != path[1] */\n      0xffffffffffffffffffffffffffffffffffffffff\n      and\n      eq\n      iszero\n        /* \"SimpleSwap.sol\":9612:9650  path.length == 2 && path[0] != path[1] */\n    tag_73:\n        /* \"SimpleSwap.sol\":9604:9677  require(path.length == 2 && path[0] != path[1], \"invalid pair of tokens\") */\n      tag_82\n      jumpi\n      mload(0x40)\n      0x08c379a000000000000000000000000000000000000000000000000000000000\n      dup2\n      mstore\n      0x04\n      add\n      tag_83\n      swap1\n      tag_84\n      jump\t// in\n    tag_83:\n      mload(0x40)\n      dup1\n      swap2\n      sub\n      swap1\n      revert\n    tag_82:\n        /* \"SimpleSwap.sol\":9708:9714  tokenA */\n      0x03\n      0x01\n      swap1\n      sload\n      swap1\n      0x0100\n      exp\n      swap1\n      div\n      0xffffffffffffffffffffffffffffffffffffffff\n      and\n        /* \"SimpleSwap.sol\":9697:9714  path[0] == tokenA */\n      0xffffffffffffffffffffffffffffffffffffffff\n      and\n        /* \"SimpleSwap.sol\":9697:9701  path */\n      dup6\n      dup6\n        /* \"SimpleSwap.sol\":9702:9703  0 */\n      0x00\n        /* \"SimpleSwap.sol\":9697:9704  path[0] */\n      dup2\n      dup2\n      lt\n      tag_85\n      jumpi\n      tag_86\n      tag_76\n      jump\t// in\n    tag_86:\n    tag_85:\n      swap1\n      pop\n      0x20\n      mul\n      add\n      0x20\n      dup2\n      add\n      swap1\n      tag_87\n      swap2\n      swap1\n      tag_78\n      jump\t// in\n    tag_87:\n        /* \"SimpleSwap.sol\":9697:9714  path[0] == tokenA */\n      0xffffffffffffffffffffffffffffffffffffffff\n      and\n      eq\n        /* \"SimpleSwap.sol\":9697:9735  path[0] == tokenA && path[1] == tokenB */\n      dup1\n      iszero\n      tag_88\n      jumpi\n      pop\n        /* \"SimpleSwap.sol\":9729:9735  tokenB */\n      0x04\n      0x00\n      swap1\n      sload\n      swap1\n      0x0100\n      exp\n      swap1\n      div\n      0xffffffffffffffffffffffffffffffffffffffff\n      and\n        /* \"SimpleSwap.sol\":9718:9735  path[1] == tokenB */\n      0xffffffffffffffffffffffffffffffffffffffff\n      and\n        /* \"SimpleSwap.sol\":9718:9722  path */\n      dup6\n      dup6\n        /* \"SimpleSwap.sol\":9723:9724  1 */\n      0x01\n        /* \"SimpleSwap.sol\":9718:9725  path[1] */\n      dup2\n      dup2\n      lt\n      tag_89\n      jumpi\n      tag_90\n      tag_76\n      jump\t// in\n    tag_90:\n    tag_89:\n      swap1\n      pop\n      0x20\n      mul\n      add\n      0x20\n      dup2\n      add\n      swap1\n      tag_91\n      swap2\n      swap1\n      tag_78\n      jump\t// in\n    tag_91:\n        /* \"SimpleSwap.sol\":9718:9735  path[1] == tokenB */\n      0xffffffffffffffffffffffffffffffffffffffff\n      and\n      eq\n        /* \"SimpleSwap.sol\":9697:9735  path[0] == tokenA && path[1] == tokenB */\n    tag_88:\n        /* \"SimpleSwap.sol\":9696:9780  (path[0] == tokenA && path[1] == tokenB) || (path[0] == tokenB && path[1] == tokenA) */\n      dup1\n      tag_92\n      jumpi\n      pop\n        /* \"SimpleSwap.sol\":9752:9758  tokenB */\n      0x04\n      0x00\n      swap1\n      sload\n      swap1\n      0x0100\n      exp\n      swap1\n      div\n      0xffffffffffffffffffffffffffffffffffffffff\n      and\n        /* \"SimpleSwap.sol\":9741:9758  path[0] == tokenB */\n      0xffffffffffffffffffffffffffffffffffffffff\n      and\n        /* \"SimpleSwap.sol\":9741:9745  path */\n      dup6\n      dup6\n        /* \"SimpleSwap.sol\":9746:9747  0 */\n      0x00\n        /* \"SimpleSwap.sol\":9741:9748  path[0] */\n      dup2\n      dup2\n      lt\n      tag_93\n      jumpi\n      tag_94\n      tag_76\n      jump\t// in\n    tag_94:\n    tag_93:\n      swap1\n      pop\n      0x20\n      mul\n      add\n      0x20\n      dup2\n      add\n      swap1\n      tag_95\n      swap2\n      swap1\n      tag_78\n      jump\t// in\n    tag_95:\n        /* \"SimpleSwap.sol\":9741:9758  path[0] == tokenB */\n      0xffffffffffffffffffffffffffffffffffffffff\n      and\n      eq\n        /* \"SimpleSwap.sol\":9741:9779  path[0] == tokenB && path[1] == tokenA */\n      dup1\n      iszero\n      tag_96\n      jumpi\n      pop\n        /* \"SimpleSwap.sol\":9773:9779  tokenA */\n      0x03\n      0x01\n      swap1\n      sload\n      swap1\n      0x0100\n      exp\n      swap1\n      div\n      0xffffffffffffffffffffffffffffffffffffffff\n      and\n        /* \"SimpleSwap.sol\":9762:9779  path[1] == tokenA */\n      0xffffffffffffffffffffffffffffffffffffffff\n      and\n        /* \"SimpleSwap.sol\":9762:9766  path */\n      dup6\n      dup6\n        /* \"SimpleSwap.sol\":9767:9768  1 */\n      0x01\n        /* \"SimpleSwap.sol\":9762:9769  path[1] */\n      dup2\n      dup2\n      lt\n      tag_97\n      jumpi\n      tag_98\n      tag_76\n      jump\t// in\n    tag_98:\n    tag_97:\n      swap1\n      pop\n      0x20\n      mul\n      add\n      0x20\n      dup2\n      add\n      swap1\n      tag_99\n      swap2\n      swap1\n      tag_78\n      jump\t// in\n    tag_99:\n        /* \"SimpleSwap.sol\":9762:9779  path[1] == tokenA */\n      0xffffffffffffffffffffffffffffffffffffffff\n      and\n      eq\n        /* \"SimpleSwap.sol\":9741:9779  path[0] == tokenB && path[1] == tokenA */\n    tag_96:\n        /* \"SimpleSwap.sol\":9696:9780  (path[0] == tokenA && path[1] == tokenB) || (path[0] == tokenB && path[1] == tokenA) */\n    tag_92:\n        /* \"SimpleSwap.sol\":9687:9803  require( (path[0] == tokenA && path[1] == tokenB) || (path[0] == tokenB && path[1] == tokenA), \"invalid token pair\") */\n      tag_100\n      jumpi\n      mload(0x40)\n      0x08c379a000000000000000000000000000000000000000000000000000000000\n      dup2\n      mstore\n      0x04\n      add\n      tag_101\n      swap1\n      tag_102\n      jump\t// in\n    tag_101:\n      mload(0x40)\n      dup1\n      swap2\n      sub\n      swap1\n      revert\n    tag_100:\n        /* \"SimpleSwap.sol\":9832:9833  0 */\n      0x00\n        /* \"SimpleSwap.sol\":9821:9829  amountIn */\n      dup8\n        /* \"SimpleSwap.sol\":9821:9833  amountIn > 0 */\n      gt\n        /* \"SimpleSwap.sol\":9813:9859  require(amountIn > 0, \"insufficient amountIn\") */\n      tag_103\n      jumpi\n      mload(0x40)\n      0x08c379a000000000000000000000000000000000000000000000000000000000\n      dup2\n      mstore\n      0x04\n      add\n      tag_104\n      swap1\n      tag_105\n      jump\t// in\n    tag_104:\n      mload(0x40)\n      dup1\n      swap2\n      sub\n      swap1\n      revert\n    tag_103:\n        /* \"SimpleSwap.sol\":9870:9887  uint256 amountOut */\n      0x00\n        /* \"SimpleSwap.sol\":9913:9919  tokenA */\n      0x03\n      0x01\n      swap1\n      sload\n      swap1\n      0x0100\n      exp\n      swap1\n      div\n      0xffffffffffffffffffffffffffffffffffffffff\n      and\n        /* \"SimpleSwap.sol\":9902:9919  path[0] == tokenA */\n      0xffffffffffffffffffffffffffffffffffffffff\n      and\n        /* \"SimpleSwap.sol\":9902:9906  path */\n      dup7\n      dup7\n        /* \"SimpleSwap.sol\":9907:9908  0 */\n      0x00\n        /* \"SimpleSwap.sol\":9902:9909  path[0] */\n      dup2\n      dup2\n      lt\n      tag_106\n      jumpi\n      tag_107\n      tag_76\n      jump\t// in\n    tag_107:\n    tag_106:\n      swap1\n      pop\n      0x20\n      mul\n      add\n      0x20\n      dup2\n      add\n      swap1\n      tag_108\n      swap2\n      swap1\n      tag_78\n      jump\t// in\n    tag_108:\n        /* \"SimpleSwap.sol\":9902:9919  path[0] == tokenA */\n      0xffffffffffffffffffffffffffffffffffffffff\n      and\n      sub\n        /* \"SimpleSwap.sol\":9898:10663  if (path[0] == tokenA) {... */\n      tag_109\n      jumpi\n        /* \"SimpleSwap.sol\":9942:9948  tokenA */\n      0x03\n      0x01\n      swap1\n      sload\n      swap1\n      0x0100\n      exp\n      swap1\n      div\n      0xffffffffffffffffffffffffffffffffffffffff\n      and\n        /* \"SimpleSwap.sol\":9935:9962  IERC20(tokenA).transferFrom */\n      0xffffffffffffffffffffffffffffffffffffffff\n      and\n      0x23b872dd\n        /* \"SimpleSwap.sol\":9963:9973  msg.sender */\n      caller\n        /* \"SimpleSwap.sol\":9983:9987  this */\n      address\n        /* \"SimpleSwap.sol\":9990:9998  amountIn */\n      dup12\n        /* \"SimpleSwap.sol\":9935:9999  IERC20(tokenA).transferFrom(msg.sender, address(this), amountIn) */\n      mload(0x40)\n      dup5\n      0xffffffff\n      and\n      0xe0\n      shl\n      dup2\n      mstore\n      0x04\n      add\n      tag_110\n      swap4\n      swap3\n      swap2\n      swap1\n      tag_111\n      jump\t// in\n    tag_110:\n      0x20\n      mload(0x40)\n      dup1\n      dup4\n      sub\n      dup2\n      0x00\n      dup8\n      gas\n      call\n      iszero\n      dup1\n      iszero\n      tag_113\n      jumpi\n      returndatacopy(0x00, 0x00, returndatasize)\n      revert(0x00, returndatasize)\n    tag_113:\n      pop\n      pop\n      pop\n      pop\n      mload(0x40)\n      returndatasize\n      not(0x1f)\n      0x1f\n      dup3\n      add\n      and\n      dup3\n      add\n      dup1\n      0x40\n      mstore\n      pop\n      dup2\n      add\n      swap1\n      tag_114\n      swap2\n      swap1\n      tag_115\n      jump\t// in\n    tag_114:\n      pop\n        /* \"SimpleSwap.sol\":10061:10069  amountIn */\n      dup8\n        /* \"SimpleSwap.sol\":10050:10058  reserveA */\n      sload(0x05)\n        /* \"SimpleSwap.sol\":10050:10069  reserveA + amountIn */\n      tag_116\n      swap2\n      swap1\n      tag_117\n      jump\t// in\n    tag_116:\n        /* \"SimpleSwap.sol\":10037:10045  reserveB */\n      sload(0x06)\n        /* \"SimpleSwap.sol\":10026:10034  amountIn */\n      dup10\n        /* \"SimpleSwap.sol\":10026:10045  amountIn * reserveB */\n      tag_118\n      swap2\n      swap1\n      tag_119\n      jump\t// in\n    tag_118:\n        /* \"SimpleSwap.sol\":10025:10070  (amountIn * reserveB) / (reserveA + amountIn) */\n      tag_120\n      swap2\n      swap1\n      tag_121\n      jump\t// in\n    tag_120:\n        /* \"SimpleSwap.sol\":10013:10070  amountOut = (amountIn * reserveB) / (reserveA + amountIn) */\n      swap1\n      pop\n        /* \"SimpleSwap.sol\":10105:10117  amountOutMin */\n      dup7\n        /* \"SimpleSwap.sol\":10092:10101  amountOut */\n      dup2\n        /* \"SimpleSwap.sol\":10092:10117  amountOut >= amountOutMin */\n      lt\n      iszero\n        /* \"SimpleSwap.sol\":10084:10143  require(amountOut >= amountOutMin, \"insuficient amountOut\") */\n      tag_122\n      jumpi\n      mload(0x40)\n      0x08c379a000000000000000000000000000000000000000000000000000000000\n      dup2\n      mstore\n      0x04\n      add\n      tag_123\n      swap1\n      tag_124\n      jump\t// in\n    tag_123:\n      mload(0x40)\n      dup1\n      swap2\n      sub\n      swap1\n      revert\n    tag_122:\n        /* \"SimpleSwap.sol\":10164:10170  tokenB */\n      0x04\n      0x00\n      swap1\n      sload\n      swap1\n      0x0100\n      exp\n      swap1\n      div\n      0xffffffffffffffffffffffffffffffffffffffff\n      and\n        /* \"SimpleSwap.sol\":10157:10180  IERC20(tokenB).transfer */\n      0xffffffffffffffffffffffffffffffffffffffff\n      and\n      0xa9059cbb\n        /* \"SimpleSwap.sol\":10181:10183  to */\n      dup6\n        /* \"SimpleSwap.sol\":10185:10194  amountOut */\n      dup4\n        /* \"SimpleSwap.sol\":10157:10195  IERC20(tokenB).transfer(to, amountOut) */\n      mload(0x40)\n      dup4\n      0xffffffff\n      and\n      0xe0\n      shl\n      dup2\n      mstore\n      0x04\n      add\n      tag_125\n      swap3\n      swap2\n      swap1\n      tag_126\n      jump\t// in\n    tag_125:\n      0x20\n      mload(0x40)\n      dup1\n      dup4\n      sub\n      dup2\n      0x00\n      dup8\n      gas\n      call\n      iszero\n      dup1\n      iszero\n      tag_128\n      jumpi\n      returndatacopy(0x00, 0x00, returndatasize)\n      revert(0x00, returndatasize)\n    tag_128:\n      pop\n      pop\n      pop\n      pop\n      mload(0x40)\n      returndatasize\n      not(0x1f)\n      0x1f\n      dup3\n      add\n      and\n      dup3\n      add\n      dup1\n      0x40\n      mstore\n      pop\n      dup2\n      add\n      swap1\n      tag_129\n      swap2\n      swap1\n      tag_115\n      jump\t// in\n    tag_129:\n      pop\n        /* \"SimpleSwap.sol\":10221:10229  amountIn */\n      dup8\n        /* \"SimpleSwap.sol\":10209:10217  reserveA */\n      0x05\n      0x00\n        /* \"SimpleSwap.sol\":10209:10229  reserveA += amountIn */\n      dup3\n      dup3\n      sload\n      tag_130\n      swap2\n      swap1\n      tag_117\n      jump\t// in\n    tag_130:\n      swap3\n      pop\n      pop\n      dup2\n      swap1\n      sstore\n      pop\n        /* \"SimpleSwap.sol\":10255:10264  amountOut */\n      dup1\n        /* \"SimpleSwap.sol\":10243:10251  reserveB */\n      0x06\n      0x00\n        /* \"SimpleSwap.sol\":10243:10264  reserveB -= amountOut */\n      dup3\n      dup3\n      sload\n      tag_131\n      swap2\n      swap1\n      tag_132\n      jump\t// in\n    tag_131:\n      swap3\n      pop\n      pop\n      dup2\n      swap1\n      sstore\n      pop\n        /* \"SimpleSwap.sol\":9898:10663  if (path[0] == tokenA) {... */\n      jump(tag_133)\n    tag_109:\n        /* \"SimpleSwap.sol\":10316:10322  tokenB */\n      0x04\n      0x00\n      swap1\n      sload\n      swap1\n      0x0100\n      exp\n      swap1\n      div\n      0xffffffffffffffffffffffffffffffffffffffff\n      and\n        /* \"SimpleSwap.sol\":10309:10336  IERC20(tokenB).transferFrom */\n      0xffffffffffffffffffffffffffffffffffffffff\n      and\n      0x23b872dd\n        /* \"SimpleSwap.sol\":10337:10347  msg.sender */\n      caller\n        /* \"SimpleSwap.sol\":10357:10361  this */\n      address\n        /* \"SimpleSwap.sol\":10364:10372  amountIn */\n      dup12\n        /* \"SimpleSwap.sol\":10309:10373  IERC20(tokenB).transferFrom(msg.sender, address(this), amountIn) */\n      mload(0x40)\n      dup5\n      0xffffffff\n      and\n      0xe0\n      shl\n      dup2\n      mstore\n      0x04\n      add\n      tag_134\n      swap4\n      swap3\n      swap2\n      swap1\n      tag_111\n      jump\t// in\n    tag_134:\n      0x20\n      mload(0x40)\n      dup1\n      dup4\n      sub\n      dup2\n      0x00\n      dup8\n      gas\n      call\n      iszero\n      dup1\n      iszero\n      tag_136\n      jumpi\n      returndatacopy(0x00, 0x00, returndatasize)\n      revert(0x00, returndatasize)\n    tag_136:\n      pop\n      pop\n      pop\n      pop\n      mload(0x40)\n      returndatasize\n      not(0x1f)\n      0x1f\n      dup3\n      add\n      and\n      dup3\n      add\n      dup1\n      0x40\n      mstore\n      pop\n      dup2\n      add\n      swap1\n      tag_137\n      swap2\n      swap1\n      tag_115\n      jump\t// in\n    tag_137:\n      pop\n        /* \"SimpleSwap.sol\":10435:10443  amountIn */\n      dup8\n        /* \"SimpleSwap.sol\":10424:10432  reserveB */\n      sload(0x06)\n        /* \"SimpleSwap.sol\":10424:10443  reserveB + amountIn */\n      tag_138\n      swap2\n      swap1\n      tag_117\n      jump\t// in\n    tag_138:\n        /* \"SimpleSwap.sol\":10411:10419  reserveA */\n      sload(0x05)\n        /* \"SimpleSwap.sol\":10400:10408  amountIn */\n      dup10\n        /* \"SimpleSwap.sol\":10400:10419  amountIn * reserveA */\n      tag_139\n      swap2\n      swap1\n      tag_119\n      jump\t// in\n    tag_139:\n        /* \"SimpleSwap.sol\":10399:10444  (amountIn * reserveA) / (reserveB + amountIn) */\n      tag_140\n      swap2\n      swap1\n      tag_121\n      jump\t// in\n    tag_140:\n        /* \"SimpleSwap.sol\":10387:10444  amountOut = (amountIn * reserveA) / (reserveB + amountIn) */\n      swap1\n      pop\n        /* \"SimpleSwap.sol\":10479:10491  amountOutMin */\n      dup7\n        /* \"SimpleSwap.sol\":10466:10475  amountOut */\n      dup2\n        /* \"SimpleSwap.sol\":10466:10491  amountOut >= amountOutMin */\n      lt\n      iszero\n        /* \"SimpleSwap.sol\":10458:10517  require(amountOut >= amountOutMin, \"insuficient amountOut\") */\n      tag_141\n      jumpi\n      mload(0x40)\n      0x08c379a000000000000000000000000000000000000000000000000000000000\n      dup2\n      mstore\n      0x04\n      add\n      tag_142\n      swap1\n      tag_124\n      jump\t// in\n    tag_142:\n      mload(0x40)\n      dup1\n      swap2\n      sub\n      swap1\n      revert\n    tag_141:\n        /* \"SimpleSwap.sol\":10538:10544  tokenA */\n      0x03\n      0x01\n      swap1\n      sload\n      swap1\n      0x0100\n      exp\n      swap1\n      div\n      0xffffffffffffffffffffffffffffffffffffffff\n      and\n        /* \"SimpleSwap.sol\":10531:10554  IERC20(tokenA).transfer */\n      0xffffffffffffffffffffffffffffffffffffffff\n      and\n      0xa9059cbb\n        /* \"SimpleSwap.sol\":10555:10557  to */\n      dup6\n        /* \"SimpleSwap.sol\":10559:10568  amountOut */\n      dup4\n        /* \"SimpleSwap.sol\":10531:10569  IERC20(tokenA).transfer(to, amountOut) */\n      mload(0x40)\n      dup4\n      0xffffffff\n      and\n      0xe0\n      shl\n      dup2\n      mstore\n      0x04\n      add\n      tag_143\n      swap3\n      swap2\n      swap1\n      tag_126\n      jump\t// in\n    tag_143:\n      0x20\n      mload(0x40)\n      dup1\n      dup4\n      sub\n      dup2\n      0x00\n      dup8\n      gas\n      call\n      iszero\n      dup1\n      iszero\n      tag_145\n      jumpi\n      returndatacopy(0x00, 0x00, returndatasize)\n      revert(0x00, returndatasize)\n    tag_145:\n      pop\n      pop\n      pop\n      pop\n      mload(0x40)\n      returndatasize\n      not(0x1f)\n      0x1f\n      dup3\n      add\n      and\n      dup3\n      add\n      dup1\n      0x40\n      mstore\n      pop\n      dup2\n      add\n      swap1\n      tag_146\n      swap2\n      swap1\n      tag_115\n      jump\t// in\n    tag_146:\n      pop\n        /* \"SimpleSwap.sol\":10596:10604  amountIn */\n      dup8\n        /* \"SimpleSwap.sol\":10584:10592  reserveA */\n      0x05\n      0x00\n        /* \"SimpleSwap.sol\":10584:10604  reserveA += amountIn */\n      dup3\n      dup3\n      sload\n      tag_147\n      swap2\n      swap1\n      tag_117\n      jump\t// in\n    tag_147:\n      swap3\n      pop\n      pop\n      dup2\n      swap1\n      sstore\n      pop\n        /* \"SimpleSwap.sol\":10630:10639  amountOut */\n      dup1\n        /* \"SimpleSwap.sol\":10618:10626  reserveB */\n      0x06\n      0x00\n        /* \"SimpleSwap.sol\":10618:10639  reserveB -= amountOut */\n      dup3\n      dup3\n      sload\n      tag_148\n      swap2\n      swap1\n      tag_132\n      jump\t// in\n    tag_148:\n      swap3\n      pop\n      pop\n      dup2\n      swap1\n      sstore\n      pop\n        /* \"SimpleSwap.sol\":9898:10663  if (path[0] == tokenA) {... */\n    tag_133:\n        /* \"SimpleSwap.sol\":10702:10703  2 */\n      0x02\n        /* \"SimpleSwap.sol\":10691:10704  new uint[](2) */\n      0xffffffffffffffff\n      dup2\n      gt\n      iszero\n      tag_149\n      jumpi\n      tag_150\n      tag_151\n      jump\t// in\n    tag_150:\n    tag_149:\n      mload(0x40)\n      swap1\n      dup1\n      dup3\n      mstore\n      dup1\n      0x20\n      mul\n      0x20\n      add\n      dup3\n      add\n      0x40\n      mstore\n      dup1\n      iszero\n      tag_152\n      jumpi\n      dup2\n      0x20\n      add\n      0x20\n      dup3\n      mul\n      dup1\n      calldatasize\n      dup4\n      calldatacopy\n      dup1\n      dup3\n      add\n      swap2\n      pop\n      pop\n      swap1\n      pop\n    tag_152:\n      pop\n        /* \"SimpleSwap.sol\":10681:10704  amounts = new uint[](2) */\n      swap2\n      pop\n        /* \"SimpleSwap.sol\":10728:10736  amountIn */\n      dup8\n        /* \"SimpleSwap.sol\":10715:10722  amounts */\n      dup3\n        /* \"SimpleSwap.sol\":10723:10724  0 */\n      0x00\n        /* \"SimpleSwap.sol\":10715:10725  amounts[0] */\n      dup2\n      mload\n      dup2\n      lt\n      tag_153\n      jumpi\n      tag_154\n      tag_76\n      jump\t// in\n    tag_154:\n    tag_153:\n      0x20\n      mul\n      0x20\n      add\n      add\n        /* \"SimpleSwap.sol\":10715:10736  amounts[0] = amountIn */\n      dup2\n      dup2\n      mstore\n      pop\n      pop\n        /* \"SimpleSwap.sol\":10759:10768  amountOut */\n      dup1\n        /* \"SimpleSwap.sol\":10746:10753  amounts */\n      dup3\n        /* \"SimpleSwap.sol\":10754:10755  1 */\n      0x01\n        /* \"SimpleSwap.sol\":10746:10756  amounts[1] */\n      dup2\n      mload\n      dup2\n      lt\n      tag_155\n      jumpi\n      tag_156\n      tag_76\n      jump\t// in\n    tag_156:\n    tag_155:\n      0x20\n      mul\n      0x20\n      add\n      add\n        /* \"SimpleSwap.sol\":10746:10768  amounts[1] = amountOut */\n      dup2\n      dup2\n      mstore\n      pop\n      pop\n        /* \"SimpleSwap.sol\":10798:10808  msg.sender */\n      caller\n        /* \"SimpleSwap.sol\":10784:10848  TokensSwapped(msg.sender, path[0], amountIn, path[1], amountOut) */\n      0xffffffffffffffffffffffffffffffffffffffff\n      and\n      0x631fb37dba9bbcb8b2f3be2d669e365ae9f1bd850cc57dfe8b7ccd7d979a2bba\n        /* \"SimpleSwap.sol\":10810:10814  path */\n      dup8\n      dup8\n        /* \"SimpleSwap.sol\":10815:10816  0 */\n      0x00\n        /* \"SimpleSwap.sol\":10810:10817  path[0] */\n      dup2\n      dup2\n      lt\n      tag_157\n      jumpi\n      tag_158\n      tag_76\n      jump\t// in\n    tag_158:\n    tag_157:\n      swap1\n      pop\n      0x20\n      mul\n      add\n      0x20\n      dup2\n      add\n      swap1\n      tag_159\n      swap2\n      swap1\n      tag_78\n      jump\t// in\n    tag_159:\n        /* \"SimpleSwap.sol\":10819:10827  amountIn */\n      dup11\n        /* \"SimpleSwap.sol\":10829:10833  path */\n      dup10\n      dup10\n        /* \"SimpleSwap.sol\":10834:10835  1 */\n      0x01\n        /* \"SimpleSwap.sol\":10829:10836  path[1] */\n      dup2\n      dup2\n      lt\n      tag_160\n      jumpi\n      tag_161\n      tag_76\n      jump\t// in\n    tag_161:\n    tag_160:\n      swap1\n      pop\n      0x20\n      mul\n      add\n      0x20\n      dup2\n      add\n      swap1\n      tag_162\n      swap2\n      swap1\n      tag_78\n      jump\t// in\n    tag_162:\n        /* \"SimpleSwap.sol\":10838:10847  amountOut */\n      dup6\n        /* \"SimpleSwap.sol\":10784:10848  TokensSwapped(msg.sender, path[0], amountIn, path[1], amountOut) */\n      mload(0x40)\n      tag_163\n      swap5\n      swap4\n      swap3\n      swap2\n      swap1\n      tag_164\n      jump\t// in\n    tag_163:\n      mload(0x40)\n      dup1\n      swap2\n      sub\n      swap1\n      log2\n        /* \"SimpleSwap.sol\":10859:10873  return amounts */\n      pop\n        /* \"SimpleSwap.sol\":9356:10882  function swapExactTokensForTokens(uint amountIn, uint amountOutMin, address[] calldata path, address to, uint deadline) external returns (uint[] memory amounts) {... */\n      swap7\n      swap6\n      pop\n      pop\n      pop\n      pop\n      pop\n      pop\n      jump\t// out\n        /* \"SimpleSwap.sol\":1021:1042  address public tokenB */\n    tag_38:\n      0x04\n      0x00\n      swap1\n      sload\n      swap1\n      0x0100\n      exp\n      swap1\n      div\n      0xffffffffffffffffffffffffffffffffffffffff\n      and\n      dup2\n      jump\t// out\n        /* \"SimpleSwap.sol\":632:652  address public owner */\n    tag_41:\n      0x00\n      0x00\n      swap1\n      sload\n      swap1\n      0x0100\n      exp\n      swap1\n      div\n      0xffffffffffffffffffffffffffffffffffffffff\n      and\n      dup2\n      jump\t// out\n        /* \"SimpleSwap.sol\":3570:3657  function symbol() external view returns (string memory) {... */\n    tag_44:\n        /* \"SimpleSwap.sol\":3611:3624  string memory */\n      0x60\n        /* \"SimpleSwap.sol\":3643:3650  _symbol */\n      0x02\n        /* \"SimpleSwap.sol\":3636:3650  return _symbol */\n      dup1\n      sload\n      tag_166\n      swap1\n      tag_63\n      jump\t// in\n    tag_166:\n      dup1\n      0x1f\n      add\n      0x20\n      dup1\n      swap2\n      div\n      mul\n      0x20\n      add\n      mload(0x40)\n      swap1\n      dup2\n      add\n      0x40\n      mstore\n      dup1\n      swap3\n      swap2\n      swap1\n      dup2\n      dup2\n      mstore\n      0x20\n      add\n      dup3\n      dup1\n      sload\n      tag_167\n      swap1\n      tag_63\n      jump\t// in\n    tag_167:\n      dup1\n      iszero\n      tag_168\n      jumpi\n      dup1\n      0x1f\n      lt\n      tag_169\n      jumpi\n      0x0100\n      dup1\n      dup4\n      sload\n      div\n      mul\n      dup4\n      mstore\n      swap2\n      0x20\n      add\n      swap2\n      jump(tag_168)\n    tag_169:\n      dup3\n      add\n      swap2\n      swap1\n      0x00\n      mstore\n      keccak256(0x00, 0x20)\n      swap1\n    tag_170:\n      dup2\n      sload\n      dup2\n      mstore\n      swap1\n      0x01\n      add\n      swap1\n      0x20\n      add\n      dup1\n      dup4\n      gt\n      tag_170\n      jumpi\n      dup3\n      swap1\n      sub\n      0x1f\n      and\n      dup3\n      add\n      swap2\n    tag_168:\n      pop\n      pop\n      pop\n      pop\n      pop\n      swap1\n      pop\n        /* \"SimpleSwap.sol\":3570:3657  function symbol() external view returns (string memory) {... */\n      swap1\n      jump\t// out\n        /* \"SimpleSwap.sol\":7648:8931  function removeLiquidity (address tokenA_, address tokenB_, uint liquidity, uint amountAMin, uint amountBMin, address to, uint deadline) external returns (uint amountA, uint amountB) {... */\n    tag_49:\n        /* \"SimpleSwap.sol\":7803:7815  uint amountA */\n      0x00\n        /* \"SimpleSwap.sol\":7817:7829  uint amountB */\n      0x00\n        /* \"SimpleSwap.sol\":7861:7876  block.timestamp */\n      timestamp\n        /* \"SimpleSwap.sol\":7850:7858  deadline */\n      dup4\n        /* \"SimpleSwap.sol\":7850:7876  deadline > block.timestamp */\n      gt\n        /* \"SimpleSwap.sol\":7842:7900  require(deadline > block.timestamp, \"Transaction expired\") */\n      tag_172\n      jumpi\n      mload(0x40)\n      0x08c379a000000000000000000000000000000000000000000000000000000000\n      dup2\n      mstore\n      0x04\n      add\n      tag_173\n      swap1\n      tag_72\n      jump\t// in\n    tag_173:\n      mload(0x40)\n      dup1\n      swap2\n      sub\n      swap1\n      revert\n    tag_172:\n        /* \"SimpleSwap.sol\":7929:7935  tokenA */\n      0x03\n      0x01\n      swap1\n      sload\n      swap1\n      0x0100\n      exp\n      swap1\n      div\n      0xffffffffffffffffffffffffffffffffffffffff\n      and\n        /* \"SimpleSwap.sol\":7918:7935  tokenA_ == tokenA */\n      0xffffffffffffffffffffffffffffffffffffffff\n      and\n        /* \"SimpleSwap.sol\":7918:7925  tokenA_ */\n      dup10\n        /* \"SimpleSwap.sol\":7918:7935  tokenA_ == tokenA */\n      0xffffffffffffffffffffffffffffffffffffffff\n      and\n      eq\n        /* \"SimpleSwap.sol\":7918:7956  tokenA_ == tokenA && tokenB_ == tokenB */\n      dup1\n      iszero\n      tag_174\n      jumpi\n      pop\n        /* \"SimpleSwap.sol\":7950:7956  tokenB */\n      0x04\n      0x00\n      swap1\n      sload\n      swap1\n      0x0100\n      exp\n      swap1\n      div\n      0xffffffffffffffffffffffffffffffffffffffff\n      and\n        /* \"SimpleSwap.sol\":7939:7956  tokenB_ == tokenB */\n      0xffffffffffffffffffffffffffffffffffffffff\n      and\n        /* \"SimpleSwap.sol\":7939:7946  tokenB_ */\n      dup9\n        /* \"SimpleSwap.sol\":7939:7956  tokenB_ == tokenB */\n      0xffffffffffffffffffffffffffffffffffffffff\n      and\n      eq\n        /* \"SimpleSwap.sol\":7918:7956  tokenA_ == tokenA && tokenB_ == tokenB */\n    tag_174:\n        /* \"SimpleSwap.sol\":7910:7979  require(tokenA_ == tokenA && tokenB_ == tokenB, \"Invalid token pair\") */\n      tag_175\n      jumpi\n      mload(0x40)\n      0x08c379a000000000000000000000000000000000000000000000000000000000\n      dup2\n      mstore\n      0x04\n      add\n      tag_176\n      swap1\n      tag_177\n      jump\t// in\n    tag_176:\n      mload(0x40)\n      dup1\n      swap2\n      sub\n      swap1\n      revert\n    tag_175:\n        /* \"SimpleSwap.sol\":8088:8100  _totalSupply */\n      sload(0x07)\n        /* \"SimpleSwap.sol\":8076:8084  reserveA */\n      sload(0x05)\n        /* \"SimpleSwap.sol\":8064:8073  liquidity */\n      dup9\n        /* \"SimpleSwap.sol\":8064:8084  liquidity * reserveA */\n      tag_178\n      swap2\n      swap1\n      tag_119\n      jump\t// in\n    tag_178:\n        /* \"SimpleSwap.sol\":8063:8100  (liquidity * reserveA) / _totalSupply */\n      tag_179\n      swap2\n      swap1\n      tag_121\n      jump\t// in\n    tag_179:\n        /* \"SimpleSwap.sol\":8053:8100  amountA = (liquidity * reserveA) / _totalSupply */\n      swap2\n      pop\n        /* \"SimpleSwap.sol\":8145:8157  _totalSupply */\n      sload(0x07)\n        /* \"SimpleSwap.sol\":8133:8141  reserveB */\n      sload(0x06)\n        /* \"SimpleSwap.sol\":8121:8130  liquidity */\n      dup9\n        /* \"SimpleSwap.sol\":8121:8141  liquidity * reserveB */\n      tag_180\n      swap2\n      swap1\n      tag_119\n      jump\t// in\n    tag_180:\n        /* \"SimpleSwap.sol\":8120:8157  (liquidity * reserveB) / _totalSupply */\n      tag_181\n      swap2\n      swap1\n      tag_121\n      jump\t// in\n    tag_181:\n        /* \"SimpleSwap.sol\":8110:8157  amountB = (liquidity * reserveB) / _totalSupply */\n      swap1\n      pop\n        /* \"SimpleSwap.sol\":8187:8197  amountAMin */\n      dup6\n        /* \"SimpleSwap.sol\":8176:8183  amountA */\n      dup3\n        /* \"SimpleSwap.sol\":8176:8197  amountA >= amountAMin */\n      lt\n      iszero\n        /* \"SimpleSwap.sol\":8168:8223  require(amountA >= amountAMin, \"amountA below minimum\") */\n      tag_182\n      jumpi\n      mload(0x40)\n      0x08c379a000000000000000000000000000000000000000000000000000000000\n      dup2\n      mstore\n      0x04\n      add\n      tag_183\n      swap1\n      tag_184\n      jump\t// in\n    tag_183:\n      mload(0x40)\n      dup1\n      swap2\n      sub\n      swap1\n      revert\n    tag_182:\n        /* \"SimpleSwap.sol\":8252:8262  amountBMin */\n      dup5\n        /* \"SimpleSwap.sol\":8241:8248  amountB */\n      dup2\n        /* \"SimpleSwap.sol\":8241:8262  amountB >= amountBMin */\n      lt\n      iszero\n        /* \"SimpleSwap.sol\":8233:8288  require(amountB >= amountBMin, \"amountB below minimum\") */\n      tag_185\n      jumpi\n      mload(0x40)\n      0x08c379a000000000000000000000000000000000000000000000000000000000\n      dup2\n      mstore\n      0x04\n      add\n      tag_186\n      swap1\n      tag_187\n      jump\t// in\n    tag_186:\n      mload(0x40)\n      dup1\n      swap2\n      sub\n      swap1\n      revert\n    tag_185:\n        /* \"SimpleSwap.sol\":8332:8341  liquidity */\n      dup7\n        /* \"SimpleSwap.sol\":8306:8316  _balanceOf */\n      0x08\n        /* \"SimpleSwap.sol\":8306:8328  _balanceOf[msg.sender] */\n      0x00\n        /* \"SimpleSwap.sol\":8317:8327  msg.sender */\n      caller\n        /* \"SimpleSwap.sol\":8306:8328  _balanceOf[msg.sender] */\n      0xffffffffffffffffffffffffffffffffffffffff\n      and\n      0xffffffffffffffffffffffffffffffffffffffff\n      and\n      dup2\n      mstore\n      0x20\n      add\n      swap1\n      dup2\n      mstore\n      0x20\n      add\n      0x00\n      keccak256\n      sload\n        /* \"SimpleSwap.sol\":8306:8341  _balanceOf[msg.sender] >= liquidity */\n      lt\n      iszero\n        /* \"SimpleSwap.sol\":8298:8369  require(_balanceOf[msg.sender] >= liquidity, \"Insufficient LP balance\") */\n      tag_188\n      jumpi\n      mload(0x40)\n      0x08c379a000000000000000000000000000000000000000000000000000000000\n      dup2\n      mstore\n      0x04\n      add\n      tag_189\n      swap1\n      tag_190\n      jump\t// in\n    tag_189:\n      mload(0x40)\n      dup1\n      swap2\n      sub\n      swap1\n      revert\n    tag_188:\n        /* \"SimpleSwap.sol\":8399:8406  amountA */\n      dup2\n        /* \"SimpleSwap.sol\":8387:8395  reserveA */\n      sload(0x05)\n        /* \"SimpleSwap.sol\":8387:8406  reserveA >= amountA */\n      lt\n      iszero\n        /* \"SimpleSwap.sol\":8387:8429  reserveA >= amountA && reserveB >= amountB */\n      dup1\n      iszero\n      tag_191\n      jumpi\n      pop\n        /* \"SimpleSwap.sol\":8422:8429  amountB */\n      dup1\n        /* \"SimpleSwap.sol\":8410:8418  reserveB */\n      sload(0x06)\n        /* \"SimpleSwap.sol\":8410:8429  reserveB >= amountB */\n      lt\n      iszero\n        /* \"SimpleSwap.sol\":8387:8429  reserveA >= amountA && reserveB >= amountB */\n    tag_191:\n        /* \"SimpleSwap.sol\":8379:8455  require(reserveA >= amountA && reserveB >= amountB, \"Insufficient reserves\") */\n      tag_192\n      jumpi\n      mload(0x40)\n      0x08c379a000000000000000000000000000000000000000000000000000000000\n      dup2\n      mstore\n      0x04\n      add\n      tag_193\n      swap1\n      tag_194\n      jump\t// in\n    tag_193:\n      mload(0x40)\n      dup1\n      swap2\n      sub\n      swap1\n      revert\n    tag_192:\n        /* \"SimpleSwap.sol\":8565:8574  liquidity */\n      dup7\n        /* \"SimpleSwap.sol\":8540:8550  _balanceOf */\n      0x08\n        /* \"SimpleSwap.sol\":8540:8562  _balanceOf[msg.sender] */\n      0x00\n        /* \"SimpleSwap.sol\":8551:8561  msg.sender */\n      caller\n        /* \"SimpleSwap.sol\":8540:8562  _balanceOf[msg.sender] */\n      0xffffffffffffffffffffffffffffffffffffffff\n      and\n      0xffffffffffffffffffffffffffffffffffffffff\n      and\n      dup2\n      mstore\n      0x20\n      add\n      swap1\n      dup2\n      mstore\n      0x20\n      add\n      0x00\n      keccak256\n      0x00\n        /* \"SimpleSwap.sol\":8540:8574  _balanceOf[msg.sender] -=liquidity */\n      dup3\n      dup3\n      sload\n      tag_195\n      swap2\n      swap1\n      tag_132\n      jump\t// in\n    tag_195:\n      swap3\n      pop\n      pop\n      dup2\n      swap1\n      sstore\n      pop\n        /* \"SimpleSwap.sol\":8599:8608  liquidity */\n      dup7\n        /* \"SimpleSwap.sol\":8584:8596  _totalSupply */\n      0x07\n      0x00\n        /* \"SimpleSwap.sol\":8584:8608  _totalSupply -=liquidity */\n      dup3\n      dup3\n      sload\n      tag_196\n      swap2\n      swap1\n      tag_132\n      jump\t// in\n    tag_196:\n      swap3\n      pop\n      pop\n      dup2\n      swap1\n      sstore\n      pop\n        /* \"SimpleSwap.sol\":8666:8672  tokenA */\n      0x03\n      0x01\n      swap1\n      sload\n      swap1\n      0x0100\n      exp\n      swap1\n      div\n      0xffffffffffffffffffffffffffffffffffffffff\n      and\n        /* \"SimpleSwap.sol\":8659:8682  IERC20(tokenA).transfer */\n      0xffffffffffffffffffffffffffffffffffffffff\n      and\n      0xa9059cbb\n        /* \"SimpleSwap.sol\":8683:8685  to */\n      dup6\n        /* \"SimpleSwap.sol\":8687:8694  amountA */\n      dup5\n        /* \"SimpleSwap.sol\":8659:8695  IERC20(tokenA).transfer(to, amountA) */\n      mload(0x40)\n      dup4\n      0xffffffff\n      and\n      0xe0\n      shl\n      dup2\n      mstore\n      0x04\n      add\n      tag_197\n      swap3\n      swap2\n      swap1\n      tag_126\n      jump\t// in\n    tag_197:\n      0x20\n      mload(0x40)\n      dup1\n      dup4\n      sub\n      dup2\n      0x00\n      dup8\n      gas\n      call\n      iszero\n      dup1\n      iszero\n      tag_199\n      jumpi\n      returndatacopy(0x00, 0x00, returndatasize)\n      revert(0x00, returndatasize)\n    tag_199:\n      pop\n      pop\n      pop\n      pop\n      mload(0x40)\n      returndatasize\n      not(0x1f)\n      0x1f\n      dup3\n      add\n      and\n      dup3\n      add\n      dup1\n      0x40\n      mstore\n      pop\n      dup2\n      add\n      swap1\n      tag_200\n      swap2\n      swap1\n      tag_115\n      jump\t// in\n    tag_200:\n      pop\n        /* \"SimpleSwap.sol\":8712:8718  tokenB */\n      0x04\n      0x00\n      swap1\n      sload\n      swap1\n      0x0100\n      exp\n      swap1\n      div\n      0xffffffffffffffffffffffffffffffffffffffff\n      and\n        /* \"SimpleSwap.sol\":8705:8728  IERC20(tokenB).transfer */\n      0xffffffffffffffffffffffffffffffffffffffff\n      and\n      0xa9059cbb\n        /* \"SimpleSwap.sol\":8729:8731  to */\n      dup6\n        /* \"SimpleSwap.sol\":8733:8740  amountB */\n      dup4\n        /* \"SimpleSwap.sol\":8705:8741  IERC20(tokenB).transfer(to, amountB) */\n      mload(0x40)\n      dup4\n      0xffffffff\n      and\n      0xe0\n      shl\n      dup2\n      mstore\n      0x04\n      add\n      tag_201\n      swap3\n      swap2\n      swap1\n      tag_126\n      jump\t// in\n    tag_201:\n      0x20\n      mload(0x40)\n      dup1\n      dup4\n      sub\n      dup2\n      0x00\n      dup8\n      gas\n      call\n      iszero\n      dup1\n      iszero\n      tag_203\n      jumpi\n      returndatacopy(0x00, 0x00, returndatasize)\n      revert(0x00, returndatasize)\n    tag_203:\n      pop\n      pop\n      pop\n      pop\n      mload(0x40)\n      returndatasize\n      not(0x1f)\n      0x1f\n      dup3\n      add\n      and\n      dup3\n      add\n      dup1\n      0x40\n      mstore\n      pop\n      dup2\n      add\n      swap1\n      tag_204\n      swap2\n      swap1\n      tag_115\n      jump\t// in\n    tag_204:\n      pop\n        /* \"SimpleSwap.sol\":8780:8787  amountA */\n      dup2\n        /* \"SimpleSwap.sol\":8768:8776  reserveA */\n      0x05\n      0x00\n        /* \"SimpleSwap.sol\":8768:8787  reserveA -= amountA */\n      dup3\n      dup3\n      sload\n      tag_205\n      swap2\n      swap1\n      tag_132\n      jump\t// in\n    tag_205:\n      swap3\n      pop\n      pop\n      dup2\n      swap1\n      sstore\n      pop\n        /* \"SimpleSwap.sol\":8809:8816  amountB */\n      dup1\n        /* \"SimpleSwap.sol\":8797:8805  reserveB */\n      0x06\n      0x00\n        /* \"SimpleSwap.sol\":8797:8816  reserveB -= amountB */\n      dup3\n      dup3\n      sload\n      tag_206\n      swap2\n      swap1\n      tag_132\n      jump\t// in\n    tag_206:\n      swap3\n      pop\n      pop\n      dup2\n      swap1\n      sstore\n      pop\n        /* \"SimpleSwap.sol\":8848:8858  msg.sender */\n      caller\n        /* \"SimpleSwap.sol\":8831:8888  LiquidityRemoved(msg.sender, amountA, amountB, liquidity) */\n      0xffffffffffffffffffffffffffffffffffffffff\n      and\n      0x1dc8bb69df2b8e91fbdcbfcf93d951b3f0000f085a95fe3f7946d6161439245d\n        /* \"SimpleSwap.sol\":8860:8867  amountA */\n      dup4\n        /* \"SimpleSwap.sol\":8869:8876  amountB */\n      dup4\n        /* \"SimpleSwap.sol\":8878:8887  liquidity */\n      dup11\n        /* \"SimpleSwap.sol\":8831:8888  LiquidityRemoved(msg.sender, amountA, amountB, liquidity) */\n      mload(0x40)\n      tag_207\n      swap4\n      swap3\n      swap2\n      swap1\n      tag_60\n      jump\t// in\n    tag_207:\n      mload(0x40)\n      dup1\n      swap2\n      sub\n      swap1\n      log2\n        /* \"SimpleSwap.sol\":7648:8931  function removeLiquidity (address tokenA_, address tokenB_, uint liquidity, uint amountAMin, uint amountBMin, address to, uint deadline) external returns (uint amountA, uint amountB) {... */\n      swap8\n      pop\n      swap8\n      swap6\n      pop\n      pop\n      pop\n      pop\n      pop\n      pop\n      jump\t// out\n        /* \"SimpleSwap.sol\":1109:1132  uint256 public reserveA */\n    tag_53:\n      sload(0x05)\n      dup2\n      jump\t// out\n        /* \"SimpleSwap.sol\":4459:7112  function addLiquidity(address tokenA_, address tokenB_, uint amountADesired, uint amountBDesired, uint amountAMin, uint amountBMin, address to, uint deadline) external returns (uint amountA, uint amountB, uint liquidity) {... */\n    tag_58:\n        /* \"SimpleSwap.sol\":4636:4648  uint amountA */\n      0x00\n        /* \"SimpleSwap.sol\":4650:4662  uint amountB */\n      0x00\n        /* \"SimpleSwap.sol\":4664:4678  uint liquidity */\n      0x00\n        /* \"SimpleSwap.sol\":4708:4709  0 */\n      0x00\n        /* \"SimpleSwap.sol\":4696:4704  reserveA */\n      sload(0x05)\n        /* \"SimpleSwap.sol\":4696:4709  reserveA == 0 */\n      eq\n        /* \"SimpleSwap.sol\":4696:4726  reserveA == 0 && reserveB == 0 */\n      dup1\n      iszero\n      tag_209\n      jumpi\n      pop\n        /* \"SimpleSwap.sol\":4725:4726  0 */\n      0x00\n        /* \"SimpleSwap.sol\":4713:4721  reserveB */\n      sload(0x06)\n        /* \"SimpleSwap.sol\":4713:4726  reserveB == 0 */\n      eq\n        /* \"SimpleSwap.sol\":4696:4726  reserveA == 0 && reserveB == 0 */\n    tag_209:\n        /* \"SimpleSwap.sol\":4692:7104  if (reserveA == 0 && reserveB == 0) {... */\n      iszero\n      tag_210\n      jumpi\n        /* \"SimpleSwap.sol\":4810:4815  owner */\n      0x00\n      0x00\n      swap1\n      sload\n      swap1\n      0x0100\n      exp\n      swap1\n      div\n      0xffffffffffffffffffffffffffffffffffffffff\n      and\n        /* \"SimpleSwap.sol\":4796:4815  msg.sender == owner */\n      0xffffffffffffffffffffffffffffffffffffffff\n      and\n        /* \"SimpleSwap.sol\":4796:4806  msg.sender */\n      caller\n        /* \"SimpleSwap.sol\":4796:4815  msg.sender == owner */\n      0xffffffffffffffffffffffffffffffffffffffff\n      and\n      eq\n        /* \"SimpleSwap.sol\":4788:4845  require(msg.sender == owner, \"Only owner can initialize\") */\n      tag_211\n      jumpi\n      mload(0x40)\n      0x08c379a000000000000000000000000000000000000000000000000000000000\n      dup2\n      mstore\n      0x04\n      add\n      tag_212\n      swap1\n      tag_213\n      jump\t// in\n    tag_212:\n      mload(0x40)\n      dup1\n      swap2\n      sub\n      swap1\n      revert\n    tag_211:\n        /* \"SimpleSwap.sol\":4869:4874  owner */\n      0x00\n      0x00\n      swap1\n      sload\n      swap1\n      0x0100\n      exp\n      swap1\n      div\n      0xffffffffffffffffffffffffffffffffffffffff\n      and\n        /* \"SimpleSwap.sol\":4863:4874  to == owner */\n      0xffffffffffffffffffffffffffffffffffffffff\n      and\n        /* \"SimpleSwap.sol\":4863:4865  to */\n      dup6\n        /* \"SimpleSwap.sol\":4863:4874  to == owner */\n      0xffffffffffffffffffffffffffffffffffffffff\n      and\n      eq\n        /* \"SimpleSwap.sol\":4855:4915  require(to == owner, \"Initial LP must be assigned to owner\") */\n      tag_214\n      jumpi\n      mload(0x40)\n      0x08c379a000000000000000000000000000000000000000000000000000000000\n      dup2\n      mstore\n      0x04\n      add\n      tag_215\n      swap1\n      tag_216\n      jump\t// in\n    tag_215:\n      mload(0x40)\n      dup1\n      swap2\n      sub\n      swap1\n      revert\n    tag_214:\n        /* \"SimpleSwap.sol\":4991:4997  tokenA */\n      0x03\n      0x01\n      swap1\n      sload\n      swap1\n      0x0100\n      exp\n      swap1\n      pop\n      pop\n        /* \"SimpleSwap.sol\":4999:5005  tokenB */\n      0x04\n      0x00\n      swap1\n      sload\n      swap1\n      0x0100\n      exp\n      swap1\n      pop\n      pop\n        /* \"SimpleSwap.sol\":5144:5155  1000 * 1e18 */\n      0x3635c9adc5dea00000\n        /* \"SimpleSwap.sol\":5134:5155  amountA = 1000 * 1e18 */\n      swap3\n      pop\n        /* \"SimpleSwap.sol\":5175:5186  1000 * 1e18 */\n      0x3635c9adc5dea00000\n        /* \"SimpleSwap.sol\":5165:5186  amountB = 1000 * 1e18 */\n      swap2\n      pop\n        /* \"SimpleSwap.sol\":5208:5219  1000 * 1e18 */\n      0x3635c9adc5dea00000\n        /* \"SimpleSwap.sol\":5196:5219  liquidity = 1000 * 1e18 */\n      swap1\n      pop\n        /* \"SimpleSwap.sol\":5258:5264  tokenA */\n      0x03\n      0x01\n      swap1\n      sload\n      swap1\n      0x0100\n      exp\n      swap1\n      div\n      0xffffffffffffffffffffffffffffffffffffffff\n      and\n        /* \"SimpleSwap.sol\":5251:5278  IERC20(tokenA).transferFrom */\n      0xffffffffffffffffffffffffffffffffffffffff\n      and\n      0x23b872dd\n        /* \"SimpleSwap.sol\":5279:5284  owner */\n      0x00\n      0x00\n      swap1\n      sload\n      swap1\n      0x0100\n      exp\n      swap1\n      div\n      0xffffffffffffffffffffffffffffffffffffffff\n      and\n        /* \"SimpleSwap.sol\":5294:5298  this */\n      address\n        /* \"SimpleSwap.sol\":5301:5308  amountA */\n      dup7\n        /* \"SimpleSwap.sol\":5251:5309  IERC20(tokenA).transferFrom(owner, address(this), amountA) */\n      mload(0x40)\n      dup5\n      0xffffffff\n      and\n      0xe0\n      shl\n      dup2\n      mstore\n      0x04\n      add\n      tag_217\n      swap4\n      swap3\n      swap2\n      swap1\n      tag_111\n      jump\t// in\n    tag_217:\n      0x20\n      mload(0x40)\n      dup1\n      dup4\n      sub\n      dup2\n      0x00\n      dup8\n      gas\n      call\n      iszero\n      dup1\n      iszero\n      tag_219\n      jumpi\n      returndatacopy(0x00, 0x00, returndatasize)\n      revert(0x00, returndatasize)\n    tag_219:\n      pop\n      pop\n      pop\n      pop\n      mload(0x40)\n      returndatasize\n      not(0x1f)\n      0x1f\n      dup3\n      add\n      and\n      dup3\n      add\n      dup1\n      0x40\n      mstore\n      pop\n      dup2\n      add\n      swap1\n      tag_220\n      swap2\n      swap1\n      tag_115\n      jump\t// in\n    tag_220:\n      pop\n        /* \"SimpleSwap.sol\":5326:5332  tokenB */\n      0x04\n      0x00\n      swap1\n      sload\n      swap1\n      0x0100\n      exp\n      swap1\n      div\n      0xffffffffffffffffffffffffffffffffffffffff\n      and\n        /* \"SimpleSwap.sol\":5319:5346  IERC20(tokenB).transferFrom */\n      0xffffffffffffffffffffffffffffffffffffffff\n      and\n      0x23b872dd\n        /* \"SimpleSwap.sol\":5347:5352  owner */\n      0x00\n      0x00\n      swap1\n      sload\n      swap1\n      0x0100\n      exp\n      swap1\n      div\n      0xffffffffffffffffffffffffffffffffffffffff\n      and\n        /* \"SimpleSwap.sol\":5362:5366  this */\n      address\n        /* \"SimpleSwap.sol\":5369:5376  amountB */\n      dup6\n        /* \"SimpleSwap.sol\":5319:5377  IERC20(tokenB).transferFrom(owner, address(this), amountB) */\n      mload(0x40)\n      dup5\n      0xffffffff\n      and\n      0xe0\n      shl\n      dup2\n      mstore\n      0x04\n      add\n      tag_221\n      swap4\n      swap3\n      swap2\n      swap1\n      tag_111\n      jump\t// in\n    tag_221:\n      0x20\n      mload(0x40)\n      dup1\n      dup4\n      sub\n      dup2\n      0x00\n      dup8\n      gas\n      call\n      iszero\n      dup1\n      iszero\n      tag_223\n      jumpi\n      returndatacopy(0x00, 0x00, returndatasize)\n      revert(0x00, returndatasize)\n    tag_223:\n      pop\n      pop\n      pop\n      pop\n      mload(0x40)\n      returndatasize\n      not(0x1f)\n      0x1f\n      dup3\n      add\n      and\n      dup3\n      add\n      dup1\n      0x40\n      mstore\n      pop\n      dup2\n      add\n      swap1\n      tag_224\n      swap2\n      swap1\n      tag_115\n      jump\t// in\n    tag_224:\n      pop\n        /* \"SimpleSwap.sol\":5416:5423  amountA */\n      dup3\n        /* \"SimpleSwap.sol\":5405:5413  reserveA */\n      0x05\n        /* \"SimpleSwap.sol\":5405:5423  reserveA = amountA */\n      dup2\n      swap1\n      sstore\n      pop\n        /* \"SimpleSwap.sol\":5444:5451  amountB */\n      dup2\n        /* \"SimpleSwap.sol\":5433:5441  reserveB */\n      0x06\n        /* \"SimpleSwap.sol\":5433:5451  reserveB = amountB */\n      dup2\n      swap1\n      sstore\n      pop\n        /* \"SimpleSwap.sol\":5476:5485  liquidity */\n      dup1\n        /* \"SimpleSwap.sol\":5461:5473  _totalSupply */\n      0x07\n        /* \"SimpleSwap.sol\":5461:5485  _totalSupply = liquidity */\n      dup2\n      swap1\n      sstore\n      pop\n        /* \"SimpleSwap.sol\":5512:5521  liquidity */\n      dup1\n        /* \"SimpleSwap.sol\":5495:5505  _balanceOf */\n      0x08\n        /* \"SimpleSwap.sol\":5495:5509  _balanceOf[to] */\n      0x00\n        /* \"SimpleSwap.sol\":5506:5508  to */\n      dup8\n        /* \"SimpleSwap.sol\":5495:5509  _balanceOf[to] */\n      0xffffffffffffffffffffffffffffffffffffffff\n      and\n      0xffffffffffffffffffffffffffffffffffffffff\n      and\n      dup2\n      mstore\n      0x20\n      add\n      swap1\n      dup2\n      mstore\n      0x20\n      add\n      0x00\n      keccak256\n        /* \"SimpleSwap.sol\":5495:5521  _balanceOf[to] = liquidity */\n      dup2\n      swap1\n      sstore\n      pop\n        /* \"SimpleSwap.sol\":5559:5564  owner */\n      0x00\n      0x00\n      swap1\n      sload\n      swap1\n      0x0100\n      exp\n      swap1\n      div\n      0xffffffffffffffffffffffffffffffffffffffff\n      and\n        /* \"SimpleSwap.sol\":5537:5594  InitialLiquidityAdded(owner, amountA, amountB, liquidity) */\n      0xffffffffffffffffffffffffffffffffffffffff\n      and\n      0xb74e6471b3628e5564a820a208c77a7cdc392155b3b943031f2926e8347a65ec\n        /* \"SimpleSwap.sol\":5566:5573  amountA */\n      dup5\n        /* \"SimpleSwap.sol\":5575:5582  amountB */\n      dup5\n        /* \"SimpleSwap.sol\":5584:5593  liquidity */\n      dup5\n        /* \"SimpleSwap.sol\":5537:5594  InitialLiquidityAdded(owner, amountA, amountB, liquidity) */\n      mload(0x40)\n      tag_225\n      swap4\n      swap3\n      swap2\n      swap1\n      tag_60\n      jump\t// in\n    tag_225:\n      mload(0x40)\n      dup1\n      swap2\n      sub\n      swap1\n      log2\n        /* \"SimpleSwap.sol\":5613:5649  return (amountA, amountB, liquidity) */\n      jump(tag_208)\n        /* \"SimpleSwap.sol\":4692:7104  if (reserveA == 0 && reserveB == 0) {... */\n    tag_210:\n        /* \"SimpleSwap.sol\":5701:5716  block.timestamp */\n      timestamp\n        /* \"SimpleSwap.sol\":5690:5698  deadline */\n      dup5\n        /* \"SimpleSwap.sol\":5690:5716  deadline > block.timestamp */\n      gt\n        /* \"SimpleSwap.sol\":5682:5740  require(deadline > block.timestamp, \"Transaction expired\") */\n      tag_227\n      jumpi\n      mload(0x40)\n      0x08c379a000000000000000000000000000000000000000000000000000000000\n      dup2\n      mstore\n      0x04\n      add\n      tag_228\n      swap1\n      tag_72\n      jump\t// in\n    tag_228:\n      mload(0x40)\n      dup1\n      swap2\n      sub\n      swap1\n      revert\n    tag_227:\n        /* \"SimpleSwap.sol\":5791:5808  uint256 _reserveA */\n      0x00\n        /* \"SimpleSwap.sol\":5811:5819  reserveA */\n      sload(0x05)\n        /* \"SimpleSwap.sol\":5791:5819  uint256 _reserveA = reserveA */\n      swap1\n      pop\n        /* \"SimpleSwap.sol\":5829:5846  uint256 _reserveB */\n      0x00\n        /* \"SimpleSwap.sol\":5849:5857  reserveB */\n      sload(0x06)\n        /* \"SimpleSwap.sol\":5829:5857  uint256 _reserveB = reserveB */\n      swap1\n      pop\n        /* \"SimpleSwap.sol\":5953:5975  uint256 amountBOptimal */\n      0x00\n        /* \"SimpleSwap.sol\":6009:6018  _reserveA */\n      dup3\n        /* \"SimpleSwap.sol\":5996:6005  _reserveB */\n      dup3\n        /* \"SimpleSwap.sol\":5979:5993  amountADesired */\n      dup14\n        /* \"SimpleSwap.sol\":5979:6005  amountADesired * _reserveB */\n      tag_229\n      swap2\n      swap1\n      tag_119\n      jump\t// in\n    tag_229:\n        /* \"SimpleSwap.sol\":5978:6018  (amountADesired * _reserveB) / _reserveA */\n      tag_230\n      swap2\n      swap1\n      tag_121\n      jump\t// in\n    tag_230:\n        /* \"SimpleSwap.sol\":5953:6018  uint256 amountBOptimal = (amountADesired * _reserveB) / _reserveA */\n      swap1\n      pop\n        /* \"SimpleSwap.sol\":6059:6073  amountBDesired */\n      dup11\n        /* \"SimpleSwap.sol\":6041:6055  amountBOptimal */\n      dup2\n        /* \"SimpleSwap.sol\":6041:6073  amountBOptimal <= amountBDesired */\n      gt\n        /* \"SimpleSwap.sol\":6037:6467  if (amountBOptimal <= amountBDesired) {... */\n      tag_231\n      jumpi\n        /* \"SimpleSwap.sol\":6107:6117  amountBMin */\n      dup9\n        /* \"SimpleSwap.sol\":6089:6103  amountBOptimal */\n      dup2\n        /* \"SimpleSwap.sol\":6089:6117  amountBOptimal >= amountBMin */\n      lt\n      iszero\n        /* \"SimpleSwap.sol\":6081:6136  require(amountBOptimal >= amountBMin, \"insufficient B\") */\n      tag_232\n      jumpi\n      mload(0x40)\n      0x08c379a000000000000000000000000000000000000000000000000000000000\n      dup2\n      mstore\n      0x04\n      add\n      tag_233\n      swap1\n      tag_234\n      jump\t// in\n    tag_233:\n      mload(0x40)\n      dup1\n      swap2\n      sub\n      swap1\n      revert\n    tag_232:\n        /* \"SimpleSwap.sol\":6152:6166  amountADesired */\n      dup12\n        /* \"SimpleSwap.sol\":6142:6166  amountA = amountADesired */\n      swap6\n      pop\n        /* \"SimpleSwap.sol\":6182:6196  amountBOptimal */\n      dup1\n        /* \"SimpleSwap.sol\":6172:6196  amountB = amountBOptimal */\n      swap5\n      pop\n        /* \"SimpleSwap.sol\":6037:6467  if (amountBOptimal <= amountBDesired) {... */\n      jump(tag_235)\n    tag_231:\n        /* \"SimpleSwap.sol\":6215:6237  uint256 amountAOptimal */\n      0x00\n        /* \"SimpleSwap.sol\":6271:6280  _reserveB */\n      dup3\n        /* \"SimpleSwap.sol\":6258:6267  _reserveA */\n      dup5\n        /* \"SimpleSwap.sol\":6241:6255  amountBDesired */\n      dup14\n        /* \"SimpleSwap.sol\":6241:6267  amountBDesired * _reserveA */\n      tag_236\n      swap2\n      swap1\n      tag_119\n      jump\t// in\n    tag_236:\n        /* \"SimpleSwap.sol\":6240:6280  (amountBDesired * _reserveA) / _reserveB */\n      tag_237\n      swap2\n      swap1\n      tag_121\n      jump\t// in\n    tag_237:\n        /* \"SimpleSwap.sol\":6215:6280  uint256 amountAOptimal = (amountBDesired * _reserveA) / _reserveB */\n      swap1\n      pop\n        /* \"SimpleSwap.sol\":6312:6326  amountADesired */\n      dup13\n        /* \"SimpleSwap.sol\":6294:6308  amountAOptimal */\n      dup2\n        /* \"SimpleSwap.sol\":6294:6326  amountAOptimal <= amountADesired */\n      gt\n      iszero\n        /* \"SimpleSwap.sol\":6286:6341  require(amountAOptimal <= amountADesired, \"too much A\") */\n      tag_238\n      jumpi\n      mload(0x40)\n      0x08c379a000000000000000000000000000000000000000000000000000000000\n      dup2\n      mstore\n      0x04\n      add\n      tag_239\n      swap1\n      tag_240\n      jump\t// in\n    tag_239:\n      mload(0x40)\n      dup1\n      swap2\n      sub\n      swap1\n      revert\n    tag_238:\n        /* \"SimpleSwap.sol\":6373:6383  amountAMin */\n      dup11\n        /* \"SimpleSwap.sol\":6355:6369  amountAOptimal */\n      dup2\n        /* \"SimpleSwap.sol\":6355:6383  amountAOptimal >= amountAMin */\n      lt\n      iszero\n        /* \"SimpleSwap.sol\":6347:6400  require(amountAOptimal >= amountAMin, \"not enough A\") */\n      tag_241\n      jumpi\n      mload(0x40)\n      0x08c379a000000000000000000000000000000000000000000000000000000000\n      dup2\n      mstore\n      0x04\n      add\n      tag_242\n      swap1\n      tag_243\n      jump\t// in\n    tag_242:\n      mload(0x40)\n      dup1\n      swap2\n      sub\n      swap1\n      revert\n    tag_241:\n        /* \"SimpleSwap.sol\":6416:6430  amountAOptimal */\n      dup1\n        /* \"SimpleSwap.sol\":6406:6430  amountA = amountAOptimal */\n      swap7\n      pop\n        /* \"SimpleSwap.sol\":6446:6460  amountBDesired */\n      dup12\n        /* \"SimpleSwap.sol\":6436:6460  amountB = amountBDesired */\n      swap6\n      pop\n        /* \"SimpleSwap.sol\":6209:6467  {... */\n      pop\n        /* \"SimpleSwap.sol\":6037:6467  if (amountBOptimal <= amountBDesired) {... */\n    tag_235:\n        /* \"SimpleSwap.sol\":6535:6541  tokenA */\n      0x03\n      0x01\n      swap1\n      sload\n      swap1\n      0x0100\n      exp\n      swap1\n      div\n      0xffffffffffffffffffffffffffffffffffffffff\n      and\n        /* \"SimpleSwap.sol\":6524:6541  tokenA_ == tokenA */\n      0xffffffffffffffffffffffffffffffffffffffff\n      and\n        /* \"SimpleSwap.sol\":6524:6531  tokenA_ */\n      dup15\n        /* \"SimpleSwap.sol\":6524:6541  tokenA_ == tokenA */\n      0xffffffffffffffffffffffffffffffffffffffff\n      and\n      eq\n        /* \"SimpleSwap.sol\":6524:6562  tokenA_ == tokenA && tokenB_ == tokenB */\n      dup1\n      iszero\n      tag_244\n      jumpi\n      pop\n        /* \"SimpleSwap.sol\":6556:6562  tokenB */\n      0x04\n      0x00\n      swap1\n      sload\n      swap1\n      0x0100\n      exp\n      swap1\n      div\n      0xffffffffffffffffffffffffffffffffffffffff\n      and\n        /* \"SimpleSwap.sol\":6545:6562  tokenB_ == tokenB */\n      0xffffffffffffffffffffffffffffffffffffffff\n      and\n        /* \"SimpleSwap.sol\":6545:6552  tokenB_ */\n      dup14\n        /* \"SimpleSwap.sol\":6545:6562  tokenB_ == tokenB */\n      0xffffffffffffffffffffffffffffffffffffffff\n      and\n      eq\n        /* \"SimpleSwap.sol\":6524:6562  tokenA_ == tokenA && tokenB_ == tokenB */\n    tag_244:\n        /* \"SimpleSwap.sol\":6516:6585  require(tokenA_ == tokenA && tokenB_ == tokenB, \"Invalid token pair\") */\n      tag_245\n      jumpi\n      mload(0x40)\n      0x08c379a000000000000000000000000000000000000000000000000000000000\n      dup2\n      mstore\n      0x04\n      add\n      tag_246\n      swap1\n      tag_177\n      jump\t// in\n    tag_246:\n      mload(0x40)\n      dup1\n      swap2\n      sub\n      swap1\n      revert\n    tag_245:\n        /* \"SimpleSwap.sol\":6598:6604  tokenA */\n      0x03\n      0x01\n      swap1\n      sload\n      swap1\n      0x0100\n      exp\n      swap1\n      div\n      0xffffffffffffffffffffffffffffffffffffffff\n      and\n        /* \"SimpleSwap.sol\":6591:6618  IERC20(tokenA).transferFrom */\n      0xffffffffffffffffffffffffffffffffffffffff\n      and\n      0x23b872dd\n        /* \"SimpleSwap.sol\":6619:6629  msg.sender */\n      caller\n        /* \"SimpleSwap.sol\":6639:6643  this */\n      address\n        /* \"SimpleSwap.sol\":6646:6653  amountA */\n      dup10\n        /* \"SimpleSwap.sol\":6591:6654  IERC20(tokenA).transferFrom(msg.sender, address(this), amountA) */\n      mload(0x40)\n      dup5\n      0xffffffff\n      and\n      0xe0\n      shl\n      dup2\n      mstore\n      0x04\n      add\n      tag_247\n      swap4\n      swap3\n      swap2\n      swap1\n      tag_111\n      jump\t// in\n    tag_247:\n      0x20\n      mload(0x40)\n      dup1\n      dup4\n      sub\n      dup2\n      0x00\n      dup8\n      gas\n      call\n      iszero\n      dup1\n      iszero\n      tag_249\n      jumpi\n      returndatacopy(0x00, 0x00, returndatasize)\n      revert(0x00, returndatasize)\n    tag_249:\n      pop\n      pop\n      pop\n      pop\n      mload(0x40)\n      returndatasize\n      not(0x1f)\n      0x1f\n      dup3\n      add\n      and\n      dup3\n      add\n      dup1\n      0x40\n      mstore\n      pop\n      dup2\n      add\n      swap1\n      tag_250\n      swap2\n      swap1\n      tag_115\n      jump\t// in\n    tag_250:\n      pop\n        /* \"SimpleSwap.sol\":6667:6673  tokenB */\n      0x04\n      0x00\n      swap1\n      sload\n      swap1\n      0x0100\n      exp\n      swap1\n      div\n      0xffffffffffffffffffffffffffffffffffffffff\n      and\n        /* \"SimpleSwap.sol\":6660:6687  IERC20(tokenB).transferFrom */\n      0xffffffffffffffffffffffffffffffffffffffff\n      and\n      0x23b872dd\n        /* \"SimpleSwap.sol\":6688:6698  msg.sender */\n      caller\n        /* \"SimpleSwap.sol\":6708:6712  this */\n      address\n        /* \"SimpleSwap.sol\":6715:6722  amountB */\n      dup9\n        /* \"SimpleSwap.sol\":6660:6723  IERC20(tokenB).transferFrom(msg.sender, address(this), amountB) */\n      mload(0x40)\n      dup5\n      0xffffffff\n      and\n      0xe0\n      shl\n      dup2\n      mstore\n      0x04\n      add\n      tag_251\n      swap4\n      swap3\n      swap2\n      swap1\n      tag_111\n      jump\t// in\n    tag_251:\n      0x20\n      mload(0x40)\n      dup1\n      dup4\n      sub\n      dup2\n      0x00\n      dup8\n      gas\n      call\n      iszero\n      dup1\n      iszero\n      tag_253\n      jumpi\n      returndatacopy(0x00, 0x00, returndatasize)\n      revert(0x00, returndatasize)\n    tag_253:\n      pop\n      pop\n      pop\n      pop\n      mload(0x40)\n      returndatasize\n      not(0x1f)\n      0x1f\n      dup3\n      add\n      and\n      dup3\n      add\n      dup1\n      0x40\n      mstore\n      pop\n      dup2\n      add\n      swap1\n      tag_254\n      swap2\n      swap1\n      tag_115\n      jump\t// in\n    tag_254:\n      pop\n        /* \"SimpleSwap.sol\":6763:6861  Math.min(... */\n      tag_255\n        /* \"SimpleSwap.sol\":6804:6813  _reserveA */\n      dup4\n        /* \"SimpleSwap.sol\":6788:6800  _totalSupply */\n      sload(0x07)\n        /* \"SimpleSwap.sol\":6778:6785  amountA */\n      dup9\n        /* \"SimpleSwap.sol\":6778:6800  amountA * _totalSupply */\n      tag_256\n      swap2\n      swap1\n      tag_119\n      jump\t// in\n    tag_256:\n        /* \"SimpleSwap.sol\":6777:6813  (amountA * _totalSupply) / _reserveA */\n      tag_257\n      swap2\n      swap1\n      tag_121\n      jump\t// in\n    tag_257:\n        /* \"SimpleSwap.sol\":6846:6855  _reserveB */\n      dup4\n        /* \"SimpleSwap.sol\":6830:6842  _totalSupply */\n      sload(0x07)\n        /* \"SimpleSwap.sol\":6820:6827  amountB */\n      dup9\n        /* \"SimpleSwap.sol\":6820:6842  amountB * _totalSupply */\n      tag_258\n      swap2\n      swap1\n      tag_119\n      jump\t// in\n    tag_258:\n        /* \"SimpleSwap.sol\":6819:6855  (amountB * _totalSupply) / _reserveB */\n      tag_259\n      swap2\n      swap1\n      tag_121\n      jump\t// in\n    tag_259:\n        /* \"SimpleSwap.sol\":6763:6771  Math.min */\n      tag_260\n        /* \"SimpleSwap.sol\":6763:6861  Math.min(... */\n      jump\t// in\n    tag_255:\n        /* \"SimpleSwap.sol\":6751:6861  liquidity = Math.min(... */\n      swap4\n      pop\n        /* \"SimpleSwap.sol\":6898:6905  amountA */\n      dup6\n        /* \"SimpleSwap.sol\":6887:6895  reserveA */\n      0x05\n      0x00\n        /* \"SimpleSwap.sol\":6887:6905  reserveA +=amountA */\n      dup3\n      dup3\n      sload\n      tag_261\n      swap2\n      swap1\n      tag_117\n      jump\t// in\n    tag_261:\n      swap3\n      pop\n      pop\n      dup2\n      swap1\n      sstore\n      pop\n        /* \"SimpleSwap.sol\":6922:6929  amountB */\n      dup5\n        /* \"SimpleSwap.sol\":6911:6919  reserveB */\n      0x06\n      0x00\n        /* \"SimpleSwap.sol\":6911:6929  reserveB +=amountB */\n      dup3\n      dup3\n      sload\n      tag_262\n      swap2\n      swap1\n      tag_117\n      jump\t// in\n    tag_262:\n      swap3\n      pop\n      pop\n      dup2\n      swap1\n      sstore\n      pop\n        /* \"SimpleSwap.sol\":6951:6960  liquidity */\n      dup4\n        /* \"SimpleSwap.sol\":6935:6947  _totalSupply */\n      0x07\n      0x00\n        /* \"SimpleSwap.sol\":6935:6960  _totalSupply += liquidity */\n      dup3\n      dup3\n      sload\n      tag_263\n      swap2\n      swap1\n      tag_117\n      jump\t// in\n    tag_263:\n      swap3\n      pop\n      pop\n      dup2\n      swap1\n      sstore\n      pop\n        /* \"SimpleSwap.sol\":6981:6990  liquidity */\n      dup4\n        /* \"SimpleSwap.sol\":6963:6973  _balanceOf */\n      0x08\n        /* \"SimpleSwap.sol\":6963:6977  _balanceOf[to] */\n      0x00\n        /* \"SimpleSwap.sol\":6974:6976  to */\n      dup11\n        /* \"SimpleSwap.sol\":6963:6977  _balanceOf[to] */\n      0xffffffffffffffffffffffffffffffffffffffff\n      and\n      0xffffffffffffffffffffffffffffffffffffffff\n      and\n      dup2\n      mstore\n      0x20\n      add\n      swap1\n      dup2\n      mstore\n      0x20\n      add\n      0x00\n      keccak256\n      0x00\n        /* \"SimpleSwap.sol\":6963:6990  _balanceOf[to] += liquidity */\n      dup3\n      dup3\n      sload\n      tag_264\n      swap2\n      swap1\n      tag_117\n      jump\t// in\n    tag_264:\n      swap3\n      pop\n      pop\n      dup2\n      swap1\n      sstore\n      pop\n        /* \"SimpleSwap.sol\":7017:7027  msg.sender */\n      caller\n        /* \"SimpleSwap.sol\":7002:7057  LiquidityAdded(msg.sender, amountA, amountB, liquidity) */\n      0xffffffffffffffffffffffffffffffffffffffff\n      and\n      0x64b83944e79c3ce8d4c297411de637c3e102d064677aac0c163976ebdcd6f50e\n        /* \"SimpleSwap.sol\":7029:7036  amountA */\n      dup8\n        /* \"SimpleSwap.sol\":7038:7045  amountB */\n      dup8\n        /* \"SimpleSwap.sol\":7047:7056  liquidity */\n      dup8\n        /* \"SimpleSwap.sol\":7002:7057  LiquidityAdded(msg.sender, amountA, amountB, liquidity) */\n      mload(0x40)\n      tag_265\n      swap4\n      swap3\n      swap2\n      swap1\n      tag_60\n      jump\t// in\n    tag_265:\n      mload(0x40)\n      dup1\n      swap2\n      sub\n      swap1\n      log2\n        /* \"SimpleSwap.sol\":7064:7100  return (amountA, amountB, liquidity) */\n      pop\n      pop\n      pop\n        /* \"SimpleSwap.sol\":4459:7112  function addLiquidity(address tokenA_, address tokenB_, uint amountADesired, uint amountBDesired, uint amountAMin, uint amountBMin, address to, uint deadline) external returns (uint amountA, uint amountB, uint liquidity) {... */\n    tag_208:\n      swap9\n      pop\n      swap9\n      pop\n      swap9\n      swap6\n      pop\n      pop\n      pop\n      pop\n      pop\n      pop\n      jump\t// out\n        /* \"@openzeppelin/contracts/utils/math/Math.sol\":5617:5728  function min(uint256 a, uint256 b) internal pure returns (uint256) {... */\n    tag_260:\n        /* \"@openzeppelin/contracts/utils/math/Math.sol\":5675:5682  uint256 */\n      0x00\n        /* \"@openzeppelin/contracts/utils/math/Math.sol\":5701:5721  ternary(a < b, a, b) */\n      tag_267\n        /* \"@openzeppelin/contracts/utils/math/Math.sol\":5713:5714  b */\n      dup3\n        /* \"@openzeppelin/contracts/utils/math/Math.sol\":5709:5710  a */\n      dup5\n        /* \"@openzeppelin/contracts/utils/math/Math.sol\":5709:5714  a < b */\n      lt\n        /* \"@openzeppelin/contracts/utils/math/Math.sol\":5716:5717  a */\n      dup5\n        /* \"@openzeppelin/contracts/utils/math/Math.sol\":5719:5720  b */\n      dup5\n        /* \"@openzeppelin/contracts/utils/math/Math.sol\":5701:5708  ternary */\n      tag_268\n        /* \"@openzeppelin/contracts/utils/math/Math.sol\":5701:5721  ternary(a < b, a, b) */\n      jump\t// in\n    tag_267:\n        /* \"@openzeppelin/contracts/utils/math/Math.sol\":5694:5721  return ternary(a < b, a, b) */\n      swap1\n      pop\n        /* \"@openzeppelin/contracts/utils/math/Math.sol\":5617:5728  function min(uint256 a, uint256 b) internal pure returns (uint256) {... */\n      swap3\n      swap2\n      pop\n      pop\n      jump\t// out\n        /* \"@openzeppelin/contracts/utils/math/Math.sol\":5071:5365  function ternary(bool condition, uint256 a, uint256 b) internal pure returns (uint256) {... */\n    tag_268:\n        /* \"@openzeppelin/contracts/utils/math/Math.sol\":5149:5156  uint256 */\n      0x00\n        /* \"@openzeppelin/contracts/utils/math/Math.sol\":5321:5347  SafeCast.toUint(condition) */\n      tag_270\n        /* \"@openzeppelin/contracts/utils/math/Math.sol\":5337:5346  condition */\n      dup5\n        /* \"@openzeppelin/contracts/utils/math/Math.sol\":5321:5336  SafeCast.toUint */\n      tag_271\n        /* \"@openzeppelin/contracts/utils/math/Math.sol\":5321:5347  SafeCast.toUint(condition) */\n      jump\t// in\n    tag_270:\n        /* \"@openzeppelin/contracts/utils/math/Math.sol\":5316:5317  b */\n      dup3\n        /* \"@openzeppelin/contracts/utils/math/Math.sol\":5312:5313  a */\n      dup5\n        /* \"@openzeppelin/contracts/utils/math/Math.sol\":5312:5317  a ^ b */\n      xor\n        /* \"@openzeppelin/contracts/utils/math/Math.sol\":5311:5347  (a ^ b) * SafeCast.toUint(condition) */\n      mul\n        /* \"@openzeppelin/contracts/utils/math/Math.sol\":5306:5307  b */\n      dup3\n        /* \"@openzeppelin/contracts/utils/math/Math.sol\":5306:5348  b ^ ((a ^ b) * SafeCast.toUint(condition)) */\n      xor\n        /* \"@openzeppelin/contracts/utils/math/Math.sol\":5299:5348  return b ^ ((a ^ b) * SafeCast.toUint(condition)) */\n      swap1\n      pop\n        /* \"@openzeppelin/contracts/utils/math/Math.sol\":5071:5365  function ternary(bool condition, uint256 a, uint256 b) internal pure returns (uint256) {... */\n      swap4\n      swap3\n      pop\n      pop\n      pop\n      jump\t// out\n        /* \"@openzeppelin/contracts/utils/math/SafeCast.sol\":34795:34940  function toUint(bool b) internal pure returns (uint256 u) {... */\n    tag_271:\n        /* \"@openzeppelin/contracts/utils/math/SafeCast.sol\":34842:34851  uint256 u */\n      0x00\n        /* \"@openzeppelin/contracts/utils/math/SafeCast.sol\":34921:34922  b */\n      dup2\n        /* \"@openzeppelin/contracts/utils/math/SafeCast.sol\":34914:34923  iszero(b) */\n      iszero\n        /* \"@openzeppelin/contracts/utils/math/SafeCast.sol\":34907:34924  iszero(iszero(b)) */\n      iszero\n        /* \"@openzeppelin/contracts/utils/math/SafeCast.sol\":34902:34924  u := iszero(iszero(b)) */\n      swap1\n      pop\n        /* \"@openzeppelin/contracts/utils/math/SafeCast.sol\":34795:34940  function toUint(bool b) internal pure returns (uint256 u) {... */\n      swap2\n      swap1\n      pop\n      jump\t// out\n        /* \"#utility.yul\":7:106   */\n    tag_273:\n        /* \"#utility.yul\":59:65   */\n      0x00\n        /* \"#utility.yul\":93:98   */\n      dup2\n        /* \"#utility.yul\":87:99   */\n      mload\n        /* \"#utility.yul\":77:99   */\n      swap1\n      pop\n        /* \"#utility.yul\":7:106   */\n      swap2\n      swap1\n      pop\n      jump\t// out\n        /* \"#utility.yul\":112:281   */\n    tag_274:\n        /* \"#utility.yul\":196:207   */\n      0x00\n        /* \"#utility.yul\":230:236   */\n      dup3\n        /* \"#utility.yul\":225:228   */\n      dup3\n        /* \"#utility.yul\":218:237   */\n      mstore\n        /* \"#utility.yul\":270:274   */\n      0x20\n        /* \"#utility.yul\":265:268   */\n      dup3\n        /* \"#utility.yul\":261:275   */\n      add\n        /* \"#utility.yul\":246:275   */\n      swap1\n      pop\n        /* \"#utility.yul\":112:281   */\n      swap3\n      swap2\n      pop\n      pop\n      jump\t// out\n        /* \"#utility.yul\":287:426   */\n    tag_275:\n        /* \"#utility.yul\":376:382   */\n      dup3\n        /* \"#utility.yul\":371:374   */\n      dup2\n        /* \"#utility.yul\":366:369   */\n      dup4\n        /* \"#utility.yul\":360:383   */\n      mcopy\n        /* \"#utility.yul\":417:418   */\n      0x00\n        /* \"#utility.yul\":408:414   */\n      dup4\n        /* \"#utility.yul\":403:406   */\n      dup4\n        /* \"#utility.yul\":399:415   */\n      add\n        /* \"#utility.yul\":392:419   */\n      mstore\n        /* \"#utility.yul\":287:426   */\n      pop\n      pop\n      pop\n      jump\t// out\n        /* \"#utility.yul\":432:534   */\n    tag_276:\n        /* \"#utility.yul\":473:479   */\n      0x00\n        /* \"#utility.yul\":524:526   */\n      0x1f\n        /* \"#utility.yul\":520:527   */\n      not\n        /* \"#utility.yul\":515:517   */\n      0x1f\n        /* \"#utility.yul\":508:513   */\n      dup4\n        /* \"#utility.yul\":504:518   */\n      add\n        /* \"#utility.yul\":500:528   */\n      and\n        /* \"#utility.yul\":490:528   */\n      swap1\n      pop\n        /* \"#utility.yul\":432:534   */\n      swap2\n      swap1\n      pop\n      jump\t// out\n        /* \"#utility.yul\":540:917   */\n    tag_277:\n        /* \"#utility.yul\":628:631   */\n      0x00\n        /* \"#utility.yul\":656:695   */\n      tag_345\n        /* \"#utility.yul\":689:694   */\n      dup3\n        /* \"#utility.yul\":656:695   */\n      tag_273\n      jump\t// in\n    tag_345:\n        /* \"#utility.yul\":711:782   */\n      tag_346\n        /* \"#utility.yul\":775:781   */\n      dup2\n        /* \"#utility.yul\":770:773   */\n      dup6\n        /* \"#utility.yul\":711:782   */\n      tag_274\n      jump\t// in\n    tag_346:\n        /* \"#utility.yul\":704:782   */\n      swap4\n      pop\n        /* \"#utility.yul\":791:856   */\n      tag_347\n        /* \"#utility.yul\":849:855   */\n      dup2\n        /* \"#utility.yul\":844:847   */\n      dup6\n        /* \"#utility.yul\":837:841   */\n      0x20\n        /* \"#utility.yul\":830:835   */\n      dup7\n        /* \"#utility.yul\":826:842   */\n      add\n        /* \"#utility.yul\":791:856   */\n      tag_275\n      jump\t// in\n    tag_347:\n        /* \"#utility.yul\":881:910   */\n      tag_348\n        /* \"#utility.yul\":903:909   */\n      dup2\n        /* \"#utility.yul\":881:910   */\n      tag_276\n      jump\t// in\n    tag_348:\n        /* \"#utility.yul\":876:879   */\n      dup5\n        /* \"#utility.yul\":872:911   */\n      add\n        /* \"#utility.yul\":865:911   */\n      swap2\n      pop\n        /* \"#utility.yul\":632:917   */\n      pop\n        /* \"#utility.yul\":540:917   */\n      swap3\n      swap2\n      pop\n      pop\n      jump\t// out\n        /* \"#utility.yul\":923:1236   */\n    tag_18:\n        /* \"#utility.yul\":1036:1040   */\n      0x00\n        /* \"#utility.yul\":1074:1076   */\n      0x20\n        /* \"#utility.yul\":1063:1072   */\n      dup3\n        /* \"#utility.yul\":1059:1077   */\n      add\n        /* \"#utility.yul\":1051:1077   */\n      swap1\n      pop\n        /* \"#utility.yul\":1123:1132   */\n      dup2\n        /* \"#utility.yul\":1117:1121   */\n      dup2\n        /* \"#utility.yul\":1113:1133   */\n      sub\n        /* \"#utility.yul\":1109:1110   */\n      0x00\n        /* \"#utility.yul\":1098:1107   */\n      dup4\n        /* \"#utility.yul\":1094:1111   */\n      add\n        /* \"#utility.yul\":1087:1134   */\n      mstore\n        /* \"#utility.yul\":1151:1229   */\n      tag_350\n        /* \"#utility.yul\":1224:1228   */\n      dup2\n        /* \"#utility.yul\":1215:1221   */\n      dup5\n        /* \"#utility.yul\":1151:1229   */\n      tag_277\n      jump\t// in\n    tag_350:\n        /* \"#utility.yul\":1143:1229   */\n      swap1\n      pop\n        /* \"#utility.yul\":923:1236   */\n      swap3\n      swap2\n      pop\n      pop\n      jump\t// out\n        /* \"#utility.yul\":1242:1368   */\n    tag_278:\n        /* \"#utility.yul\":1279:1286   */\n      0x00\n        /* \"#utility.yul\":1319:1361   */\n      0xffffffffffffffffffffffffffffffffffffffff\n        /* \"#utility.yul\":1312:1317   */\n      dup3\n        /* \"#utility.yul\":1308:1362   */\n      and\n        /* \"#utility.yul\":1297:1362   */\n      swap1\n      pop\n        /* \"#utility.yul\":1242:1368   */\n      swap2\n      swap1\n      pop\n      jump\t// out\n        /* \"#utility.yul\":1374:1470   */\n    tag_279:\n        /* \"#utility.yul\":1411:1418   */\n      0x00\n        /* \"#utility.yul\":1440:1464   */\n      tag_353\n        /* \"#utility.yul\":1458:1463   */\n      dup3\n        /* \"#utility.yul\":1440:1464   */\n      tag_278\n      jump\t// in\n    tag_353:\n        /* \"#utility.yul\":1429:1464   */\n      swap1\n      pop\n        /* \"#utility.yul\":1374:1470   */\n      swap2\n      swap1\n      pop\n      jump\t// out\n        /* \"#utility.yul\":1476:1594   */\n    tag_280:\n        /* \"#utility.yul\":1563:1587   */\n      tag_355\n        /* \"#utility.yul\":1581:1586   */\n      dup2\n        /* \"#utility.yul\":1563:1587   */\n      tag_279\n      jump\t// in\n    tag_355:\n        /* \"#utility.yul\":1558:1561   */\n      dup3\n        /* \"#utility.yul\":1551:1588   */\n      mstore\n        /* \"#utility.yul\":1476:1594   */\n      pop\n      pop\n      jump\t// out\n        /* \"#utility.yul\":1600:1822   */\n    tag_22:\n        /* \"#utility.yul\":1693:1697   */\n      0x00\n        /* \"#utility.yul\":1731:1733   */\n      0x20\n        /* \"#utility.yul\":1720:1729   */\n      dup3\n        /* \"#utility.yul\":1716:1734   */\n      add\n        /* \"#utility.yul\":1708:1734   */\n      swap1\n      pop\n        /* \"#utility.yul\":1744:1815   */\n      tag_357\n        /* \"#utility.yul\":1812:1813   */\n      0x00\n        /* \"#utility.yul\":1801:1810   */\n      dup4\n        /* \"#utility.yul\":1797:1814   */\n      add\n        /* \"#utility.yul\":1788:1794   */\n      dup5\n        /* \"#utility.yul\":1744:1815   */\n      tag_280\n      jump\t// in\n    tag_357:\n        /* \"#utility.yul\":1600:1822   */\n      swap3\n      swap2\n      pop\n      pop\n      jump\t// out\n        /* \"#utility.yul\":1828:1905   */\n    tag_281:\n        /* \"#utility.yul\":1865:1872   */\n      0x00\n        /* \"#utility.yul\":1894:1899   */\n      dup2\n        /* \"#utility.yul\":1883:1899   */\n      swap1\n      pop\n        /* \"#utility.yul\":1828:1905   */\n      swap2\n      swap1\n      pop\n      jump\t// out\n        /* \"#utility.yul\":1911:2029   */\n    tag_282:\n        /* \"#utility.yul\":1998:2022   */\n      tag_360\n        /* \"#utility.yul\":2016:2021   */\n      dup2\n        /* \"#utility.yul\":1998:2022   */\n      tag_281\n      jump\t// in\n    tag_360:\n        /* \"#utility.yul\":1993:1996   */\n      dup3\n        /* \"#utility.yul\":1986:2023   */\n      mstore\n        /* \"#utility.yul\":1911:2029   */\n      pop\n      pop\n      jump\t// out\n        /* \"#utility.yul\":2035:2257   */\n    tag_26:\n        /* \"#utility.yul\":2128:2132   */\n      0x00\n        /* \"#utility.yul\":2166:2168   */\n      0x20\n        /* \"#utility.yul\":2155:2164   */\n      dup3\n        /* \"#utility.yul\":2151:2169   */\n      add\n        /* \"#utility.yul\":2143:2169   */\n      swap1\n      pop\n        /* \"#utility.yul\":2179:2250   */\n      tag_362\n        /* \"#utility.yul\":2247:2248   */\n      0x00\n        /* \"#utility.yul\":2236:2245   */\n      dup4\n        /* \"#utility.yul\":2232:2249   */\n      add\n        /* \"#utility.yul\":2223:2229   */\n      dup5\n        /* \"#utility.yul\":2179:2250   */\n      tag_282\n      jump\t// in\n    tag_362:\n        /* \"#utility.yul\":2035:2257   */\n      swap3\n      swap2\n      pop\n      pop\n      jump\t// out\n        /* \"#utility.yul\":2263:2349   */\n    tag_283:\n        /* \"#utility.yul\":2298:2305   */\n      0x00\n        /* \"#utility.yul\":2338:2342   */\n      0xff\n        /* \"#utility.yul\":2331:2336   */\n      dup3\n        /* \"#utility.yul\":2327:2343   */\n      and\n        /* \"#utility.yul\":2316:2343   */\n      swap1\n      pop\n        /* \"#utility.yul\":2263:2349   */\n      swap2\n      swap1\n      pop\n      jump\t// out\n        /* \"#utility.yul\":2355:2467   */\n    tag_284:\n        /* \"#utility.yul\":2438:2460   */\n      tag_365\n        /* \"#utility.yul\":2454:2459   */\n      dup2\n        /* \"#utility.yul\":2438:2460   */\n      tag_283\n      jump\t// in\n    tag_365:\n        /* \"#utility.yul\":2433:2436   */\n      dup3\n        /* \"#utility.yul\":2426:2461   */\n      mstore\n        /* \"#utility.yul\":2355:2467   */\n      pop\n      pop\n      jump\t// out\n        /* \"#utility.yul\":2473:2687   */\n    tag_30:\n        /* \"#utility.yul\":2562:2566   */\n      0x00\n        /* \"#utility.yul\":2600:2602   */\n      0x20\n        /* \"#utility.yul\":2589:2598   */\n      dup3\n        /* \"#utility.yul\":2585:2603   */\n      add\n        /* \"#utility.yul\":2577:2603   */\n      swap1\n      pop\n        /* \"#utility.yul\":2613:2680   */\n      tag_367\n        /* \"#utility.yul\":2677:2678   */\n      0x00\n        /* \"#utility.yul\":2666:2675   */\n      dup4\n        /* \"#utility.yul\":2662:2679   */\n      add\n        /* \"#utility.yul\":2653:2659   */\n      dup5\n        /* \"#utility.yul\":2613:2680   */\n      tag_284\n      jump\t// in\n    tag_367:\n        /* \"#utility.yul\":2473:2687   */\n      swap3\n      swap2\n      pop\n      pop\n      jump\t// out\n        /* \"#utility.yul\":2774:2891   */\n    tag_286:\n        /* \"#utility.yul\":2883:2884   */\n      0x00\n        /* \"#utility.yul\":2880:2881   */\n      0x00\n        /* \"#utility.yul\":2873:2885   */\n      revert\n        /* \"#utility.yul\":2897:3014   */\n    tag_287:\n        /* \"#utility.yul\":3006:3007   */\n      0x00\n        /* \"#utility.yul\":3003:3004   */\n      0x00\n        /* \"#utility.yul\":2996:3008   */\n      revert\n        /* \"#utility.yul\":3020:3142   */\n    tag_288:\n        /* \"#utility.yul\":3093:3117   */\n      tag_372\n        /* \"#utility.yul\":3111:3116   */\n      dup2\n        /* \"#utility.yul\":3093:3117   */\n      tag_281\n      jump\t// in\n    tag_372:\n        /* \"#utility.yul\":3086:3091   */\n      dup2\n        /* \"#utility.yul\":3083:3118   */\n      eq\n        /* \"#utility.yul\":3073:3136   */\n      tag_373\n      jumpi\n        /* \"#utility.yul\":3132:3133   */\n      0x00\n        /* \"#utility.yul\":3129:3130   */\n      0x00\n        /* \"#utility.yul\":3122:3134   */\n      revert\n        /* \"#utility.yul\":3073:3136   */\n    tag_373:\n        /* \"#utility.yul\":3020:3142   */\n      pop\n      jump\t// out\n        /* \"#utility.yul\":3148:3287   */\n    tag_289:\n        /* \"#utility.yul\":3194:3199   */\n      0x00\n        /* \"#utility.yul\":3232:3238   */\n      dup2\n        /* \"#utility.yul\":3219:3239   */\n      calldataload\n        /* \"#utility.yul\":3210:3239   */\n      swap1\n      pop\n        /* \"#utility.yul\":3248:3281   */\n      tag_375\n        /* \"#utility.yul\":3275:3280   */\n      dup2\n        /* \"#utility.yul\":3248:3281   */\n      tag_288\n      jump\t// in\n    tag_375:\n        /* \"#utility.yul\":3148:3287   */\n      swap3\n      swap2\n      pop\n      pop\n      jump\t// out\n        /* \"#utility.yul\":3293:3410   */\n    tag_290:\n        /* \"#utility.yul\":3402:3403   */\n      0x00\n        /* \"#utility.yul\":3399:3400   */\n      0x00\n        /* \"#utility.yul\":3392:3404   */\n      revert\n        /* \"#utility.yul\":3416:3533   */\n    tag_291:\n        /* \"#utility.yul\":3525:3526   */\n      0x00\n        /* \"#utility.yul\":3522:3523   */\n      0x00\n        /* \"#utility.yul\":3515:3527   */\n      revert\n        /* \"#utility.yul\":3539:3656   */\n    tag_292:\n        /* \"#utility.yul\":3648:3649   */\n      0x00\n        /* \"#utility.yul\":3645:3646   */\n      0x00\n        /* \"#utility.yul\":3638:3650   */\n      revert\n        /* \"#utility.yul\":3679:4247   */\n    tag_293:\n        /* \"#utility.yul\":3752:3760   */\n      0x00\n        /* \"#utility.yul\":3762:3768   */\n      0x00\n        /* \"#utility.yul\":3812:3815   */\n      dup4\n        /* \"#utility.yul\":3805:3809   */\n      0x1f\n        /* \"#utility.yul\":3797:3803   */\n      dup5\n        /* \"#utility.yul\":3793:3810   */\n      add\n        /* \"#utility.yul\":3789:3816   */\n      slt\n        /* \"#utility.yul\":3779:3901   */\n      tag_380\n      jumpi\n        /* \"#utility.yul\":3820:3899   */\n      tag_381\n      tag_290\n      jump\t// in\n    tag_381:\n        /* \"#utility.yul\":3779:3901   */\n    tag_380:\n        /* \"#utility.yul\":3933:3939   */\n      dup3\n        /* \"#utility.yul\":3920:3940   */\n      calldataload\n        /* \"#utility.yul\":3910:3940   */\n      swap1\n      pop\n        /* \"#utility.yul\":3963:3981   */\n      0xffffffffffffffff\n        /* \"#utility.yul\":3955:3961   */\n      dup2\n        /* \"#utility.yul\":3952:3982   */\n      gt\n        /* \"#utility.yul\":3949:4066   */\n      iszero\n      tag_382\n      jumpi\n        /* \"#utility.yul\":3985:4064   */\n      tag_383\n      tag_291\n      jump\t// in\n    tag_383:\n        /* \"#utility.yul\":3949:4066   */\n    tag_382:\n        /* \"#utility.yul\":4099:4103   */\n      0x20\n        /* \"#utility.yul\":4091:4097   */\n      dup4\n        /* \"#utility.yul\":4087:4104   */\n      add\n        /* \"#utility.yul\":4075:4104   */\n      swap2\n      pop\n        /* \"#utility.yul\":4153:4156   */\n      dup4\n        /* \"#utility.yul\":4145:4149   */\n      0x20\n        /* \"#utility.yul\":4137:4143   */\n      dup3\n        /* \"#utility.yul\":4133:4150   */\n      mul\n        /* \"#utility.yul\":4123:4131   */\n      dup4\n        /* \"#utility.yul\":4119:4151   */\n      add\n        /* \"#utility.yul\":4116:4157   */\n      gt\n        /* \"#utility.yul\":4113:4241   */\n      iszero\n      tag_384\n      jumpi\n        /* \"#utility.yul\":4160:4239   */\n      tag_385\n      tag_292\n      jump\t// in\n    tag_385:\n        /* \"#utility.yul\":4113:4241   */\n    tag_384:\n        /* \"#utility.yul\":3679:4247   */\n      swap3\n      pop\n      swap3\n      swap1\n      pop\n      jump\t// out\n        /* \"#utility.yul\":4253:4375   */\n    tag_294:\n        /* \"#utility.yul\":4326:4350   */\n      tag_387\n        /* \"#utility.yul\":4344:4349   */\n      dup2\n        /* \"#utility.yul\":4326:4350   */\n      tag_279\n      jump\t// in\n    tag_387:\n        /* \"#utility.yul\":4319:4324   */\n      dup2\n        /* \"#utility.yul\":4316:4351   */\n      eq\n        /* \"#utility.yul\":4306:4369   */\n      tag_388\n      jumpi\n        /* \"#utility.yul\":4365:4366   */\n      0x00\n        /* \"#utility.yul\":4362:4363   */\n      0x00\n        /* \"#utility.yul\":4355:4367   */\n      revert\n        /* \"#utility.yul\":4306:4369   */\n    tag_388:\n        /* \"#utility.yul\":4253:4375   */\n      pop\n      jump\t// out\n        /* \"#utility.yul\":4381:4520   */\n    tag_295:\n        /* \"#utility.yul\":4427:4432   */\n      0x00\n        /* \"#utility.yul\":4465:4471   */\n      dup2\n        /* \"#utility.yul\":4452:4472   */\n      calldataload\n        /* \"#utility.yul\":4443:4472   */\n      swap1\n      pop\n        /* \"#utility.yul\":4481:4514   */\n      tag_390\n        /* \"#utility.yul\":4508:4513   */\n      dup2\n        /* \"#utility.yul\":4481:4514   */\n      tag_294\n      jump\t// in\n    tag_390:\n        /* \"#utility.yul\":4381:4520   */\n      swap3\n      swap2\n      pop\n      pop\n      jump\t// out\n        /* \"#utility.yul\":4526:5667   */\n    tag_33:\n        /* \"#utility.yul\":4648:4654   */\n      0x00\n        /* \"#utility.yul\":4656:4662   */\n      0x00\n        /* \"#utility.yul\":4664:4670   */\n      0x00\n        /* \"#utility.yul\":4672:4678   */\n      0x00\n        /* \"#utility.yul\":4680:4686   */\n      0x00\n        /* \"#utility.yul\":4688:4694   */\n      0x00\n        /* \"#utility.yul\":4737:4740   */\n      0xa0\n        /* \"#utility.yul\":4725:4734   */\n      dup8\n        /* \"#utility.yul\":4716:4723   */\n      dup10\n        /* \"#utility.yul\":4712:4735   */\n      sub\n        /* \"#utility.yul\":4708:4741   */\n      slt\n        /* \"#utility.yul\":4705:4825   */\n      iszero\n      tag_392\n      jumpi\n        /* \"#utility.yul\":4744:4823   */\n      tag_393\n      tag_286\n      jump\t// in\n    tag_393:\n        /* \"#utility.yul\":4705:4825   */\n    tag_392:\n        /* \"#utility.yul\":4864:4865   */\n      0x00\n        /* \"#utility.yul\":4889:4942   */\n      tag_394\n        /* \"#utility.yul\":4934:4941   */\n      dup10\n        /* \"#utility.yul\":4925:4931   */\n      dup3\n        /* \"#utility.yul\":4914:4923   */\n      dup11\n        /* \"#utility.yul\":4910:4932   */\n      add\n        /* \"#utility.yul\":4889:4942   */\n      tag_289\n      jump\t// in\n    tag_394:\n        /* \"#utility.yul\":4879:4942   */\n      swap7\n      pop\n        /* \"#utility.yul\":4835:4952   */\n      pop\n        /* \"#utility.yul\":4991:4993   */\n      0x20\n        /* \"#utility.yul\":5017:5070   */\n      tag_395\n        /* \"#utility.yul\":5062:5069   */\n      dup10\n        /* \"#utility.yul\":5053:5059   */\n      dup3\n        /* \"#utility.yul\":5042:5051   */\n      dup11\n        /* \"#utility.yul\":5038:5060   */\n      add\n        /* \"#utility.yul\":5017:5070   */\n      tag_289\n      jump\t// in\n    tag_395:\n        /* \"#utility.yul\":5007:5070   */\n      swap6\n      pop\n        /* \"#utility.yul\":4962:5080   */\n      pop\n        /* \"#utility.yul\":5147:5149   */\n      0x40\n        /* \"#utility.yul\":5136:5145   */\n      dup8\n        /* \"#utility.yul\":5132:5150   */\n      add\n        /* \"#utility.yul\":5119:5151   */\n      calldataload\n        /* \"#utility.yul\":5178:5196   */\n      0xffffffffffffffff\n        /* \"#utility.yul\":5170:5176   */\n      dup2\n        /* \"#utility.yul\":5167:5197   */\n      gt\n        /* \"#utility.yul\":5164:5281   */\n      iszero\n      tag_396\n      jumpi\n        /* \"#utility.yul\":5200:5279   */\n      tag_397\n      tag_287\n      jump\t// in\n    tag_397:\n        /* \"#utility.yul\":5164:5281   */\n    tag_396:\n        /* \"#utility.yul\":5313:5393   */\n      tag_398\n        /* \"#utility.yul\":5385:5392   */\n      dup10\n        /* \"#utility.yul\":5376:5382   */\n      dup3\n        /* \"#utility.yul\":5365:5374   */\n      dup11\n        /* \"#utility.yul\":5361:5383   */\n      add\n        /* \"#utility.yul\":5313:5393   */\n      tag_293\n      jump\t// in\n    tag_398:\n        /* \"#utility.yul\":5295:5393   */\n      swap5\n      pop\n      swap5\n      pop\n        /* \"#utility.yul\":5090:5403   */\n      pop\n        /* \"#utility.yul\":5442:5444   */\n      0x60\n        /* \"#utility.yul\":5468:5521   */\n      tag_399\n        /* \"#utility.yul\":5513:5520   */\n      dup10\n        /* \"#utility.yul\":5504:5510   */\n      dup3\n        /* \"#utility.yul\":5493:5502   */\n      dup11\n        /* \"#utility.yul\":5489:5511   */\n      add\n        /* \"#utility.yul\":5468:5521   */\n      tag_295\n      jump\t// in\n    tag_399:\n        /* \"#utility.yul\":5458:5521   */\n      swap3\n      pop\n        /* \"#utility.yul\":5413:5531   */\n      pop\n        /* \"#utility.yul\":5570:5573   */\n      0x80\n        /* \"#utility.yul\":5597:5650   */\n      tag_400\n        /* \"#utility.yul\":5642:5649   */\n      dup10\n        /* \"#utility.yul\":5633:5639   */\n      dup3\n        /* \"#utility.yul\":5622:5631   */\n      dup11\n        /* \"#utility.yul\":5618:5640   */\n      add\n        /* \"#utility.yul\":5597:5650   */\n      tag_289\n      jump\t// in\n    tag_400:\n        /* \"#utility.yul\":5587:5650   */\n      swap2\n      pop\n        /* \"#utility.yul\":5541:5660   */\n      pop\n        /* \"#utility.yul\":4526:5667   */\n      swap3\n      swap6\n      pop\n      swap3\n      swap6\n      pop\n      swap3\n      swap6\n      jump\t// out\n        /* \"#utility.yul\":5673:5787   */\n    tag_296:\n        /* \"#utility.yul\":5740:5746   */\n      0x00\n        /* \"#utility.yul\":5774:5779   */\n      dup2\n        /* \"#utility.yul\":5768:5780   */\n      mload\n        /* \"#utility.yul\":5758:5780   */\n      swap1\n      pop\n        /* \"#utility.yul\":5673:5787   */\n      swap2\n      swap1\n      pop\n      jump\t// out\n        /* \"#utility.yul\":5793:5977   */\n    tag_297:\n        /* \"#utility.yul\":5892:5903   */\n      0x00\n        /* \"#utility.yul\":5926:5932   */\n      dup3\n        /* \"#utility.yul\":5921:5924   */\n      dup3\n        /* \"#utility.yul\":5914:5933   */\n      mstore\n        /* \"#utility.yul\":5966:5970   */\n      0x20\n        /* \"#utility.yul\":5961:5964   */\n      dup3\n        /* \"#utility.yul\":5957:5971   */\n      add\n        /* \"#utility.yul\":5942:5971   */\n      swap1\n      pop\n        /* \"#utility.yul\":5793:5977   */\n      swap3\n      swap2\n      pop\n      pop\n      jump\t// out\n        /* \"#utility.yul\":5983:6115   */\n    tag_298:\n        /* \"#utility.yul\":6050:6054   */\n      0x00\n        /* \"#utility.yul\":6073:6076   */\n      dup2\n        /* \"#utility.yul\":6065:6076   */\n      swap1\n      pop\n        /* \"#utility.yul\":6103:6107   */\n      0x20\n        /* \"#utility.yul\":6098:6101   */\n      dup3\n        /* \"#utility.yul\":6094:6108   */\n      add\n        /* \"#utility.yul\":6086:6108   */\n      swap1\n      pop\n        /* \"#utility.yul\":5983:6115   */\n      swap2\n      swap1\n      pop\n      jump\t// out\n        /* \"#utility.yul\":6121:6229   */\n    tag_299:\n        /* \"#utility.yul\":6198:6222   */\n      tag_405\n        /* \"#utility.yul\":6216:6221   */\n      dup2\n        /* \"#utility.yul\":6198:6222   */\n      tag_281\n      jump\t// in\n    tag_405:\n        /* \"#utility.yul\":6193:6196   */\n      dup3\n        /* \"#utility.yul\":6186:6223   */\n      mstore\n        /* \"#utility.yul\":6121:6229   */\n      pop\n      pop\n      jump\t// out\n        /* \"#utility.yul\":6235:6414   */\n    tag_300:\n        /* \"#utility.yul\":6304:6314   */\n      0x00\n        /* \"#utility.yul\":6325:6371   */\n      tag_407\n        /* \"#utility.yul\":6367:6370   */\n      dup4\n        /* \"#utility.yul\":6359:6365   */\n      dup4\n        /* \"#utility.yul\":6325:6371   */\n      tag_299\n      jump\t// in\n    tag_407:\n        /* \"#utility.yul\":6403:6407   */\n      0x20\n        /* \"#utility.yul\":6398:6401   */\n      dup4\n        /* \"#utility.yul\":6394:6408   */\n      add\n        /* \"#utility.yul\":6380:6408   */\n      swap1\n      pop\n        /* \"#utility.yul\":6235:6414   */\n      swap3\n      swap2\n      pop\n      pop\n      jump\t// out\n        /* \"#utility.yul\":6420:6533   */\n    tag_301:\n        /* \"#utility.yul\":6490:6494   */\n      0x00\n        /* \"#utility.yul\":6522:6526   */\n      0x20\n        /* \"#utility.yul\":6517:6520   */\n      dup3\n        /* \"#utility.yul\":6513:6527   */\n      add\n        /* \"#utility.yul\":6505:6527   */\n      swap1\n      pop\n        /* \"#utility.yul\":6420:6533   */\n      swap2\n      swap1\n      pop\n      jump\t// out\n        /* \"#utility.yul\":6569:7301   */\n    tag_302:\n        /* \"#utility.yul\":6688:6691   */\n      0x00\n        /* \"#utility.yul\":6717:6771   */\n      tag_410\n        /* \"#utility.yul\":6765:6770   */\n      dup3\n        /* \"#utility.yul\":6717:6771   */\n      tag_296\n      jump\t// in\n    tag_410:\n        /* \"#utility.yul\":6787:6873   */\n      tag_411\n        /* \"#utility.yul\":6866:6872   */\n      dup2\n        /* \"#utility.yul\":6861:6864   */\n      dup6\n        /* \"#utility.yul\":6787:6873   */\n      tag_297\n      jump\t// in\n    tag_411:\n        /* \"#utility.yul\":6780:6873   */\n      swap4\n      pop\n        /* \"#utility.yul\":6897:6953   */\n      tag_412\n        /* \"#utility.yul\":6947:6952   */\n      dup4\n        /* \"#utility.yul\":6897:6953   */\n      tag_298\n      jump\t// in\n    tag_412:\n        /* \"#utility.yul\":6976:6983   */\n      dup1\n        /* \"#utility.yul\":7007:7008   */\n      0x00\n        /* \"#utility.yul\":6992:7276   */\n    tag_413:\n        /* \"#utility.yul\":7017:7023   */\n      dup4\n        /* \"#utility.yul\":7014:7015   */\n      dup2\n        /* \"#utility.yul\":7011:7024   */\n      lt\n        /* \"#utility.yul\":6992:7276   */\n      iszero\n      tag_415\n      jumpi\n        /* \"#utility.yul\":7093:7099   */\n      dup2\n        /* \"#utility.yul\":7087:7100   */\n      mload\n        /* \"#utility.yul\":7120:7183   */\n      tag_416\n        /* \"#utility.yul\":7179:7182   */\n      dup9\n        /* \"#utility.yul\":7164:7177   */\n      dup3\n        /* \"#utility.yul\":7120:7183   */\n      tag_300\n      jump\t// in\n    tag_416:\n        /* \"#utility.yul\":7113:7183   */\n      swap8\n      pop\n        /* \"#utility.yul\":7206:7266   */\n      tag_417\n        /* \"#utility.yul\":7259:7265   */\n      dup4\n        /* \"#utility.yul\":7206:7266   */\n      tag_301\n      jump\t// in\n    tag_417:\n        /* \"#utility.yul\":7196:7266   */\n      swap3\n      pop\n        /* \"#utility.yul\":7052:7276   */\n      pop\n        /* \"#utility.yul\":7039:7040   */\n      0x01\n        /* \"#utility.yul\":7036:7037   */\n      dup2\n        /* \"#utility.yul\":7032:7041   */\n      add\n        /* \"#utility.yul\":7027:7041   */\n      swap1\n      pop\n        /* \"#utility.yul\":6992:7276   */\n      jump(tag_413)\n    tag_415:\n        /* \"#utility.yul\":6996:7010   */\n      pop\n        /* \"#utility.yul\":7292:7295   */\n      dup6\n        /* \"#utility.yul\":7285:7295   */\n      swap4\n      pop\n        /* \"#utility.yul\":6693:7301   */\n      pop\n      pop\n      pop\n        /* \"#utility.yul\":6569:7301   */\n      swap3\n      swap2\n      pop\n      pop\n      jump\t// out\n        /* \"#utility.yul\":7307:7680   */\n    tag_36:\n        /* \"#utility.yul\":7450:7454   */\n      0x00\n        /* \"#utility.yul\":7488:7490   */\n      0x20\n        /* \"#utility.yul\":7477:7486   */\n      dup3\n        /* \"#utility.yul\":7473:7491   */\n      add\n        /* \"#utility.yul\":7465:7491   */\n      swap1\n      pop\n        /* \"#utility.yul\":7537:7546   */\n      dup2\n        /* \"#utility.yul\":7531:7535   */\n      dup2\n        /* \"#utility.yul\":7527:7547   */\n      sub\n        /* \"#utility.yul\":7523:7524   */\n      0x00\n        /* \"#utility.yul\":7512:7521   */\n      dup4\n        /* \"#utility.yul\":7508:7525   */\n      add\n        /* \"#utility.yul\":7501:7548   */\n      mstore\n        /* \"#utility.yul\":7565:7673   */\n      tag_419\n        /* \"#utility.yul\":7668:7672   */\n      dup2\n        /* \"#utility.yul\":7659:7665   */\n      dup5\n        /* \"#utility.yul\":7565:7673   */\n      tag_302\n      jump\t// in\n    tag_419:\n        /* \"#utility.yul\":7557:7673   */\n      swap1\n      pop\n        /* \"#utility.yul\":7307:7680   */\n      swap3\n      swap2\n      pop\n      pop\n      jump\t// out\n        /* \"#utility.yul\":7686:8889   */\n    tag_48:\n        /* \"#utility.yul\":7799:7805   */\n      0x00\n        /* \"#utility.yul\":7807:7813   */\n      0x00\n        /* \"#utility.yul\":7815:7821   */\n      0x00\n        /* \"#utility.yul\":7823:7829   */\n      0x00\n        /* \"#utility.yul\":7831:7837   */\n      0x00\n        /* \"#utility.yul\":7839:7845   */\n      0x00\n        /* \"#utility.yul\":7847:7853   */\n      0x00\n        /* \"#utility.yul\":7896:7899   */\n      0xe0\n        /* \"#utility.yul\":7884:7893   */\n      dup9\n        /* \"#utility.yul\":7875:7882   */\n      dup11\n        /* \"#utility.yul\":7871:7894   */\n      sub\n        /* \"#utility.yul\":7867:7900   */\n      slt\n        /* \"#utility.yul\":7864:7984   */\n      iszero\n      tag_421\n      jumpi\n        /* \"#utility.yul\":7903:7982   */\n      tag_422\n      tag_286\n      jump\t// in\n    tag_422:\n        /* \"#utility.yul\":7864:7984   */\n    tag_421:\n        /* \"#utility.yul\":8023:8024   */\n      0x00\n        /* \"#utility.yul\":8048:8101   */\n      tag_423\n        /* \"#utility.yul\":8093:8100   */\n      dup11\n        /* \"#utility.yul\":8084:8090   */\n      dup3\n        /* \"#utility.yul\":8073:8082   */\n      dup12\n        /* \"#utility.yul\":8069:8091   */\n      add\n        /* \"#utility.yul\":8048:8101   */\n      tag_295\n      jump\t// in\n    tag_423:\n        /* \"#utility.yul\":8038:8101   */\n      swap8\n      pop\n        /* \"#utility.yul\":7994:8111   */\n      pop\n        /* \"#utility.yul\":8150:8152   */\n      0x20\n        /* \"#utility.yul\":8176:8229   */\n      tag_424\n        /* \"#utility.yul\":8221:8228   */\n      dup11\n        /* \"#utility.yul\":8212:8218   */\n      dup3\n        /* \"#utility.yul\":8201:8210   */\n      dup12\n        /* \"#utility.yul\":8197:8219   */\n      add\n        /* \"#utility.yul\":8176:8229   */\n      tag_295\n      jump\t// in\n    tag_424:\n        /* \"#utility.yul\":8166:8229   */\n      swap7\n      pop\n        /* \"#utility.yul\":8121:8239   */\n      pop\n        /* \"#utility.yul\":8278:8280   */\n      0x40\n        /* \"#utility.yul\":8304:8357   */\n      tag_425\n        /* \"#utility.yul\":8349:8356   */\n      dup11\n        /* \"#utility.yul\":8340:8346   */\n      dup3\n        /* \"#utility.yul\":8329:8338   */\n      dup12\n        /* \"#utility.yul\":8325:8347   */\n      add\n        /* \"#utility.yul\":8304:8357   */\n      tag_289\n      jump\t// in\n    tag_425:\n        /* \"#utility.yul\":8294:8357   */\n      swap6\n      pop\n        /* \"#utility.yul\":8249:8367   */\n      pop\n        /* \"#utility.yul\":8406:8408   */\n      0x60\n        /* \"#utility.yul\":8432:8485   */\n      tag_426\n        /* \"#utility.yul\":8477:8484   */\n      dup11\n        /* \"#utility.yul\":8468:8474   */\n      dup3\n        /* \"#utility.yul\":8457:8466   */\n      dup12\n        /* \"#utility.yul\":8453:8475   */\n      add\n        /* \"#utility.yul\":8432:8485   */\n      tag_289\n      jump\t// in\n    tag_426:\n        /* \"#utility.yul\":8422:8485   */\n      swap5\n      pop\n        /* \"#utility.yul\":8377:8495   */\n      pop\n        /* \"#utility.yul\":8534:8537   */\n      0x80\n        /* \"#utility.yul\":8561:8614   */\n      tag_427\n        /* \"#utility.yul\":8606:8613   */\n      dup11\n        /* \"#utility.yul\":8597:8603   */\n      dup3\n        /* \"#utility.yul\":8586:8595   */\n      dup12\n        /* \"#utility.yul\":8582:8604   */\n      add\n        /* \"#utility.yul\":8561:8614   */\n      tag_289\n      jump\t// in\n    tag_427:\n        /* \"#utility.yul\":8551:8614   */\n      swap4\n      pop\n        /* \"#utility.yul\":8505:8624   */\n      pop\n        /* \"#utility.yul\":8663:8666   */\n      0xa0\n        /* \"#utility.yul\":8690:8743   */\n      tag_428\n        /* \"#utility.yul\":8735:8742   */\n      dup11\n        /* \"#utility.yul\":8726:8732   */\n      dup3\n        /* \"#utility.yul\":8715:8724   */\n      dup12\n        /* \"#utility.yul\":8711:8733   */\n      add\n        /* \"#utility.yul\":8690:8743   */\n      tag_295\n      jump\t// in\n    tag_428:\n        /* \"#utility.yul\":8680:8743   */\n      swap3\n      pop\n        /* \"#utility.yul\":8634:8753   */\n      pop\n        /* \"#utility.yul\":8792:8795   */\n      0xc0\n        /* \"#utility.yul\":8819:8872   */\n      tag_429\n        /* \"#utility.yul\":8864:8871   */\n      dup11\n        /* \"#utility.yul\":8855:8861   */\n      dup3\n        /* \"#utility.yul\":8844:8853   */\n      dup12\n        /* \"#utility.yul\":8840:8862   */\n      add\n        /* \"#utility.yul\":8819:8872   */\n      tag_289\n      jump\t// in\n    tag_429:\n        /* \"#utility.yul\":8809:8872   */\n      swap2\n      pop\n        /* \"#utility.yul\":8763:8882   */\n      pop\n        /* \"#utility.yul\":7686:8889   */\n      swap3\n      swap6\n      swap9\n      swap2\n      swap5\n      swap8\n      pop\n      swap3\n      swap6\n      pop\n      jump\t// out\n        /* \"#utility.yul\":8895:9227   */\n    tag_51:\n        /* \"#utility.yul\":9016:9020   */\n      0x00\n        /* \"#utility.yul\":9054:9056   */\n      0x40\n        /* \"#utility.yul\":9043:9052   */\n      dup3\n        /* \"#utility.yul\":9039:9057   */\n      add\n        /* \"#utility.yul\":9031:9057   */\n      swap1\n      pop\n        /* \"#utility.yul\":9067:9138   */\n      tag_431\n        /* \"#utility.yul\":9135:9136   */\n      0x00\n        /* \"#utility.yul\":9124:9133   */\n      dup4\n        /* \"#utility.yul\":9120:9137   */\n      add\n        /* \"#utility.yul\":9111:9117   */\n      dup6\n        /* \"#utility.yul\":9067:9138   */\n      tag_282\n      jump\t// in\n    tag_431:\n        /* \"#utility.yul\":9148:9220   */\n      tag_432\n        /* \"#utility.yul\":9216:9218   */\n      0x20\n        /* \"#utility.yul\":9205:9214   */\n      dup4\n        /* \"#utility.yul\":9201:9219   */\n      add\n        /* \"#utility.yul\":9192:9198   */\n      dup5\n        /* \"#utility.yul\":9148:9220   */\n      tag_282\n      jump\t// in\n    tag_432:\n        /* \"#utility.yul\":8895:9227   */\n      swap4\n      swap3\n      pop\n      pop\n      pop\n      jump\t// out\n        /* \"#utility.yul\":9233:10582   */\n    tag_57:\n        /* \"#utility.yul\":9355:9361   */\n      0x00\n        /* \"#utility.yul\":9363:9369   */\n      0x00\n        /* \"#utility.yul\":9371:9377   */\n      0x00\n        /* \"#utility.yul\":9379:9385   */\n      0x00\n        /* \"#utility.yul\":9387:9393   */\n      0x00\n        /* \"#utility.yul\":9395:9401   */\n      0x00\n        /* \"#utility.yul\":9403:9409   */\n      0x00\n        /* \"#utility.yul\":9411:9417   */\n      0x00\n        /* \"#utility.yul\":9460:9463   */\n      0x0100\n        /* \"#utility.yul\":9448:9457   */\n      dup10\n        /* \"#utility.yul\":9439:9446   */\n      dup12\n        /* \"#utility.yul\":9435:9458   */\n      sub\n        /* \"#utility.yul\":9431:9464   */\n      slt\n        /* \"#utility.yul\":9428:9548   */\n      iszero\n      tag_434\n      jumpi\n        /* \"#utility.yul\":9467:9546   */\n      tag_435\n      tag_286\n      jump\t// in\n    tag_435:\n        /* \"#utility.yul\":9428:9548   */\n    tag_434:\n        /* \"#utility.yul\":9587:9588   */\n      0x00\n        /* \"#utility.yul\":9612:9665   */\n      tag_436\n        /* \"#utility.yul\":9657:9664   */\n      dup12\n        /* \"#utility.yul\":9648:9654   */\n      dup3\n        /* \"#utility.yul\":9637:9646   */\n      dup13\n        /* \"#utility.yul\":9633:9655   */\n      add\n        /* \"#utility.yul\":9612:9665   */\n      tag_295\n      jump\t// in\n    tag_436:\n        /* \"#utility.yul\":9602:9665   */\n      swap9\n      pop\n        /* \"#utility.yul\":9558:9675   */\n      pop\n        /* \"#utility.yul\":9714:9716   */\n      0x20\n        /* \"#utility.yul\":9740:9793   */\n      tag_437\n        /* \"#utility.yul\":9785:9792   */\n      dup12\n        /* \"#utility.yul\":9776:9782   */\n      dup3\n        /* \"#utility.yul\":9765:9774   */\n      dup13\n        /* \"#utility.yul\":9761:9783   */\n      add\n        /* \"#utility.yul\":9740:9793   */\n      tag_295\n      jump\t// in\n    tag_437:\n        /* \"#utility.yul\":9730:9793   */\n      swap8\n      pop\n        /* \"#utility.yul\":9685:9803   */\n      pop\n        /* \"#utility.yul\":9842:9844   */\n      0x40\n        /* \"#utility.yul\":9868:9921   */\n      tag_438\n        /* \"#utility.yul\":9913:9920   */\n      dup12\n        /* \"#utility.yul\":9904:9910   */\n      dup3\n        /* \"#utility.yul\":9893:9902   */\n      dup13\n        /* \"#utility.yul\":9889:9911   */\n      add\n        /* \"#utility.yul\":9868:9921   */\n      tag_289\n      jump\t// in\n    tag_438:\n        /* \"#utility.yul\":9858:9921   */\n      swap7\n      pop\n        /* \"#utility.yul\":9813:9931   */\n      pop\n        /* \"#utility.yul\":9970:9972   */\n      0x60\n        /* \"#utility.yul\":9996:10049   */\n      tag_439\n        /* \"#utility.yul\":10041:10048   */\n      dup12\n        /* \"#utility.yul\":10032:10038   */\n      dup3\n        /* \"#utility.yul\":10021:10030   */\n      dup13\n        /* \"#utility.yul\":10017:10039   */\n      add\n        /* \"#utility.yul\":9996:10049   */\n      tag_289\n      jump\t// in\n    tag_439:\n        /* \"#utility.yul\":9986:10049   */\n      swap6\n      pop\n        /* \"#utility.yul\":9941:10059   */\n      pop\n        /* \"#utility.yul\":10098:10101   */\n      0x80\n        /* \"#utility.yul\":10125:10178   */\n      tag_440\n        /* \"#utility.yul\":10170:10177   */\n      dup12\n        /* \"#utility.yul\":10161:10167   */\n      dup3\n        /* \"#utility.yul\":10150:10159   */\n      dup13\n        /* \"#utility.yul\":10146:10168   */\n      add\n        /* \"#utility.yul\":10125:10178   */\n      tag_289\n      jump\t// in\n    tag_440:\n        /* \"#utility.yul\":10115:10178   */\n      swap5\n      pop\n        /* \"#utility.yul\":10069:10188   */\n      pop\n        /* \"#utility.yul\":10227:10230   */\n      0xa0\n        /* \"#utility.yul\":10254:10307   */\n      tag_441\n        /* \"#utility.yul\":10299:10306   */\n      dup12\n        /* \"#utility.yul\":10290:10296   */\n      dup3\n        /* \"#utility.yul\":10279:10288   */\n      dup13\n        /* \"#utility.yul\":10275:10297   */\n      add\n        /* \"#utility.yul\":10254:10307   */\n      tag_289\n      jump\t// in\n    tag_441:\n        /* \"#utility.yul\":10244:10307   */\n      swap4\n      pop\n        /* \"#utility.yul\":10198:10317   */\n      pop\n        /* \"#utility.yul\":10356:10359   */\n      0xc0\n        /* \"#utility.yul\":10383:10436   */\n      tag_442\n        /* \"#utility.yul\":10428:10435   */\n      dup12\n        /* \"#utility.yul\":10419:10425   */\n      dup3\n        /* \"#utility.yul\":10408:10417   */\n      dup13\n        /* \"#utility.yul\":10404:10426   */\n      add\n        /* \"#utility.yul\":10383:10436   */\n      tag_295\n      jump\t// in\n    tag_442:\n        /* \"#utility.yul\":10373:10436   */\n      swap3\n      pop\n        /* \"#utility.yul\":10327:10446   */\n      pop\n        /* \"#utility.yul\":10485:10488   */\n      0xe0\n        /* \"#utility.yul\":10512:10565   */\n      tag_443\n        /* \"#utility.yul\":10557:10564   */\n      dup12\n        /* \"#utility.yul\":10548:10554   */\n      dup3\n        /* \"#utility.yul\":10537:10546   */\n      dup13\n        /* \"#utility.yul\":10533:10555   */\n      add\n        /* \"#utility.yul\":10512:10565   */\n      tag_289\n      jump\t// in\n    tag_443:\n        /* \"#utility.yul\":10502:10565   */\n      swap2\n      pop\n        /* \"#utility.yul\":10456:10575   */\n      pop\n        /* \"#utility.yul\":9233:10582   */\n      swap3\n      swap6\n      swap9\n      pop\n      swap3\n      swap6\n      swap9\n      swap1\n      swap4\n      swap7\n      pop\n      jump\t// out\n        /* \"#utility.yul\":10588:11030   */\n    tag_60:\n        /* \"#utility.yul\":10737:10741   */\n      0x00\n        /* \"#utility.yul\":10775:10777   */\n      0x60\n        /* \"#utility.yul\":10764:10773   */\n      dup3\n        /* \"#utility.yul\":10760:10778   */\n      add\n        /* \"#utility.yul\":10752:10778   */\n      swap1\n      pop\n        /* \"#utility.yul\":10788:10859   */\n      tag_445\n        /* \"#utility.yul\":10856:10857   */\n      0x00\n        /* \"#utility.yul\":10845:10854   */\n      dup4\n        /* \"#utility.yul\":10841:10858   */\n      add\n        /* \"#utility.yul\":10832:10838   */\n      dup7\n        /* \"#utility.yul\":10788:10859   */\n      tag_282\n      jump\t// in\n    tag_445:\n        /* \"#utility.yul\":10869:10941   */\n      tag_446\n        /* \"#utility.yul\":10937:10939   */\n      0x20\n        /* \"#utility.yul\":10926:10935   */\n      dup4\n        /* \"#utility.yul\":10922:10940   */\n      add\n        /* \"#utility.yul\":10913:10919   */\n      dup6\n        /* \"#utility.yul\":10869:10941   */\n      tag_282\n      jump\t// in\n    tag_446:\n        /* \"#utility.yul\":10951:11023   */\n      tag_447\n        /* \"#utility.yul\":11019:11021   */\n      0x40\n        /* \"#utility.yul\":11008:11017   */\n      dup4\n        /* \"#utility.yul\":11004:11022   */\n      add\n        /* \"#utility.yul\":10995:11001   */\n      dup5\n        /* \"#utility.yul\":10951:11023   */\n      tag_282\n      jump\t// in\n    tag_447:\n        /* \"#utility.yul\":10588:11030   */\n      swap5\n      swap4\n      pop\n      pop\n      pop\n      pop\n      jump\t// out\n        /* \"#utility.yul\":11036:11216   */\n    tag_303:\n        /* \"#utility.yul\":11084:11161   */\n      0x4e487b7100000000000000000000000000000000000000000000000000000000\n        /* \"#utility.yul\":11081:11082   */\n      0x00\n        /* \"#utility.yul\":11074:11162   */\n      mstore\n        /* \"#utility.yul\":11181:11185   */\n      0x22\n        /* \"#utility.yul\":11178:11179   */\n      0x04\n        /* \"#utility.yul\":11171:11186   */\n      mstore\n        /* \"#utility.yul\":11205:11209   */\n      0x24\n        /* \"#utility.yul\":11202:11203   */\n      0x00\n        /* \"#utility.yul\":11195:11210   */\n      revert\n        /* \"#utility.yul\":11222:11542   */\n    tag_63:\n        /* \"#utility.yul\":11266:11272   */\n      0x00\n        /* \"#utility.yul\":11303:11304   */\n      0x02\n        /* \"#utility.yul\":11297:11301   */\n      dup3\n        /* \"#utility.yul\":11293:11305   */\n      div\n        /* \"#utility.yul\":11283:11305   */\n      swap1\n      pop\n        /* \"#utility.yul\":11350:11351   */\n      0x01\n        /* \"#utility.yul\":11344:11348   */\n      dup3\n        /* \"#utility.yul\":11340:11352   */\n      and\n        /* \"#utility.yul\":11371:11389   */\n      dup1\n        /* \"#utility.yul\":11361:11442   */\n      tag_450\n      jumpi\n        /* \"#utility.yul\":11427:11431   */\n      0x7f\n        /* \"#utility.yul\":11419:11425   */\n      dup3\n        /* \"#utility.yul\":11415:11432   */\n      and\n        /* \"#utility.yul\":11405:11432   */\n      swap2\n      pop\n        /* \"#utility.yul\":11361:11442   */\n    tag_450:\n        /* \"#utility.yul\":11489:11491   */\n      0x20\n        /* \"#utility.yul\":11481:11487   */\n      dup3\n        /* \"#utility.yul\":11478:11492   */\n      lt\n        /* \"#utility.yul\":11458:11476   */\n      dup2\n        /* \"#utility.yul\":11455:11493   */\n      sub\n        /* \"#utility.yul\":11452:11536   */\n      tag_451\n      jumpi\n        /* \"#utility.yul\":11508:11526   */\n      tag_452\n      tag_303\n      jump\t// in\n    tag_452:\n        /* \"#utility.yul\":11452:11536   */\n    tag_451:\n        /* \"#utility.yul\":11273:11542   */\n      pop\n        /* \"#utility.yul\":11222:11542   */\n      swap2\n      swap1\n      pop\n      jump\t// out\n        /* \"#utility.yul\":11548:11717   */\n    tag_304:\n        /* \"#utility.yul\":11688:11709   */\n      0x5472616e73616374696f6e206578706972656400000000000000000000000000\n        /* \"#utility.yul\":11684:11685   */\n      0x00\n        /* \"#utility.yul\":11676:11682   */\n      dup3\n        /* \"#utility.yul\":11672:11686   */\n      add\n        /* \"#utility.yul\":11665:11710   */\n      mstore\n        /* \"#utility.yul\":11548:11717   */\n      pop\n      jump\t// out\n        /* \"#utility.yul\":11723:12089   */\n    tag_305:\n        /* \"#utility.yul\":11865:11868   */\n      0x00\n        /* \"#utility.yul\":11886:11953   */\n      tag_455\n        /* \"#utility.yul\":11950:11952   */\n      0x13\n        /* \"#utility.yul\":11945:11948   */\n      dup4\n        /* \"#utility.yul\":11886:11953   */\n      tag_274\n      jump\t// in\n    tag_455:\n        /* \"#utility.yul\":11879:11953   */\n      swap2\n      pop\n        /* \"#utility.yul\":11962:12055   */\n      tag_456\n        /* \"#utility.yul\":12051:12054   */\n      dup3\n        /* \"#utility.yul\":11962:12055   */\n      tag_304\n      jump\t// in\n    tag_456:\n        /* \"#utility.yul\":12080:12082   */\n      0x20\n        /* \"#utility.yul\":12075:12078   */\n      dup3\n        /* \"#utility.yul\":12071:12083   */\n      add\n        /* \"#utility.yul\":12064:12083   */\n      swap1\n      pop\n        /* \"#utility.yul\":11723:12089   */\n      swap2\n      swap1\n      pop\n      jump\t// out\n        /* \"#utility.yul\":12095:12514   */\n    tag_72:\n        /* \"#utility.yul\":12261:12265   */\n      0x00\n        /* \"#utility.yul\":12299:12301   */\n      0x20\n        /* \"#utility.yul\":12288:12297   */\n      dup3\n        /* \"#utility.yul\":12284:12302   */\n      add\n        /* \"#utility.yul\":12276:12302   */\n      swap1\n      pop\n        /* \"#utility.yul\":12348:12357   */\n      dup2\n        /* \"#utility.yul\":12342:12346   */\n      dup2\n        /* \"#utility.yul\":12338:12358   */\n      sub\n        /* \"#utility.yul\":12334:12335   */\n      0x00\n        /* \"#utility.yul\":12323:12332   */\n      dup4\n        /* \"#utility.yul\":12319:12336   */\n      add\n        /* \"#utility.yul\":12312:12359   */\n      mstore\n        /* \"#utility.yul\":12376:12507   */\n      tag_458\n        /* \"#utility.yul\":12502:12506   */\n      dup2\n        /* \"#utility.yul\":12376:12507   */\n      tag_305\n      jump\t// in\n    tag_458:\n        /* \"#utility.yul\":12368:12507   */\n      swap1\n      pop\n        /* \"#utility.yul\":12095:12514   */\n      swap2\n      swap1\n      pop\n      jump\t// out\n        /* \"#utility.yul\":12520:12700   */\n    tag_76:\n        /* \"#utility.yul\":12568:12645   */\n      0x4e487b7100000000000000000000000000000000000000000000000000000000\n        /* \"#utility.yul\":12565:12566   */\n      0x00\n        /* \"#utility.yul\":12558:12646   */\n      mstore\n        /* \"#utility.yul\":12665:12669   */\n      0x32\n        /* \"#utility.yul\":12662:12663   */\n      0x04\n        /* \"#utility.yul\":12655:12670   */\n      mstore\n        /* \"#utility.yul\":12689:12693   */\n      0x24\n        /* \"#utility.yul\":12686:12687   */\n      0x00\n        /* \"#utility.yul\":12679:12694   */\n      revert\n        /* \"#utility.yul\":12706:13035   */\n    tag_78:\n        /* \"#utility.yul\":12765:12771   */\n      0x00\n        /* \"#utility.yul\":12814:12816   */\n      0x20\n        /* \"#utility.yul\":12802:12811   */\n      dup3\n        /* \"#utility.yul\":12793:12800   */\n      dup5\n        /* \"#utility.yul\":12789:12812   */\n      sub\n        /* \"#utility.yul\":12785:12817   */\n      slt\n        /* \"#utility.yul\":12782:12901   */\n      iszero\n      tag_461\n      jumpi\n        /* \"#utility.yul\":12820:12899   */\n      tag_462\n      tag_286\n      jump\t// in\n    tag_462:\n        /* \"#utility.yul\":12782:12901   */\n    tag_461:\n        /* \"#utility.yul\":12940:12941   */\n      0x00\n        /* \"#utility.yul\":12965:13018   */\n      tag_463\n        /* \"#utility.yul\":13010:13017   */\n      dup5\n        /* \"#utility.yul\":13001:13007   */\n      dup3\n        /* \"#utility.yul\":12990:12999   */\n      dup6\n        /* \"#utility.yul\":12986:13008   */\n      add\n        /* \"#utility.yul\":12965:13018   */\n      tag_295\n      jump\t// in\n    tag_463:\n        /* \"#utility.yul\":12955:13018   */\n      swap2\n      pop\n        /* \"#utility.yul\":12911:13028   */\n      pop\n        /* \"#utility.yul\":12706:13035   */\n      swap3\n      swap2\n      pop\n      pop\n      jump\t// out\n        /* \"#utility.yul\":13041:13213   */\n    tag_306:\n        /* \"#utility.yul\":13181:13205   */\n      0x696e76616c69642070616972206f6620746f6b656e7300000000000000000000\n        /* \"#utility.yul\":13177:13178   */\n      0x00\n        /* \"#utility.yul\":13169:13175   */\n      dup3\n        /* \"#utility.yul\":13165:13179   */\n      add\n        /* \"#utility.yul\":13158:13206   */\n      mstore\n        /* \"#utility.yul\":13041:13213   */\n      pop\n      jump\t// out\n        /* \"#utility.yul\":13219:13585   */\n    tag_307:\n        /* \"#utility.yul\":13361:13364   */\n      0x00\n        /* \"#utility.yul\":13382:13449   */\n      tag_466\n        /* \"#utility.yul\":13446:13448   */\n      0x16\n        /* \"#utility.yul\":13441:13444   */\n      dup4\n        /* \"#utility.yul\":13382:13449   */\n      tag_274\n      jump\t// in\n    tag_466:\n        /* \"#utility.yul\":13375:13449   */\n      swap2\n      pop\n        /* \"#utility.yul\":13458:13551   */\n      tag_467\n        /* \"#utility.yul\":13547:13550   */\n      dup3\n        /* \"#utility.yul\":13458:13551   */\n      tag_306\n      jump\t// in\n    tag_467:\n        /* \"#utility.yul\":13576:13578   */\n      0x20\n        /* \"#utility.yul\":13571:13574   */\n      dup3\n        /* \"#utility.yul\":13567:13579   */\n      add\n        /* \"#utility.yul\":13560:13579   */\n      swap1\n      pop\n        /* \"#utility.yul\":13219:13585   */\n      swap2\n      swap1\n      pop\n      jump\t// out\n        /* \"#utility.yul\":13591:14010   */\n    tag_84:\n        /* \"#utility.yul\":13757:13761   */\n      0x00\n        /* \"#utility.yul\":13795:13797   */\n      0x20\n        /* \"#utility.yul\":13784:13793   */\n      dup3\n        /* \"#utility.yul\":13780:13798   */\n      add\n        /* \"#utility.yul\":13772:13798   */\n      swap1\n      pop\n        /* \"#utility.yul\":13844:13853   */\n      dup2\n        /* \"#utility.yul\":13838:13842   */\n      dup2\n        /* \"#utility.yul\":13834:13854   */\n      sub\n        /* \"#utility.yul\":13830:13831   */\n      0x00\n        /* \"#utility.yul\":13819:13828   */\n      dup4\n        /* \"#utility.yul\":13815:13832   */\n      add\n        /* \"#utility.yul\":13808:13855   */\n      mstore\n        /* \"#utility.yul\":13872:14003   */\n      tag_469\n        /* \"#utility.yul\":13998:14002   */\n      dup2\n        /* \"#utility.yul\":13872:14003   */\n      tag_307\n      jump\t// in\n    tag_469:\n        /* \"#utility.yul\":13864:14003   */\n      swap1\n      pop\n        /* \"#utility.yul\":13591:14010   */\n      swap2\n      swap1\n      pop\n      jump\t// out\n        /* \"#utility.yul\":14016:14184   */\n    tag_308:\n        /* \"#utility.yul\":14156:14176   */\n      0x696e76616c696420746f6b656e20706169720000000000000000000000000000\n        /* \"#utility.yul\":14152:14153   */\n      0x00\n        /* \"#utility.yul\":14144:14150   */\n      dup3\n        /* \"#utility.yul\":14140:14154   */\n      add\n        /* \"#utility.yul\":14133:14177   */\n      mstore\n        /* \"#utility.yul\":14016:14184   */\n      pop\n      jump\t// out\n        /* \"#utility.yul\":14190:14556   */\n    tag_309:\n        /* \"#utility.yul\":14332:14335   */\n      0x00\n        /* \"#utility.yul\":14353:14420   */\n      tag_472\n        /* \"#utility.yul\":14417:14419   */\n      0x12\n        /* \"#utility.yul\":14412:14415   */\n      dup4\n        /* \"#utility.yul\":14353:14420   */\n      tag_274\n      jump\t// in\n    tag_472:\n        /* \"#utility.yul\":14346:14420   */\n      swap2\n      pop\n        /* \"#utility.yul\":14429:14522   */\n      tag_473\n        /* \"#utility.yul\":14518:14521   */\n      dup3\n        /* \"#utility.yul\":14429:14522   */\n      tag_308\n      jump\t// in\n    tag_473:\n        /* \"#utility.yul\":14547:14549   */\n      0x20\n        /* \"#utility.yul\":14542:14545   */\n      dup3\n        /* \"#utility.yul\":14538:14550   */\n      add\n        /* \"#utility.yul\":14531:14550   */\n      swap1\n      pop\n        /* \"#utility.yul\":14190:14556   */\n      swap2\n      swap1\n      pop\n      jump\t// out\n        /* \"#utility.yul\":14562:14981   */\n    tag_102:\n        /* \"#utility.yul\":14728:14732   */\n      0x00\n        /* \"#utility.yul\":14766:14768   */\n      0x20\n        /* \"#utility.yul\":14755:14764   */\n      dup3\n        /* \"#utility.yul\":14751:14769   */\n      add\n        /* \"#utility.yul\":14743:14769   */\n      swap1\n      pop\n        /* \"#utility.yul\":14815:14824   */\n      dup2\n        /* \"#utility.yul\":14809:14813   */\n      dup2\n        /* \"#utility.yul\":14805:14825   */\n      sub\n        /* \"#utility.yul\":14801:14802   */\n      0x00\n        /* \"#utility.yul\":14790:14799   */\n      dup4\n        /* \"#utility.yul\":14786:14803   */\n      add\n        /* \"#utility.yul\":14779:14826   */\n      mstore\n        /* \"#utility.yul\":14843:14974   */\n      tag_475\n        /* \"#utility.yul\":14969:14973   */\n      dup2\n        /* \"#utility.yul\":14843:14974   */\n      tag_309\n      jump\t// in\n    tag_475:\n        /* \"#utility.yul\":14835:14974   */\n      swap1\n      pop\n        /* \"#utility.yul\":14562:14981   */\n      swap2\n      swap1\n      pop\n      jump\t// out\n        /* \"#utility.yul\":14987:15158   */\n    tag_310:\n        /* \"#utility.yul\":15127:15150   */\n      0x696e73756666696369656e7420616d6f756e74496e0000000000000000000000\n        /* \"#utility.yul\":15123:15124   */\n      0x00\n        /* \"#utility.yul\":15115:15121   */\n      dup3\n        /* \"#utility.yul\":15111:15125   */\n      add\n        /* \"#utility.yul\":15104:15151   */\n      mstore\n        /* \"#utility.yul\":14987:15158   */\n      pop\n      jump\t// out\n        /* \"#utility.yul\":15164:15530   */\n    tag_311:\n        /* \"#utility.yul\":15306:15309   */\n      0x00\n        /* \"#utility.yul\":15327:15394   */\n      tag_478\n        /* \"#utility.yul\":15391:15393   */\n      0x15\n        /* \"#utility.yul\":15386:15389   */\n      dup4\n        /* \"#utility.yul\":15327:15394   */\n      tag_274\n      jump\t// in\n    tag_478:\n        /* \"#utility.yul\":15320:15394   */\n      swap2\n      pop\n        /* \"#utility.yul\":15403:15496   */\n      tag_479\n        /* \"#utility.yul\":15492:15495   */\n      dup3\n        /* \"#utility.yul\":15403:15496   */\n      tag_310\n      jump\t// in\n    tag_479:\n        /* \"#utility.yul\":15521:15523   */\n      0x20\n        /* \"#utility.yul\":15516:15519   */\n      dup3\n        /* \"#utility.yul\":15512:15524   */\n      add\n        /* \"#utility.yul\":15505:15524   */\n      swap1\n      pop\n        /* \"#utility.yul\":15164:15530   */\n      swap2\n      swap1\n      pop\n      jump\t// out\n        /* \"#utility.yul\":15536:15955   */\n    tag_105:\n        /* \"#utility.yul\":15702:15706   */\n      0x00\n        /* \"#utility.yul\":15740:15742   */\n      0x20\n        /* \"#utility.yul\":15729:15738   */\n      dup3\n        /* \"#utility.yul\":15725:15743   */\n      add\n        /* \"#utility.yul\":15717:15743   */\n      swap1\n      pop\n        /* \"#utility.yul\":15789:15798   */\n      dup2\n        /* \"#utility.yul\":15783:15787   */\n      dup2\n        /* \"#utility.yul\":15779:15799   */\n      sub\n        /* \"#utility.yul\":15775:15776   */\n      0x00\n        /* \"#utility.yul\":15764:15773   */\n      dup4\n        /* \"#utility.yul\":15760:15777   */\n      add\n        /* \"#utility.yul\":15753:15800   */\n      mstore\n        /* \"#utility.yul\":15817:15948   */\n      tag_481\n        /* \"#utility.yul\":15943:15947   */\n      dup2\n        /* \"#utility.yul\":15817:15948   */\n      tag_311\n      jump\t// in\n    tag_481:\n        /* \"#utility.yul\":15809:15948   */\n      swap1\n      pop\n        /* \"#utility.yul\":15536:15955   */\n      swap2\n      swap1\n      pop\n      jump\t// out\n        /* \"#utility.yul\":15961:16403   */\n    tag_111:\n        /* \"#utility.yul\":16110:16114   */\n      0x00\n        /* \"#utility.yul\":16148:16150   */\n      0x60\n        /* \"#utility.yul\":16137:16146   */\n      dup3\n        /* \"#utility.yul\":16133:16151   */\n      add\n        /* \"#utility.yul\":16125:16151   */\n      swap1\n      pop\n        /* \"#utility.yul\":16161:16232   */\n      tag_483\n        /* \"#utility.yul\":16229:16230   */\n      0x00\n        /* \"#utility.yul\":16218:16227   */\n      dup4\n        /* \"#utility.yul\":16214:16231   */\n      add\n        /* \"#utility.yul\":16205:16211   */\n      dup7\n        /* \"#utility.yul\":16161:16232   */\n      tag_280\n      jump\t// in\n    tag_483:\n        /* \"#utility.yul\":16242:16314   */\n      tag_484\n        /* \"#utility.yul\":16310:16312   */\n      0x20\n        /* \"#utility.yul\":16299:16308   */\n      dup4\n        /* \"#utility.yul\":16295:16313   */\n      add\n        /* \"#utility.yul\":16286:16292   */\n      dup6\n        /* \"#utility.yul\":16242:16314   */\n      tag_280\n      jump\t// in\n    tag_484:\n        /* \"#utility.yul\":16324:16396   */\n      tag_485\n        /* \"#utility.yul\":16392:16394   */\n      0x40\n        /* \"#utility.yul\":16381:16390   */\n      dup4\n        /* \"#utility.yul\":16377:16395   */\n      add\n        /* \"#utility.yul\":16368:16374   */\n      dup5\n        /* \"#utility.yul\":16324:16396   */\n      tag_282\n      jump\t// in\n    tag_485:\n        /* \"#utility.yul\":15961:16403   */\n      swap5\n      swap4\n      pop\n      pop\n      pop\n      pop\n      jump\t// out\n        /* \"#utility.yul\":16409:16499   */\n    tag_312:\n        /* \"#utility.yul\":16443:16450   */\n      0x00\n        /* \"#utility.yul\":16486:16491   */\n      dup2\n        /* \"#utility.yul\":16479:16492   */\n      iszero\n        /* \"#utility.yul\":16472:16493   */\n      iszero\n        /* \"#utility.yul\":16461:16493   */\n      swap1\n      pop\n        /* \"#utility.yul\":16409:16499   */\n      swap2\n      swap1\n      pop\n      jump\t// out\n        /* \"#utility.yul\":16505:16621   */\n    tag_313:\n        /* \"#utility.yul\":16575:16596   */\n      tag_488\n        /* \"#utility.yul\":16590:16595   */\n      dup2\n        /* \"#utility.yul\":16575:16596   */\n      tag_312\n      jump\t// in\n    tag_488:\n        /* \"#utility.yul\":16568:16573   */\n      dup2\n        /* \"#utility.yul\":16565:16597   */\n      eq\n        /* \"#utility.yul\":16555:16615   */\n      tag_489\n      jumpi\n        /* \"#utility.yul\":16611:16612   */\n      0x00\n        /* \"#utility.yul\":16608:16609   */\n      0x00\n        /* \"#utility.yul\":16601:16613   */\n      revert\n        /* \"#utility.yul\":16555:16615   */\n    tag_489:\n        /* \"#utility.yul\":16505:16621   */\n      pop\n      jump\t// out\n        /* \"#utility.yul\":16627:16764   */\n    tag_314:\n        /* \"#utility.yul\":16681:16686   */\n      0x00\n        /* \"#utility.yul\":16712:16718   */\n      dup2\n        /* \"#utility.yul\":16706:16719   */\n      mload\n        /* \"#utility.yul\":16697:16719   */\n      swap1\n      pop\n        /* \"#utility.yul\":16728:16758   */\n      tag_491\n        /* \"#utility.yul\":16752:16757   */\n      dup2\n        /* \"#utility.yul\":16728:16758   */\n      tag_313\n      jump\t// in\n    tag_491:\n        /* \"#utility.yul\":16627:16764   */\n      swap3\n      swap2\n      pop\n      pop\n      jump\t// out\n        /* \"#utility.yul\":16770:17115   */\n    tag_115:\n        /* \"#utility.yul\":16837:16843   */\n      0x00\n        /* \"#utility.yul\":16886:16888   */\n      0x20\n        /* \"#utility.yul\":16874:16883   */\n      dup3\n        /* \"#utility.yul\":16865:16872   */\n      dup5\n        /* \"#utility.yul\":16861:16884   */\n      sub\n        /* \"#utility.yul\":16857:16889   */\n      slt\n        /* \"#utility.yul\":16854:16973   */\n      iszero\n      tag_493\n      jumpi\n        /* \"#utility.yul\":16892:16971   */\n      tag_494\n      tag_286\n      jump\t// in\n    tag_494:\n        /* \"#utility.yul\":16854:16973   */\n    tag_493:\n        /* \"#utility.yul\":17012:17013   */\n      0x00\n        /* \"#utility.yul\":17037:17098   */\n      tag_495\n        /* \"#utility.yul\":17090:17097   */\n      dup5\n        /* \"#utility.yul\":17081:17087   */\n      dup3\n        /* \"#utility.yul\":17070:17079   */\n      dup6\n        /* \"#utility.yul\":17066:17088   */\n      add\n        /* \"#utility.yul\":17037:17098   */\n      tag_314\n      jump\t// in\n    tag_495:\n        /* \"#utility.yul\":17027:17098   */\n      swap2\n      pop\n        /* \"#utility.yul\":16983:17108   */\n      pop\n        /* \"#utility.yul\":16770:17115   */\n      swap3\n      swap2\n      pop\n      pop\n      jump\t// out\n        /* \"#utility.yul\":17121:17301   */\n    tag_315:\n        /* \"#utility.yul\":17169:17246   */\n      0x4e487b7100000000000000000000000000000000000000000000000000000000\n        /* \"#utility.yul\":17166:17167   */\n      0x00\n        /* \"#utility.yul\":17159:17247   */\n      mstore\n        /* \"#utility.yul\":17266:17270   */\n      0x11\n        /* \"#utility.yul\":17263:17264   */\n      0x04\n        /* \"#utility.yul\":17256:17271   */\n      mstore\n        /* \"#utility.yul\":17290:17294   */\n      0x24\n        /* \"#utility.yul\":17287:17288   */\n      0x00\n        /* \"#utility.yul\":17280:17295   */\n      revert\n        /* \"#utility.yul\":17307:17498   */\n    tag_117:\n        /* \"#utility.yul\":17347:17350   */\n      0x00\n        /* \"#utility.yul\":17366:17386   */\n      tag_498\n        /* \"#utility.yul\":17384:17385   */\n      dup3\n        /* \"#utility.yul\":17366:17386   */\n      tag_281\n      jump\t// in\n    tag_498:\n        /* \"#utility.yul\":17361:17386   */\n      swap2\n      pop\n        /* \"#utility.yul\":17400:17420   */\n      tag_499\n        /* \"#utility.yul\":17418:17419   */\n      dup4\n        /* \"#utility.yul\":17400:17420   */\n      tag_281\n      jump\t// in\n    tag_499:\n        /* \"#utility.yul\":17395:17420   */\n      swap3\n      pop\n        /* \"#utility.yul\":17443:17444   */\n      dup3\n        /* \"#utility.yul\":17440:17441   */\n      dup3\n        /* \"#utility.yul\":17436:17445   */\n      add\n        /* \"#utility.yul\":17429:17445   */\n      swap1\n      pop\n        /* \"#utility.yul\":17464:17467   */\n      dup1\n        /* \"#utility.yul\":17461:17462   */\n      dup3\n        /* \"#utility.yul\":17458:17468   */\n      gt\n        /* \"#utility.yul\":17455:17491   */\n      iszero\n      tag_500\n      jumpi\n        /* \"#utility.yul\":17471:17489   */\n      tag_501\n      tag_315\n      jump\t// in\n    tag_501:\n        /* \"#utility.yul\":17455:17491   */\n    tag_500:\n        /* \"#utility.yul\":17307:17498   */\n      swap3\n      swap2\n      pop\n      pop\n      jump\t// out\n        /* \"#utility.yul\":17504:17914   */\n    tag_119:\n        /* \"#utility.yul\":17544:17551   */\n      0x00\n        /* \"#utility.yul\":17567:17587   */\n      tag_503\n        /* \"#utility.yul\":17585:17586   */\n      dup3\n        /* \"#utility.yul\":17567:17587   */\n      tag_281\n      jump\t// in\n    tag_503:\n        /* \"#utility.yul\":17562:17587   */\n      swap2\n      pop\n        /* \"#utility.yul\":17601:17621   */\n      tag_504\n        /* \"#utility.yul\":17619:17620   */\n      dup4\n        /* \"#utility.yul\":17601:17621   */\n      tag_281\n      jump\t// in\n    tag_504:\n        /* \"#utility.yul\":17596:17621   */\n      swap3\n      pop\n        /* \"#utility.yul\":17656:17657   */\n      dup3\n        /* \"#utility.yul\":17653:17654   */\n      dup3\n        /* \"#utility.yul\":17649:17658   */\n      mul\n        /* \"#utility.yul\":17678:17708   */\n      tag_505\n        /* \"#utility.yul\":17696:17707   */\n      dup2\n        /* \"#utility.yul\":17678:17708   */\n      tag_281\n      jump\t// in\n    tag_505:\n        /* \"#utility.yul\":17667:17708   */\n      swap2\n      pop\n        /* \"#utility.yul\":17857:17858   */\n      dup3\n        /* \"#utility.yul\":17848:17855   */\n      dup3\n        /* \"#utility.yul\":17844:17859   */\n      div\n        /* \"#utility.yul\":17841:17842   */\n      dup5\n        /* \"#utility.yul\":17838:17860   */\n      eq\n        /* \"#utility.yul\":17818:17819   */\n      dup4\n        /* \"#utility.yul\":17811:17820   */\n      iszero\n        /* \"#utility.yul\":17791:17874   */\n      or\n        /* \"#utility.yul\":17768:17907   */\n      tag_506\n      jumpi\n        /* \"#utility.yul\":17887:17905   */\n      tag_507\n      tag_315\n      jump\t// in\n    tag_507:\n        /* \"#utility.yul\":17768:17907   */\n    tag_506:\n        /* \"#utility.yul\":17552:17914   */\n      pop\n        /* \"#utility.yul\":17504:17914   */\n      swap3\n      swap2\n      pop\n      pop\n      jump\t// out\n        /* \"#utility.yul\":17920:18100   */\n    tag_316:\n        /* \"#utility.yul\":17968:18045   */\n      0x4e487b7100000000000000000000000000000000000000000000000000000000\n        /* \"#utility.yul\":17965:17966   */\n      0x00\n        /* \"#utility.yul\":17958:18046   */\n      mstore\n        /* \"#utility.yul\":18065:18069   */\n      0x12\n        /* \"#utility.yul\":18062:18063   */\n      0x04\n        /* \"#utility.yul\":18055:18070   */\n      mstore\n        /* \"#utility.yul\":18089:18093   */\n      0x24\n        /* \"#utility.yul\":18086:18087   */\n      0x00\n        /* \"#utility.yul\":18079:18094   */\n      revert\n        /* \"#utility.yul\":18106:18291   */\n    tag_121:\n        /* \"#utility.yul\":18146:18147   */\n      0x00\n        /* \"#utility.yul\":18163:18183   */\n      tag_510\n        /* \"#utility.yul\":18181:18182   */\n      dup3\n        /* \"#utility.yul\":18163:18183   */\n      tag_281\n      jump\t// in\n    tag_510:\n        /* \"#utility.yul\":18158:18183   */\n      swap2\n      pop\n        /* \"#utility.yul\":18197:18217   */\n      tag_511\n        /* \"#utility.yul\":18215:18216   */\n      dup4\n        /* \"#utility.yul\":18197:18217   */\n      tag_281\n      jump\t// in\n    tag_511:\n        /* \"#utility.yul\":18192:18217   */\n      swap3\n      pop\n        /* \"#utility.yul\":18236:18237   */\n      dup3\n        /* \"#utility.yul\":18226:18261   */\n      tag_512\n      jumpi\n        /* \"#utility.yul\":18241:18259   */\n      tag_513\n      tag_316\n      jump\t// in\n    tag_513:\n        /* \"#utility.yul\":18226:18261   */\n    tag_512:\n        /* \"#utility.yul\":18283:18284   */\n      dup3\n        /* \"#utility.yul\":18280:18281   */\n      dup3\n        /* \"#utility.yul\":18276:18285   */\n      div\n        /* \"#utility.yul\":18271:18285   */\n      swap1\n      pop\n        /* \"#utility.yul\":18106:18291   */\n      swap3\n      swap2\n      pop\n      pop\n      jump\t// out\n        /* \"#utility.yul\":18297:18468   */\n    tag_317:\n        /* \"#utility.yul\":18437:18460   */\n      0x696e737566696369656e7420616d6f756e744f75740000000000000000000000\n        /* \"#utility.yul\":18433:18434   */\n      0x00\n        /* \"#utility.yul\":18425:18431   */\n      dup3\n        /* \"#utility.yul\":18421:18435   */\n      add\n        /* \"#utility.yul\":18414:18461   */\n      mstore\n        /* \"#utility.yul\":18297:18468   */\n      pop\n      jump\t// out\n        /* \"#utility.yul\":18474:18840   */\n    tag_318:\n        /* \"#utility.yul\":18616:18619   */\n      0x00\n        /* \"#utility.yul\":18637:18704   */\n      tag_516\n        /* \"#utility.yul\":18701:18703   */\n      0x15\n        /* \"#utility.yul\":18696:18699   */\n      dup4\n        /* \"#utility.yul\":18637:18704   */\n      tag_274\n      jump\t// in\n    tag_516:\n        /* \"#utility.yul\":18630:18704   */\n      swap2\n      pop\n        /* \"#utility.yul\":18713:18806   */\n      tag_517\n        /* \"#utility.yul\":18802:18805   */\n      dup3\n        /* \"#utility.yul\":18713:18806   */\n      tag_317\n      jump\t// in\n    tag_517:\n        /* \"#utility.yul\":18831:18833   */\n      0x20\n        /* \"#utility.yul\":18826:18829   */\n      dup3\n        /* \"#utility.yul\":18822:18834   */\n      add\n        /* \"#utility.yul\":18815:18834   */\n      swap1\n      pop\n        /* \"#utility.yul\":18474:18840   */\n      swap2\n      swap1\n      pop\n      jump\t// out\n        /* \"#utility.yul\":18846:19265   */\n    tag_124:\n        /* \"#utility.yul\":19012:19016   */\n      0x00\n        /* \"#utility.yul\":19050:19052   */\n      0x20\n        /* \"#utility.yul\":19039:19048   */\n      dup3\n        /* \"#utility.yul\":19035:19053   */\n      add\n        /* \"#utility.yul\":19027:19053   */\n      swap1\n      pop\n        /* \"#utility.yul\":19099:19108   */\n      dup2\n        /* \"#utility.yul\":19093:19097   */\n      dup2\n        /* \"#utility.yul\":19089:19109   */\n      sub\n        /* \"#utility.yul\":19085:19086   */\n      0x00\n        /* \"#utility.yul\":19074:19083   */\n      dup4\n        /* \"#utility.yul\":19070:19087   */\n      add\n        /* \"#utility.yul\":19063:19110   */\n      mstore\n        /* \"#utility.yul\":19127:19258   */\n      tag_519\n        /* \"#utility.yul\":19253:19257   */\n      dup2\n        /* \"#utility.yul\":19127:19258   */\n      tag_318\n      jump\t// in\n    tag_519:\n        /* \"#utility.yul\":19119:19258   */\n      swap1\n      pop\n        /* \"#utility.yul\":18846:19265   */\n      swap2\n      swap1\n      pop\n      jump\t// out\n        /* \"#utility.yul\":19271:19603   */\n    tag_126:\n        /* \"#utility.yul\":19392:19396   */\n      0x00\n        /* \"#utility.yul\":19430:19432   */\n      0x40\n        /* \"#utility.yul\":19419:19428   */\n      dup3\n        /* \"#utility.yul\":19415:19433   */\n      add\n        /* \"#utility.yul\":19407:19433   */\n      swap1\n      pop\n        /* \"#utility.yul\":19443:19514   */\n      tag_521\n        /* \"#utility.yul\":19511:19512   */\n      0x00\n        /* \"#utility.yul\":19500:19509   */\n      dup4\n        /* \"#utility.yul\":19496:19513   */\n      add\n        /* \"#utility.yul\":19487:19493   */\n      dup6\n        /* \"#utility.yul\":19443:19514   */\n      tag_280\n      jump\t// in\n    tag_521:\n        /* \"#utility.yul\":19524:19596   */\n      tag_522\n        /* \"#utility.yul\":19592:19594   */\n      0x20\n        /* \"#utility.yul\":19581:19590   */\n      dup4\n        /* \"#utility.yul\":19577:19595   */\n      add\n        /* \"#utility.yul\":19568:19574   */\n      dup5\n        /* \"#utility.yul\":19524:19596   */\n      tag_282\n      jump\t// in\n    tag_522:\n        /* \"#utility.yul\":19271:19603   */\n      swap4\n      swap3\n      pop\n      pop\n      pop\n      jump\t// out\n        /* \"#utility.yul\":19609:19803   */\n    tag_132:\n        /* \"#utility.yul\":19649:19653   */\n      0x00\n        /* \"#utility.yul\":19669:19689   */\n      tag_524\n        /* \"#utility.yul\":19687:19688   */\n      dup3\n        /* \"#utility.yul\":19669:19689   */\n      tag_281\n      jump\t// in\n    tag_524:\n        /* \"#utility.yul\":19664:19689   */\n      swap2\n      pop\n        /* \"#utility.yul\":19703:19723   */\n      tag_525\n        /* \"#utility.yul\":19721:19722   */\n      dup4\n        /* \"#utility.yul\":19703:19723   */\n      tag_281\n      jump\t// in\n    tag_525:\n        /* \"#utility.yul\":19698:19723   */\n      swap3\n      pop\n        /* \"#utility.yul\":19747:19748   */\n      dup3\n        /* \"#utility.yul\":19744:19745   */\n      dup3\n        /* \"#utility.yul\":19740:19749   */\n      sub\n        /* \"#utility.yul\":19732:19749   */\n      swap1\n      pop\n        /* \"#utility.yul\":19771:19772   */\n      dup2\n        /* \"#utility.yul\":19765:19769   */\n      dup2\n        /* \"#utility.yul\":19762:19773   */\n      gt\n        /* \"#utility.yul\":19759:19796   */\n      iszero\n      tag_526\n      jumpi\n        /* \"#utility.yul\":19776:19794   */\n      tag_527\n      tag_315\n      jump\t// in\n    tag_527:\n        /* \"#utility.yul\":19759:19796   */\n    tag_526:\n        /* \"#utility.yul\":19609:19803   */\n      swap3\n      swap2\n      pop\n      pop\n      jump\t// out\n        /* \"#utility.yul\":19809:19989   */\n    tag_151:\n        /* \"#utility.yul\":19857:19934   */\n      0x4e487b7100000000000000000000000000000000000000000000000000000000\n        /* \"#utility.yul\":19854:19855   */\n      0x00\n        /* \"#utility.yul\":19847:19935   */\n      mstore\n        /* \"#utility.yul\":19954:19958   */\n      0x41\n        /* \"#utility.yul\":19951:19952   */\n      0x04\n        /* \"#utility.yul\":19944:19959   */\n      mstore\n        /* \"#utility.yul\":19978:19982   */\n      0x24\n        /* \"#utility.yul\":19975:19976   */\n      0x00\n        /* \"#utility.yul\":19968:19983   */\n      revert\n        /* \"#utility.yul\":19995:20548   */\n    tag_164:\n        /* \"#utility.yul\":20172:20176   */\n      0x00\n        /* \"#utility.yul\":20210:20213   */\n      0x80\n        /* \"#utility.yul\":20199:20208   */\n      dup3\n        /* \"#utility.yul\":20195:20214   */\n      add\n        /* \"#utility.yul\":20187:20214   */\n      swap1\n      pop\n        /* \"#utility.yul\":20224:20295   */\n      tag_530\n        /* \"#utility.yul\":20292:20293   */\n      0x00\n        /* \"#utility.yul\":20281:20290   */\n      dup4\n        /* \"#utility.yul\":20277:20294   */\n      add\n        /* \"#utility.yul\":20268:20274   */\n      dup8\n        /* \"#utility.yul\":20224:20295   */\n      tag_280\n      jump\t// in\n    tag_530:\n        /* \"#utility.yul\":20305:20377   */\n      tag_531\n        /* \"#utility.yul\":20373:20375   */\n      0x20\n        /* \"#utility.yul\":20362:20371   */\n      dup4\n        /* \"#utility.yul\":20358:20376   */\n      add\n        /* \"#utility.yul\":20349:20355   */\n      dup7\n        /* \"#utility.yul\":20305:20377   */\n      tag_282\n      jump\t// in\n    tag_531:\n        /* \"#utility.yul\":20387:20459   */\n      tag_532\n        /* \"#utility.yul\":20455:20457   */\n      0x40\n        /* \"#utility.yul\":20444:20453   */\n      dup4\n        /* \"#utility.yul\":20440:20458   */\n      add\n        /* \"#utility.yul\":20431:20437   */\n      dup6\n        /* \"#utility.yul\":20387:20459   */\n      tag_280\n      jump\t// in\n    tag_532:\n        /* \"#utility.yul\":20469:20541   */\n      tag_533\n        /* \"#utility.yul\":20537:20539   */\n      0x60\n        /* \"#utility.yul\":20526:20535   */\n      dup4\n        /* \"#utility.yul\":20522:20540   */\n      add\n        /* \"#utility.yul\":20513:20519   */\n      dup5\n        /* \"#utility.yul\":20469:20541   */\n      tag_282\n      jump\t// in\n    tag_533:\n        /* \"#utility.yul\":19995:20548   */\n      swap6\n      swap5\n      pop\n      pop\n      pop\n      pop\n      pop\n      jump\t// out\n        /* \"#utility.yul\":20554:20722   */\n    tag_319:\n        /* \"#utility.yul\":20694:20714   */\n      0x496e76616c696420746f6b656e20706169720000000000000000000000000000\n        /* \"#utility.yul\":20690:20691   */\n      0x00\n        /* \"#utility.yul\":20682:20688   */\n      dup3\n        /* \"#utility.yul\":20678:20692   */\n      add\n        /* \"#utility.yul\":20671:20715   */\n      mstore\n        /* \"#utility.yul\":20554:20722   */\n      pop\n      jump\t// out\n        /* \"#utility.yul\":20728:21094   */\n    tag_320:\n        /* \"#utility.yul\":20870:20873   */\n      0x00\n        /* \"#utility.yul\":20891:20958   */\n      tag_536\n        /* \"#utility.yul\":20955:20957   */\n      0x12\n        /* \"#utility.yul\":20950:20953   */\n      dup4\n        /* \"#utility.yul\":20891:20958   */\n      tag_274\n      jump\t// in\n    tag_536:\n        /* \"#utility.yul\":20884:20958   */\n      swap2\n      pop\n        /* \"#utility.yul\":20967:21060   */\n      tag_537\n        /* \"#utility.yul\":21056:21059   */\n      dup3\n        /* \"#utility.yul\":20967:21060   */\n      tag_319\n      jump\t// in\n    tag_537:\n        /* \"#utility.yul\":21085:21087   */\n      0x20\n        /* \"#utility.yul\":21080:21083   */\n      dup3\n        /* \"#utility.yul\":21076:21088   */\n      add\n        /* \"#utility.yul\":21069:21088   */\n      swap1\n      pop\n        /* \"#utility.yul\":20728:21094   */\n      swap2\n      swap1\n      pop\n      jump\t// out\n        /* \"#utility.yul\":21100:21519   */\n    tag_177:\n        /* \"#utility.yul\":21266:21270   */\n      0x00\n        /* \"#utility.yul\":21304:21306   */\n      0x20\n        /* \"#utility.yul\":21293:21302   */\n      dup3\n        /* \"#utility.yul\":21289:21307   */\n      add\n        /* \"#utility.yul\":21281:21307   */\n      swap1\n      pop\n        /* \"#utility.yul\":21353:21362   */\n      dup2\n        /* \"#utility.yul\":21347:21351   */\n      dup2\n        /* \"#utility.yul\":21343:21363   */\n      sub\n        /* \"#utility.yul\":21339:21340   */\n      0x00\n        /* \"#utility.yul\":21328:21337   */\n      dup4\n        /* \"#utility.yul\":21324:21341   */\n      add\n        /* \"#utility.yul\":21317:21364   */\n      mstore\n        /* \"#utility.yul\":21381:21512   */\n      tag_539\n        /* \"#utility.yul\":21507:21511   */\n      dup2\n        /* \"#utility.yul\":21381:21512   */\n      tag_320\n      jump\t// in\n    tag_539:\n        /* \"#utility.yul\":21373:21512   */\n      swap1\n      pop\n        /* \"#utility.yul\":21100:21519   */\n      swap2\n      swap1\n      pop\n      jump\t// out\n        /* \"#utility.yul\":21525:21696   */\n    tag_321:\n        /* \"#utility.yul\":21665:21688   */\n      0x616d6f756e74412062656c6f77206d696e696d756d0000000000000000000000\n        /* \"#utility.yul\":21661:21662   */\n      0x00\n        /* \"#utility.yul\":21653:21659   */\n      dup3\n        /* \"#utility.yul\":21649:21663   */\n      add\n        /* \"#utility.yul\":21642:21689   */\n      mstore\n        /* \"#utility.yul\":21525:21696   */\n      pop\n      jump\t// out\n        /* \"#utility.yul\":21702:22068   */\n    tag_322:\n        /* \"#utility.yul\":21844:21847   */\n      0x00\n        /* \"#utility.yul\":21865:21932   */\n      tag_542\n        /* \"#utility.yul\":21929:21931   */\n      0x15\n        /* \"#utility.yul\":21924:21927   */\n      dup4\n        /* \"#utility.yul\":21865:21932   */\n      tag_274\n      jump\t// in\n    tag_542:\n        /* \"#utility.yul\":21858:21932   */\n      swap2\n      pop\n        /* \"#utility.yul\":21941:22034   */\n      tag_543\n        /* \"#utility.yul\":22030:22033   */\n      dup3\n        /* \"#utility.yul\":21941:22034   */\n      tag_321\n      jump\t// in\n    tag_543:\n        /* \"#utility.yul\":22059:22061   */\n      0x20\n        /* \"#utility.yul\":22054:22057   */\n      dup3\n        /* \"#utility.yul\":22050:22062   */\n      add\n        /* \"#utility.yul\":22043:22062   */\n      swap1\n      pop\n        /* \"#utility.yul\":21702:22068   */\n      swap2\n      swap1\n      pop\n      jump\t// out\n        /* \"#utility.yul\":22074:22493   */\n    tag_184:\n        /* \"#utility.yul\":22240:22244   */\n      0x00\n        /* \"#utility.yul\":22278:22280   */\n      0x20\n        /* \"#utility.yul\":22267:22276   */\n      dup3\n        /* \"#utility.yul\":22263:22281   */\n      add\n        /* \"#utility.yul\":22255:22281   */\n      swap1\n      pop\n        /* \"#utility.yul\":22327:22336   */\n      dup2\n        /* \"#utility.yul\":22321:22325   */\n      dup2\n        /* \"#utility.yul\":22317:22337   */\n      sub\n        /* \"#utility.yul\":22313:22314   */\n      0x00\n        /* \"#utility.yul\":22302:22311   */\n      dup4\n        /* \"#utility.yul\":22298:22315   */\n      add\n        /* \"#utility.yul\":22291:22338   */\n      mstore\n        /* \"#utility.yul\":22355:22486   */\n      tag_545\n        /* \"#utility.yul\":22481:22485   */\n      dup2\n        /* \"#utility.yul\":22355:22486   */\n      tag_322\n      jump\t// in\n    tag_545:\n        /* \"#utility.yul\":22347:22486   */\n      swap1\n      pop\n        /* \"#utility.yul\":22074:22493   */\n      swap2\n      swap1\n      pop\n      jump\t// out\n        /* \"#utility.yul\":22499:22670   */\n    tag_323:\n        /* \"#utility.yul\":22639:22662   */\n      0x616d6f756e74422062656c6f77206d696e696d756d0000000000000000000000\n        /* \"#utility.yul\":22635:22636   */\n      0x00\n        /* \"#utility.yul\":22627:22633   */\n      dup3\n        /* \"#utility.yul\":22623:22637   */\n      add\n        /* \"#utility.yul\":22616:22663   */\n      mstore\n        /* \"#utility.yul\":22499:22670   */\n      pop\n      jump\t// out\n        /* \"#utility.yul\":22676:23042   */\n    tag_324:\n        /* \"#utility.yul\":22818:22821   */\n      0x00\n        /* \"#utility.yul\":22839:22906   */\n      tag_548\n        /* \"#utility.yul\":22903:22905   */\n      0x15\n        /* \"#utility.yul\":22898:22901   */\n      dup4\n        /* \"#utility.yul\":22839:22906   */\n      tag_274\n      jump\t// in\n    tag_548:\n        /* \"#utility.yul\":22832:22906   */\n      swap2\n      pop\n        /* \"#utility.yul\":22915:23008   */\n      tag_549\n        /* \"#utility.yul\":23004:23007   */\n      dup3\n        /* \"#utility.yul\":22915:23008   */\n      tag_323\n      jump\t// in\n    tag_549:\n        /* \"#utility.yul\":23033:23035   */\n      0x20\n        /* \"#utility.yul\":23028:23031   */\n      dup3\n        /* \"#utility.yul\":23024:23036   */\n      add\n        /* \"#utility.yul\":23017:23036   */\n      swap1\n      pop\n        /* \"#utility.yul\":22676:23042   */\n      swap2\n      swap1\n      pop\n      jump\t// out\n        /* \"#utility.yul\":23048:23467   */\n    tag_187:\n        /* \"#utility.yul\":23214:23218   */\n      0x00\n        /* \"#utility.yul\":23252:23254   */\n      0x20\n        /* \"#utility.yul\":23241:23250   */\n      dup3\n        /* \"#utility.yul\":23237:23255   */\n      add\n        /* \"#utility.yul\":23229:23255   */\n      swap1\n      pop\n        /* \"#utility.yul\":23301:23310   */\n      dup2\n        /* \"#utility.yul\":23295:23299   */\n      dup2\n        /* \"#utility.yul\":23291:23311   */\n      sub\n        /* \"#utility.yul\":23287:23288   */\n      0x00\n        /* \"#utility.yul\":23276:23285   */\n      dup4\n        /* \"#utility.yul\":23272:23289   */\n      add\n        /* \"#utility.yul\":23265:23312   */\n      mstore\n        /* \"#utility.yul\":23329:23460   */\n      tag_551\n        /* \"#utility.yul\":23455:23459   */\n      dup2\n        /* \"#utility.yul\":23329:23460   */\n      tag_324\n      jump\t// in\n    tag_551:\n        /* \"#utility.yul\":23321:23460   */\n      swap1\n      pop\n        /* \"#utility.yul\":23048:23467   */\n      swap2\n      swap1\n      pop\n      jump\t// out\n        /* \"#utility.yul\":23473:23646   */\n    tag_325:\n        /* \"#utility.yul\":23613:23638   */\n      0x496e73756666696369656e74204c502062616c616e6365000000000000000000\n        /* \"#utility.yul\":23609:23610   */\n      0x00\n        /* \"#utility.yul\":23601:23607   */\n      dup3\n        /* \"#utility.yul\":23597:23611   */\n      add\n        /* \"#utility.yul\":23590:23639   */\n      mstore\n        /* \"#utility.yul\":23473:23646   */\n      pop\n      jump\t// out\n        /* \"#utility.yul\":23652:24018   */\n    tag_326:\n        /* \"#utility.yul\":23794:23797   */\n      0x00\n        /* \"#utility.yul\":23815:23882   */\n      tag_554\n        /* \"#utility.yul\":23879:23881   */\n      0x17\n        /* \"#utility.yul\":23874:23877   */\n      dup4\n        /* \"#utility.yul\":23815:23882   */\n      tag_274\n      jump\t// in\n    tag_554:\n        /* \"#utility.yul\":23808:23882   */\n      swap2\n      pop\n        /* \"#utility.yul\":23891:23984   */\n      tag_555\n        /* \"#utility.yul\":23980:23983   */\n      dup3\n        /* \"#utility.yul\":23891:23984   */\n      tag_325\n      jump\t// in\n    tag_555:\n        /* \"#utility.yul\":24009:24011   */\n      0x20\n        /* \"#utility.yul\":24004:24007   */\n      dup3\n        /* \"#utility.yul\":24000:24012   */\n      add\n        /* \"#utility.yul\":23993:24012   */\n      swap1\n      pop\n        /* \"#utility.yul\":23652:24018   */\n      swap2\n      swap1\n      pop\n      jump\t// out\n        /* \"#utility.yul\":24024:24443   */\n    tag_190:\n        /* \"#utility.yul\":24190:24194   */\n      0x00\n        /* \"#utility.yul\":24228:24230   */\n      0x20\n        /* \"#utility.yul\":24217:24226   */\n      dup3\n        /* \"#utility.yul\":24213:24231   */\n      add\n        /* \"#utility.yul\":24205:24231   */\n      swap1\n      pop\n        /* \"#utility.yul\":24277:24286   */\n      dup2\n        /* \"#utility.yul\":24271:24275   */\n      dup2\n        /* \"#utility.yul\":24267:24287   */\n      sub\n        /* \"#utility.yul\":24263:24264   */\n      0x00\n        /* \"#utility.yul\":24252:24261   */\n      dup4\n        /* \"#utility.yul\":24248:24265   */\n      add\n        /* \"#utility.yul\":24241:24288   */\n      mstore\n        /* \"#utility.yul\":24305:24436   */\n      tag_557\n        /* \"#utility.yul\":24431:24435   */\n      dup2\n        /* \"#utility.yul\":24305:24436   */\n      tag_326\n      jump\t// in\n    tag_557:\n        /* \"#utility.yul\":24297:24436   */\n      swap1\n      pop\n        /* \"#utility.yul\":24024:24443   */\n      swap2\n      swap1\n      pop\n      jump\t// out\n        /* \"#utility.yul\":24449:24620   */\n    tag_327:\n        /* \"#utility.yul\":24589:24612   */\n      0x496e73756666696369656e742072657365727665730000000000000000000000\n        /* \"#utility.yul\":24585:24586   */\n      0x00\n        /* \"#utility.yul\":24577:24583   */\n      dup3\n        /* \"#utility.yul\":24573:24587   */\n      add\n        /* \"#utility.yul\":24566:24613   */\n      mstore\n        /* \"#utility.yul\":24449:24620   */\n      pop\n      jump\t// out\n        /* \"#utility.yul\":24626:24992   */\n    tag_328:\n        /* \"#utility.yul\":24768:24771   */\n      0x00\n        /* \"#utility.yul\":24789:24856   */\n      tag_560\n        /* \"#utility.yul\":24853:24855   */\n      0x15\n        /* \"#utility.yul\":24848:24851   */\n      dup4\n        /* \"#utility.yul\":24789:24856   */\n      tag_274\n      jump\t// in\n    tag_560:\n        /* \"#utility.yul\":24782:24856   */\n      swap2\n      pop\n        /* \"#utility.yul\":24865:24958   */\n      tag_561\n        /* \"#utility.yul\":24954:24957   */\n      dup3\n        /* \"#utility.yul\":24865:24958   */\n      tag_327\n      jump\t// in\n    tag_561:\n        /* \"#utility.yul\":24983:24985   */\n      0x20\n        /* \"#utility.yul\":24978:24981   */\n      dup3\n        /* \"#utility.yul\":24974:24986   */\n      add\n        /* \"#utility.yul\":24967:24986   */\n      swap1\n      pop\n        /* \"#utility.yul\":24626:24992   */\n      swap2\n      swap1\n      pop\n      jump\t// out\n        /* \"#utility.yul\":24998:25417   */\n    tag_194:\n        /* \"#utility.yul\":25164:25168   */\n      0x00\n        /* \"#utility.yul\":25202:25204   */\n      0x20\n        /* \"#utility.yul\":25191:25200   */\n      dup3\n        /* \"#utility.yul\":25187:25205   */\n      add\n        /* \"#utility.yul\":25179:25205   */\n      swap1\n      pop\n        /* \"#utility.yul\":25251:25260   */\n      dup2\n        /* \"#utility.yul\":25245:25249   */\n      dup2\n        /* \"#utility.yul\":25241:25261   */\n      sub\n        /* \"#utility.yul\":25237:25238   */\n      0x00\n        /* \"#utility.yul\":25226:25235   */\n      dup4\n        /* \"#utility.yul\":25222:25239   */\n      add\n        /* \"#utility.yul\":25215:25262   */\n      mstore\n        /* \"#utility.yul\":25279:25410   */\n      tag_563\n        /* \"#utility.yul\":25405:25409   */\n      dup2\n        /* \"#utility.yul\":25279:25410   */\n      tag_328\n      jump\t// in\n    tag_563:\n        /* \"#utility.yul\":25271:25410   */\n      swap1\n      pop\n        /* \"#utility.yul\":24998:25417   */\n      swap2\n      swap1\n      pop\n      jump\t// out\n        /* \"#utility.yul\":25423:25598   */\n    tag_329:\n        /* \"#utility.yul\":25563:25590   */\n      0x4f6e6c79206f776e65722063616e20696e697469616c697a6500000000000000\n        /* \"#utility.yul\":25559:25560   */\n      0x00\n        /* \"#utility.yul\":25551:25557   */\n      dup3\n        /* \"#utility.yul\":25547:25561   */\n      add\n        /* \"#utility.yul\":25540:25591   */\n      mstore\n        /* \"#utility.yul\":25423:25598   */\n      pop\n      jump\t// out\n        /* \"#utility.yul\":25604:25970   */\n    tag_330:\n        /* \"#utility.yul\":25746:25749   */\n      0x00\n        /* \"#utility.yul\":25767:25834   */\n      tag_566\n        /* \"#utility.yul\":25831:25833   */\n      0x19\n        /* \"#utility.yul\":25826:25829   */\n      dup4\n        /* \"#utility.yul\":25767:25834   */\n      tag_274\n      jump\t// in\n    tag_566:\n        /* \"#utility.yul\":25760:25834   */\n      swap2\n      pop\n        /* \"#utility.yul\":25843:25936   */\n      tag_567\n        /* \"#utility.yul\":25932:25935   */\n      dup3\n        /* \"#utility.yul\":25843:25936   */\n      tag_329\n      jump\t// in\n    tag_567:\n        /* \"#utility.yul\":25961:25963   */\n      0x20\n        /* \"#utility.yul\":25956:25959   */\n      dup3\n        /* \"#utility.yul\":25952:25964   */\n      add\n        /* \"#utility.yul\":25945:25964   */\n      swap1\n      pop\n        /* \"#utility.yul\":25604:25970   */\n      swap2\n      swap1\n      pop\n      jump\t// out\n        /* \"#utility.yul\":25976:26395   */\n    tag_213:\n        /* \"#utility.yul\":26142:26146   */\n      0x00\n        /* \"#utility.yul\":26180:26182   */\n      0x20\n        /* \"#utility.yul\":26169:26178   */\n      dup3\n        /* \"#utility.yul\":26165:26183   */\n      add\n        /* \"#utility.yul\":26157:26183   */\n      swap1\n      pop\n        /* \"#utility.yul\":26229:26238   */\n      dup2\n        /* \"#utility.yul\":26223:26227   */\n      dup2\n        /* \"#utility.yul\":26219:26239   */\n      sub\n        /* \"#utility.yul\":26215:26216   */\n      0x00\n        /* \"#utility.yul\":26204:26213   */\n      dup4\n        /* \"#utility.yul\":26200:26217   */\n      add\n        /* \"#utility.yul\":26193:26240   */\n      mstore\n        /* \"#utility.yul\":26257:26388   */\n      tag_569\n        /* \"#utility.yul\":26383:26387   */\n      dup2\n        /* \"#utility.yul\":26257:26388   */\n      tag_330\n      jump\t// in\n    tag_569:\n        /* \"#utility.yul\":26249:26388   */\n      swap1\n      pop\n        /* \"#utility.yul\":25976:26395   */\n      swap2\n      swap1\n      pop\n      jump\t// out\n        /* \"#utility.yul\":26401:26624   */\n    tag_331:\n        /* \"#utility.yul\":26541:26575   */\n      0x496e697469616c204c50206d7573742062652061737369676e656420746f206f\n        /* \"#utility.yul\":26537:26538   */\n      0x00\n        /* \"#utility.yul\":26529:26535   */\n      dup3\n        /* \"#utility.yul\":26525:26539   */\n      add\n        /* \"#utility.yul\":26518:26576   */\n      mstore\n        /* \"#utility.yul\":26610:26616   */\n      0x776e657200000000000000000000000000000000000000000000000000000000\n        /* \"#utility.yul\":26605:26607   */\n      0x20\n        /* \"#utility.yul\":26597:26603   */\n      dup3\n        /* \"#utility.yul\":26593:26608   */\n      add\n        /* \"#utility.yul\":26586:26617   */\n      mstore\n        /* \"#utility.yul\":26401:26624   */\n      pop\n      jump\t// out\n        /* \"#utility.yul\":26630:26996   */\n    tag_332:\n        /* \"#utility.yul\":26772:26775   */\n      0x00\n        /* \"#utility.yul\":26793:26860   */\n      tag_572\n        /* \"#utility.yul\":26857:26859   */\n      0x24\n        /* \"#utility.yul\":26852:26855   */\n      dup4\n        /* \"#utility.yul\":26793:26860   */\n      tag_274\n      jump\t// in\n    tag_572:\n        /* \"#utility.yul\":26786:26860   */\n      swap2\n      pop\n        /* \"#utility.yul\":26869:26962   */\n      tag_573\n        /* \"#utility.yul\":26958:26961   */\n      dup3\n        /* \"#utility.yul\":26869:26962   */\n      tag_331\n      jump\t// in\n    tag_573:\n        /* \"#utility.yul\":26987:26989   */\n      0x40\n        /* \"#utility.yul\":26982:26985   */\n      dup3\n        /* \"#utility.yul\":26978:26990   */\n      add\n        /* \"#utility.yul\":26971:26990   */\n      swap1\n      pop\n        /* \"#utility.yul\":26630:26996   */\n      swap2\n      swap1\n      pop\n      jump\t// out\n        /* \"#utility.yul\":27002:27421   */\n    tag_216:\n        /* \"#utility.yul\":27168:27172   */\n      0x00\n        /* \"#utility.yul\":27206:27208   */\n      0x20\n        /* \"#utility.yul\":27195:27204   */\n      dup3\n        /* \"#utility.yul\":27191:27209   */\n      add\n        /* \"#utility.yul\":27183:27209   */\n      swap1\n      pop\n        /* \"#utility.yul\":27255:27264   */\n      dup2\n        /* \"#utility.yul\":27249:27253   */\n      dup2\n        /* \"#utility.yul\":27245:27265   */\n      sub\n        /* \"#utility.yul\":27241:27242   */\n      0x00\n        /* \"#utility.yul\":27230:27239   */\n      dup4\n        /* \"#utility.yul\":27226:27243   */\n      add\n        /* \"#utility.yul\":27219:27266   */\n      mstore\n        /* \"#utility.yul\":27283:27414   */\n      tag_575\n        /* \"#utility.yul\":27409:27413   */\n      dup2\n        /* \"#utility.yul\":27283:27414   */\n      tag_332\n      jump\t// in\n    tag_575:\n        /* \"#utility.yul\":27275:27414   */\n      swap1\n      pop\n        /* \"#utility.yul\":27002:27421   */\n      swap2\n      swap1\n      pop\n      jump\t// out\n        /* \"#utility.yul\":27427:27591   */\n    tag_333:\n        /* \"#utility.yul\":27567:27583   */\n      0x696e73756666696369656e742042000000000000000000000000000000000000\n        /* \"#utility.yul\":27563:27564   */\n      0x00\n        /* \"#utility.yul\":27555:27561   */\n      dup3\n        /* \"#utility.yul\":27551:27565   */\n      add\n        /* \"#utility.yul\":27544:27584   */\n      mstore\n        /* \"#utility.yul\":27427:27591   */\n      pop\n      jump\t// out\n        /* \"#utility.yul\":27597:27963   */\n    tag_334:\n        /* \"#utility.yul\":27739:27742   */\n      0x00\n        /* \"#utility.yul\":27760:27827   */\n      tag_578\n        /* \"#utility.yul\":27824:27826   */\n      0x0e\n        /* \"#utility.yul\":27819:27822   */\n      dup4\n        /* \"#utility.yul\":27760:27827   */\n      tag_274\n      jump\t// in\n    tag_578:\n        /* \"#utility.yul\":27753:27827   */\n      swap2\n      pop\n        /* \"#utility.yul\":27836:27929   */\n      tag_579\n        /* \"#utility.yul\":27925:27928   */\n      dup3\n        /* \"#utility.yul\":27836:27929   */\n      tag_333\n      jump\t// in\n    tag_579:\n        /* \"#utility.yul\":27954:27956   */\n      0x20\n        /* \"#utility.yul\":27949:27952   */\n      dup3\n        /* \"#utility.yul\":27945:27957   */\n      add\n        /* \"#utility.yul\":27938:27957   */\n      swap1\n      pop\n        /* \"#utility.yul\":27597:27963   */\n      swap2\n      swap1\n      pop\n      jump\t// out\n        /* \"#utility.yul\":27969:28388   */\n    tag_234:\n        /* \"#utility.yul\":28135:28139   */\n      0x00\n        /* \"#utility.yul\":28173:28175   */\n      0x20\n        /* \"#utility.yul\":28162:28171   */\n      dup3\n        /* \"#utility.yul\":28158:28176   */\n      add\n        /* \"#utility.yul\":28150:28176   */\n      swap1\n      pop\n        /* \"#utility.yul\":28222:28231   */\n      dup2\n        /* \"#utility.yul\":28216:28220   */\n      dup2\n        /* \"#utility.yul\":28212:28232   */\n      sub\n        /* \"#utility.yul\":28208:28209   */\n      0x00\n        /* \"#utility.yul\":28197:28206   */\n      dup4\n        /* \"#utility.yul\":28193:28210   */\n      add\n        /* \"#utility.yul\":28186:28233   */\n      mstore\n        /* \"#utility.yul\":28250:28381   */\n      tag_581\n        /* \"#utility.yul\":28376:28380   */\n      dup2\n        /* \"#utility.yul\":28250:28381   */\n      tag_334\n      jump\t// in\n    tag_581:\n        /* \"#utility.yul\":28242:28381   */\n      swap1\n      pop\n        /* \"#utility.yul\":27969:28388   */\n      swap2\n      swap1\n      pop\n      jump\t// out\n        /* \"#utility.yul\":28394:28554   */\n    tag_335:\n        /* \"#utility.yul\":28534:28546   */\n      0x746f6f206d756368204100000000000000000000000000000000000000000000\n        /* \"#utility.yul\":28530:28531   */\n      0x00\n        /* \"#utility.yul\":28522:28528   */\n      dup3\n        /* \"#utility.yul\":28518:28532   */\n      add\n        /* \"#utility.yul\":28511:28547   */\n      mstore\n        /* \"#utility.yul\":28394:28554   */\n      pop\n      jump\t// out\n        /* \"#utility.yul\":28560:28926   */\n    tag_336:\n        /* \"#utility.yul\":28702:28705   */\n      0x00\n        /* \"#utility.yul\":28723:28790   */\n      tag_584\n        /* \"#utility.yul\":28787:28789   */\n      0x0a\n        /* \"#utility.yul\":28782:28785   */\n      dup4\n        /* \"#utility.yul\":28723:28790   */\n      tag_274\n      jump\t// in\n    tag_584:\n        /* \"#utility.yul\":28716:28790   */\n      swap2\n      pop\n        /* \"#utility.yul\":28799:28892   */\n      tag_585\n        /* \"#utility.yul\":28888:28891   */\n      dup3\n        /* \"#utility.yul\":28799:28892   */\n      tag_335\n      jump\t// in\n    tag_585:\n        /* \"#utility.yul\":28917:28919   */\n      0x20\n        /* \"#utility.yul\":28912:28915   */\n      dup3\n        /* \"#utility.yul\":28908:28920   */\n      add\n        /* \"#utility.yul\":28901:28920   */\n      swap1\n      pop\n        /* \"#utility.yul\":28560:28926   */\n      swap2\n      swap1\n      pop\n      jump\t// out\n        /* \"#utility.yul\":28932:29351   */\n    tag_240:\n        /* \"#utility.yul\":29098:29102   */\n      0x00\n        /* \"#utility.yul\":29136:29138   */\n      0x20\n        /* \"#utility.yul\":29125:29134   */\n      dup3\n        /* \"#utility.yul\":29121:29139   */\n      add\n        /* \"#utility.yul\":29113:29139   */\n      swap1\n      pop\n        /* \"#utility.yul\":29185:29194   */\n      dup2\n        /* \"#utility.yul\":29179:29183   */\n      dup2\n        /* \"#utility.yul\":29175:29195   */\n      sub\n        /* \"#utility.yul\":29171:29172   */\n      0x00\n        /* \"#utility.yul\":29160:29169   */\n      dup4\n        /* \"#utility.yul\":29156:29173   */\n      add\n        /* \"#utility.yul\":29149:29196   */\n      mstore\n        /* \"#utility.yul\":29213:29344   */\n      tag_587\n        /* \"#utility.yul\":29339:29343   */\n      dup2\n        /* \"#utility.yul\":29213:29344   */\n      tag_336\n      jump\t// in\n    tag_587:\n        /* \"#utility.yul\":29205:29344   */\n      swap1\n      pop\n        /* \"#utility.yul\":28932:29351   */\n      swap2\n      swap1\n      pop\n      jump\t// out\n        /* \"#utility.yul\":29357:29519   */\n    tag_337:\n        /* \"#utility.yul\":29497:29511   */\n      0x6e6f7420656e6f75676820410000000000000000000000000000000000000000\n        /* \"#utility.yul\":29493:29494   */\n      0x00\n        /* \"#utility.yul\":29485:29491   */\n      dup3\n        /* \"#utility.yul\":29481:29495   */\n      add\n        /* \"#utility.yul\":29474:29512   */\n      mstore\n        /* \"#utility.yul\":29357:29519   */\n      pop\n      jump\t// out\n        /* \"#utility.yul\":29525:29891   */\n    tag_338:\n        /* \"#utility.yul\":29667:29670   */\n      0x00\n        /* \"#utility.yul\":29688:29755   */\n      tag_590\n        /* \"#utility.yul\":29752:29754   */\n      0x0c\n        /* \"#utility.yul\":29747:29750   */\n      dup4\n        /* \"#utility.yul\":29688:29755   */\n      tag_274\n      jump\t// in\n    tag_590:\n        /* \"#utility.yul\":29681:29755   */\n      swap2\n      pop\n        /* \"#utility.yul\":29764:29857   */\n      tag_591\n        /* \"#utility.yul\":29853:29856   */\n      dup3\n        /* \"#utility.yul\":29764:29857   */\n      tag_337\n      jump\t// in\n    tag_591:\n        /* \"#utility.yul\":29882:29884   */\n      0x20\n        /* \"#utility.yul\":29877:29880   */\n      dup3\n        /* \"#utility.yul\":29873:29885   */\n      add\n        /* \"#utility.yul\":29866:29885   */\n      swap1\n      pop\n        /* \"#utility.yul\":29525:29891   */\n      swap2\n      swap1\n      pop\n      jump\t// out\n        /* \"#utility.yul\":29897:30316   */\n    tag_243:\n        /* \"#utility.yul\":30063:30067   */\n      0x00\n        /* \"#utility.yul\":30101:30103   */\n      0x20\n        /* \"#utility.yul\":30090:30099   */\n      dup3\n        /* \"#utility.yul\":30086:30104   */\n      add\n        /* \"#utility.yul\":30078:30104   */\n      swap1\n      pop\n        /* \"#utility.yul\":30150:30159   */\n      dup2\n        /* \"#utility.yul\":30144:30148   */\n      dup2\n        /* \"#utility.yul\":30140:30160   */\n      sub\n        /* \"#utility.yul\":30136:30137   */\n      0x00\n        /* \"#utility.yul\":30125:30134   */\n      dup4\n        /* \"#utility.yul\":30121:30138   */\n      add\n        /* \"#utility.yul\":30114:30161   */\n      mstore\n        /* \"#utility.yul\":30178:30309   */\n      tag_593\n        /* \"#utility.yul\":30304:30308   */\n      dup2\n        /* \"#utility.yul\":30178:30309   */\n      tag_338\n      jump\t// in\n    tag_593:\n        /* \"#utility.yul\":30170:30309   */\n      swap1\n      pop\n        /* \"#utility.yul\":29897:30316   */\n      swap2\n      swap1\n      pop\n      jump\t// out\n\n    auxdata: 0xa26469706673582212209c85c094deb8710c16cdea12f11453607a98864a249c600ce79a0042a0ac054464736f6c634300081e0033\n}\n",
				"bytecode": {
					"linkReferences": {},
					"object": "608060405234801561000f575f5ffd5b50604051612e84380380612e84833981810160405281019061003191906101fb565b81600360016101000a81548173ffffffffffffffffffffffffffffffffffffffff021916908373ffffffffffffffffffffffffffffffffffffffff1602179055508060045f6101000a81548173ffffffffffffffffffffffffffffffffffffffff021916908373ffffffffffffffffffffffffffffffffffffffff1602179055506040518060400160405280601381526020017f53696d706c6553776170204c5020546f6b656e00000000000000000000000000815250600190816100f69190610476565b506040518060400160405280600481526020017f53534c50000000000000000000000000000000000000000000000000000000008152506002908161013b9190610476565b50601260035f6101000a81548160ff021916908360ff160217905550335f5f6101000a81548173ffffffffffffffffffffffffffffffffffffffff021916908373ffffffffffffffffffffffffffffffffffffffff1602179055505050610545565b5f5ffd5b5f73ffffffffffffffffffffffffffffffffffffffff82169050919050565b5f6101ca826101a1565b9050919050565b6101da816101c0565b81146101e4575f5ffd5b50565b5f815190506101f5816101d1565b92915050565b5f5f604083850312156102115761021061019d565b5b5f61021e858286016101e7565b925050602061022f858286016101e7565b9150509250929050565b5f81519050919050565b7f4e487b71000000000000000000000000000000000000000000000000000000005f52604160045260245ffd5b7f4e487b71000000000000000000000000000000000000000000000000000000005f52602260045260245ffd5b5f60028204905060018216806102b457607f821691505b6020821081036102c7576102c6610270565b5b50919050565b5f819050815f5260205f209050919050565b5f6020601f8301049050919050565b5f82821b905092915050565b5f600883026103297fffffffffffffffffffffffffffffffffffffffffffffffffffffffffffffffff826102ee565b61033386836102ee565b95508019841693508086168417925050509392505050565b5f819050919050565b5f819050919050565b5f61037761037261036d8461034b565b610354565b61034b565b9050919050565b5f819050919050565b6103908361035d565b6103a461039c8261037e565b8484546102fa565b825550505050565b5f5f905090565b6103bb6103ac565b6103c6818484610387565b505050565b5b818110156103e9576103de5f826103b3565b6001810190506103cc565b5050565b601f82111561042e576103ff816102cd565b610408846102df565b81016020851015610417578190505b61042b610423856102df565b8301826103cb565b50505b505050565b5f82821c905092915050565b5f61044e5f1984600802610433565b1980831691505092915050565b5f610466838361043f565b9150826002028217905092915050565b61047f82610239565b67ffffffffffffffff81111561049857610497610243565b5b6104a2825461029d565b6104ad8282856103ed565b5f60209050601f8311600181146104de575f84156104cc578287015190505b6104d6858261045b565b86555061053d565b601f1984166104ec866102cd565b5f5b82811015610513578489015182556001820191506020850194506020810190506104ee565b86831015610530578489015161052c601f89168261043f565b8355505b6001600288020188555050505b505050505050565b612932806105525f395ff3fe608060405234801561000f575f5ffd5b50600436106100a7575f3560e01c80635f64b55b1161006f5780635f64b55b146101535780638da5cb5b1461017157806395d89b411461018f578063baa2abde146101ad578063dc5fa6c5146101de578063e8e33700146101fc576100a7565b806306fdde03146100ab5780630fc63d10146100c957806319e36f3b146100e7578063313ce5671461010557806338ed173914610123575b5f5ffd5b6100b361022e565b6040516100c09190611afb565b60405180910390f35b6100d16102be565b6040516100de9190611b5a565b60405180910390f35b6100ef6102e4565b6040516100fc9190611b8b565b60405180910390f35b61010d6102ea565b60405161011a9190611bbf565b60405180910390f35b61013d60048036038101906101389190611c95565b6102ff565b60405161014a9190611de2565b60405180910390f35b61015b610bf6565b6040516101689190611b5a565b60405180910390f35b610179610c1b565b6040516101869190611b5a565b60405180910390f35b610197610c3f565b6040516101a49190611afb565b60405180910390f35b6101c760048036038101906101c29190611e02565b610ccf565b6040516101d5929190611e9f565b60405180910390f35b6101e66111c2565b6040516101f39190611b8b565b60405180910390f35b61021660048036038101906102119190611ec6565b6111c8565b60405161022593929190611f77565b60405180910390f35b60606001805461023d90611fd9565b80601f016020809104026020016040519081016040528092919081815260200182805461026990611fd9565b80156102b45780601f1061028b576101008083540402835291602001916102b4565b820191905f5260205f20905b81548152906001019060200180831161029757829003601f168201915b5050505050905090565b600360019054906101000a900473ffffffffffffffffffffffffffffffffffffffff1681565b60065481565b5f60035f9054906101000a900460ff16905090565b6060428211610343576040517f08c379a000000000000000000000000000000000000000000000000000000000815260040161033a90612053565b60405180910390fd5b6002858590501480156103d157508484600181811061036557610364612071565b5b905060200201602081019061037a919061209e565b73ffffffffffffffffffffffffffffffffffffffff1685855f8181106103a3576103a2612071565b5b90506020020160208101906103b8919061209e565b73ffffffffffffffffffffffffffffffffffffffff1614155b610410576040517f08c379a000000000000000000000000000000000000000000000000000000000815260040161040790612113565b60405180910390fd5b600360019054906101000a900473ffffffffffffffffffffffffffffffffffffffff1673ffffffffffffffffffffffffffffffffffffffff1685855f81811061045c5761045b612071565b5b9050602002016020810190610471919061209e565b73ffffffffffffffffffffffffffffffffffffffff16148015610508575060045f9054906101000a900473ffffffffffffffffffffffffffffffffffffffff1673ffffffffffffffffffffffffffffffffffffffff16858560018181106104db576104da612071565b5b90506020020160208101906104f0919061209e565b73ffffffffffffffffffffffffffffffffffffffff16145b80610607575060045f9054906101000a900473ffffffffffffffffffffffffffffffffffffffff1673ffffffffffffffffffffffffffffffffffffffff1685855f81811061055957610558612071565b5b905060200201602081019061056e919061209e565b73ffffffffffffffffffffffffffffffffffffffff161480156106065750600360019054906101000a900473ffffffffffffffffffffffffffffffffffffffff1673ffffffffffffffffffffffffffffffffffffffff16858560018181106105d9576105d8612071565b5b90506020020160208101906105ee919061209e565b73ffffffffffffffffffffffffffffffffffffffff16145b5b610646576040517f08c379a000000000000000000000000000000000000000000000000000000000815260040161063d9061217b565b60405180910390fd5b5f8711610688576040517f08c379a000000000000000000000000000000000000000000000000000000000815260040161067f906121e3565b60405180910390fd5b5f600360019054906101000a900473ffffffffffffffffffffffffffffffffffffffff1673ffffffffffffffffffffffffffffffffffffffff1686865f8181106106d5576106d4612071565b5b90506020020160208101906106ea919061209e565b73ffffffffffffffffffffffffffffffffffffffff16036108e257600360019054906101000a900473ffffffffffffffffffffffffffffffffffffffff1673ffffffffffffffffffffffffffffffffffffffff166323b872dd33308b6040518463ffffffff1660e01b815260040161076493929190612201565b6020604051808303815f875af1158015610780573d5f5f3e3d5ffd5b505050506040513d601f19601f820116820180604052508101906107a4919061226b565b50876005546107b391906122c3565b600654896107c191906122f6565b6107cb9190612364565b905086811015610810576040517f08c379a0000000000000000000000000000000000000000000000000000000008152600401610807906123de565b60405180910390fd5b60045f9054906101000a900473ffffffffffffffffffffffffffffffffffffffff1673ffffffffffffffffffffffffffffffffffffffff1663a9059cbb85836040518363ffffffff1660e01b815260040161086c9291906123fc565b6020604051808303815f875af1158015610888573d5f5f3e3d5ffd5b505050506040513d601f19601f820116820180604052508101906108ac919061226b565b508760055f8282546108be91906122c3565b925050819055508060065f8282546108d69190612423565b92505081905550610abb565b60045f9054906101000a900473ffffffffffffffffffffffffffffffffffffffff1673ffffffffffffffffffffffffffffffffffffffff166323b872dd33308b6040518463ffffffff1660e01b815260040161094093929190612201565b6020604051808303815f875af115801561095c573d5f5f3e3d5ffd5b505050506040513d601f19601f82011682018060405250810190610980919061226b565b508760065461098f91906122c3565b6005548961099d91906122f6565b6109a79190612364565b9050868110156109ec576040517f08c379a00000000000000000000000000000000000000000000000000000000081526004016109e3906123de565b60405180910390fd5b600360019054906101000a900473ffffffffffffffffffffffffffffffffffffffff1673ffffffffffffffffffffffffffffffffffffffff1663a9059cbb85836040518363ffffffff1660e01b8152600401610a499291906123fc565b6020604051808303815f875af1158015610a65573d5f5f3e3d5ffd5b505050506040513d601f19601f82011682018060405250810190610a89919061226b565b508760055f828254610a9b91906122c3565b925050819055508060065f828254610ab39190612423565b925050819055505b600267ffffffffffffffff811115610ad657610ad5612456565b5b604051908082528060200260200182016040528015610b045781602001602082028036833780820191505090505b50915087825f81518110610b1b57610b1a612071565b5b6020026020010181815250508082600181518110610b3c57610b3b612071565b5b6020026020010181815250503373ffffffffffffffffffffffffffffffffffffffff167f631fb37dba9bbcb8b2f3be2d669e365ae9f1bd850cc57dfe8b7ccd7d979a2bba87875f818110610b9357610b92612071565b5b9050602002016020810190610ba8919061209e565b8a89896001818110610bbd57610bbc612071565b5b9050602002016020810190610bd2919061209e565b85604051610be39493929190612483565b60405180910390a2509695505050505050565b60045f9054906101000a900473ffffffffffffffffffffffffffffffffffffffff1681565b5f5f9054906101000a900473ffffffffffffffffffffffffffffffffffffffff1681565b606060028054610c4e90611fd9565b80601f0160208091040260200160405190810160405280929190818152602001828054610c7a90611fd9565b8015610cc55780601f10610c9c57610100808354040283529160200191610cc5565b820191905f5260205f20905b815481529060010190602001808311610ca857829003601f168201915b5050505050905090565b5f5f428311610d13576040517f08c379a0000000000000000000000000000000000000000000000000000000008152600401610d0a90612053565b60405180910390fd5b600360019054906101000a900473ffffffffffffffffffffffffffffffffffffffff1673ffffffffffffffffffffffffffffffffffffffff168973ffffffffffffffffffffffffffffffffffffffff16148015610dbc575060045f9054906101000a900473ffffffffffffffffffffffffffffffffffffffff1673ffffffffffffffffffffffffffffffffffffffff168873ffffffffffffffffffffffffffffffffffffffff16145b610dfb576040517f08c379a0000000000000000000000000000000000000000000000000000000008152600401610df290612510565b60405180910390fd5b60075460055488610e0c91906122f6565b610e169190612364565b915060075460065488610e2991906122f6565b610e339190612364565b905085821015610e78576040517f08c379a0000000000000000000000000000000000000000000000000000000008152600401610e6f90612578565b60405180910390fd5b84811015610ebb576040517f08c379a0000000000000000000000000000000000000000000000000000000008152600401610eb2906125e0565b60405180910390fd5b8660085f3373ffffffffffffffffffffffffffffffffffffffff1673ffffffffffffffffffffffffffffffffffffffff1681526020019081526020015f20541015610f3b576040517f08c379a0000000000000000000000000000000000000000000000000000000008152600401610f3290612648565b60405180910390fd5b8160055410158015610f4f57508060065410155b610f8e576040517f08c379a0000000000000000000000000000000000000000000000000000000008152600401610f85906126b0565b60405180910390fd5b8660085f3373ffffffffffffffffffffffffffffffffffffffff1673ffffffffffffffffffffffffffffffffffffffff1681526020019081526020015f205f828254610fda9190612423565b925050819055508660075f828254610ff29190612423565b92505081905550600360019054906101000a900473ffffffffffffffffffffffffffffffffffffffff1673ffffffffffffffffffffffffffffffffffffffff1663a9059cbb85846040518363ffffffff1660e01b81526004016110569291906123fc565b6020604051808303815f875af1158015611072573d5f5f3e3d5ffd5b505050506040513d601f19601f82011682018060405250810190611096919061226b565b5060045f9054906101000a900473ffffffffffffffffffffffffffffffffffffffff1673ffffffffffffffffffffffffffffffffffffffff1663a9059cbb85836040518363ffffffff1660e01b81526004016110f39291906123fc565b6020604051808303815f875af115801561110f573d5f5f3e3d5ffd5b505050506040513d601f19601f82011682018060405250810190611133919061226b565b508160055f8282546111459190612423565b925050819055508060065f82825461115d9190612423565b925050819055503373ffffffffffffffffffffffffffffffffffffffff167f1dc8bb69df2b8e91fbdcbfcf93d951b3f0000f085a95fe3f7946d6161439245d83838a6040516111ae93929190611f77565b60405180910390a297509795505050505050565b60055481565b5f5f5f5f6005541480156111dd57505f600654145b1561158a575f5f9054906101000a900473ffffffffffffffffffffffffffffffffffffffff1673ffffffffffffffffffffffffffffffffffffffff163373ffffffffffffffffffffffffffffffffffffffff1614611270576040517f08c379a000000000000000000000000000000000000000000000000000000000815260040161126790612718565b60405180910390fd5b5f5f9054906101000a900473ffffffffffffffffffffffffffffffffffffffff1673ffffffffffffffffffffffffffffffffffffffff168573ffffffffffffffffffffffffffffffffffffffff16146112fe576040517f08c379a00000000000000000000000000000000000000000000000000000000081526004016112f5906127a6565b60405180910390fd5b600360019054906101000a90505060045f9054906101000a905050683635c9adc5dea000009250683635c9adc5dea000009150683635c9adc5dea000009050600360019054906101000a900473ffffffffffffffffffffffffffffffffffffffff1673ffffffffffffffffffffffffffffffffffffffff166323b872dd5f5f9054906101000a900473ffffffffffffffffffffffffffffffffffffffff1630866040518463ffffffff1660e01b81526004016113bc93929190612201565b6020604051808303815f875af11580156113d8573d5f5f3e3d5ffd5b505050506040513d601f19601f820116820180604052508101906113fc919061226b565b5060045f9054906101000a900473ffffffffffffffffffffffffffffffffffffffff1673ffffffffffffffffffffffffffffffffffffffff166323b872dd5f5f9054906101000a900473ffffffffffffffffffffffffffffffffffffffff1630856040518463ffffffff1660e01b815260040161147b93929190612201565b6020604051808303815f875af1158015611497573d5f5f3e3d5ffd5b505050506040513d601f19601f820116820180604052508101906114bb919061226b565b508260058190555081600681905550806007819055508060085f8773ffffffffffffffffffffffffffffffffffffffff1673ffffffffffffffffffffffffffffffffffffffff1681526020019081526020015f20819055505f5f9054906101000a900473ffffffffffffffffffffffffffffffffffffffff1673ffffffffffffffffffffffffffffffffffffffff167fb74e6471b3628e5564a820a208c77a7cdc392155b3b943031f2926e8347a65ec84848460405161157d93929190611f77565b60405180910390a2611a43565b4284116115cc576040517f08c379a00000000000000000000000000000000000000000000000000000000081526004016115c390612053565b60405180910390fd5b5f60055490505f60065490505f82828d6115e691906122f6565b6115f09190612364565b90508a8111611647578881101561163c576040517f08c379a00000000000000000000000000000000000000000000000000000000081526004016116339061280e565b60405180910390fd5b8b95508094506116ef565b5f82848d61165591906122f6565b61165f9190612364565b90508c8111156116a4576040517f08c379a000000000000000000000000000000000000000000000000000000000815260040161169b90612876565b60405180910390fd5b8a8110156116e7576040517f08c379a00000000000000000000000000000000000000000000000000000000081526004016116de906128de565b60405180910390fd5b8096508b9550505b600360019054906101000a900473ffffffffffffffffffffffffffffffffffffffff1673ffffffffffffffffffffffffffffffffffffffff168e73ffffffffffffffffffffffffffffffffffffffff16148015611798575060045f9054906101000a900473ffffffffffffffffffffffffffffffffffffffff1673ffffffffffffffffffffffffffffffffffffffff168d73ffffffffffffffffffffffffffffffffffffffff16145b6117d7576040517f08c379a00000000000000000000000000000000000000000000000000000000081526004016117ce90612510565b60405180910390fd5b600360019054906101000a900473ffffffffffffffffffffffffffffffffffffffff1673ffffffffffffffffffffffffffffffffffffffff166323b872dd3330896040518463ffffffff1660e01b815260040161183693929190612201565b6020604051808303815f875af1158015611852573d5f5f3e3d5ffd5b505050506040513d601f19601f82011682018060405250810190611876919061226b565b5060045f9054906101000a900473ffffffffffffffffffffffffffffffffffffffff1673ffffffffffffffffffffffffffffffffffffffff166323b872dd3330886040518463ffffffff1660e01b81526004016118d593929190612201565b6020604051808303815f875af11580156118f1573d5f5f3e3d5ffd5b505050506040513d601f19601f82011682018060405250810190611915919061226b565b50611950836007548861192891906122f6565b6119329190612364565b836007548861194191906122f6565b61194b9190612364565b611a51565b93508560055f82825461196391906122c3565b925050819055508460065f82825461197b91906122c3565b925050819055508360075f82825461199391906122c3565b925050819055508360085f8a73ffffffffffffffffffffffffffffffffffffffff1673ffffffffffffffffffffffffffffffffffffffff1681526020019081526020015f205f8282546119e691906122c3565b925050819055503373ffffffffffffffffffffffffffffffffffffffff167f64b83944e79c3ce8d4c297411de637c3e102d064677aac0c163976ebdcd6f50e878787604051611a3793929190611f77565b60405180910390a25050505b985098509895505050505050565b5f611a5f8284108484611a67565b905092915050565b5f611a7184611a80565b82841802821890509392505050565b5f8115159050919050565b5f81519050919050565b5f82825260208201905092915050565b8281835e5f83830152505050565b5f601f19601f8301169050919050565b5f611acd82611a8b565b611ad78185611a95565b9350611ae7818560208601611aa5565b611af081611ab3565b840191505092915050565b5f6020820190508181035f830152611b138184611ac3565b905092915050565b5f73ffffffffffffffffffffffffffffffffffffffff82169050919050565b5f611b4482611b1b565b9050919050565b611b5481611b3a565b82525050565b5f602082019050611b6d5f830184611b4b565b92915050565b5f819050919050565b611b8581611b73565b82525050565b5f602082019050611b9e5f830184611b7c565b92915050565b5f60ff82169050919050565b611bb981611ba4565b82525050565b5f602082019050611bd25f830184611bb0565b92915050565b5f5ffd5b5f5ffd5b611be981611b73565b8114611bf3575f5ffd5b50565b5f81359050611c0481611be0565b92915050565b5f5ffd5b5f5ffd5b5f5ffd5b5f5f83601f840112611c2b57611c2a611c0a565b5b8235905067ffffffffffffffff811115611c4857611c47611c0e565b5b602083019150836020820283011115611c6457611c63611c12565b5b9250929050565b611c7481611b3a565b8114611c7e575f5ffd5b50565b5f81359050611c8f81611c6b565b92915050565b5f5f5f5f5f5f60a08789031215611caf57611cae611bd8565b5b5f611cbc89828a01611bf6565b9650506020611ccd89828a01611bf6565b955050604087013567ffffffffffffffff811115611cee57611ced611bdc565b5b611cfa89828a01611c16565b94509450506060611d0d89828a01611c81565b9250506080611d1e89828a01611bf6565b9150509295509295509295565b5f81519050919050565b5f82825260208201905092915050565b5f819050602082019050919050565b611d5d81611b73565b82525050565b5f611d6e8383611d54565b60208301905092915050565b5f602082019050919050565b5f611d9082611d2b565b611d9a8185611d35565b9350611da583611d45565b805f5b83811015611dd5578151611dbc8882611d63565b9750611dc783611d7a565b925050600181019050611da8565b5085935050505092915050565b5f6020820190508181035f830152611dfa8184611d86565b905092915050565b5f5f5f5f5f5f5f60e0888a031215611e1d57611e1c611bd8565b5b5f611e2a8a828b01611c81565b9750506020611e3b8a828b01611c81565b9650506040611e4c8a828b01611bf6565b9550506060611e5d8a828b01611bf6565b9450506080611e6e8a828b01611bf6565b93505060a0611e7f8a828b01611c81565b92505060c0611e908a828b01611bf6565b91505092959891949750929550565b5f604082019050611eb25f830185611b7c565b611ebf6020830184611b7c565b9392505050565b5f5f5f5f5f5f5f5f610100898b031215611ee357611ee2611bd8565b5b5f611ef08b828c01611c81565b9850506020611f018b828c01611c81565b9750506040611f128b828c01611bf6565b9650506060611f238b828c01611bf6565b9550506080611f348b828c01611bf6565b94505060a0611f458b828c01611bf6565b93505060c0611f568b828c01611c81565b92505060e0611f678b828c01611bf6565b9150509295985092959890939650565b5f606082019050611f8a5f830186611b7c565b611f976020830185611b7c565b611fa46040830184611b7c565b949350505050565b7f4e487b71000000000000000000000000000000000000000000000000000000005f52602260045260245ffd5b5f6002820490506001821680611ff057607f821691505b60208210810361200357612002611fac565b5b50919050565b7f5472616e73616374696f6e2065787069726564000000000000000000000000005f82015250565b5f61203d601383611a95565b915061204882612009565b602082019050919050565b5f6020820190508181035f83015261206a81612031565b9050919050565b7f4e487b71000000000000000000000000000000000000000000000000000000005f52603260045260245ffd5b5f602082840312156120b3576120b2611bd8565b5b5f6120c084828501611c81565b91505092915050565b7f696e76616c69642070616972206f6620746f6b656e73000000000000000000005f82015250565b5f6120fd601683611a95565b9150612108826120c9565b602082019050919050565b5f6020820190508181035f83015261212a816120f1565b9050919050565b7f696e76616c696420746f6b656e207061697200000000000000000000000000005f82015250565b5f612165601283611a95565b915061217082612131565b602082019050919050565b5f6020820190508181035f83015261219281612159565b9050919050565b7f696e73756666696369656e7420616d6f756e74496e00000000000000000000005f82015250565b5f6121cd601583611a95565b91506121d882612199565b602082019050919050565b5f6020820190508181035f8301526121fa816121c1565b9050919050565b5f6060820190506122145f830186611b4b565b6122216020830185611b4b565b61222e6040830184611b7c565b949350505050565b5f8115159050919050565b61224a81612236565b8114612254575f5ffd5b50565b5f8151905061226581612241565b92915050565b5f602082840312156122805761227f611bd8565b5b5f61228d84828501612257565b91505092915050565b7f4e487b71000000000000000000000000000000000000000000000000000000005f52601160045260245ffd5b5f6122cd82611b73565b91506122d883611b73565b92508282019050808211156122f0576122ef612296565b5b92915050565b5f61230082611b73565b915061230b83611b73565b925082820261231981611b73565b915082820484148315176123305761232f612296565b5b5092915050565b7f4e487b71000000000000000000000000000000000000000000000000000000005f52601260045260245ffd5b5f61236e82611b73565b915061237983611b73565b92508261238957612388612337565b5b828204905092915050565b7f696e737566696369656e7420616d6f756e744f757400000000000000000000005f82015250565b5f6123c8601583611a95565b91506123d382612394565b602082019050919050565b5f6020820190508181035f8301526123f5816123bc565b9050919050565b5f60408201905061240f5f830185611b4b565b61241c6020830184611b7c565b9392505050565b5f61242d82611b73565b915061243883611b73565b92508282039050818111156124505761244f612296565b5b92915050565b7f4e487b71000000000000000000000000000000000000000000000000000000005f52604160045260245ffd5b5f6080820190506124965f830187611b4b565b6124a36020830186611b7c565b6124b06040830185611b4b565b6124bd6060830184611b7c565b95945050505050565b7f496e76616c696420746f6b656e207061697200000000000000000000000000005f82015250565b5f6124fa601283611a95565b9150612505826124c6565b602082019050919050565b5f6020820190508181035f830152612527816124ee565b9050919050565b7f616d6f756e74412062656c6f77206d696e696d756d00000000000000000000005f82015250565b5f612562601583611a95565b915061256d8261252e565b602082019050919050565b5f6020820190508181035f83015261258f81612556565b9050919050565b7f616d6f756e74422062656c6f77206d696e696d756d00000000000000000000005f82015250565b5f6125ca601583611a95565b91506125d582612596565b602082019050919050565b5f6020820190508181035f8301526125f7816125be565b9050919050565b7f496e73756666696369656e74204c502062616c616e63650000000000000000005f82015250565b5f612632601783611a95565b915061263d826125fe565b602082019050919050565b5f6020820190508181035f83015261265f81612626565b9050919050565b7f496e73756666696369656e7420726573657276657300000000000000000000005f82015250565b5f61269a601583611a95565b91506126a582612666565b602082019050919050565b5f6020820190508181035f8301526126c78161268e565b9050919050565b7f4f6e6c79206f776e65722063616e20696e697469616c697a65000000000000005f82015250565b5f612702601983611a95565b915061270d826126ce565b602082019050919050565b5f6020820190508181035f83015261272f816126f6565b9050919050565b7f496e697469616c204c50206d7573742062652061737369676e656420746f206f5f8201527f776e657200000000000000000000000000000000000000000000000000000000602082015250565b5f612790602483611a95565b915061279b82612736565b604082019050919050565b5f6020820190508181035f8301526127bd81612784565b9050919050565b7f696e73756666696369656e7420420000000000000000000000000000000000005f82015250565b5f6127f8600e83611a95565b9150612803826127c4565b602082019050919050565b5f6020820190508181035f830152612825816127ec565b9050919050565b7f746f6f206d7563682041000000000000000000000000000000000000000000005f82015250565b5f612860600a83611a95565b915061286b8261282c565b602082019050919050565b5f6020820190508181035f83015261288d81612854565b9050919050565b7f6e6f7420656e6f756768204100000000000000000000000000000000000000005f82015250565b5f6128c8600c83611a95565b91506128d382612894565b602082019050919050565b5f6020820190508181035f8301526128f5816128bc565b905091905056fea26469706673582212209c85c094deb8710c16cdea12f11453607a98864a249c600ce79a0042a0ac054464736f6c634300081e0033",
					"opcodes": "PUSH1 0x80 PUSH1 0x40 MSTORE CALLVALUE DUP1 ISZERO PUSH2 0xF JUMPI PUSH0 PUSH0 REVERT JUMPDEST POP PUSH1 0x40 MLOAD PUSH2 0x2E84 CODESIZE SUB DUP1 PUSH2 0x2E84 DUP4 CODECOPY DUP2 DUP2 ADD PUSH1 0x40 MSTORE DUP2 ADD SWAP1 PUSH2 0x31 SWAP2 SWAP1 PUSH2 0x1FB JUMP JUMPDEST DUP2 PUSH1 0x3 PUSH1 0x1 PUSH2 0x100 EXP DUP2 SLOAD DUP2 PUSH20 0xFFFFFFFFFFFFFFFFFFFFFFFFFFFFFFFFFFFFFFFF MUL NOT AND SWAP1 DUP4 PUSH20 0xFFFFFFFFFFFFFFFFFFFFFFFFFFFFFFFFFFFFFFFF AND MUL OR SWAP1 SSTORE POP DUP1 PUSH1 0x4 PUSH0 PUSH2 0x100 EXP DUP2 SLOAD DUP2 PUSH20 0xFFFFFFFFFFFFFFFFFFFFFFFFFFFFFFFFFFFFFFFF MUL NOT AND SWAP1 DUP4 PUSH20 0xFFFFFFFFFFFFFFFFFFFFFFFFFFFFFFFFFFFFFFFF AND MUL OR SWAP1 SSTORE POP PUSH1 0x40 MLOAD DUP1 PUSH1 0x40 ADD PUSH1 0x40 MSTORE DUP1 PUSH1 0x13 DUP2 MSTORE PUSH1 0x20 ADD PUSH32 0x53696D706C6553776170204C5020546F6B656E00000000000000000000000000 DUP2 MSTORE POP PUSH1 0x1 SWAP1 DUP2 PUSH2 0xF6 SWAP2 SWAP1 PUSH2 0x476 JUMP JUMPDEST POP PUSH1 0x40 MLOAD DUP1 PUSH1 0x40 ADD PUSH1 0x40 MSTORE DUP1 PUSH1 0x4 DUP2 MSTORE PUSH1 0x20 ADD PUSH32 0x53534C5000000000000000000000000000000000000000000000000000000000 DUP2 MSTORE POP PUSH1 0x2 SWAP1 DUP2 PUSH2 0x13B SWAP2 SWAP1 PUSH2 0x476 JUMP JUMPDEST POP PUSH1 0x12 PUSH1 0x3 PUSH0 PUSH2 0x100 EXP DUP2 SLOAD DUP2 PUSH1 0xFF MUL NOT AND SWAP1 DUP4 PUSH1 0xFF AND MUL OR SWAP1 SSTORE POP CALLER PUSH0 PUSH0 PUSH2 0x100 EXP DUP2 SLOAD DUP2 PUSH20 0xFFFFFFFFFFFFFFFFFFFFFFFFFFFFFFFFFFFFFFFF MUL NOT AND SWAP1 DUP4 PUSH20 0xFFFFFFFFFFFFFFFFFFFFFFFFFFFFFFFFFFFFFFFF AND MUL OR SWAP1 SSTORE POP POP POP PUSH2 0x545 JUMP JUMPDEST PUSH0 PUSH0 REVERT JUMPDEST PUSH0 PUSH20 0xFFFFFFFFFFFFFFFFFFFFFFFFFFFFFFFFFFFFFFFF DUP3 AND SWAP1 POP SWAP2 SWAP1 POP JUMP JUMPDEST PUSH0 PUSH2 0x1CA DUP3 PUSH2 0x1A1 JUMP JUMPDEST SWAP1 POP SWAP2 SWAP1 POP JUMP JUMPDEST PUSH2 0x1DA DUP2 PUSH2 0x1C0 JUMP JUMPDEST DUP2 EQ PUSH2 0x1E4 JUMPI PUSH0 PUSH0 REVERT JUMPDEST POP JUMP JUMPDEST PUSH0 DUP2 MLOAD SWAP1 POP PUSH2 0x1F5 DUP2 PUSH2 0x1D1 JUMP JUMPDEST SWAP3 SWAP2 POP POP JUMP JUMPDEST PUSH0 PUSH0 PUSH1 0x40 DUP4 DUP6 SUB SLT ISZERO PUSH2 0x211 JUMPI PUSH2 0x210 PUSH2 0x19D JUMP JUMPDEST JUMPDEST PUSH0 PUSH2 0x21E DUP6 DUP3 DUP7 ADD PUSH2 0x1E7 JUMP JUMPDEST SWAP3 POP POP PUSH1 0x20 PUSH2 0x22F DUP6 DUP3 DUP7 ADD PUSH2 0x1E7 JUMP JUMPDEST SWAP2 POP POP SWAP3 POP SWAP3 SWAP1 POP JUMP JUMPDEST PUSH0 DUP2 MLOAD SWAP1 POP SWAP2 SWAP1 POP JUMP JUMPDEST PUSH32 0x4E487B7100000000000000000000000000000000000000000000000000000000 PUSH0 MSTORE PUSH1 0x41 PUSH1 0x4 MSTORE PUSH1 0x24 PUSH0 REVERT JUMPDEST PUSH32 0x4E487B7100000000000000000000000000000000000000000000000000000000 PUSH0 MSTORE PUSH1 0x22 PUSH1 0x4 MSTORE PUSH1 0x24 PUSH0 REVERT JUMPDEST PUSH0 PUSH1 0x2 DUP3 DIV SWAP1 POP PUSH1 0x1 DUP3 AND DUP1 PUSH2 0x2B4 JUMPI PUSH1 0x7F DUP3 AND SWAP2 POP JUMPDEST PUSH1 0x20 DUP3 LT DUP2 SUB PUSH2 0x2C7 JUMPI PUSH2 0x2C6 PUSH2 0x270 JUMP JUMPDEST JUMPDEST POP SWAP2 SWAP1 POP JUMP JUMPDEST PUSH0 DUP2 SWAP1 POP DUP2 PUSH0 MSTORE PUSH1 0x20 PUSH0 KECCAK256 SWAP1 POP SWAP2 SWAP1 POP JUMP JUMPDEST PUSH0 PUSH1 0x20 PUSH1 0x1F DUP4 ADD DIV SWAP1 POP SWAP2 SWAP1 POP JUMP JUMPDEST PUSH0 DUP3 DUP3 SHL SWAP1 POP SWAP3 SWAP2 POP POP JUMP JUMPDEST PUSH0 PUSH1 0x8 DUP4 MUL PUSH2 0x329 PUSH32 0xFFFFFFFFFFFFFFFFFFFFFFFFFFFFFFFFFFFFFFFFFFFFFFFFFFFFFFFFFFFFFFFF DUP3 PUSH2 0x2EE JUMP JUMPDEST PUSH2 0x333 DUP7 DUP4 PUSH2 0x2EE JUMP JUMPDEST SWAP6 POP DUP1 NOT DUP5 AND SWAP4 POP DUP1 DUP7 AND DUP5 OR SWAP3 POP POP POP SWAP4 SWAP3 POP POP POP JUMP JUMPDEST PUSH0 DUP2 SWAP1 POP SWAP2 SWAP1 POP JUMP JUMPDEST PUSH0 DUP2 SWAP1 POP SWAP2 SWAP1 POP JUMP JUMPDEST PUSH0 PUSH2 0x377 PUSH2 0x372 PUSH2 0x36D DUP5 PUSH2 0x34B JUMP JUMPDEST PUSH2 0x354 JUMP JUMPDEST PUSH2 0x34B JUMP JUMPDEST SWAP1 POP SWAP2 SWAP1 POP JUMP JUMPDEST PUSH0 DUP2 SWAP1 POP SWAP2 SWAP1 POP JUMP JUMPDEST PUSH2 0x390 DUP4 PUSH2 0x35D JUMP JUMPDEST PUSH2 0x3A4 PUSH2 0x39C DUP3 PUSH2 0x37E JUMP JUMPDEST DUP5 DUP5 SLOAD PUSH2 0x2FA JUMP JUMPDEST DUP3 SSTORE POP POP POP POP JUMP JUMPDEST PUSH0 PUSH0 SWAP1 POP SWAP1 JUMP JUMPDEST PUSH2 0x3BB PUSH2 0x3AC JUMP JUMPDEST PUSH2 0x3C6 DUP2 DUP5 DUP5 PUSH2 0x387 JUMP JUMPDEST POP POP POP JUMP JUMPDEST JUMPDEST DUP2 DUP2 LT ISZERO PUSH2 0x3E9 JUMPI PUSH2 0x3DE PUSH0 DUP3 PUSH2 0x3B3 JUMP JUMPDEST PUSH1 0x1 DUP2 ADD SWAP1 POP PUSH2 0x3CC JUMP JUMPDEST POP POP JUMP JUMPDEST PUSH1 0x1F DUP3 GT ISZERO PUSH2 0x42E JUMPI PUSH2 0x3FF DUP2 PUSH2 0x2CD JUMP JUMPDEST PUSH2 0x408 DUP5 PUSH2 0x2DF JUMP JUMPDEST DUP2 ADD PUSH1 0x20 DUP6 LT ISZERO PUSH2 0x417 JUMPI DUP2 SWAP1 POP JUMPDEST PUSH2 0x42B PUSH2 0x423 DUP6 PUSH2 0x2DF JUMP JUMPDEST DUP4 ADD DUP3 PUSH2 0x3CB JUMP JUMPDEST POP POP JUMPDEST POP POP POP JUMP JUMPDEST PUSH0 DUP3 DUP3 SHR SWAP1 POP SWAP3 SWAP2 POP POP JUMP JUMPDEST PUSH0 PUSH2 0x44E PUSH0 NOT DUP5 PUSH1 0x8 MUL PUSH2 0x433 JUMP JUMPDEST NOT DUP1 DUP4 AND SWAP2 POP POP SWAP3 SWAP2 POP POP JUMP JUMPDEST PUSH0 PUSH2 0x466 DUP4 DUP4 PUSH2 0x43F JUMP JUMPDEST SWAP2 POP DUP3 PUSH1 0x2 MUL DUP3 OR SWAP1 POP SWAP3 SWAP2 POP POP JUMP JUMPDEST PUSH2 0x47F DUP3 PUSH2 0x239 JUMP JUMPDEST PUSH8 0xFFFFFFFFFFFFFFFF DUP2 GT ISZERO PUSH2 0x498 JUMPI PUSH2 0x497 PUSH2 0x243 JUMP JUMPDEST JUMPDEST PUSH2 0x4A2 DUP3 SLOAD PUSH2 0x29D JUMP JUMPDEST PUSH2 0x4AD DUP3 DUP3 DUP6 PUSH2 0x3ED JUMP JUMPDEST PUSH0 PUSH1 0x20 SWAP1 POP PUSH1 0x1F DUP4 GT PUSH1 0x1 DUP2 EQ PUSH2 0x4DE JUMPI PUSH0 DUP5 ISZERO PUSH2 0x4CC JUMPI DUP3 DUP8 ADD MLOAD SWAP1 POP JUMPDEST PUSH2 0x4D6 DUP6 DUP3 PUSH2 0x45B JUMP JUMPDEST DUP7 SSTORE POP PUSH2 0x53D JUMP JUMPDEST PUSH1 0x1F NOT DUP5 AND PUSH2 0x4EC DUP7 PUSH2 0x2CD JUMP JUMPDEST PUSH0 JUMPDEST DUP3 DUP2 LT ISZERO PUSH2 0x513 JUMPI DUP5 DUP10 ADD MLOAD DUP3 SSTORE PUSH1 0x1 DUP3 ADD SWAP2 POP PUSH1 0x20 DUP6 ADD SWAP5 POP PUSH1 0x20 DUP2 ADD SWAP1 POP PUSH2 0x4EE JUMP JUMPDEST DUP7 DUP4 LT ISZERO PUSH2 0x530 JUMPI DUP5 DUP10 ADD MLOAD PUSH2 0x52C PUSH1 0x1F DUP10 AND DUP3 PUSH2 0x43F JUMP JUMPDEST DUP4 SSTORE POP JUMPDEST PUSH1 0x1 PUSH1 0x2 DUP9 MUL ADD DUP9 SSTORE POP POP POP JUMPDEST POP POP POP POP POP POP JUMP JUMPDEST PUSH2 0x2932 DUP1 PUSH2 0x552 PUSH0 CODECOPY PUSH0 RETURN INVALID PUSH1 0x80 PUSH1 0x40 MSTORE CALLVALUE DUP1 ISZERO PUSH2 0xF JUMPI PUSH0 PUSH0 REVERT JUMPDEST POP PUSH1 0x4 CALLDATASIZE LT PUSH2 0xA7 JUMPI PUSH0 CALLDATALOAD PUSH1 0xE0 SHR DUP1 PUSH4 0x5F64B55B GT PUSH2 0x6F JUMPI DUP1 PUSH4 0x5F64B55B EQ PUSH2 0x153 JUMPI DUP1 PUSH4 0x8DA5CB5B EQ PUSH2 0x171 JUMPI DUP1 PUSH4 0x95D89B41 EQ PUSH2 0x18F JUMPI DUP1 PUSH4 0xBAA2ABDE EQ PUSH2 0x1AD JUMPI DUP1 PUSH4 0xDC5FA6C5 EQ PUSH2 0x1DE JUMPI DUP1 PUSH4 0xE8E33700 EQ PUSH2 0x1FC JUMPI PUSH2 0xA7 JUMP JUMPDEST DUP1 PUSH4 0x6FDDE03 EQ PUSH2 0xAB JUMPI DUP1 PUSH4 0xFC63D10 EQ PUSH2 0xC9 JUMPI DUP1 PUSH4 0x19E36F3B EQ PUSH2 0xE7 JUMPI DUP1 PUSH4 0x313CE567 EQ PUSH2 0x105 JUMPI DUP1 PUSH4 0x38ED1739 EQ PUSH2 0x123 JUMPI JUMPDEST PUSH0 PUSH0 REVERT JUMPDEST PUSH2 0xB3 PUSH2 0x22E JUMP JUMPDEST PUSH1 0x40 MLOAD PUSH2 0xC0 SWAP2 SWAP1 PUSH2 0x1AFB JUMP JUMPDEST PUSH1 0x40 MLOAD DUP1 SWAP2 SUB SWAP1 RETURN JUMPDEST PUSH2 0xD1 PUSH2 0x2BE JUMP JUMPDEST PUSH1 0x40 MLOAD PUSH2 0xDE SWAP2 SWAP1 PUSH2 0x1B5A JUMP JUMPDEST PUSH1 0x40 MLOAD DUP1 SWAP2 SUB SWAP1 RETURN JUMPDEST PUSH2 0xEF PUSH2 0x2E4 JUMP JUMPDEST PUSH1 0x40 MLOAD PUSH2 0xFC SWAP2 SWAP1 PUSH2 0x1B8B JUMP JUMPDEST PUSH1 0x40 MLOAD DUP1 SWAP2 SUB SWAP1 RETURN JUMPDEST PUSH2 0x10D PUSH2 0x2EA JUMP JUMPDEST PUSH1 0x40 MLOAD PUSH2 0x11A SWAP2 SWAP1 PUSH2 0x1BBF JUMP JUMPDEST PUSH1 0x40 MLOAD DUP1 SWAP2 SUB SWAP1 RETURN JUMPDEST PUSH2 0x13D PUSH1 0x4 DUP1 CALLDATASIZE SUB DUP2 ADD SWAP1 PUSH2 0x138 SWAP2 SWAP1 PUSH2 0x1C95 JUMP JUMPDEST PUSH2 0x2FF JUMP JUMPDEST PUSH1 0x40 MLOAD PUSH2 0x14A SWAP2 SWAP1 PUSH2 0x1DE2 JUMP JUMPDEST PUSH1 0x40 MLOAD DUP1 SWAP2 SUB SWAP1 RETURN JUMPDEST PUSH2 0x15B PUSH2 0xBF6 JUMP JUMPDEST PUSH1 0x40 MLOAD PUSH2 0x168 SWAP2 SWAP1 PUSH2 0x1B5A JUMP JUMPDEST PUSH1 0x40 MLOAD DUP1 SWAP2 SUB SWAP1 RETURN JUMPDEST PUSH2 0x179 PUSH2 0xC1B JUMP JUMPDEST PUSH1 0x40 MLOAD PUSH2 0x186 SWAP2 SWAP1 PUSH2 0x1B5A JUMP JUMPDEST PUSH1 0x40 MLOAD DUP1 SWAP2 SUB SWAP1 RETURN JUMPDEST PUSH2 0x197 PUSH2 0xC3F JUMP JUMPDEST PUSH1 0x40 MLOAD PUSH2 0x1A4 SWAP2 SWAP1 PUSH2 0x1AFB JUMP JUMPDEST PUSH1 0x40 MLOAD DUP1 SWAP2 SUB SWAP1 RETURN JUMPDEST PUSH2 0x1C7 PUSH1 0x4 DUP1 CALLDATASIZE SUB DUP2 ADD SWAP1 PUSH2 0x1C2 SWAP2 SWAP1 PUSH2 0x1E02 JUMP JUMPDEST PUSH2 0xCCF JUMP JUMPDEST PUSH1 0x40 MLOAD PUSH2 0x1D5 SWAP3 SWAP2 SWAP1 PUSH2 0x1E9F JUMP JUMPDEST PUSH1 0x40 MLOAD DUP1 SWAP2 SUB SWAP1 RETURN JUMPDEST PUSH2 0x1E6 PUSH2 0x11C2 JUMP JUMPDEST PUSH1 0x40 MLOAD PUSH2 0x1F3 SWAP2 SWAP1 PUSH2 0x1B8B JUMP JUMPDEST PUSH1 0x40 MLOAD DUP1 SWAP2 SUB SWAP1 RETURN JUMPDEST PUSH2 0x216 PUSH1 0x4 DUP1 CALLDATASIZE SUB DUP2 ADD SWAP1 PUSH2 0x211 SWAP2 SWAP1 PUSH2 0x1EC6 JUMP JUMPDEST PUSH2 0x11C8 JUMP JUMPDEST PUSH1 0x40 MLOAD PUSH2 0x225 SWAP4 SWAP3 SWAP2 SWAP1 PUSH2 0x1F77 JUMP JUMPDEST PUSH1 0x40 MLOAD DUP1 SWAP2 SUB SWAP1 RETURN JUMPDEST PUSH1 0x60 PUSH1 0x1 DUP1 SLOAD PUSH2 0x23D SWAP1 PUSH2 0x1FD9 JUMP JUMPDEST DUP1 PUSH1 0x1F ADD PUSH1 0x20 DUP1 SWAP2 DIV MUL PUSH1 0x20 ADD PUSH1 0x40 MLOAD SWAP1 DUP2 ADD PUSH1 0x40 MSTORE DUP1 SWAP3 SWAP2 SWAP1 DUP2 DUP2 MSTORE PUSH1 0x20 ADD DUP3 DUP1 SLOAD PUSH2 0x269 SWAP1 PUSH2 0x1FD9 JUMP JUMPDEST DUP1 ISZERO PUSH2 0x2B4 JUMPI DUP1 PUSH1 0x1F LT PUSH2 0x28B JUMPI PUSH2 0x100 DUP1 DUP4 SLOAD DIV MUL DUP4 MSTORE SWAP2 PUSH1 0x20 ADD SWAP2 PUSH2 0x2B4 JUMP JUMPDEST DUP3 ADD SWAP2 SWAP1 PUSH0 MSTORE PUSH1 0x20 PUSH0 KECCAK256 SWAP1 JUMPDEST DUP2 SLOAD DUP2 MSTORE SWAP1 PUSH1 0x1 ADD SWAP1 PUSH1 0x20 ADD DUP1 DUP4 GT PUSH2 0x297 JUMPI DUP3 SWAP1 SUB PUSH1 0x1F AND DUP3 ADD SWAP2 JUMPDEST POP POP POP POP POP SWAP1 POP SWAP1 JUMP JUMPDEST PUSH1 0x3 PUSH1 0x1 SWAP1 SLOAD SWAP1 PUSH2 0x100 EXP SWAP1 DIV PUSH20 0xFFFFFFFFFFFFFFFFFFFFFFFFFFFFFFFFFFFFFFFF AND DUP2 JUMP JUMPDEST PUSH1 0x6 SLOAD DUP2 JUMP JUMPDEST PUSH0 PUSH1 0x3 PUSH0 SWAP1 SLOAD SWAP1 PUSH2 0x100 EXP SWAP1 DIV PUSH1 0xFF AND SWAP1 POP SWAP1 JUMP JUMPDEST PUSH1 0x60 TIMESTAMP DUP3 GT PUSH2 0x343 JUMPI PUSH1 0x40 MLOAD PUSH32 0x8C379A000000000000000000000000000000000000000000000000000000000 DUP2 MSTORE PUSH1 0x4 ADD PUSH2 0x33A SWAP1 PUSH2 0x2053 JUMP JUMPDEST PUSH1 0x40 MLOAD DUP1 SWAP2 SUB SWAP1 REVERT JUMPDEST PUSH1 0x2 DUP6 DUP6 SWAP1 POP EQ DUP1 ISZERO PUSH2 0x3D1 JUMPI POP DUP5 DUP5 PUSH1 0x1 DUP2 DUP2 LT PUSH2 0x365 JUMPI PUSH2 0x364 PUSH2 0x2071 JUMP JUMPDEST JUMPDEST SWAP1 POP PUSH1 0x20 MUL ADD PUSH1 0x20 DUP2 ADD SWAP1 PUSH2 0x37A SWAP2 SWAP1 PUSH2 0x209E JUMP JUMPDEST PUSH20 0xFFFFFFFFFFFFFFFFFFFFFFFFFFFFFFFFFFFFFFFF AND DUP6 DUP6 PUSH0 DUP2 DUP2 LT PUSH2 0x3A3 JUMPI PUSH2 0x3A2 PUSH2 0x2071 JUMP JUMPDEST JUMPDEST SWAP1 POP PUSH1 0x20 MUL ADD PUSH1 0x20 DUP2 ADD SWAP1 PUSH2 0x3B8 SWAP2 SWAP1 PUSH2 0x209E JUMP JUMPDEST PUSH20 0xFFFFFFFFFFFFFFFFFFFFFFFFFFFFFFFFFFFFFFFF AND EQ ISZERO JUMPDEST PUSH2 0x410 JUMPI PUSH1 0x40 MLOAD PUSH32 0x8C379A000000000000000000000000000000000000000000000000000000000 DUP2 MSTORE PUSH1 0x4 ADD PUSH2 0x407 SWAP1 PUSH2 0x2113 JUMP JUMPDEST PUSH1 0x40 MLOAD DUP1 SWAP2 SUB SWAP1 REVERT JUMPDEST PUSH1 0x3 PUSH1 0x1 SWAP1 SLOAD SWAP1 PUSH2 0x100 EXP SWAP1 DIV PUSH20 0xFFFFFFFFFFFFFFFFFFFFFFFFFFFFFFFFFFFFFFFF AND PUSH20 0xFFFFFFFFFFFFFFFFFFFFFFFFFFFFFFFFFFFFFFFF AND DUP6 DUP6 PUSH0 DUP2 DUP2 LT PUSH2 0x45C JUMPI PUSH2 0x45B PUSH2 0x2071 JUMP JUMPDEST JUMPDEST SWAP1 POP PUSH1 0x20 MUL ADD PUSH1 0x20 DUP2 ADD SWAP1 PUSH2 0x471 SWAP2 SWAP1 PUSH2 0x209E JUMP JUMPDEST PUSH20 0xFFFFFFFFFFFFFFFFFFFFFFFFFFFFFFFFFFFFFFFF AND EQ DUP1 ISZERO PUSH2 0x508 JUMPI POP PUSH1 0x4 PUSH0 SWAP1 SLOAD SWAP1 PUSH2 0x100 EXP SWAP1 DIV PUSH20 0xFFFFFFFFFFFFFFFFFFFFFFFFFFFFFFFFFFFFFFFF AND PUSH20 0xFFFFFFFFFFFFFFFFFFFFFFFFFFFFFFFFFFFFFFFF AND DUP6 DUP6 PUSH1 0x1 DUP2 DUP2 LT PUSH2 0x4DB JUMPI PUSH2 0x4DA PUSH2 0x2071 JUMP JUMPDEST JUMPDEST SWAP1 POP PUSH1 0x20 MUL ADD PUSH1 0x20 DUP2 ADD SWAP1 PUSH2 0x4F0 SWAP2 SWAP1 PUSH2 0x209E JUMP JUMPDEST PUSH20 0xFFFFFFFFFFFFFFFFFFFFFFFFFFFFFFFFFFFFFFFF AND EQ JUMPDEST DUP1 PUSH2 0x607 JUMPI POP PUSH1 0x4 PUSH0 SWAP1 SLOAD SWAP1 PUSH2 0x100 EXP SWAP1 DIV PUSH20 0xFFFFFFFFFFFFFFFFFFFFFFFFFFFFFFFFFFFFFFFF AND PUSH20 0xFFFFFFFFFFFFFFFFFFFFFFFFFFFFFFFFFFFFFFFF AND DUP6 DUP6 PUSH0 DUP2 DUP2 LT PUSH2 0x559 JUMPI PUSH2 0x558 PUSH2 0x2071 JUMP JUMPDEST JUMPDEST SWAP1 POP PUSH1 0x20 MUL ADD PUSH1 0x20 DUP2 ADD SWAP1 PUSH2 0x56E SWAP2 SWAP1 PUSH2 0x209E JUMP JUMPDEST PUSH20 0xFFFFFFFFFFFFFFFFFFFFFFFFFFFFFFFFFFFFFFFF AND EQ DUP1 ISZERO PUSH2 0x606 JUMPI POP PUSH1 0x3 PUSH1 0x1 SWAP1 SLOAD SWAP1 PUSH2 0x100 EXP SWAP1 DIV PUSH20 0xFFFFFFFFFFFFFFFFFFFFFFFFFFFFFFFFFFFFFFFF AND PUSH20 0xFFFFFFFFFFFFFFFFFFFFFFFFFFFFFFFFFFFFFFFF AND DUP6 DUP6 PUSH1 0x1 DUP2 DUP2 LT PUSH2 0x5D9 JUMPI PUSH2 0x5D8 PUSH2 0x2071 JUMP JUMPDEST JUMPDEST SWAP1 POP PUSH1 0x20 MUL ADD PUSH1 0x20 DUP2 ADD SWAP1 PUSH2 0x5EE SWAP2 SWAP1 PUSH2 0x209E JUMP JUMPDEST PUSH20 0xFFFFFFFFFFFFFFFFFFFFFFFFFFFFFFFFFFFFFFFF AND EQ JUMPDEST JUMPDEST PUSH2 0x646 JUMPI PUSH1 0x40 MLOAD PUSH32 0x8C379A000000000000000000000000000000000000000000000000000000000 DUP2 MSTORE PUSH1 0x4 ADD PUSH2 0x63D SWAP1 PUSH2 0x217B JUMP JUMPDEST PUSH1 0x40 MLOAD DUP1 SWAP2 SUB SWAP1 REVERT JUMPDEST PUSH0 DUP8 GT PUSH2 0x688 JUMPI PUSH1 0x40 MLOAD PUSH32 0x8C379A000000000000000000000000000000000000000000000000000000000 DUP2 MSTORE PUSH1 0x4 ADD PUSH2 0x67F SWAP1 PUSH2 0x21E3 JUMP JUMPDEST PUSH1 0x40 MLOAD DUP1 SWAP2 SUB SWAP1 REVERT JUMPDEST PUSH0 PUSH1 0x3 PUSH1 0x1 SWAP1 SLOAD SWAP1 PUSH2 0x100 EXP SWAP1 DIV PUSH20 0xFFFFFFFFFFFFFFFFFFFFFFFFFFFFFFFFFFFFFFFF AND PUSH20 0xFFFFFFFFFFFFFFFFFFFFFFFFFFFFFFFFFFFFFFFF AND DUP7 DUP7 PUSH0 DUP2 DUP2 LT PUSH2 0x6D5 JUMPI PUSH2 0x6D4 PUSH2 0x2071 JUMP JUMPDEST JUMPDEST SWAP1 POP PUSH1 0x20 MUL ADD PUSH1 0x20 DUP2 ADD SWAP1 PUSH2 0x6EA SWAP2 SWAP1 PUSH2 0x209E JUMP JUMPDEST PUSH20 0xFFFFFFFFFFFFFFFFFFFFFFFFFFFFFFFFFFFFFFFF AND SUB PUSH2 0x8E2 JUMPI PUSH1 0x3 PUSH1 0x1 SWAP1 SLOAD SWAP1 PUSH2 0x100 EXP SWAP1 DIV PUSH20 0xFFFFFFFFFFFFFFFFFFFFFFFFFFFFFFFFFFFFFFFF AND PUSH20 0xFFFFFFFFFFFFFFFFFFFFFFFFFFFFFFFFFFFFFFFF AND PUSH4 0x23B872DD CALLER ADDRESS DUP12 PUSH1 0x40 MLOAD DUP5 PUSH4 0xFFFFFFFF AND PUSH1 0xE0 SHL DUP2 MSTORE PUSH1 0x4 ADD PUSH2 0x764 SWAP4 SWAP3 SWAP2 SWAP1 PUSH2 0x2201 JUMP JUMPDEST PUSH1 0x20 PUSH1 0x40 MLOAD DUP1 DUP4 SUB DUP2 PUSH0 DUP8 GAS CALL ISZERO DUP1 ISZERO PUSH2 0x780 JUMPI RETURNDATASIZE PUSH0 PUSH0 RETURNDATACOPY RETURNDATASIZE PUSH0 REVERT JUMPDEST POP POP POP POP PUSH1 0x40 MLOAD RETURNDATASIZE PUSH1 0x1F NOT PUSH1 0x1F DUP3 ADD AND DUP3 ADD DUP1 PUSH1 0x40 MSTORE POP DUP2 ADD SWAP1 PUSH2 0x7A4 SWAP2 SWAP1 PUSH2 0x226B JUMP JUMPDEST POP DUP8 PUSH1 0x5 SLOAD PUSH2 0x7B3 SWAP2 SWAP1 PUSH2 0x22C3 JUMP JUMPDEST PUSH1 0x6 SLOAD DUP10 PUSH2 0x7C1 SWAP2 SWAP1 PUSH2 0x22F6 JUMP JUMPDEST PUSH2 0x7CB SWAP2 SWAP1 PUSH2 0x2364 JUMP JUMPDEST SWAP1 POP DUP7 DUP2 LT ISZERO PUSH2 0x810 JUMPI PUSH1 0x40 MLOAD PUSH32 0x8C379A000000000000000000000000000000000000000000000000000000000 DUP2 MSTORE PUSH1 0x4 ADD PUSH2 0x807 SWAP1 PUSH2 0x23DE JUMP JUMPDEST PUSH1 0x40 MLOAD DUP1 SWAP2 SUB SWAP1 REVERT JUMPDEST PUSH1 0x4 PUSH0 SWAP1 SLOAD SWAP1 PUSH2 0x100 EXP SWAP1 DIV PUSH20 0xFFFFFFFFFFFFFFFFFFFFFFFFFFFFFFFFFFFFFFFF AND PUSH20 0xFFFFFFFFFFFFFFFFFFFFFFFFFFFFFFFFFFFFFFFF AND PUSH4 0xA9059CBB DUP6 DUP4 PUSH1 0x40 MLOAD DUP4 PUSH4 0xFFFFFFFF AND PUSH1 0xE0 SHL DUP2 MSTORE PUSH1 0x4 ADD PUSH2 0x86C SWAP3 SWAP2 SWAP1 PUSH2 0x23FC JUMP JUMPDEST PUSH1 0x20 PUSH1 0x40 MLOAD DUP1 DUP4 SUB DUP2 PUSH0 DUP8 GAS CALL ISZERO DUP1 ISZERO PUSH2 0x888 JUMPI RETURNDATASIZE PUSH0 PUSH0 RETURNDATACOPY RETURNDATASIZE PUSH0 REVERT JUMPDEST POP POP POP POP PUSH1 0x40 MLOAD RETURNDATASIZE PUSH1 0x1F NOT PUSH1 0x1F DUP3 ADD AND DUP3 ADD DUP1 PUSH1 0x40 MSTORE POP DUP2 ADD SWAP1 PUSH2 0x8AC SWAP2 SWAP1 PUSH2 0x226B JUMP JUMPDEST POP DUP8 PUSH1 0x5 PUSH0 DUP3 DUP3 SLOAD PUSH2 0x8BE SWAP2 SWAP1 PUSH2 0x22C3 JUMP JUMPDEST SWAP3 POP POP DUP2 SWAP1 SSTORE POP DUP1 PUSH1 0x6 PUSH0 DUP3 DUP3 SLOAD PUSH2 0x8D6 SWAP2 SWAP1 PUSH2 0x2423 JUMP JUMPDEST SWAP3 POP POP DUP2 SWAP1 SSTORE POP PUSH2 0xABB JUMP JUMPDEST PUSH1 0x4 PUSH0 SWAP1 SLOAD SWAP1 PUSH2 0x100 EXP SWAP1 DIV PUSH20 0xFFFFFFFFFFFFFFFFFFFFFFFFFFFFFFFFFFFFFFFF AND PUSH20 0xFFFFFFFFFFFFFFFFFFFFFFFFFFFFFFFFFFFFFFFF AND PUSH4 0x23B872DD CALLER ADDRESS DUP12 PUSH1 0x40 MLOAD DUP5 PUSH4 0xFFFFFFFF AND PUSH1 0xE0 SHL DUP2 MSTORE PUSH1 0x4 ADD PUSH2 0x940 SWAP4 SWAP3 SWAP2 SWAP1 PUSH2 0x2201 JUMP JUMPDEST PUSH1 0x20 PUSH1 0x40 MLOAD DUP1 DUP4 SUB DUP2 PUSH0 DUP8 GAS CALL ISZERO DUP1 ISZERO PUSH2 0x95C JUMPI RETURNDATASIZE PUSH0 PUSH0 RETURNDATACOPY RETURNDATASIZE PUSH0 REVERT JUMPDEST POP POP POP POP PUSH1 0x40 MLOAD RETURNDATASIZE PUSH1 0x1F NOT PUSH1 0x1F DUP3 ADD AND DUP3 ADD DUP1 PUSH1 0x40 MSTORE POP DUP2 ADD SWAP1 PUSH2 0x980 SWAP2 SWAP1 PUSH2 0x226B JUMP JUMPDEST POP DUP8 PUSH1 0x6 SLOAD PUSH2 0x98F SWAP2 SWAP1 PUSH2 0x22C3 JUMP JUMPDEST PUSH1 0x5 SLOAD DUP10 PUSH2 0x99D SWAP2 SWAP1 PUSH2 0x22F6 JUMP JUMPDEST PUSH2 0x9A7 SWAP2 SWAP1 PUSH2 0x2364 JUMP JUMPDEST SWAP1 POP DUP7 DUP2 LT ISZERO PUSH2 0x9EC JUMPI PUSH1 0x40 MLOAD PUSH32 0x8C379A000000000000000000000000000000000000000000000000000000000 DUP2 MSTORE PUSH1 0x4 ADD PUSH2 0x9E3 SWAP1 PUSH2 0x23DE JUMP JUMPDEST PUSH1 0x40 MLOAD DUP1 SWAP2 SUB SWAP1 REVERT JUMPDEST PUSH1 0x3 PUSH1 0x1 SWAP1 SLOAD SWAP1 PUSH2 0x100 EXP SWAP1 DIV PUSH20 0xFFFFFFFFFFFFFFFFFFFFFFFFFFFFFFFFFFFFFFFF AND PUSH20 0xFFFFFFFFFFFFFFFFFFFFFFFFFFFFFFFFFFFFFFFF AND PUSH4 0xA9059CBB DUP6 DUP4 PUSH1 0x40 MLOAD DUP4 PUSH4 0xFFFFFFFF AND PUSH1 0xE0 SHL DUP2 MSTORE PUSH1 0x4 ADD PUSH2 0xA49 SWAP3 SWAP2 SWAP1 PUSH2 0x23FC JUMP JUMPDEST PUSH1 0x20 PUSH1 0x40 MLOAD DUP1 DUP4 SUB DUP2 PUSH0 DUP8 GAS CALL ISZERO DUP1 ISZERO PUSH2 0xA65 JUMPI RETURNDATASIZE PUSH0 PUSH0 RETURNDATACOPY RETURNDATASIZE PUSH0 REVERT JUMPDEST POP POP POP POP PUSH1 0x40 MLOAD RETURNDATASIZE PUSH1 0x1F NOT PUSH1 0x1F DUP3 ADD AND DUP3 ADD DUP1 PUSH1 0x40 MSTORE POP DUP2 ADD SWAP1 PUSH2 0xA89 SWAP2 SWAP1 PUSH2 0x226B JUMP JUMPDEST POP DUP8 PUSH1 0x5 PUSH0 DUP3 DUP3 SLOAD PUSH2 0xA9B SWAP2 SWAP1 PUSH2 0x22C3 JUMP JUMPDEST SWAP3 POP POP DUP2 SWAP1 SSTORE POP DUP1 PUSH1 0x6 PUSH0 DUP3 DUP3 SLOAD PUSH2 0xAB3 SWAP2 SWAP1 PUSH2 0x2423 JUMP JUMPDEST SWAP3 POP POP DUP2 SWAP1 SSTORE POP JUMPDEST PUSH1 0x2 PUSH8 0xFFFFFFFFFFFFFFFF DUP2 GT ISZERO PUSH2 0xAD6 JUMPI PUSH2 0xAD5 PUSH2 0x2456 JUMP JUMPDEST JUMPDEST PUSH1 0x40 MLOAD SWAP1 DUP1 DUP3 MSTORE DUP1 PUSH1 0x20 MUL PUSH1 0x20 ADD DUP3 ADD PUSH1 0x40 MSTORE DUP1 ISZERO PUSH2 0xB04 JUMPI DUP2 PUSH1 0x20 ADD PUSH1 0x20 DUP3 MUL DUP1 CALLDATASIZE DUP4 CALLDATACOPY DUP1 DUP3 ADD SWAP2 POP POP SWAP1 POP JUMPDEST POP SWAP2 POP DUP8 DUP3 PUSH0 DUP2 MLOAD DUP2 LT PUSH2 0xB1B JUMPI PUSH2 0xB1A PUSH2 0x2071 JUMP JUMPDEST JUMPDEST PUSH1 0x20 MUL PUSH1 0x20 ADD ADD DUP2 DUP2 MSTORE POP POP DUP1 DUP3 PUSH1 0x1 DUP2 MLOAD DUP2 LT PUSH2 0xB3C JUMPI PUSH2 0xB3B PUSH2 0x2071 JUMP JUMPDEST JUMPDEST PUSH1 0x20 MUL PUSH1 0x20 ADD ADD DUP2 DUP2 MSTORE POP POP CALLER PUSH20 0xFFFFFFFFFFFFFFFFFFFFFFFFFFFFFFFFFFFFFFFF AND PUSH32 0x631FB37DBA9BBCB8B2F3BE2D669E365AE9F1BD850CC57DFE8B7CCD7D979A2BBA DUP8 DUP8 PUSH0 DUP2 DUP2 LT PUSH2 0xB93 JUMPI PUSH2 0xB92 PUSH2 0x2071 JUMP JUMPDEST JUMPDEST SWAP1 POP PUSH1 0x20 MUL ADD PUSH1 0x20 DUP2 ADD SWAP1 PUSH2 0xBA8 SWAP2 SWAP1 PUSH2 0x209E JUMP JUMPDEST DUP11 DUP10 DUP10 PUSH1 0x1 DUP2 DUP2 LT PUSH2 0xBBD JUMPI PUSH2 0xBBC PUSH2 0x2071 JUMP JUMPDEST JUMPDEST SWAP1 POP PUSH1 0x20 MUL ADD PUSH1 0x20 DUP2 ADD SWAP1 PUSH2 0xBD2 SWAP2 SWAP1 PUSH2 0x209E JUMP JUMPDEST DUP6 PUSH1 0x40 MLOAD PUSH2 0xBE3 SWAP5 SWAP4 SWAP3 SWAP2 SWAP1 PUSH2 0x2483 JUMP JUMPDEST PUSH1 0x40 MLOAD DUP1 SWAP2 SUB SWAP1 LOG2 POP SWAP7 SWAP6 POP POP POP POP POP POP JUMP JUMPDEST PUSH1 0x4 PUSH0 SWAP1 SLOAD SWAP1 PUSH2 0x100 EXP SWAP1 DIV PUSH20 0xFFFFFFFFFFFFFFFFFFFFFFFFFFFFFFFFFFFFFFFF AND DUP2 JUMP JUMPDEST PUSH0 PUSH0 SWAP1 SLOAD SWAP1 PUSH2 0x100 EXP SWAP1 DIV PUSH20 0xFFFFFFFFFFFFFFFFFFFFFFFFFFFFFFFFFFFFFFFF AND DUP2 JUMP JUMPDEST PUSH1 0x60 PUSH1 0x2 DUP1 SLOAD PUSH2 0xC4E SWAP1 PUSH2 0x1FD9 JUMP JUMPDEST DUP1 PUSH1 0x1F ADD PUSH1 0x20 DUP1 SWAP2 DIV MUL PUSH1 0x20 ADD PUSH1 0x40 MLOAD SWAP1 DUP2 ADD PUSH1 0x40 MSTORE DUP1 SWAP3 SWAP2 SWAP1 DUP2 DUP2 MSTORE PUSH1 0x20 ADD DUP3 DUP1 SLOAD PUSH2 0xC7A SWAP1 PUSH2 0x1FD9 JUMP JUMPDEST DUP1 ISZERO PUSH2 0xCC5 JUMPI DUP1 PUSH1 0x1F LT PUSH2 0xC9C JUMPI PUSH2 0x100 DUP1 DUP4 SLOAD DIV MUL DUP4 MSTORE SWAP2 PUSH1 0x20 ADD SWAP2 PUSH2 0xCC5 JUMP JUMPDEST DUP3 ADD SWAP2 SWAP1 PUSH0 MSTORE PUSH1 0x20 PUSH0 KECCAK256 SWAP1 JUMPDEST DUP2 SLOAD DUP2 MSTORE SWAP1 PUSH1 0x1 ADD SWAP1 PUSH1 0x20 ADD DUP1 DUP4 GT PUSH2 0xCA8 JUMPI DUP3 SWAP1 SUB PUSH1 0x1F AND DUP3 ADD SWAP2 JUMPDEST POP POP POP POP POP SWAP1 POP SWAP1 JUMP JUMPDEST PUSH0 PUSH0 TIMESTAMP DUP4 GT PUSH2 0xD13 JUMPI PUSH1 0x40 MLOAD PUSH32 0x8C379A000000000000000000000000000000000000000000000000000000000 DUP2 MSTORE PUSH1 0x4 ADD PUSH2 0xD0A SWAP1 PUSH2 0x2053 JUMP JUMPDEST PUSH1 0x40 MLOAD DUP1 SWAP2 SUB SWAP1 REVERT JUMPDEST PUSH1 0x3 PUSH1 0x1 SWAP1 SLOAD SWAP1 PUSH2 0x100 EXP SWAP1 DIV PUSH20 0xFFFFFFFFFFFFFFFFFFFFFFFFFFFFFFFFFFFFFFFF AND PUSH20 0xFFFFFFFFFFFFFFFFFFFFFFFFFFFFFFFFFFFFFFFF AND DUP10 PUSH20 0xFFFFFFFFFFFFFFFFFFFFFFFFFFFFFFFFFFFFFFFF AND EQ DUP1 ISZERO PUSH2 0xDBC JUMPI POP PUSH1 0x4 PUSH0 SWAP1 SLOAD SWAP1 PUSH2 0x100 EXP SWAP1 DIV PUSH20 0xFFFFFFFFFFFFFFFFFFFFFFFFFFFFFFFFFFFFFFFF AND PUSH20 0xFFFFFFFFFFFFFFFFFFFFFFFFFFFFFFFFFFFFFFFF AND DUP9 PUSH20 0xFFFFFFFFFFFFFFFFFFFFFFFFFFFFFFFFFFFFFFFF AND EQ JUMPDEST PUSH2 0xDFB JUMPI PUSH1 0x40 MLOAD PUSH32 0x8C379A000000000000000000000000000000000000000000000000000000000 DUP2 MSTORE PUSH1 0x4 ADD PUSH2 0xDF2 SWAP1 PUSH2 0x2510 JUMP JUMPDEST PUSH1 0x40 MLOAD DUP1 SWAP2 SUB SWAP1 REVERT JUMPDEST PUSH1 0x7 SLOAD PUSH1 0x5 SLOAD DUP9 PUSH2 0xE0C SWAP2 SWAP1 PUSH2 0x22F6 JUMP JUMPDEST PUSH2 0xE16 SWAP2 SWAP1 PUSH2 0x2364 JUMP JUMPDEST SWAP2 POP PUSH1 0x7 SLOAD PUSH1 0x6 SLOAD DUP9 PUSH2 0xE29 SWAP2 SWAP1 PUSH2 0x22F6 JUMP JUMPDEST PUSH2 0xE33 SWAP2 SWAP1 PUSH2 0x2364 JUMP JUMPDEST SWAP1 POP DUP6 DUP3 LT ISZERO PUSH2 0xE78 JUMPI PUSH1 0x40 MLOAD PUSH32 0x8C379A000000000000000000000000000000000000000000000000000000000 DUP2 MSTORE PUSH1 0x4 ADD PUSH2 0xE6F SWAP1 PUSH2 0x2578 JUMP JUMPDEST PUSH1 0x40 MLOAD DUP1 SWAP2 SUB SWAP1 REVERT JUMPDEST DUP5 DUP2 LT ISZERO PUSH2 0xEBB JUMPI PUSH1 0x40 MLOAD PUSH32 0x8C379A000000000000000000000000000000000000000000000000000000000 DUP2 MSTORE PUSH1 0x4 ADD PUSH2 0xEB2 SWAP1 PUSH2 0x25E0 JUMP JUMPDEST PUSH1 0x40 MLOAD DUP1 SWAP2 SUB SWAP1 REVERT JUMPDEST DUP7 PUSH1 0x8 PUSH0 CALLER PUSH20 0xFFFFFFFFFFFFFFFFFFFFFFFFFFFFFFFFFFFFFFFF AND PUSH20 0xFFFFFFFFFFFFFFFFFFFFFFFFFFFFFFFFFFFFFFFF AND DUP2 MSTORE PUSH1 0x20 ADD SWAP1 DUP2 MSTORE PUSH1 0x20 ADD PUSH0 KECCAK256 SLOAD LT ISZERO PUSH2 0xF3B JUMPI PUSH1 0x40 MLOAD PUSH32 0x8C379A000000000000000000000000000000000000000000000000000000000 DUP2 MSTORE PUSH1 0x4 ADD PUSH2 0xF32 SWAP1 PUSH2 0x2648 JUMP JUMPDEST PUSH1 0x40 MLOAD DUP1 SWAP2 SUB SWAP1 REVERT JUMPDEST DUP2 PUSH1 0x5 SLOAD LT ISZERO DUP1 ISZERO PUSH2 0xF4F JUMPI POP DUP1 PUSH1 0x6 SLOAD LT ISZERO JUMPDEST PUSH2 0xF8E JUMPI PUSH1 0x40 MLOAD PUSH32 0x8C379A000000000000000000000000000000000000000000000000000000000 DUP2 MSTORE PUSH1 0x4 ADD PUSH2 0xF85 SWAP1 PUSH2 0x26B0 JUMP JUMPDEST PUSH1 0x40 MLOAD DUP1 SWAP2 SUB SWAP1 REVERT JUMPDEST DUP7 PUSH1 0x8 PUSH0 CALLER PUSH20 0xFFFFFFFFFFFFFFFFFFFFFFFFFFFFFFFFFFFFFFFF AND PUSH20 0xFFFFFFFFFFFFFFFFFFFFFFFFFFFFFFFFFFFFFFFF AND DUP2 MSTORE PUSH1 0x20 ADD SWAP1 DUP2 MSTORE PUSH1 0x20 ADD PUSH0 KECCAK256 PUSH0 DUP3 DUP3 SLOAD PUSH2 0xFDA SWAP2 SWAP1 PUSH2 0x2423 JUMP JUMPDEST SWAP3 POP POP DUP2 SWAP1 SSTORE POP DUP7 PUSH1 0x7 PUSH0 DUP3 DUP3 SLOAD PUSH2 0xFF2 SWAP2 SWAP1 PUSH2 0x2423 JUMP JUMPDEST SWAP3 POP POP DUP2 SWAP1 SSTORE POP PUSH1 0x3 PUSH1 0x1 SWAP1 SLOAD SWAP1 PUSH2 0x100 EXP SWAP1 DIV PUSH20 0xFFFFFFFFFFFFFFFFFFFFFFFFFFFFFFFFFFFFFFFF AND PUSH20 0xFFFFFFFFFFFFFFFFFFFFFFFFFFFFFFFFFFFFFFFF AND PUSH4 0xA9059CBB DUP6 DUP5 PUSH1 0x40 MLOAD DUP4 PUSH4 0xFFFFFFFF AND PUSH1 0xE0 SHL DUP2 MSTORE PUSH1 0x4 ADD PUSH2 0x1056 SWAP3 SWAP2 SWAP1 PUSH2 0x23FC JUMP JUMPDEST PUSH1 0x20 PUSH1 0x40 MLOAD DUP1 DUP4 SUB DUP2 PUSH0 DUP8 GAS CALL ISZERO DUP1 ISZERO PUSH2 0x1072 JUMPI RETURNDATASIZE PUSH0 PUSH0 RETURNDATACOPY RETURNDATASIZE PUSH0 REVERT JUMPDEST POP POP POP POP PUSH1 0x40 MLOAD RETURNDATASIZE PUSH1 0x1F NOT PUSH1 0x1F DUP3 ADD AND DUP3 ADD DUP1 PUSH1 0x40 MSTORE POP DUP2 ADD SWAP1 PUSH2 0x1096 SWAP2 SWAP1 PUSH2 0x226B JUMP JUMPDEST POP PUSH1 0x4 PUSH0 SWAP1 SLOAD SWAP1 PUSH2 0x100 EXP SWAP1 DIV PUSH20 0xFFFFFFFFFFFFFFFFFFFFFFFFFFFFFFFFFFFFFFFF AND PUSH20 0xFFFFFFFFFFFFFFFFFFFFFFFFFFFFFFFFFFFFFFFF AND PUSH4 0xA9059CBB DUP6 DUP4 PUSH1 0x40 MLOAD DUP4 PUSH4 0xFFFFFFFF AND PUSH1 0xE0 SHL DUP2 MSTORE PUSH1 0x4 ADD PUSH2 0x10F3 SWAP3 SWAP2 SWAP1 PUSH2 0x23FC JUMP JUMPDEST PUSH1 0x20 PUSH1 0x40 MLOAD DUP1 DUP4 SUB DUP2 PUSH0 DUP8 GAS CALL ISZERO DUP1 ISZERO PUSH2 0x110F JUMPI RETURNDATASIZE PUSH0 PUSH0 RETURNDATACOPY RETURNDATASIZE PUSH0 REVERT JUMPDEST POP POP POP POP PUSH1 0x40 MLOAD RETURNDATASIZE PUSH1 0x1F NOT PUSH1 0x1F DUP3 ADD AND DUP3 ADD DUP1 PUSH1 0x40 MSTORE POP DUP2 ADD SWAP1 PUSH2 0x1133 SWAP2 SWAP1 PUSH2 0x226B JUMP JUMPDEST POP DUP2 PUSH1 0x5 PUSH0 DUP3 DUP3 SLOAD PUSH2 0x1145 SWAP2 SWAP1 PUSH2 0x2423 JUMP JUMPDEST SWAP3 POP POP DUP2 SWAP1 SSTORE POP DUP1 PUSH1 0x6 PUSH0 DUP3 DUP3 SLOAD PUSH2 0x115D SWAP2 SWAP1 PUSH2 0x2423 JUMP JUMPDEST SWAP3 POP POP DUP2 SWAP1 SSTORE POP CALLER PUSH20 0xFFFFFFFFFFFFFFFFFFFFFFFFFFFFFFFFFFFFFFFF AND PUSH32 0x1DC8BB69DF2B8E91FBDCBFCF93D951B3F0000F085A95FE3F7946D6161439245D DUP4 DUP4 DUP11 PUSH1 0x40 MLOAD PUSH2 0x11AE SWAP4 SWAP3 SWAP2 SWAP1 PUSH2 0x1F77 JUMP JUMPDEST PUSH1 0x40 MLOAD DUP1 SWAP2 SUB SWAP1 LOG2 SWAP8 POP SWAP8 SWAP6 POP POP POP POP POP POP JUMP JUMPDEST PUSH1 0x5 SLOAD DUP2 JUMP JUMPDEST PUSH0 PUSH0 PUSH0 PUSH0 PUSH1 0x5 SLOAD EQ DUP1 ISZERO PUSH2 0x11DD JUMPI POP PUSH0 PUSH1 0x6 SLOAD EQ JUMPDEST ISZERO PUSH2 0x158A JUMPI PUSH0 PUSH0 SWAP1 SLOAD SWAP1 PUSH2 0x100 EXP SWAP1 DIV PUSH20 0xFFFFFFFFFFFFFFFFFFFFFFFFFFFFFFFFFFFFFFFF AND PUSH20 0xFFFFFFFFFFFFFFFFFFFFFFFFFFFFFFFFFFFFFFFF AND CALLER PUSH20 0xFFFFFFFFFFFFFFFFFFFFFFFFFFFFFFFFFFFFFFFF AND EQ PUSH2 0x1270 JUMPI PUSH1 0x40 MLOAD PUSH32 0x8C379A000000000000000000000000000000000000000000000000000000000 DUP2 MSTORE PUSH1 0x4 ADD PUSH2 0x1267 SWAP1 PUSH2 0x2718 JUMP JUMPDEST PUSH1 0x40 MLOAD DUP1 SWAP2 SUB SWAP1 REVERT JUMPDEST PUSH0 PUSH0 SWAP1 SLOAD SWAP1 PUSH2 0x100 EXP SWAP1 DIV PUSH20 0xFFFFFFFFFFFFFFFFFFFFFFFFFFFFFFFFFFFFFFFF AND PUSH20 0xFFFFFFFFFFFFFFFFFFFFFFFFFFFFFFFFFFFFFFFF AND DUP6 PUSH20 0xFFFFFFFFFFFFFFFFFFFFFFFFFFFFFFFFFFFFFFFF AND EQ PUSH2 0x12FE JUMPI PUSH1 0x40 MLOAD PUSH32 0x8C379A000000000000000000000000000000000000000000000000000000000 DUP2 MSTORE PUSH1 0x4 ADD PUSH2 0x12F5 SWAP1 PUSH2 0x27A6 JUMP JUMPDEST PUSH1 0x40 MLOAD DUP1 SWAP2 SUB SWAP1 REVERT JUMPDEST PUSH1 0x3 PUSH1 0x1 SWAP1 SLOAD SWAP1 PUSH2 0x100 EXP SWAP1 POP POP PUSH1 0x4 PUSH0 SWAP1 SLOAD SWAP1 PUSH2 0x100 EXP SWAP1 POP POP PUSH9 0x3635C9ADC5DEA00000 SWAP3 POP PUSH9 0x3635C9ADC5DEA00000 SWAP2 POP PUSH9 0x3635C9ADC5DEA00000 SWAP1 POP PUSH1 0x3 PUSH1 0x1 SWAP1 SLOAD SWAP1 PUSH2 0x100 EXP SWAP1 DIV PUSH20 0xFFFFFFFFFFFFFFFFFFFFFFFFFFFFFFFFFFFFFFFF AND PUSH20 0xFFFFFFFFFFFFFFFFFFFFFFFFFFFFFFFFFFFFFFFF AND PUSH4 0x23B872DD PUSH0 PUSH0 SWAP1 SLOAD SWAP1 PUSH2 0x100 EXP SWAP1 DIV PUSH20 0xFFFFFFFFFFFFFFFFFFFFFFFFFFFFFFFFFFFFFFFF AND ADDRESS DUP7 PUSH1 0x40 MLOAD DUP5 PUSH4 0xFFFFFFFF AND PUSH1 0xE0 SHL DUP2 MSTORE PUSH1 0x4 ADD PUSH2 0x13BC SWAP4 SWAP3 SWAP2 SWAP1 PUSH2 0x2201 JUMP JUMPDEST PUSH1 0x20 PUSH1 0x40 MLOAD DUP1 DUP4 SUB DUP2 PUSH0 DUP8 GAS CALL ISZERO DUP1 ISZERO PUSH2 0x13D8 JUMPI RETURNDATASIZE PUSH0 PUSH0 RETURNDATACOPY RETURNDATASIZE PUSH0 REVERT JUMPDEST POP POP POP POP PUSH1 0x40 MLOAD RETURNDATASIZE PUSH1 0x1F NOT PUSH1 0x1F DUP3 ADD AND DUP3 ADD DUP1 PUSH1 0x40 MSTORE POP DUP2 ADD SWAP1 PUSH2 0x13FC SWAP2 SWAP1 PUSH2 0x226B JUMP JUMPDEST POP PUSH1 0x4 PUSH0 SWAP1 SLOAD SWAP1 PUSH2 0x100 EXP SWAP1 DIV PUSH20 0xFFFFFFFFFFFFFFFFFFFFFFFFFFFFFFFFFFFFFFFF AND PUSH20 0xFFFFFFFFFFFFFFFFFFFFFFFFFFFFFFFFFFFFFFFF AND PUSH4 0x23B872DD PUSH0 PUSH0 SWAP1 SLOAD SWAP1 PUSH2 0x100 EXP SWAP1 DIV PUSH20 0xFFFFFFFFFFFFFFFFFFFFFFFFFFFFFFFFFFFFFFFF AND ADDRESS DUP6 PUSH1 0x40 MLOAD DUP5 PUSH4 0xFFFFFFFF AND PUSH1 0xE0 SHL DUP2 MSTORE PUSH1 0x4 ADD PUSH2 0x147B SWAP4 SWAP3 SWAP2 SWAP1 PUSH2 0x2201 JUMP JUMPDEST PUSH1 0x20 PUSH1 0x40 MLOAD DUP1 DUP4 SUB DUP2 PUSH0 DUP8 GAS CALL ISZERO DUP1 ISZERO PUSH2 0x1497 JUMPI RETURNDATASIZE PUSH0 PUSH0 RETURNDATACOPY RETURNDATASIZE PUSH0 REVERT JUMPDEST POP POP POP POP PUSH1 0x40 MLOAD RETURNDATASIZE PUSH1 0x1F NOT PUSH1 0x1F DUP3 ADD AND DUP3 ADD DUP1 PUSH1 0x40 MSTORE POP DUP2 ADD SWAP1 PUSH2 0x14BB SWAP2 SWAP1 PUSH2 0x226B JUMP JUMPDEST POP DUP3 PUSH1 0x5 DUP2 SWAP1 SSTORE POP DUP2 PUSH1 0x6 DUP2 SWAP1 SSTORE POP DUP1 PUSH1 0x7 DUP2 SWAP1 SSTORE POP DUP1 PUSH1 0x8 PUSH0 DUP8 PUSH20 0xFFFFFFFFFFFFFFFFFFFFFFFFFFFFFFFFFFFFFFFF AND PUSH20 0xFFFFFFFFFFFFFFFFFFFFFFFFFFFFFFFFFFFFFFFF AND DUP2 MSTORE PUSH1 0x20 ADD SWAP1 DUP2 MSTORE PUSH1 0x20 ADD PUSH0 KECCAK256 DUP2 SWAP1 SSTORE POP PUSH0 PUSH0 SWAP1 SLOAD SWAP1 PUSH2 0x100 EXP SWAP1 DIV PUSH20 0xFFFFFFFFFFFFFFFFFFFFFFFFFFFFFFFFFFFFFFFF AND PUSH20 0xFFFFFFFFFFFFFFFFFFFFFFFFFFFFFFFFFFFFFFFF AND PUSH32 0xB74E6471B3628E5564A820A208C77A7CDC392155B3B943031F2926E8347A65EC DUP5 DUP5 DUP5 PUSH1 0x40 MLOAD PUSH2 0x157D SWAP4 SWAP3 SWAP2 SWAP1 PUSH2 0x1F77 JUMP JUMPDEST PUSH1 0x40 MLOAD DUP1 SWAP2 SUB SWAP1 LOG2 PUSH2 0x1A43 JUMP JUMPDEST TIMESTAMP DUP5 GT PUSH2 0x15CC JUMPI PUSH1 0x40 MLOAD PUSH32 0x8C379A000000000000000000000000000000000000000000000000000000000 DUP2 MSTORE PUSH1 0x4 ADD PUSH2 0x15C3 SWAP1 PUSH2 0x2053 JUMP JUMPDEST PUSH1 0x40 MLOAD DUP1 SWAP2 SUB SWAP1 REVERT JUMPDEST PUSH0 PUSH1 0x5 SLOAD SWAP1 POP PUSH0 PUSH1 0x6 SLOAD SWAP1 POP PUSH0 DUP3 DUP3 DUP14 PUSH2 0x15E6 SWAP2 SWAP1 PUSH2 0x22F6 JUMP JUMPDEST PUSH2 0x15F0 SWAP2 SWAP1 PUSH2 0x2364 JUMP JUMPDEST SWAP1 POP DUP11 DUP2 GT PUSH2 0x1647 JUMPI DUP9 DUP2 LT ISZERO PUSH2 0x163C JUMPI PUSH1 0x40 MLOAD PUSH32 0x8C379A000000000000000000000000000000000000000000000000000000000 DUP2 MSTORE PUSH1 0x4 ADD PUSH2 0x1633 SWAP1 PUSH2 0x280E JUMP JUMPDEST PUSH1 0x40 MLOAD DUP1 SWAP2 SUB SWAP1 REVERT JUMPDEST DUP12 SWAP6 POP DUP1 SWAP5 POP PUSH2 0x16EF JUMP JUMPDEST PUSH0 DUP3 DUP5 DUP14 PUSH2 0x1655 SWAP2 SWAP1 PUSH2 0x22F6 JUMP JUMPDEST PUSH2 0x165F SWAP2 SWAP1 PUSH2 0x2364 JUMP JUMPDEST SWAP1 POP DUP13 DUP2 GT ISZERO PUSH2 0x16A4 JUMPI PUSH1 0x40 MLOAD PUSH32 0x8C379A000000000000000000000000000000000000000000000000000000000 DUP2 MSTORE PUSH1 0x4 ADD PUSH2 0x169B SWAP1 PUSH2 0x2876 JUMP JUMPDEST PUSH1 0x40 MLOAD DUP1 SWAP2 SUB SWAP1 REVERT JUMPDEST DUP11 DUP2 LT ISZERO PUSH2 0x16E7 JUMPI PUSH1 0x40 MLOAD PUSH32 0x8C379A000000000000000000000000000000000000000000000000000000000 DUP2 MSTORE PUSH1 0x4 ADD PUSH2 0x16DE SWAP1 PUSH2 0x28DE JUMP JUMPDEST PUSH1 0x40 MLOAD DUP1 SWAP2 SUB SWAP1 REVERT JUMPDEST DUP1 SWAP7 POP DUP12 SWAP6 POP POP JUMPDEST PUSH1 0x3 PUSH1 0x1 SWAP1 SLOAD SWAP1 PUSH2 0x100 EXP SWAP1 DIV PUSH20 0xFFFFFFFFFFFFFFFFFFFFFFFFFFFFFFFFFFFFFFFF AND PUSH20 0xFFFFFFFFFFFFFFFFFFFFFFFFFFFFFFFFFFFFFFFF AND DUP15 PUSH20 0xFFFFFFFFFFFFFFFFFFFFFFFFFFFFFFFFFFFFFFFF AND EQ DUP1 ISZERO PUSH2 0x1798 JUMPI POP PUSH1 0x4 PUSH0 SWAP1 SLOAD SWAP1 PUSH2 0x100 EXP SWAP1 DIV PUSH20 0xFFFFFFFFFFFFFFFFFFFFFFFFFFFFFFFFFFFFFFFF AND PUSH20 0xFFFFFFFFFFFFFFFFFFFFFFFFFFFFFFFFFFFFFFFF AND DUP14 PUSH20 0xFFFFFFFFFFFFFFFFFFFFFFFFFFFFFFFFFFFFFFFF AND EQ JUMPDEST PUSH2 0x17D7 JUMPI PUSH1 0x40 MLOAD PUSH32 0x8C379A000000000000000000000000000000000000000000000000000000000 DUP2 MSTORE PUSH1 0x4 ADD PUSH2 0x17CE SWAP1 PUSH2 0x2510 JUMP JUMPDEST PUSH1 0x40 MLOAD DUP1 SWAP2 SUB SWAP1 REVERT JUMPDEST PUSH1 0x3 PUSH1 0x1 SWAP1 SLOAD SWAP1 PUSH2 0x100 EXP SWAP1 DIV PUSH20 0xFFFFFFFFFFFFFFFFFFFFFFFFFFFFFFFFFFFFFFFF AND PUSH20 0xFFFFFFFFFFFFFFFFFFFFFFFFFFFFFFFFFFFFFFFF AND PUSH4 0x23B872DD CALLER ADDRESS DUP10 PUSH1 0x40 MLOAD DUP5 PUSH4 0xFFFFFFFF AND PUSH1 0xE0 SHL DUP2 MSTORE PUSH1 0x4 ADD PUSH2 0x1836 SWAP4 SWAP3 SWAP2 SWAP1 PUSH2 0x2201 JUMP JUMPDEST PUSH1 0x20 PUSH1 0x40 MLOAD DUP1 DUP4 SUB DUP2 PUSH0 DUP8 GAS CALL ISZERO DUP1 ISZERO PUSH2 0x1852 JUMPI RETURNDATASIZE PUSH0 PUSH0 RETURNDATACOPY RETURNDATASIZE PUSH0 REVERT JUMPDEST POP POP POP POP PUSH1 0x40 MLOAD RETURNDATASIZE PUSH1 0x1F NOT PUSH1 0x1F DUP3 ADD AND DUP3 ADD DUP1 PUSH1 0x40 MSTORE POP DUP2 ADD SWAP1 PUSH2 0x1876 SWAP2 SWAP1 PUSH2 0x226B JUMP JUMPDEST POP PUSH1 0x4 PUSH0 SWAP1 SLOAD SWAP1 PUSH2 0x100 EXP SWAP1 DIV PUSH20 0xFFFFFFFFFFFFFFFFFFFFFFFFFFFFFFFFFFFFFFFF AND PUSH20 0xFFFFFFFFFFFFFFFFFFFFFFFFFFFFFFFFFFFFFFFF AND PUSH4 0x23B872DD CALLER ADDRESS DUP9 PUSH1 0x40 MLOAD DUP5 PUSH4 0xFFFFFFFF AND PUSH1 0xE0 SHL DUP2 MSTORE PUSH1 0x4 ADD PUSH2 0x18D5 SWAP4 SWAP3 SWAP2 SWAP1 PUSH2 0x2201 JUMP JUMPDEST PUSH1 0x20 PUSH1 0x40 MLOAD DUP1 DUP4 SUB DUP2 PUSH0 DUP8 GAS CALL ISZERO DUP1 ISZERO PUSH2 0x18F1 JUMPI RETURNDATASIZE PUSH0 PUSH0 RETURNDATACOPY RETURNDATASIZE PUSH0 REVERT JUMPDEST POP POP POP POP PUSH1 0x40 MLOAD RETURNDATASIZE PUSH1 0x1F NOT PUSH1 0x1F DUP3 ADD AND DUP3 ADD DUP1 PUSH1 0x40 MSTORE POP DUP2 ADD SWAP1 PUSH2 0x1915 SWAP2 SWAP1 PUSH2 0x226B JUMP JUMPDEST POP PUSH2 0x1950 DUP4 PUSH1 0x7 SLOAD DUP9 PUSH2 0x1928 SWAP2 SWAP1 PUSH2 0x22F6 JUMP JUMPDEST PUSH2 0x1932 SWAP2 SWAP1 PUSH2 0x2364 JUMP JUMPDEST DUP4 PUSH1 0x7 SLOAD DUP9 PUSH2 0x1941 SWAP2 SWAP1 PUSH2 0x22F6 JUMP JUMPDEST PUSH2 0x194B SWAP2 SWAP1 PUSH2 0x2364 JUMP JUMPDEST PUSH2 0x1A51 JUMP JUMPDEST SWAP4 POP DUP6 PUSH1 0x5 PUSH0 DUP3 DUP3 SLOAD PUSH2 0x1963 SWAP2 SWAP1 PUSH2 0x22C3 JUMP JUMPDEST SWAP3 POP POP DUP2 SWAP1 SSTORE POP DUP5 PUSH1 0x6 PUSH0 DUP3 DUP3 SLOAD PUSH2 0x197B SWAP2 SWAP1 PUSH2 0x22C3 JUMP JUMPDEST SWAP3 POP POP DUP2 SWAP1 SSTORE POP DUP4 PUSH1 0x7 PUSH0 DUP3 DUP3 SLOAD PUSH2 0x1993 SWAP2 SWAP1 PUSH2 0x22C3 JUMP JUMPDEST SWAP3 POP POP DUP2 SWAP1 SSTORE POP DUP4 PUSH1 0x8 PUSH0 DUP11 PUSH20 0xFFFFFFFFFFFFFFFFFFFFFFFFFFFFFFFFFFFFFFFF AND PUSH20 0xFFFFFFFFFFFFFFFFFFFFFFFFFFFFFFFFFFFFFFFF AND DUP2 MSTORE PUSH1 0x20 ADD SWAP1 DUP2 MSTORE PUSH1 0x20 ADD PUSH0 KECCAK256 PUSH0 DUP3 DUP3 SLOAD PUSH2 0x19E6 SWAP2 SWAP1 PUSH2 0x22C3 JUMP JUMPDEST SWAP3 POP POP DUP2 SWAP1 SSTORE POP CALLER PUSH20 0xFFFFFFFFFFFFFFFFFFFFFFFFFFFFFFFFFFFFFFFF AND PUSH32 0x64B83944E79C3CE8D4C297411DE637C3E102D064677AAC0C163976EBDCD6F50E DUP8 DUP8 DUP8 PUSH1 0x40 MLOAD PUSH2 0x1A37 SWAP4 SWAP3 SWAP2 SWAP1 PUSH2 0x1F77 JUMP JUMPDEST PUSH1 0x40 MLOAD DUP1 SWAP2 SUB SWAP1 LOG2 POP POP POP JUMPDEST SWAP9 POP SWAP9 POP SWAP9 SWAP6 POP POP POP POP POP POP JUMP JUMPDEST PUSH0 PUSH2 0x1A5F DUP3 DUP5 LT DUP5 DUP5 PUSH2 0x1A67 JUMP JUMPDEST SWAP1 POP SWAP3 SWAP2 POP POP JUMP JUMPDEST PUSH0 PUSH2 0x1A71 DUP5 PUSH2 0x1A80 JUMP JUMPDEST DUP3 DUP5 XOR MUL DUP3 XOR SWAP1 POP SWAP4 SWAP3 POP POP POP JUMP JUMPDEST PUSH0 DUP2 ISZERO ISZERO SWAP1 POP SWAP2 SWAP1 POP JUMP JUMPDEST PUSH0 DUP2 MLOAD SWAP1 POP SWAP2 SWAP1 POP JUMP JUMPDEST PUSH0 DUP3 DUP3 MSTORE PUSH1 0x20 DUP3 ADD SWAP1 POP SWAP3 SWAP2 POP POP JUMP JUMPDEST DUP3 DUP2 DUP4 MCOPY PUSH0 DUP4 DUP4 ADD MSTORE POP POP POP JUMP JUMPDEST PUSH0 PUSH1 0x1F NOT PUSH1 0x1F DUP4 ADD AND SWAP1 POP SWAP2 SWAP1 POP JUMP JUMPDEST PUSH0 PUSH2 0x1ACD DUP3 PUSH2 0x1A8B JUMP JUMPDEST PUSH2 0x1AD7 DUP2 DUP6 PUSH2 0x1A95 JUMP JUMPDEST SWAP4 POP PUSH2 0x1AE7 DUP2 DUP6 PUSH1 0x20 DUP7 ADD PUSH2 0x1AA5 JUMP JUMPDEST PUSH2 0x1AF0 DUP2 PUSH2 0x1AB3 JUMP JUMPDEST DUP5 ADD SWAP2 POP POP SWAP3 SWAP2 POP POP JUMP JUMPDEST PUSH0 PUSH1 0x20 DUP3 ADD SWAP1 POP DUP2 DUP2 SUB PUSH0 DUP4 ADD MSTORE PUSH2 0x1B13 DUP2 DUP5 PUSH2 0x1AC3 JUMP JUMPDEST SWAP1 POP SWAP3 SWAP2 POP POP JUMP JUMPDEST PUSH0 PUSH20 0xFFFFFFFFFFFFFFFFFFFFFFFFFFFFFFFFFFFFFFFF DUP3 AND SWAP1 POP SWAP2 SWAP1 POP JUMP JUMPDEST PUSH0 PUSH2 0x1B44 DUP3 PUSH2 0x1B1B JUMP JUMPDEST SWAP1 POP SWAP2 SWAP1 POP JUMP JUMPDEST PUSH2 0x1B54 DUP2 PUSH2 0x1B3A JUMP JUMPDEST DUP3 MSTORE POP POP JUMP JUMPDEST PUSH0 PUSH1 0x20 DUP3 ADD SWAP1 POP PUSH2 0x1B6D PUSH0 DUP4 ADD DUP5 PUSH2 0x1B4B JUMP JUMPDEST SWAP3 SWAP2 POP POP JUMP JUMPDEST PUSH0 DUP2 SWAP1 POP SWAP2 SWAP1 POP JUMP JUMPDEST PUSH2 0x1B85 DUP2 PUSH2 0x1B73 JUMP JUMPDEST DUP3 MSTORE POP POP JUMP JUMPDEST PUSH0 PUSH1 0x20 DUP3 ADD SWAP1 POP PUSH2 0x1B9E PUSH0 DUP4 ADD DUP5 PUSH2 0x1B7C JUMP JUMPDEST SWAP3 SWAP2 POP POP JUMP JUMPDEST PUSH0 PUSH1 0xFF DUP3 AND SWAP1 POP SWAP2 SWAP1 POP JUMP JUMPDEST PUSH2 0x1BB9 DUP2 PUSH2 0x1BA4 JUMP JUMPDEST DUP3 MSTORE POP POP JUMP JUMPDEST PUSH0 PUSH1 0x20 DUP3 ADD SWAP1 POP PUSH2 0x1BD2 PUSH0 DUP4 ADD DUP5 PUSH2 0x1BB0 JUMP JUMPDEST SWAP3 SWAP2 POP POP JUMP JUMPDEST PUSH0 PUSH0 REVERT JUMPDEST PUSH0 PUSH0 REVERT JUMPDEST PUSH2 0x1BE9 DUP2 PUSH2 0x1B73 JUMP JUMPDEST DUP2 EQ PUSH2 0x1BF3 JUMPI PUSH0 PUSH0 REVERT JUMPDEST POP JUMP JUMPDEST PUSH0 DUP2 CALLDATALOAD SWAP1 POP PUSH2 0x1C04 DUP2 PUSH2 0x1BE0 JUMP JUMPDEST SWAP3 SWAP2 POP POP JUMP JUMPDEST PUSH0 PUSH0 REVERT JUMPDEST PUSH0 PUSH0 REVERT JUMPDEST PUSH0 PUSH0 REVERT JUMPDEST PUSH0 PUSH0 DUP4 PUSH1 0x1F DUP5 ADD SLT PUSH2 0x1C2B JUMPI PUSH2 0x1C2A PUSH2 0x1C0A JUMP JUMPDEST JUMPDEST DUP3 CALLDATALOAD SWAP1 POP PUSH8 0xFFFFFFFFFFFFFFFF DUP2 GT ISZERO PUSH2 0x1C48 JUMPI PUSH2 0x1C47 PUSH2 0x1C0E JUMP JUMPDEST JUMPDEST PUSH1 0x20 DUP4 ADD SWAP2 POP DUP4 PUSH1 0x20 DUP3 MUL DUP4 ADD GT ISZERO PUSH2 0x1C64 JUMPI PUSH2 0x1C63 PUSH2 0x1C12 JUMP JUMPDEST JUMPDEST SWAP3 POP SWAP3 SWAP1 POP JUMP JUMPDEST PUSH2 0x1C74 DUP2 PUSH2 0x1B3A JUMP JUMPDEST DUP2 EQ PUSH2 0x1C7E JUMPI PUSH0 PUSH0 REVERT JUMPDEST POP JUMP JUMPDEST PUSH0 DUP2 CALLDATALOAD SWAP1 POP PUSH2 0x1C8F DUP2 PUSH2 0x1C6B JUMP JUMPDEST SWAP3 SWAP2 POP POP JUMP JUMPDEST PUSH0 PUSH0 PUSH0 PUSH0 PUSH0 PUSH0 PUSH1 0xA0 DUP8 DUP10 SUB SLT ISZERO PUSH2 0x1CAF JUMPI PUSH2 0x1CAE PUSH2 0x1BD8 JUMP JUMPDEST JUMPDEST PUSH0 PUSH2 0x1CBC DUP10 DUP3 DUP11 ADD PUSH2 0x1BF6 JUMP JUMPDEST SWAP7 POP POP PUSH1 0x20 PUSH2 0x1CCD DUP10 DUP3 DUP11 ADD PUSH2 0x1BF6 JUMP JUMPDEST SWAP6 POP POP PUSH1 0x40 DUP8 ADD CALLDATALOAD PUSH8 0xFFFFFFFFFFFFFFFF DUP2 GT ISZERO PUSH2 0x1CEE JUMPI PUSH2 0x1CED PUSH2 0x1BDC JUMP JUMPDEST JUMPDEST PUSH2 0x1CFA DUP10 DUP3 DUP11 ADD PUSH2 0x1C16 JUMP JUMPDEST SWAP5 POP SWAP5 POP POP PUSH1 0x60 PUSH2 0x1D0D DUP10 DUP3 DUP11 ADD PUSH2 0x1C81 JUMP JUMPDEST SWAP3 POP POP PUSH1 0x80 PUSH2 0x1D1E DUP10 DUP3 DUP11 ADD PUSH2 0x1BF6 JUMP JUMPDEST SWAP2 POP POP SWAP3 SWAP6 POP SWAP3 SWAP6 POP SWAP3 SWAP6 JUMP JUMPDEST PUSH0 DUP2 MLOAD SWAP1 POP SWAP2 SWAP1 POP JUMP JUMPDEST PUSH0 DUP3 DUP3 MSTORE PUSH1 0x20 DUP3 ADD SWAP1 POP SWAP3 SWAP2 POP POP JUMP JUMPDEST PUSH0 DUP2 SWAP1 POP PUSH1 0x20 DUP3 ADD SWAP1 POP SWAP2 SWAP1 POP JUMP JUMPDEST PUSH2 0x1D5D DUP2 PUSH2 0x1B73 JUMP JUMPDEST DUP3 MSTORE POP POP JUMP JUMPDEST PUSH0 PUSH2 0x1D6E DUP4 DUP4 PUSH2 0x1D54 JUMP JUMPDEST PUSH1 0x20 DUP4 ADD SWAP1 POP SWAP3 SWAP2 POP POP JUMP JUMPDEST PUSH0 PUSH1 0x20 DUP3 ADD SWAP1 POP SWAP2 SWAP1 POP JUMP JUMPDEST PUSH0 PUSH2 0x1D90 DUP3 PUSH2 0x1D2B JUMP JUMPDEST PUSH2 0x1D9A DUP2 DUP6 PUSH2 0x1D35 JUMP JUMPDEST SWAP4 POP PUSH2 0x1DA5 DUP4 PUSH2 0x1D45 JUMP JUMPDEST DUP1 PUSH0 JUMPDEST DUP4 DUP2 LT ISZERO PUSH2 0x1DD5 JUMPI DUP2 MLOAD PUSH2 0x1DBC DUP9 DUP3 PUSH2 0x1D63 JUMP JUMPDEST SWAP8 POP PUSH2 0x1DC7 DUP4 PUSH2 0x1D7A JUMP JUMPDEST SWAP3 POP POP PUSH1 0x1 DUP2 ADD SWAP1 POP PUSH2 0x1DA8 JUMP JUMPDEST POP DUP6 SWAP4 POP POP POP POP SWAP3 SWAP2 POP POP JUMP JUMPDEST PUSH0 PUSH1 0x20 DUP3 ADD SWAP1 POP DUP2 DUP2 SUB PUSH0 DUP4 ADD MSTORE PUSH2 0x1DFA DUP2 DUP5 PUSH2 0x1D86 JUMP JUMPDEST SWAP1 POP SWAP3 SWAP2 POP POP JUMP JUMPDEST PUSH0 PUSH0 PUSH0 PUSH0 PUSH0 PUSH0 PUSH0 PUSH1 0xE0 DUP9 DUP11 SUB SLT ISZERO PUSH2 0x1E1D JUMPI PUSH2 0x1E1C PUSH2 0x1BD8 JUMP JUMPDEST JUMPDEST PUSH0 PUSH2 0x1E2A DUP11 DUP3 DUP12 ADD PUSH2 0x1C81 JUMP JUMPDEST SWAP8 POP POP PUSH1 0x20 PUSH2 0x1E3B DUP11 DUP3 DUP12 ADD PUSH2 0x1C81 JUMP JUMPDEST SWAP7 POP POP PUSH1 0x40 PUSH2 0x1E4C DUP11 DUP3 DUP12 ADD PUSH2 0x1BF6 JUMP JUMPDEST SWAP6 POP POP PUSH1 0x60 PUSH2 0x1E5D DUP11 DUP3 DUP12 ADD PUSH2 0x1BF6 JUMP JUMPDEST SWAP5 POP POP PUSH1 0x80 PUSH2 0x1E6E DUP11 DUP3 DUP12 ADD PUSH2 0x1BF6 JUMP JUMPDEST SWAP4 POP POP PUSH1 0xA0 PUSH2 0x1E7F DUP11 DUP3 DUP12 ADD PUSH2 0x1C81 JUMP JUMPDEST SWAP3 POP POP PUSH1 0xC0 PUSH2 0x1E90 DUP11 DUP3 DUP12 ADD PUSH2 0x1BF6 JUMP JUMPDEST SWAP2 POP POP SWAP3 SWAP6 SWAP9 SWAP2 SWAP5 SWAP8 POP SWAP3 SWAP6 POP JUMP JUMPDEST PUSH0 PUSH1 0x40 DUP3 ADD SWAP1 POP PUSH2 0x1EB2 PUSH0 DUP4 ADD DUP6 PUSH2 0x1B7C JUMP JUMPDEST PUSH2 0x1EBF PUSH1 0x20 DUP4 ADD DUP5 PUSH2 0x1B7C JUMP JUMPDEST SWAP4 SWAP3 POP POP POP JUMP JUMPDEST PUSH0 PUSH0 PUSH0 PUSH0 PUSH0 PUSH0 PUSH0 PUSH0 PUSH2 0x100 DUP10 DUP12 SUB SLT ISZERO PUSH2 0x1EE3 JUMPI PUSH2 0x1EE2 PUSH2 0x1BD8 JUMP JUMPDEST JUMPDEST PUSH0 PUSH2 0x1EF0 DUP12 DUP3 DUP13 ADD PUSH2 0x1C81 JUMP JUMPDEST SWAP9 POP POP PUSH1 0x20 PUSH2 0x1F01 DUP12 DUP3 DUP13 ADD PUSH2 0x1C81 JUMP JUMPDEST SWAP8 POP POP PUSH1 0x40 PUSH2 0x1F12 DUP12 DUP3 DUP13 ADD PUSH2 0x1BF6 JUMP JUMPDEST SWAP7 POP POP PUSH1 0x60 PUSH2 0x1F23 DUP12 DUP3 DUP13 ADD PUSH2 0x1BF6 JUMP JUMPDEST SWAP6 POP POP PUSH1 0x80 PUSH2 0x1F34 DUP12 DUP3 DUP13 ADD PUSH2 0x1BF6 JUMP JUMPDEST SWAP5 POP POP PUSH1 0xA0 PUSH2 0x1F45 DUP12 DUP3 DUP13 ADD PUSH2 0x1BF6 JUMP JUMPDEST SWAP4 POP POP PUSH1 0xC0 PUSH2 0x1F56 DUP12 DUP3 DUP13 ADD PUSH2 0x1C81 JUMP JUMPDEST SWAP3 POP POP PUSH1 0xE0 PUSH2 0x1F67 DUP12 DUP3 DUP13 ADD PUSH2 0x1BF6 JUMP JUMPDEST SWAP2 POP POP SWAP3 SWAP6 SWAP9 POP SWAP3 SWAP6 SWAP9 SWAP1 SWAP4 SWAP7 POP JUMP JUMPDEST PUSH0 PUSH1 0x60 DUP3 ADD SWAP1 POP PUSH2 0x1F8A PUSH0 DUP4 ADD DUP7 PUSH2 0x1B7C JUMP JUMPDEST PUSH2 0x1F97 PUSH1 0x20 DUP4 ADD DUP6 PUSH2 0x1B7C JUMP JUMPDEST PUSH2 0x1FA4 PUSH1 0x40 DUP4 ADD DUP5 PUSH2 0x1B7C JUMP JUMPDEST SWAP5 SWAP4 POP POP POP POP JUMP JUMPDEST PUSH32 0x4E487B7100000000000000000000000000000000000000000000000000000000 PUSH0 MSTORE PUSH1 0x22 PUSH1 0x4 MSTORE PUSH1 0x24 PUSH0 REVERT JUMPDEST PUSH0 PUSH1 0x2 DUP3 DIV SWAP1 POP PUSH1 0x1 DUP3 AND DUP1 PUSH2 0x1FF0 JUMPI PUSH1 0x7F DUP3 AND SWAP2 POP JUMPDEST PUSH1 0x20 DUP3 LT DUP2 SUB PUSH2 0x2003 JUMPI PUSH2 0x2002 PUSH2 0x1FAC JUMP JUMPDEST JUMPDEST POP SWAP2 SWAP1 POP JUMP JUMPDEST PUSH32 0x5472616E73616374696F6E206578706972656400000000000000000000000000 PUSH0 DUP3 ADD MSTORE POP JUMP JUMPDEST PUSH0 PUSH2 0x203D PUSH1 0x13 DUP4 PUSH2 0x1A95 JUMP JUMPDEST SWAP2 POP PUSH2 0x2048 DUP3 PUSH2 0x2009 JUMP JUMPDEST PUSH1 0x20 DUP3 ADD SWAP1 POP SWAP2 SWAP1 POP JUMP JUMPDEST PUSH0 PUSH1 0x20 DUP3 ADD SWAP1 POP DUP2 DUP2 SUB PUSH0 DUP4 ADD MSTORE PUSH2 0x206A DUP2 PUSH2 0x2031 JUMP JUMPDEST SWAP1 POP SWAP2 SWAP1 POP JUMP JUMPDEST PUSH32 0x4E487B7100000000000000000000000000000000000000000000000000000000 PUSH0 MSTORE PUSH1 0x32 PUSH1 0x4 MSTORE PUSH1 0x24 PUSH0 REVERT JUMPDEST PUSH0 PUSH1 0x20 DUP3 DUP5 SUB SLT ISZERO PUSH2 0x20B3 JUMPI PUSH2 0x20B2 PUSH2 0x1BD8 JUMP JUMPDEST JUMPDEST PUSH0 PUSH2 0x20C0 DUP5 DUP3 DUP6 ADD PUSH2 0x1C81 JUMP JUMPDEST SWAP2 POP POP SWAP3 SWAP2 POP POP JUMP JUMPDEST PUSH32 0x696E76616C69642070616972206F6620746F6B656E7300000000000000000000 PUSH0 DUP3 ADD MSTORE POP JUMP JUMPDEST PUSH0 PUSH2 0x20FD PUSH1 0x16 DUP4 PUSH2 0x1A95 JUMP JUMPDEST SWAP2 POP PUSH2 0x2108 DUP3 PUSH2 0x20C9 JUMP JUMPDEST PUSH1 0x20 DUP3 ADD SWAP1 POP SWAP2 SWAP1 POP JUMP JUMPDEST PUSH0 PUSH1 0x20 DUP3 ADD SWAP1 POP DUP2 DUP2 SUB PUSH0 DUP4 ADD MSTORE PUSH2 0x212A DUP2 PUSH2 0x20F1 JUMP JUMPDEST SWAP1 POP SWAP2 SWAP1 POP JUMP JUMPDEST PUSH32 0x696E76616C696420746F6B656E20706169720000000000000000000000000000 PUSH0 DUP3 ADD MSTORE POP JUMP JUMPDEST PUSH0 PUSH2 0x2165 PUSH1 0x12 DUP4 PUSH2 0x1A95 JUMP JUMPDEST SWAP2 POP PUSH2 0x2170 DUP3 PUSH2 0x2131 JUMP JUMPDEST PUSH1 0x20 DUP3 ADD SWAP1 POP SWAP2 SWAP1 POP JUMP JUMPDEST PUSH0 PUSH1 0x20 DUP3 ADD SWAP1 POP DUP2 DUP2 SUB PUSH0 DUP4 ADD MSTORE PUSH2 0x2192 DUP2 PUSH2 0x2159 JUMP JUMPDEST SWAP1 POP SWAP2 SWAP1 POP JUMP JUMPDEST PUSH32 0x696E73756666696369656E7420616D6F756E74496E0000000000000000000000 PUSH0 DUP3 ADD MSTORE POP JUMP JUMPDEST PUSH0 PUSH2 0x21CD PUSH1 0x15 DUP4 PUSH2 0x1A95 JUMP JUMPDEST SWAP2 POP PUSH2 0x21D8 DUP3 PUSH2 0x2199 JUMP JUMPDEST PUSH1 0x20 DUP3 ADD SWAP1 POP SWAP2 SWAP1 POP JUMP JUMPDEST PUSH0 PUSH1 0x20 DUP3 ADD SWAP1 POP DUP2 DUP2 SUB PUSH0 DUP4 ADD MSTORE PUSH2 0x21FA DUP2 PUSH2 0x21C1 JUMP JUMPDEST SWAP1 POP SWAP2 SWAP1 POP JUMP JUMPDEST PUSH0 PUSH1 0x60 DUP3 ADD SWAP1 POP PUSH2 0x2214 PUSH0 DUP4 ADD DUP7 PUSH2 0x1B4B JUMP JUMPDEST PUSH2 0x2221 PUSH1 0x20 DUP4 ADD DUP6 PUSH2 0x1B4B JUMP JUMPDEST PUSH2 0x222E PUSH1 0x40 DUP4 ADD DUP5 PUSH2 0x1B7C JUMP JUMPDEST SWAP5 SWAP4 POP POP POP POP JUMP JUMPDEST PUSH0 DUP2 ISZERO ISZERO SWAP1 POP SWAP2 SWAP1 POP JUMP JUMPDEST PUSH2 0x224A DUP2 PUSH2 0x2236 JUMP JUMPDEST DUP2 EQ PUSH2 0x2254 JUMPI PUSH0 PUSH0 REVERT JUMPDEST POP JUMP JUMPDEST PUSH0 DUP2 MLOAD SWAP1 POP PUSH2 0x2265 DUP2 PUSH2 0x2241 JUMP JUMPDEST SWAP3 SWAP2 POP POP JUMP JUMPDEST PUSH0 PUSH1 0x20 DUP3 DUP5 SUB SLT ISZERO PUSH2 0x2280 JUMPI PUSH2 0x227F PUSH2 0x1BD8 JUMP JUMPDEST JUMPDEST PUSH0 PUSH2 0x228D DUP5 DUP3 DUP6 ADD PUSH2 0x2257 JUMP JUMPDEST SWAP2 POP POP SWAP3 SWAP2 POP POP JUMP JUMPDEST PUSH32 0x4E487B7100000000000000000000000000000000000000000000000000000000 PUSH0 MSTORE PUSH1 0x11 PUSH1 0x4 MSTORE PUSH1 0x24 PUSH0 REVERT JUMPDEST PUSH0 PUSH2 0x22CD DUP3 PUSH2 0x1B73 JUMP JUMPDEST SWAP2 POP PUSH2 0x22D8 DUP4 PUSH2 0x1B73 JUMP JUMPDEST SWAP3 POP DUP3 DUP3 ADD SWAP1 POP DUP1 DUP3 GT ISZERO PUSH2 0x22F0 JUMPI PUSH2 0x22EF PUSH2 0x2296 JUMP JUMPDEST JUMPDEST SWAP3 SWAP2 POP POP JUMP JUMPDEST PUSH0 PUSH2 0x2300 DUP3 PUSH2 0x1B73 JUMP JUMPDEST SWAP2 POP PUSH2 0x230B DUP4 PUSH2 0x1B73 JUMP JUMPDEST SWAP3 POP DUP3 DUP3 MUL PUSH2 0x2319 DUP2 PUSH2 0x1B73 JUMP JUMPDEST SWAP2 POP DUP3 DUP3 DIV DUP5 EQ DUP4 ISZERO OR PUSH2 0x2330 JUMPI PUSH2 0x232F PUSH2 0x2296 JUMP JUMPDEST JUMPDEST POP SWAP3 SWAP2 POP POP JUMP JUMPDEST PUSH32 0x4E487B7100000000000000000000000000000000000000000000000000000000 PUSH0 MSTORE PUSH1 0x12 PUSH1 0x4 MSTORE PUSH1 0x24 PUSH0 REVERT JUMPDEST PUSH0 PUSH2 0x236E DUP3 PUSH2 0x1B73 JUMP JUMPDEST SWAP2 POP PUSH2 0x2379 DUP4 PUSH2 0x1B73 JUMP JUMPDEST SWAP3 POP DUP3 PUSH2 0x2389 JUMPI PUSH2 0x2388 PUSH2 0x2337 JUMP JUMPDEST JUMPDEST DUP3 DUP3 DIV SWAP1 POP SWAP3 SWAP2 POP POP JUMP JUMPDEST PUSH32 0x696E737566696369656E7420616D6F756E744F75740000000000000000000000 PUSH0 DUP3 ADD MSTORE POP JUMP JUMPDEST PUSH0 PUSH2 0x23C8 PUSH1 0x15 DUP4 PUSH2 0x1A95 JUMP JUMPDEST SWAP2 POP PUSH2 0x23D3 DUP3 PUSH2 0x2394 JUMP JUMPDEST PUSH1 0x20 DUP3 ADD SWAP1 POP SWAP2 SWAP1 POP JUMP JUMPDEST PUSH0 PUSH1 0x20 DUP3 ADD SWAP1 POP DUP2 DUP2 SUB PUSH0 DUP4 ADD MSTORE PUSH2 0x23F5 DUP2 PUSH2 0x23BC JUMP JUMPDEST SWAP1 POP SWAP2 SWAP1 POP JUMP JUMPDEST PUSH0 PUSH1 0x40 DUP3 ADD SWAP1 POP PUSH2 0x240F PUSH0 DUP4 ADD DUP6 PUSH2 0x1B4B JUMP JUMPDEST PUSH2 0x241C PUSH1 0x20 DUP4 ADD DUP5 PUSH2 0x1B7C JUMP JUMPDEST SWAP4 SWAP3 POP POP POP JUMP JUMPDEST PUSH0 PUSH2 0x242D DUP3 PUSH2 0x1B73 JUMP JUMPDEST SWAP2 POP PUSH2 0x2438 DUP4 PUSH2 0x1B73 JUMP JUMPDEST SWAP3 POP DUP3 DUP3 SUB SWAP1 POP DUP2 DUP2 GT ISZERO PUSH2 0x2450 JUMPI PUSH2 0x244F PUSH2 0x2296 JUMP JUMPDEST JUMPDEST SWAP3 SWAP2 POP POP JUMP JUMPDEST PUSH32 0x4E487B7100000000000000000000000000000000000000000000000000000000 PUSH0 MSTORE PUSH1 0x41 PUSH1 0x4 MSTORE PUSH1 0x24 PUSH0 REVERT JUMPDEST PUSH0 PUSH1 0x80 DUP3 ADD SWAP1 POP PUSH2 0x2496 PUSH0 DUP4 ADD DUP8 PUSH2 0x1B4B JUMP JUMPDEST PUSH2 0x24A3 PUSH1 0x20 DUP4 ADD DUP7 PUSH2 0x1B7C JUMP JUMPDEST PUSH2 0x24B0 PUSH1 0x40 DUP4 ADD DUP6 PUSH2 0x1B4B JUMP JUMPDEST PUSH2 0x24BD PUSH1 0x60 DUP4 ADD DUP5 PUSH2 0x1B7C JUMP JUMPDEST SWAP6 SWAP5 POP POP POP POP POP JUMP JUMPDEST PUSH32 0x496E76616C696420746F6B656E20706169720000000000000000000000000000 PUSH0 DUP3 ADD MSTORE POP JUMP JUMPDEST PUSH0 PUSH2 0x24FA PUSH1 0x12 DUP4 PUSH2 0x1A95 JUMP JUMPDEST SWAP2 POP PUSH2 0x2505 DUP3 PUSH2 0x24C6 JUMP JUMPDEST PUSH1 0x20 DUP3 ADD SWAP1 POP SWAP2 SWAP1 POP JUMP JUMPDEST PUSH0 PUSH1 0x20 DUP3 ADD SWAP1 POP DUP2 DUP2 SUB PUSH0 DUP4 ADD MSTORE PUSH2 0x2527 DUP2 PUSH2 0x24EE JUMP JUMPDEST SWAP1 POP SWAP2 SWAP1 POP JUMP JUMPDEST PUSH32 0x616D6F756E74412062656C6F77206D696E696D756D0000000000000000000000 PUSH0 DUP3 ADD MSTORE POP JUMP JUMPDEST PUSH0 PUSH2 0x2562 PUSH1 0x15 DUP4 PUSH2 0x1A95 JUMP JUMPDEST SWAP2 POP PUSH2 0x256D DUP3 PUSH2 0x252E JUMP JUMPDEST PUSH1 0x20 DUP3 ADD SWAP1 POP SWAP2 SWAP1 POP JUMP JUMPDEST PUSH0 PUSH1 0x20 DUP3 ADD SWAP1 POP DUP2 DUP2 SUB PUSH0 DUP4 ADD MSTORE PUSH2 0x258F DUP2 PUSH2 0x2556 JUMP JUMPDEST SWAP1 POP SWAP2 SWAP1 POP JUMP JUMPDEST PUSH32 0x616D6F756E74422062656C6F77206D696E696D756D0000000000000000000000 PUSH0 DUP3 ADD MSTORE POP JUMP JUMPDEST PUSH0 PUSH2 0x25CA PUSH1 0x15 DUP4 PUSH2 0x1A95 JUMP JUMPDEST SWAP2 POP PUSH2 0x25D5 DUP3 PUSH2 0x2596 JUMP JUMPDEST PUSH1 0x20 DUP3 ADD SWAP1 POP SWAP2 SWAP1 POP JUMP JUMPDEST PUSH0 PUSH1 0x20 DUP3 ADD SWAP1 POP DUP2 DUP2 SUB PUSH0 DUP4 ADD MSTORE PUSH2 0x25F7 DUP2 PUSH2 0x25BE JUMP JUMPDEST SWAP1 POP SWAP2 SWAP1 POP JUMP JUMPDEST PUSH32 0x496E73756666696369656E74204C502062616C616E6365000000000000000000 PUSH0 DUP3 ADD MSTORE POP JUMP JUMPDEST PUSH0 PUSH2 0x2632 PUSH1 0x17 DUP4 PUSH2 0x1A95 JUMP JUMPDEST SWAP2 POP PUSH2 0x263D DUP3 PUSH2 0x25FE JUMP JUMPDEST PUSH1 0x20 DUP3 ADD SWAP1 POP SWAP2 SWAP1 POP JUMP JUMPDEST PUSH0 PUSH1 0x20 DUP3 ADD SWAP1 POP DUP2 DUP2 SUB PUSH0 DUP4 ADD MSTORE PUSH2 0x265F DUP2 PUSH2 0x2626 JUMP JUMPDEST SWAP1 POP SWAP2 SWAP1 POP JUMP JUMPDEST PUSH32 0x496E73756666696369656E742072657365727665730000000000000000000000 PUSH0 DUP3 ADD MSTORE POP JUMP JUMPDEST PUSH0 PUSH2 0x269A PUSH1 0x15 DUP4 PUSH2 0x1A95 JUMP JUMPDEST SWAP2 POP PUSH2 0x26A5 DUP3 PUSH2 0x2666 JUMP JUMPDEST PUSH1 0x20 DUP3 ADD SWAP1 POP SWAP2 SWAP1 POP JUMP JUMPDEST PUSH0 PUSH1 0x20 DUP3 ADD SWAP1 POP DUP2 DUP2 SUB PUSH0 DUP4 ADD MSTORE PUSH2 0x26C7 DUP2 PUSH2 0x268E JUMP JUMPDEST SWAP1 POP SWAP2 SWAP1 POP JUMP JUMPDEST PUSH32 0x4F6E6C79206F776E65722063616E20696E697469616C697A6500000000000000 PUSH0 DUP3 ADD MSTORE POP JUMP JUMPDEST PUSH0 PUSH2 0x2702 PUSH1 0x19 DUP4 PUSH2 0x1A95 JUMP JUMPDEST SWAP2 POP PUSH2 0x270D DUP3 PUSH2 0x26CE JUMP JUMPDEST PUSH1 0x20 DUP3 ADD SWAP1 POP SWAP2 SWAP1 POP JUMP JUMPDEST PUSH0 PUSH1 0x20 DUP3 ADD SWAP1 POP DUP2 DUP2 SUB PUSH0 DUP4 ADD MSTORE PUSH2 0x272F DUP2 PUSH2 0x26F6 JUMP JUMPDEST SWAP1 POP SWAP2 SWAP1 POP JUMP JUMPDEST PUSH32 0x496E697469616C204C50206D7573742062652061737369676E656420746F206F PUSH0 DUP3 ADD MSTORE PUSH32 0x776E657200000000000000000000000000000000000000000000000000000000 PUSH1 0x20 DUP3 ADD MSTORE POP JUMP JUMPDEST PUSH0 PUSH2 0x2790 PUSH1 0x24 DUP4 PUSH2 0x1A95 JUMP JUMPDEST SWAP2 POP PUSH2 0x279B DUP3 PUSH2 0x2736 JUMP JUMPDEST PUSH1 0x40 DUP3 ADD SWAP1 POP SWAP2 SWAP1 POP JUMP JUMPDEST PUSH0 PUSH1 0x20 DUP3 ADD SWAP1 POP DUP2 DUP2 SUB PUSH0 DUP4 ADD MSTORE PUSH2 0x27BD DUP2 PUSH2 0x2784 JUMP JUMPDEST SWAP1 POP SWAP2 SWAP1 POP JUMP JUMPDEST PUSH32 0x696E73756666696369656E742042000000000000000000000000000000000000 PUSH0 DUP3 ADD MSTORE POP JUMP JUMPDEST PUSH0 PUSH2 0x27F8 PUSH1 0xE DUP4 PUSH2 0x1A95 JUMP JUMPDEST SWAP2 POP PUSH2 0x2803 DUP3 PUSH2 0x27C4 JUMP JUMPDEST PUSH1 0x20 DUP3 ADD SWAP1 POP SWAP2 SWAP1 POP JUMP JUMPDEST PUSH0 PUSH1 0x20 DUP3 ADD SWAP1 POP DUP2 DUP2 SUB PUSH0 DUP4 ADD MSTORE PUSH2 0x2825 DUP2 PUSH2 0x27EC JUMP JUMPDEST SWAP1 POP SWAP2 SWAP1 POP JUMP JUMPDEST PUSH32 0x746F6F206D756368204100000000000000000000000000000000000000000000 PUSH0 DUP3 ADD MSTORE POP JUMP JUMPDEST PUSH0 PUSH2 0x2860 PUSH1 0xA DUP4 PUSH2 0x1A95 JUMP JUMPDEST SWAP2 POP PUSH2 0x286B DUP3 PUSH2 0x282C JUMP JUMPDEST PUSH1 0x20 DUP3 ADD SWAP1 POP SWAP2 SWAP1 POP JUMP JUMPDEST PUSH0 PUSH1 0x20 DUP3 ADD SWAP1 POP DUP2 DUP2 SUB PUSH0 DUP4 ADD MSTORE PUSH2 0x288D DUP2 PUSH2 0x2854 JUMP JUMPDEST SWAP1 POP SWAP2 SWAP1 POP JUMP JUMPDEST PUSH32 0x6E6F7420656E6F75676820410000000000000000000000000000000000000000 PUSH0 DUP3 ADD MSTORE POP JUMP JUMPDEST PUSH0 PUSH2 0x28C8 PUSH1 0xC DUP4 PUSH2 0x1A95 JUMP JUMPDEST SWAP2 POP PUSH2 0x28D3 DUP3 PUSH2 0x2894 JUMP JUMPDEST PUSH1 0x20 DUP3 ADD SWAP1 POP SWAP2 SWAP1 POP JUMP JUMPDEST PUSH0 PUSH1 0x20 DUP3 ADD SWAP1 POP DUP2 DUP2 SUB PUSH0 DUP4 ADD MSTORE PUSH2 0x28F5 DUP2 PUSH2 0x28BC JUMP JUMPDEST SWAP1 POP SWAP2 SWAP1 POP JUMP INVALID LOG2 PUSH5 0x6970667358 0x22 SLT KECCAK256 SWAP13 DUP6 0xC0 SWAP5 0xDE 0xB8 PUSH18 0xC16CDEA12F11453607A98864A249C600CE7 SWAP11 STOP TIMESTAMP LOG0 0xAC SDIV PREVRANDAO PUSH5 0x736F6C6343 STOP ADDMOD 0x1E STOP CALLER "
				},
				"gasEstimates": {
					"creation": {
						"codeDepositCost": "2109200",
						"executionCost": "infinite",
						"totalCost": "infinite"
					},
					"external": {
						"addLiquidity(address,address,uint256,uint256,uint256,uint256,address,uint256)": "infinite",
						"decimals()": "2540",
						"name()": "infinite",
						"owner()": "2529",
						"removeLiquidity(address,address,uint256,uint256,uint256,address,uint256)": "infinite",
						"reserveA()": "2513",
						"reserveB()": "2470",
						"swapExactTokensForTokens(uint256,uint256,address[],address,uint256)": "infinite",
						"symbol()": "infinite",
						"tokenA()": "2582",
						"tokenB()": "2508"
					}
				},
				"methodIdentifiers": {
					"addLiquidity(address,address,uint256,uint256,uint256,uint256,address,uint256)": "e8e33700",
					"decimals()": "313ce567",
					"name()": "06fdde03",
					"owner()": "8da5cb5b",
					"removeLiquidity(address,address,uint256,uint256,uint256,address,uint256)": "baa2abde",
					"reserveA()": "dc5fa6c5",
					"reserveB()": "19e36f3b",
					"swapExactTokensForTokens(uint256,uint256,address[],address,uint256)": "38ed1739",
					"symbol()": "95d89b41",
					"tokenA()": "0fc63d10",
					"tokenB()": "5f64b55b"
				}
			},
			"storageLayout": {
				"storage": [
					{
						"astId": 3523,
						"contract": "SimpleSwap.sol:SimpleSwap",
						"label": "owner",
						"offset": 0,
						"slot": "0",
						"type": "t_address"
					},
					{
						"astId": 3526,
						"contract": "SimpleSwap.sol:SimpleSwap",
						"label": "_name",
						"offset": 0,
						"slot": "1",
						"type": "t_string_storage"
					},
					{
						"astId": 3529,
						"contract": "SimpleSwap.sol:SimpleSwap",
						"label": "_symbol",
						"offset": 0,
						"slot": "2",
						"type": "t_string_storage"
					},
					{
						"astId": 3532,
						"contract": "SimpleSwap.sol:SimpleSwap",
						"label": "_decimals",
						"offset": 0,
						"slot": "3",
						"type": "t_uint8"
					},
					{
						"astId": 3535,
						"contract": "SimpleSwap.sol:SimpleSwap",
						"label": "tokenA",
						"offset": 1,
						"slot": "3",
						"type": "t_address"
					},
					{
						"astId": 3538,
						"contract": "SimpleSwap.sol:SimpleSwap",
						"label": "tokenB",
						"offset": 0,
						"slot": "4",
						"type": "t_address"
					},
					{
						"astId": 3541,
						"contract": "SimpleSwap.sol:SimpleSwap",
						"label": "reserveA",
						"offset": 0,
						"slot": "5",
						"type": "t_uint256"
					},
					{
						"astId": 3544,
						"contract": "SimpleSwap.sol:SimpleSwap",
						"label": "reserveB",
						"offset": 0,
						"slot": "6",
						"type": "t_uint256"
					},
					{
						"astId": 3547,
						"contract": "SimpleSwap.sol:SimpleSwap",
						"label": "_totalSupply",
						"offset": 0,
						"slot": "7",
						"type": "t_uint256"
					},
					{
						"astId": 3552,
						"contract": "SimpleSwap.sol:SimpleSwap",
						"label": "_balanceOf",
						"offset": 0,
						"slot": "8",
						"type": "t_mapping(t_address,t_uint256)"
					}
				],
				"types": {
					"t_address": {
						"encoding": "inplace",
						"label": "address",
						"numberOfBytes": "20"
					},
					"t_mapping(t_address,t_uint256)": {
						"encoding": "mapping",
						"key": "t_address",
						"label": "mapping(address => uint256)",
						"numberOfBytes": "32",
						"value": "t_uint256"
					},
					"t_string_storage": {
						"encoding": "bytes",
						"label": "string",
						"numberOfBytes": "32"
					},
					"t_uint256": {
						"encoding": "inplace",
						"label": "uint256",
						"numberOfBytes": "32"
					},
					"t_uint8": {
						"encoding": "inplace",
						"label": "uint8",
						"numberOfBytes": "1"
					}
				}
			},
			"userdoc": {
				"events": {
					"InitialLiquidityAdded(address,uint256,uint256,uint256)": {
						"notice": "Emitted when INITIAL liquidity is added to the pool"
					},
					"LiquidityAdded(address,uint256,uint256,uint256)": {
						"notice": "Emitted when liquidity is added to the pool"
					},
					"LiquidityRemoved(address,uint256,uint256,uint256)": {
						"notice": "Emitted when liquidity is removed from the pool"
					},
					"TokensSwapped(address,address,uint256,address,uint256)": {
						"notice": "Emitted when a token swap is performed"
					}
				},
				"kind": "user",
				"methods": {
					"addLiquidity(address,address,uint256,uint256,uint256,uint256,address,uint256)": {
						"notice": "Adds liquidity to the pool and mints LP tokens"
					},
					"constructor": {
						"notice": "Initializes the contract with the two token addresses"
					},
					"decimals()": {
						"notice": "Returns the number of decimals used for the LP token"
					},
					"name()": {
						"notice": "Returns the name of the LP token"
					},
					"owner()": {
						"notice": "owner Address of the provider of LP tokens (initialized by the contract)"
					},
					"removeLiquidity(address,address,uint256,uint256,uint256,address,uint256)": {
						"notice": "Removes liquidity from the pool and burns LP tokens"
					},
					"reserveA()": {
						"notice": "Current reserve of token A held by the pool"
					},
					"reserveB()": {
						"notice": "Current reserve of token B held by the pool"
					},
					"swapExactTokensForTokens(uint256,uint256,address[],address,uint256)": {
						"notice": "Exchanges one token for another in the exact amount."
					},
					"symbol()": {
						"notice": "Returns the symbol of the LP token"
					},
					"tokenA()": {
						"notice": "Address of token A"
					},
					"tokenB()": {
						"notice": "Address of token B"
					}
				},
				"notice": "ETHKIPU TP MODULE 3: A simplified implementation of a Uniswap-like liquidity pool for two ERC20 tokens.",
				"version": 1
			}
		}
	}
}