{
	"SimpleSwap.sol": {
		"SimpleSwap": {
			"abi": [
				{
					"inputs": [
						{
							"internalType": "address",
							"name": "_tokenA",
							"type": "address"
						},
						{
							"internalType": "address",
							"name": "_tokenB",
							"type": "address"
						}
					],
					"stateMutability": "nonpayable",
					"type": "constructor"
				},
				{
					"anonymous": false,
					"inputs": [
						{
							"indexed": true,
							"internalType": "address",
							"name": "provider",
							"type": "address"
						},
						{
							"indexed": false,
							"internalType": "uint256",
							"name": "amountA",
							"type": "uint256"
						},
						{
							"indexed": false,
							"internalType": "uint256",
							"name": "amountB",
							"type": "uint256"
						},
						{
							"indexed": false,
							"internalType": "uint256",
							"name": "liquidityMinted",
							"type": "uint256"
						}
					],
					"name": "InitialLiquidityAdded",
					"type": "event"
				},
				{
					"anonymous": false,
					"inputs": [
						{
							"indexed": true,
							"internalType": "address",
							"name": "provider",
							"type": "address"
						},
						{
							"indexed": false,
							"internalType": "uint256",
							"name": "amountA",
							"type": "uint256"
						},
						{
							"indexed": false,
							"internalType": "uint256",
							"name": "amountB",
							"type": "uint256"
						},
						{
							"indexed": false,
							"internalType": "uint256",
							"name": "liquidityMinted",
							"type": "uint256"
						}
					],
					"name": "LiquidityAdded",
					"type": "event"
				},
				{
					"anonymous": false,
					"inputs": [
						{
							"indexed": true,
							"internalType": "address",
							"name": "provider",
							"type": "address"
						},
						{
							"indexed": false,
							"internalType": "uint256",
							"name": "amountA",
							"type": "uint256"
						},
						{
							"indexed": false,
							"internalType": "uint256",
							"name": "amountB",
							"type": "uint256"
						},
						{
							"indexed": false,
							"internalType": "uint256",
							"name": "liquidityBurned",
							"type": "uint256"
						}
					],
					"name": "LiquidityRemoved",
					"type": "event"
				},
				{
					"anonymous": false,
					"inputs": [
						{
							"indexed": true,
							"internalType": "address",
							"name": "swapper",
							"type": "address"
						},
						{
							"indexed": false,
							"internalType": "address",
							"name": "tokenIn",
							"type": "address"
						},
						{
							"indexed": false,
							"internalType": "uint256",
							"name": "amountIn",
							"type": "uint256"
						},
						{
							"indexed": false,
							"internalType": "address",
							"name": "tokenOut",
							"type": "address"
						},
						{
							"indexed": false,
							"internalType": "uint256",
							"name": "amountOut",
							"type": "uint256"
						}
					],
					"name": "TokensSwapped",
					"type": "event"
				},
				{
					"inputs": [
						{
							"internalType": "address",
							"name": "tokenA",
							"type": "address"
						},
						{
							"internalType": "address",
							"name": "tokenB",
							"type": "address"
						},
						{
							"internalType": "uint256",
							"name": "amountADesired",
							"type": "uint256"
						},
						{
							"internalType": "uint256",
							"name": "amountBDesired",
							"type": "uint256"
						},
						{
							"internalType": "uint256",
							"name": "amountAMin",
							"type": "uint256"
						},
						{
							"internalType": "uint256",
							"name": "amountBMin",
							"type": "uint256"
						},
						{
							"internalType": "address",
							"name": "to",
							"type": "address"
						},
						{
							"internalType": "uint256",
							"name": "deadline",
							"type": "uint256"
						}
					],
					"name": "addLiquidity",
					"outputs": [
						{
							"internalType": "uint256",
							"name": "amountA",
							"type": "uint256"
						},
						{
							"internalType": "uint256",
							"name": "amountB",
							"type": "uint256"
						},
						{
							"internalType": "uint256",
							"name": "liquidity",
							"type": "uint256"
						}
					],
					"stateMutability": "nonpayable",
					"type": "function"
				},
				{
					"inputs": [],
					"name": "decimals",
					"outputs": [
						{
							"internalType": "uint8",
							"name": "",
							"type": "uint8"
						}
					],
					"stateMutability": "view",
					"type": "function"
				},
				{
					"inputs": [],
					"name": "name",
					"outputs": [
						{
							"internalType": "string",
							"name": "",
							"type": "string"
						}
					],
					"stateMutability": "view",
					"type": "function"
				},
				{
					"inputs": [],
					"name": "owner",
					"outputs": [
						{
							"internalType": "address",
							"name": "",
							"type": "address"
						}
					],
					"stateMutability": "view",
					"type": "function"
				},
				{
					"inputs": [],
					"name": "reserveA",
					"outputs": [
						{
							"internalType": "uint256",
							"name": "",
							"type": "uint256"
						}
					],
					"stateMutability": "view",
					"type": "function"
				},
				{
					"inputs": [],
					"name": "reserveB",
					"outputs": [
						{
							"internalType": "uint256",
							"name": "",
							"type": "uint256"
						}
					],
					"stateMutability": "view",
					"type": "function"
				},
				{
					"inputs": [],
					"name": "symbol",
					"outputs": [
						{
							"internalType": "string",
							"name": "",
							"type": "string"
						}
					],
					"stateMutability": "view",
					"type": "function"
				},
				{
					"inputs": [],
					"name": "tokenA",
					"outputs": [
						{
							"internalType": "address",
							"name": "",
							"type": "address"
						}
					],
					"stateMutability": "view",
					"type": "function"
				},
				{
					"inputs": [],
					"name": "tokenB",
					"outputs": [
						{
							"internalType": "address",
							"name": "",
							"type": "address"
						}
					],
					"stateMutability": "view",
					"type": "function"
				}
			],
			"devdoc": {
				"author": "Pablo Gianferro",
				"details": "This contract handles tokenA and tokenB liquidity pools and manages internal LP tokens.      LP tokens are not ERC20-compatible but are tracked via internal mappings.",
				"events": {
					"InitialLiquidityAdded(address,uint256,uint256,uint256)": {
						"params": {
							"amountA": "Amount of token A added",
							"amountB": "Amount of token B added",
							"liquidityMinted": "Amount of LP tokens minted",
							"provider": "Address of the liquidity provider"
						}
					},
					"LiquidityAdded(address,uint256,uint256,uint256)": {
						"params": {
							"amountA": "Amount of token A added",
							"amountB": "Amount of token B added",
							"liquidityMinted": "Amount of LP tokens minted",
							"provider": "Address of the liquidity provider"
						}
					},
					"LiquidityRemoved(address,uint256,uint256,uint256)": {
						"params": {
							"amountA": "Amount of token A returned",
							"amountB": "Amount of token B returned",
							"liquidityBurned": "Amount of LP tokens burned",
							"provider": "Address of the liquidity provider"
						}
					},
					"TokensSwapped(address,address,uint256,address,uint256)": {
						"params": {
							"amountIn": "Amount of token sent",
							"amountOut": "Amount of token received",
							"swapper": "Address performing the swap",
							"tokenIn": "Address of the token sent in",
							"tokenOut": "Address of the token received"
						}
					}
				},
				"kind": "dev",
				"methods": {
					"addLiquidity(address,address,uint256,uint256,uint256,uint256,address,uint256)": {
						"params": {
							"amountADesired": "Amount of token A to add",
							"amountAMin": "Minimum accepted amount of token A",
							"amountBDesired": "Amount of token B to add",
							"amountBMin": "Minimum accepted amount of token B",
							"deadline": "Transaction expiry timestamp",
							"to": "Address to receive LP tokens",
							"tokenA": "address of tokenA",
							"tokenB": "address of tokenB"
						},
						"returns": {
							"amountA": "Final amount of token A added",
							"amountB": "Final amount of token B added",
							"liquidity": "Amount of LP tokens minted"
						}
					},
					"constructor": {
						"params": {
							"_tokenA": "Address of token A",
							"_tokenB": "Address of token B"
						}
					}
				},
				"title": "SimpleSwap",
				"version": 1
			},
			"evm": {
				"assembly": "    /* \"SimpleSwap.sol\":462:5901  contract SimpleSwap {... */\n  mstore(0x40, 0x80)\n    /* \"SimpleSwap.sol\":1522:1716  constructor(address _tokenA, address _tokenB) {... */\n  callvalue\n  dup1\n  iszero\n  tag_1\n  jumpi\n  revert(0x00, 0x00)\ntag_1:\n  pop\n  mload(0x40)\n  sub(codesize, bytecodeSize)\n  dup1\n  bytecodeSize\n  dup4\n  codecopy\n  dup2\n  dup2\n  add\n  0x40\n  mstore\n  dup2\n  add\n  swap1\n  tag_2\n  swap2\n  swap1\n  tag_3\n  jump\t// in\ntag_2:\n    /* \"SimpleSwap.sol\":1583:1590  _tokenA */\n  dup2\n    /* \"SimpleSwap.sol\":1574:1580  tokenA */\n  0x03\n  0x01\n    /* \"SimpleSwap.sol\":1574:1590  tokenA = _tokenA */\n  0x0100\n  exp\n  dup2\n  sload\n  dup2\n  0xffffffffffffffffffffffffffffffffffffffff\n  mul\n  not\n  and\n  swap1\n  dup4\n  0xffffffffffffffffffffffffffffffffffffffff\n  and\n  mul\n  or\n  swap1\n  sstore\n  pop\n    /* \"SimpleSwap.sol\":1605:1612  _tokenB */\n  dup1\n    /* \"SimpleSwap.sol\":1596:1602  tokenB */\n  0x04\n  0x00\n    /* \"SimpleSwap.sol\":1596:1612  tokenB = _tokenB */\n  0x0100\n  exp\n  dup2\n  sload\n  dup2\n  0xffffffffffffffffffffffffffffffffffffffff\n  mul\n  not\n  and\n  swap1\n  dup4\n  0xffffffffffffffffffffffffffffffffffffffff\n  and\n  mul\n  or\n  swap1\n  sstore\n  pop\n    /* \"SimpleSwap.sol\":1618:1647  _name = \"SimpleSwap LP Token\" */\n  mload(0x40)\n  dup1\n  0x40\n  add\n  0x40\n  mstore\n  dup1\n  0x13\n  dup2\n  mstore\n  0x20\n  add\n  0x53696d706c6553776170204c5020546f6b656e00000000000000000000000000\n  dup2\n  mstore\n  pop\n    /* \"SimpleSwap.sol\":1618:1623  _name */\n  0x01\n    /* \"SimpleSwap.sol\":1618:1647  _name = \"SimpleSwap LP Token\" */\n  swap1\n  dup2\n  tag_6\n  swap2\n  swap1\n  tag_7\n  jump\t// in\ntag_6:\n  pop\n    /* \"SimpleSwap.sol\":1653:1669  _symbol = \"SSLP\" */\n  mload(0x40)\n  dup1\n  0x40\n  add\n  0x40\n  mstore\n  dup1\n  0x04\n  dup2\n  mstore\n  0x20\n  add\n  0x53534c5000000000000000000000000000000000000000000000000000000000\n  dup2\n  mstore\n  pop\n    /* \"SimpleSwap.sol\":1653:1660  _symbol */\n  0x02\n    /* \"SimpleSwap.sol\":1653:1669  _symbol = \"SSLP\" */\n  swap1\n  dup2\n  tag_8\n  swap2\n  swap1\n  tag_7\n  jump\t// in\ntag_8:\n  pop\n    /* \"SimpleSwap.sol\":1687:1689  18 */\n  0x12\n    /* \"SimpleSwap.sol\":1675:1684  _decimals */\n  0x03\n  0x00\n    /* \"SimpleSwap.sol\":1675:1689  _decimals = 18 */\n  0x0100\n  exp\n  dup2\n  sload\n  dup2\n  0xff\n  mul\n  not\n  and\n  swap1\n  dup4\n  0xff\n  and\n  mul\n  or\n  swap1\n  sstore\n  pop\n    /* \"SimpleSwap.sol\":1703:1713  msg.sender */\n  caller\n    /* \"SimpleSwap.sol\":1695:1700  owner */\n  0x00\n  0x00\n    /* \"SimpleSwap.sol\":1695:1713  owner = msg.sender */\n  0x0100\n  exp\n  dup2\n  sload\n  dup2\n  0xffffffffffffffffffffffffffffffffffffffff\n  mul\n  not\n  and\n  swap1\n  dup4\n  0xffffffffffffffffffffffffffffffffffffffff\n  and\n  mul\n  or\n  swap1\n  sstore\n  pop\n    /* \"SimpleSwap.sol\":1522:1716  constructor(address _tokenA, address _tokenB) {... */\n  pop\n  pop\n    /* \"SimpleSwap.sol\":462:5901  contract SimpleSwap {... */\n  jump(tag_9)\n    /* \"#utility.yul\":88:205   */\ntag_11:\n    /* \"#utility.yul\":197:198   */\n  0x00\n    /* \"#utility.yul\":194:195   */\n  0x00\n    /* \"#utility.yul\":187:199   */\n  revert\n    /* \"#utility.yul\":334:460   */\ntag_13:\n    /* \"#utility.yul\":371:378   */\n  0x00\n    /* \"#utility.yul\":411:453   */\n  0xffffffffffffffffffffffffffffffffffffffff\n    /* \"#utility.yul\":404:409   */\n  dup3\n    /* \"#utility.yul\":400:454   */\n  and\n    /* \"#utility.yul\":389:454   */\n  swap1\n  pop\n    /* \"#utility.yul\":334:460   */\n  swap2\n  swap1\n  pop\n  jump\t// out\n    /* \"#utility.yul\":466:562   */\ntag_14:\n    /* \"#utility.yul\":503:510   */\n  0x00\n    /* \"#utility.yul\":532:556   */\n  tag_43\n    /* \"#utility.yul\":550:555   */\n  dup3\n    /* \"#utility.yul\":532:556   */\n  tag_13\n  jump\t// in\ntag_43:\n    /* \"#utility.yul\":521:556   */\n  swap1\n  pop\n    /* \"#utility.yul\":466:562   */\n  swap2\n  swap1\n  pop\n  jump\t// out\n    /* \"#utility.yul\":568:690   */\ntag_15:\n    /* \"#utility.yul\":641:665   */\n  tag_45\n    /* \"#utility.yul\":659:664   */\n  dup2\n    /* \"#utility.yul\":641:665   */\n  tag_14\n  jump\t// in\ntag_45:\n    /* \"#utility.yul\":634:639   */\n  dup2\n    /* \"#utility.yul\":631:666   */\n  eq\n    /* \"#utility.yul\":621:684   */\n  tag_46\n  jumpi\n    /* \"#utility.yul\":680:681   */\n  0x00\n    /* \"#utility.yul\":677:678   */\n  0x00\n    /* \"#utility.yul\":670:682   */\n  revert\n    /* \"#utility.yul\":621:684   */\ntag_46:\n    /* \"#utility.yul\":568:690   */\n  pop\n  jump\t// out\n    /* \"#utility.yul\":696:839   */\ntag_16:\n    /* \"#utility.yul\":753:758   */\n  0x00\n    /* \"#utility.yul\":784:790   */\n  dup2\n    /* \"#utility.yul\":778:791   */\n  mload\n    /* \"#utility.yul\":769:791   */\n  swap1\n  pop\n    /* \"#utility.yul\":800:833   */\n  tag_48\n    /* \"#utility.yul\":827:832   */\n  dup2\n    /* \"#utility.yul\":800:833   */\n  tag_15\n  jump\t// in\ntag_48:\n    /* \"#utility.yul\":696:839   */\n  swap3\n  swap2\n  pop\n  pop\n  jump\t// out\n    /* \"#utility.yul\":845:1352   */\ntag_3:\n    /* \"#utility.yul\":924:930   */\n  0x00\n    /* \"#utility.yul\":932:938   */\n  0x00\n    /* \"#utility.yul\":981:983   */\n  0x40\n    /* \"#utility.yul\":969:978   */\n  dup4\n    /* \"#utility.yul\":960:967   */\n  dup6\n    /* \"#utility.yul\":956:979   */\n  sub\n    /* \"#utility.yul\":952:984   */\n  slt\n    /* \"#utility.yul\":949:1068   */\n  iszero\n  tag_50\n  jumpi\n    /* \"#utility.yul\":987:1066   */\n  tag_51\n  tag_11\n  jump\t// in\ntag_51:\n    /* \"#utility.yul\":949:1068   */\ntag_50:\n    /* \"#utility.yul\":1107:1108   */\n  0x00\n    /* \"#utility.yul\":1132:1196   */\n  tag_52\n    /* \"#utility.yul\":1188:1195   */\n  dup6\n    /* \"#utility.yul\":1179:1185   */\n  dup3\n    /* \"#utility.yul\":1168:1177   */\n  dup7\n    /* \"#utility.yul\":1164:1186   */\n  add\n    /* \"#utility.yul\":1132:1196   */\n  tag_16\n  jump\t// in\ntag_52:\n    /* \"#utility.yul\":1122:1196   */\n  swap3\n  pop\n    /* \"#utility.yul\":1078:1206   */\n  pop\n    /* \"#utility.yul\":1245:1247   */\n  0x20\n    /* \"#utility.yul\":1271:1335   */\n  tag_53\n    /* \"#utility.yul\":1327:1334   */\n  dup6\n    /* \"#utility.yul\":1318:1324   */\n  dup3\n    /* \"#utility.yul\":1307:1316   */\n  dup7\n    /* \"#utility.yul\":1303:1325   */\n  add\n    /* \"#utility.yul\":1271:1335   */\n  tag_16\n  jump\t// in\ntag_53:\n    /* \"#utility.yul\":1261:1335   */\n  swap2\n  pop\n    /* \"#utility.yul\":1216:1345   */\n  pop\n    /* \"#utility.yul\":845:1352   */\n  swap3\n  pop\n  swap3\n  swap1\n  pop\n  jump\t// out\n    /* \"#utility.yul\":1358:1457   */\ntag_17:\n    /* \"#utility.yul\":1410:1416   */\n  0x00\n    /* \"#utility.yul\":1444:1449   */\n  dup2\n    /* \"#utility.yul\":1438:1450   */\n  mload\n    /* \"#utility.yul\":1428:1450   */\n  swap1\n  pop\n    /* \"#utility.yul\":1358:1457   */\n  swap2\n  swap1\n  pop\n  jump\t// out\n    /* \"#utility.yul\":1463:1643   */\ntag_18:\n    /* \"#utility.yul\":1511:1588   */\n  0x4e487b7100000000000000000000000000000000000000000000000000000000\n    /* \"#utility.yul\":1508:1509   */\n  0x00\n    /* \"#utility.yul\":1501:1589   */\n  mstore\n    /* \"#utility.yul\":1608:1612   */\n  0x41\n    /* \"#utility.yul\":1605:1606   */\n  0x04\n    /* \"#utility.yul\":1598:1613   */\n  mstore\n    /* \"#utility.yul\":1632:1636   */\n  0x24\n    /* \"#utility.yul\":1629:1630   */\n  0x00\n    /* \"#utility.yul\":1622:1637   */\n  revert\n    /* \"#utility.yul\":1649:1829   */\ntag_19:\n    /* \"#utility.yul\":1697:1774   */\n  0x4e487b7100000000000000000000000000000000000000000000000000000000\n    /* \"#utility.yul\":1694:1695   */\n  0x00\n    /* \"#utility.yul\":1687:1775   */\n  mstore\n    /* \"#utility.yul\":1794:1798   */\n  0x22\n    /* \"#utility.yul\":1791:1792   */\n  0x04\n    /* \"#utility.yul\":1784:1799   */\n  mstore\n    /* \"#utility.yul\":1818:1822   */\n  0x24\n    /* \"#utility.yul\":1815:1816   */\n  0x00\n    /* \"#utility.yul\":1808:1823   */\n  revert\n    /* \"#utility.yul\":1835:2155   */\ntag_20:\n    /* \"#utility.yul\":1879:1885   */\n  0x00\n    /* \"#utility.yul\":1916:1917   */\n  0x02\n    /* \"#utility.yul\":1910:1914   */\n  dup3\n    /* \"#utility.yul\":1906:1918   */\n  div\n    /* \"#utility.yul\":1896:1918   */\n  swap1\n  pop\n    /* \"#utility.yul\":1963:1964   */\n  0x01\n    /* \"#utility.yul\":1957:1961   */\n  dup3\n    /* \"#utility.yul\":1953:1965   */\n  and\n    /* \"#utility.yul\":1984:2002   */\n  dup1\n    /* \"#utility.yul\":1974:2055   */\n  tag_58\n  jumpi\n    /* \"#utility.yul\":2040:2044   */\n  0x7f\n    /* \"#utility.yul\":2032:2038   */\n  dup3\n    /* \"#utility.yul\":2028:2045   */\n  and\n    /* \"#utility.yul\":2018:2045   */\n  swap2\n  pop\n    /* \"#utility.yul\":1974:2055   */\ntag_58:\n    /* \"#utility.yul\":2102:2104   */\n  0x20\n    /* \"#utility.yul\":2094:2100   */\n  dup3\n    /* \"#utility.yul\":2091:2105   */\n  lt\n    /* \"#utility.yul\":2071:2089   */\n  dup2\n    /* \"#utility.yul\":2068:2106   */\n  sub\n    /* \"#utility.yul\":2065:2149   */\n  tag_59\n  jumpi\n    /* \"#utility.yul\":2121:2139   */\n  tag_60\n  tag_19\n  jump\t// in\ntag_60:\n    /* \"#utility.yul\":2065:2149   */\ntag_59:\n    /* \"#utility.yul\":1886:2155   */\n  pop\n    /* \"#utility.yul\":1835:2155   */\n  swap2\n  swap1\n  pop\n  jump\t// out\n    /* \"#utility.yul\":2161:2302   */\ntag_21:\n    /* \"#utility.yul\":2210:2214   */\n  0x00\n    /* \"#utility.yul\":2233:2236   */\n  dup2\n    /* \"#utility.yul\":2225:2236   */\n  swap1\n  pop\n    /* \"#utility.yul\":2256:2259   */\n  dup2\n    /* \"#utility.yul\":2253:2254   */\n  0x00\n    /* \"#utility.yul\":2246:2260   */\n  mstore\n    /* \"#utility.yul\":2290:2294   */\n  0x20\n    /* \"#utility.yul\":2287:2288   */\n  0x00\n    /* \"#utility.yul\":2277:2295   */\n  keccak256\n    /* \"#utility.yul\":2269:2295   */\n  swap1\n  pop\n    /* \"#utility.yul\":2161:2302   */\n  swap2\n  swap1\n  pop\n  jump\t// out\n    /* \"#utility.yul\":2308:2401   */\ntag_22:\n    /* \"#utility.yul\":2345:2351   */\n  0x00\n    /* \"#utility.yul\":2392:2394   */\n  0x20\n    /* \"#utility.yul\":2387:2389   */\n  0x1f\n    /* \"#utility.yul\":2380:2385   */\n  dup4\n    /* \"#utility.yul\":2376:2390   */\n  add\n    /* \"#utility.yul\":2372:2395   */\n  div\n    /* \"#utility.yul\":2362:2395   */\n  swap1\n  pop\n    /* \"#utility.yul\":2308:2401   */\n  swap2\n  swap1\n  pop\n  jump\t// out\n    /* \"#utility.yul\":2407:2514   */\ntag_23:\n    /* \"#utility.yul\":2451:2459   */\n  0x00\n    /* \"#utility.yul\":2501:2506   */\n  dup3\n    /* \"#utility.yul\":2495:2499   */\n  dup3\n    /* \"#utility.yul\":2491:2507   */\n  shl\n    /* \"#utility.yul\":2470:2507   */\n  swap1\n  pop\n    /* \"#utility.yul\":2407:2514   */\n  swap3\n  swap2\n  pop\n  pop\n  jump\t// out\n    /* \"#utility.yul\":2520:2913   */\ntag_24:\n    /* \"#utility.yul\":2589:2595   */\n  0x00\n    /* \"#utility.yul\":2639:2640   */\n  0x08\n    /* \"#utility.yul\":2627:2637   */\n  dup4\n    /* \"#utility.yul\":2623:2641   */\n  mul\n    /* \"#utility.yul\":2662:2759   */\n  tag_65\n    /* \"#utility.yul\":2692:2758   */\n  0xffffffffffffffffffffffffffffffffffffffffffffffffffffffffffffffff\n    /* \"#utility.yul\":2681:2690   */\n  dup3\n    /* \"#utility.yul\":2662:2759   */\n  tag_23\n  jump\t// in\ntag_65:\n    /* \"#utility.yul\":2780:2819   */\n  tag_66\n    /* \"#utility.yul\":2810:2818   */\n  dup7\n    /* \"#utility.yul\":2799:2808   */\n  dup4\n    /* \"#utility.yul\":2780:2819   */\n  tag_23\n  jump\t// in\ntag_66:\n    /* \"#utility.yul\":2768:2819   */\n  swap6\n  pop\n    /* \"#utility.yul\":2852:2856   */\n  dup1\n    /* \"#utility.yul\":2848:2857   */\n  not\n    /* \"#utility.yul\":2841:2846   */\n  dup5\n    /* \"#utility.yul\":2837:2858   */\n  and\n    /* \"#utility.yul\":2828:2858   */\n  swap4\n  pop\n    /* \"#utility.yul\":2901:2905   */\n  dup1\n    /* \"#utility.yul\":2891:2899   */\n  dup7\n    /* \"#utility.yul\":2887:2906   */\n  and\n    /* \"#utility.yul\":2880:2885   */\n  dup5\n    /* \"#utility.yul\":2877:2907   */\n  or\n    /* \"#utility.yul\":2867:2907   */\n  swap3\n  pop\n    /* \"#utility.yul\":2596:2913   */\n  pop\n  pop\n    /* \"#utility.yul\":2520:2913   */\n  swap4\n  swap3\n  pop\n  pop\n  pop\n  jump\t// out\n    /* \"#utility.yul\":2919:2996   */\ntag_25:\n    /* \"#utility.yul\":2956:2963   */\n  0x00\n    /* \"#utility.yul\":2985:2990   */\n  dup2\n    /* \"#utility.yul\":2974:2990   */\n  swap1\n  pop\n    /* \"#utility.yul\":2919:2996   */\n  swap2\n  swap1\n  pop\n  jump\t// out\n    /* \"#utility.yul\":3002:3062   */\ntag_26:\n    /* \"#utility.yul\":3030:3033   */\n  0x00\n    /* \"#utility.yul\":3051:3056   */\n  dup2\n    /* \"#utility.yul\":3044:3056   */\n  swap1\n  pop\n    /* \"#utility.yul\":3002:3062   */\n  swap2\n  swap1\n  pop\n  jump\t// out\n    /* \"#utility.yul\":3068:3210   */\ntag_27:\n    /* \"#utility.yul\":3118:3127   */\n  0x00\n    /* \"#utility.yul\":3151:3204   */\n  tag_70\n    /* \"#utility.yul\":3169:3203   */\n  tag_71\n    /* \"#utility.yul\":3178:3202   */\n  tag_72\n    /* \"#utility.yul\":3196:3201   */\n  dup5\n    /* \"#utility.yul\":3178:3202   */\n  tag_25\n  jump\t// in\ntag_72:\n    /* \"#utility.yul\":3169:3203   */\n  tag_26\n  jump\t// in\ntag_71:\n    /* \"#utility.yul\":3151:3204   */\n  tag_25\n  jump\t// in\ntag_70:\n    /* \"#utility.yul\":3138:3204   */\n  swap1\n  pop\n    /* \"#utility.yul\":3068:3210   */\n  swap2\n  swap1\n  pop\n  jump\t// out\n    /* \"#utility.yul\":3216:3291   */\ntag_28:\n    /* \"#utility.yul\":3259:3262   */\n  0x00\n    /* \"#utility.yul\":3280:3285   */\n  dup2\n    /* \"#utility.yul\":3273:3285   */\n  swap1\n  pop\n    /* \"#utility.yul\":3216:3291   */\n  swap2\n  swap1\n  pop\n  jump\t// out\n    /* \"#utility.yul\":3297:3566   */\ntag_29:\n    /* \"#utility.yul\":3407:3446   */\n  tag_75\n    /* \"#utility.yul\":3438:3445   */\n  dup4\n    /* \"#utility.yul\":3407:3446   */\n  tag_27\n  jump\t// in\ntag_75:\n    /* \"#utility.yul\":3468:3559   */\n  tag_76\n    /* \"#utility.yul\":3517:3558   */\n  tag_77\n    /* \"#utility.yul\":3541:3557   */\n  dup3\n    /* \"#utility.yul\":3517:3558   */\n  tag_28\n  jump\t// in\ntag_77:\n    /* \"#utility.yul\":3509:3515   */\n  dup5\n    /* \"#utility.yul\":3502:3506   */\n  dup5\n    /* \"#utility.yul\":3496:3507   */\n  sload\n    /* \"#utility.yul\":3468:3559   */\n  tag_24\n  jump\t// in\ntag_76:\n    /* \"#utility.yul\":3462:3466   */\n  dup3\n    /* \"#utility.yul\":3455:3560   */\n  sstore\n    /* \"#utility.yul\":3373:3566   */\n  pop\n    /* \"#utility.yul\":3297:3566   */\n  pop\n  pop\n  pop\n  jump\t// out\n    /* \"#utility.yul\":3572:3645   */\ntag_30:\n    /* \"#utility.yul\":3617:3620   */\n  0x00\n    /* \"#utility.yul\":3638:3639   */\n  0x00\n    /* \"#utility.yul\":3631:3639   */\n  swap1\n  pop\n    /* \"#utility.yul\":3572:3645   */\n  swap1\n  jump\t// out\n    /* \"#utility.yul\":3651:3840   */\ntag_31:\n    /* \"#utility.yul\":3728:3760   */\n  tag_80\n  tag_30\n  jump\t// in\ntag_80:\n    /* \"#utility.yul\":3769:3834   */\n  tag_81\n    /* \"#utility.yul\":3827:3833   */\n  dup2\n    /* \"#utility.yul\":3819:3825   */\n  dup5\n    /* \"#utility.yul\":3813:3817   */\n  dup5\n    /* \"#utility.yul\":3769:3834   */\n  tag_29\n  jump\t// in\ntag_81:\n    /* \"#utility.yul\":3704:3840   */\n  pop\n    /* \"#utility.yul\":3651:3840   */\n  pop\n  pop\n  jump\t// out\n    /* \"#utility.yul\":3846:4032   */\ntag_32:\n    /* \"#utility.yul\":3906:4026   */\ntag_83:\n    /* \"#utility.yul\":3923:3926   */\n  dup2\n    /* \"#utility.yul\":3916:3921   */\n  dup2\n    /* \"#utility.yul\":3913:3927   */\n  lt\n    /* \"#utility.yul\":3906:4026   */\n  iszero\n  tag_85\n  jumpi\n    /* \"#utility.yul\":3977:4016   */\n  tag_86\n    /* \"#utility.yul\":4014:4015   */\n  0x00\n    /* \"#utility.yul\":4007:4012   */\n  dup3\n    /* \"#utility.yul\":3977:4016   */\n  tag_31\n  jump\t// in\ntag_86:\n    /* \"#utility.yul\":3950:3951   */\n  0x01\n    /* \"#utility.yul\":3943:3948   */\n  dup2\n    /* \"#utility.yul\":3939:3952   */\n  add\n    /* \"#utility.yul\":3930:3952   */\n  swap1\n  pop\n    /* \"#utility.yul\":3906:4026   */\n  jump(tag_83)\ntag_85:\n    /* \"#utility.yul\":3846:4032   */\n  pop\n  pop\n  jump\t// out\n    /* \"#utility.yul\":4038:4581   */\ntag_33:\n    /* \"#utility.yul\":4139:4141   */\n  0x1f\n    /* \"#utility.yul\":4134:4137   */\n  dup3\n    /* \"#utility.yul\":4131:4142   */\n  gt\n    /* \"#utility.yul\":4128:4574   */\n  iszero\n  tag_88\n  jumpi\n    /* \"#utility.yul\":4173:4211   */\n  tag_89\n    /* \"#utility.yul\":4205:4210   */\n  dup2\n    /* \"#utility.yul\":4173:4211   */\n  tag_21\n  jump\t// in\ntag_89:\n    /* \"#utility.yul\":4257:4286   */\n  tag_90\n    /* \"#utility.yul\":4275:4285   */\n  dup5\n    /* \"#utility.yul\":4257:4286   */\n  tag_22\n  jump\t// in\ntag_90:\n    /* \"#utility.yul\":4247:4255   */\n  dup2\n    /* \"#utility.yul\":4243:4287   */\n  add\n    /* \"#utility.yul\":4440:4442   */\n  0x20\n    /* \"#utility.yul\":4428:4438   */\n  dup6\n    /* \"#utility.yul\":4425:4443   */\n  lt\n    /* \"#utility.yul\":4422:4471   */\n  iszero\n  tag_91\n  jumpi\n    /* \"#utility.yul\":4461:4469   */\n  dup2\n    /* \"#utility.yul\":4446:4469   */\n  swap1\n  pop\n    /* \"#utility.yul\":4422:4471   */\ntag_91:\n    /* \"#utility.yul\":4484:4564   */\n  tag_92\n    /* \"#utility.yul\":4540:4562   */\n  tag_93\n    /* \"#utility.yul\":4558:4561   */\n  dup6\n    /* \"#utility.yul\":4540:4562   */\n  tag_22\n  jump\t// in\ntag_93:\n    /* \"#utility.yul\":4530:4538   */\n  dup4\n    /* \"#utility.yul\":4526:4563   */\n  add\n    /* \"#utility.yul\":4513:4524   */\n  dup3\n    /* \"#utility.yul\":4484:4564   */\n  tag_32\n  jump\t// in\ntag_92:\n    /* \"#utility.yul\":4143:4574   */\n  pop\n  pop\n    /* \"#utility.yul\":4128:4574   */\ntag_88:\n    /* \"#utility.yul\":4038:4581   */\n  pop\n  pop\n  pop\n  jump\t// out\n    /* \"#utility.yul\":4587:4704   */\ntag_34:\n    /* \"#utility.yul\":4641:4649   */\n  0x00\n    /* \"#utility.yul\":4691:4696   */\n  dup3\n    /* \"#utility.yul\":4685:4689   */\n  dup3\n    /* \"#utility.yul\":4681:4697   */\n  shr\n    /* \"#utility.yul\":4660:4697   */\n  swap1\n  pop\n    /* \"#utility.yul\":4587:4704   */\n  swap3\n  swap2\n  pop\n  pop\n  jump\t// out\n    /* \"#utility.yul\":4710:4879   */\ntag_35:\n    /* \"#utility.yul\":4754:4760   */\n  0x00\n    /* \"#utility.yul\":4787:4838   */\n  tag_96\n    /* \"#utility.yul\":4835:4836   */\n  0x00\n    /* \"#utility.yul\":4831:4837   */\n  not\n    /* \"#utility.yul\":4823:4828   */\n  dup5\n    /* \"#utility.yul\":4820:4821   */\n  0x08\n    /* \"#utility.yul\":4816:4829   */\n  mul\n    /* \"#utility.yul\":4787:4838   */\n  tag_34\n  jump\t// in\ntag_96:\n    /* \"#utility.yul\":4783:4839   */\n  not\n    /* \"#utility.yul\":4868:4872   */\n  dup1\n    /* \"#utility.yul\":4862:4866   */\n  dup4\n    /* \"#utility.yul\":4858:4873   */\n  and\n    /* \"#utility.yul\":4848:4873   */\n  swap2\n  pop\n    /* \"#utility.yul\":4761:4879   */\n  pop\n    /* \"#utility.yul\":4710:4879   */\n  swap3\n  swap2\n  pop\n  pop\n  jump\t// out\n    /* \"#utility.yul\":4884:5179   */\ntag_36:\n    /* \"#utility.yul\":4960:4964   */\n  0x00\n    /* \"#utility.yul\":5106:5135   */\n  tag_98\n    /* \"#utility.yul\":5131:5134   */\n  dup4\n    /* \"#utility.yul\":5125:5129   */\n  dup4\n    /* \"#utility.yul\":5106:5135   */\n  tag_35\n  jump\t// in\ntag_98:\n    /* \"#utility.yul\":5098:5135   */\n  swap2\n  pop\n    /* \"#utility.yul\":5168:5171   */\n  dup3\n    /* \"#utility.yul\":5165:5166   */\n  0x02\n    /* \"#utility.yul\":5161:5172   */\n  mul\n    /* \"#utility.yul\":5155:5159   */\n  dup3\n    /* \"#utility.yul\":5152:5173   */\n  or\n    /* \"#utility.yul\":5144:5173   */\n  swap1\n  pop\n    /* \"#utility.yul\":4884:5179   */\n  swap3\n  swap2\n  pop\n  pop\n  jump\t// out\n    /* \"#utility.yul\":5184:6579   */\ntag_7:\n    /* \"#utility.yul\":5301:5338   */\n  tag_100\n    /* \"#utility.yul\":5334:5337   */\n  dup3\n    /* \"#utility.yul\":5301:5338   */\n  tag_17\n  jump\t// in\ntag_100:\n    /* \"#utility.yul\":5403:5421   */\n  0xffffffffffffffff\n    /* \"#utility.yul\":5395:5401   */\n  dup2\n    /* \"#utility.yul\":5392:5422   */\n  gt\n    /* \"#utility.yul\":5389:5445   */\n  iszero\n  tag_101\n  jumpi\n    /* \"#utility.yul\":5425:5443   */\n  tag_102\n  tag_18\n  jump\t// in\ntag_102:\n    /* \"#utility.yul\":5389:5445   */\ntag_101:\n    /* \"#utility.yul\":5469:5507   */\n  tag_103\n    /* \"#utility.yul\":5501:5505   */\n  dup3\n    /* \"#utility.yul\":5495:5506   */\n  sload\n    /* \"#utility.yul\":5469:5507   */\n  tag_20\n  jump\t// in\ntag_103:\n    /* \"#utility.yul\":5554:5621   */\n  tag_104\n    /* \"#utility.yul\":5614:5620   */\n  dup3\n    /* \"#utility.yul\":5606:5612   */\n  dup3\n    /* \"#utility.yul\":5600:5604   */\n  dup6\n    /* \"#utility.yul\":5554:5621   */\n  tag_33\n  jump\t// in\ntag_104:\n    /* \"#utility.yul\":5648:5649   */\n  0x00\n    /* \"#utility.yul\":5672:5676   */\n  0x20\n    /* \"#utility.yul\":5659:5676   */\n  swap1\n  pop\n    /* \"#utility.yul\":5704:5706   */\n  0x1f\n    /* \"#utility.yul\":5696:5702   */\n  dup4\n    /* \"#utility.yul\":5693:5707   */\n  gt\n    /* \"#utility.yul\":5721:5722   */\n  0x01\n    /* \"#utility.yul\":5716:6334   */\n  dup2\n  eq\n  tag_106\n  jumpi\n    /* \"#utility.yul\":6378:6379   */\n  0x00\n    /* \"#utility.yul\":6395:6401   */\n  dup5\n    /* \"#utility.yul\":6392:6469   */\n  iszero\n  tag_107\n  jumpi\n    /* \"#utility.yul\":6444:6453   */\n  dup3\n    /* \"#utility.yul\":6439:6442   */\n  dup8\n    /* \"#utility.yul\":6435:6454   */\n  add\n    /* \"#utility.yul\":6429:6455   */\n  mload\n    /* \"#utility.yul\":6420:6455   */\n  swap1\n  pop\n    /* \"#utility.yul\":6392:6469   */\ntag_107:\n    /* \"#utility.yul\":6495:6562   */\n  tag_108\n    /* \"#utility.yul\":6555:6561   */\n  dup6\n    /* \"#utility.yul\":6548:6553   */\n  dup3\n    /* \"#utility.yul\":6495:6562   */\n  tag_36\n  jump\t// in\ntag_108:\n    /* \"#utility.yul\":6489:6493   */\n  dup7\n    /* \"#utility.yul\":6482:6563   */\n  sstore\n    /* \"#utility.yul\":6351:6573   */\n  pop\n    /* \"#utility.yul\":5686:6573   */\n  jump(tag_105)\n    /* \"#utility.yul\":5716:6334   */\ntag_106:\n    /* \"#utility.yul\":5768:5772   */\n  0x1f\n    /* \"#utility.yul\":5764:5773   */\n  not\n    /* \"#utility.yul\":5756:5762   */\n  dup5\n    /* \"#utility.yul\":5752:5774   */\n  and\n    /* \"#utility.yul\":5802:5839   */\n  tag_109\n    /* \"#utility.yul\":5834:5838   */\n  dup7\n    /* \"#utility.yul\":5802:5839   */\n  tag_21\n  jump\t// in\ntag_109:\n    /* \"#utility.yul\":5861:5862   */\n  0x00\n    /* \"#utility.yul\":5875:6083   */\ntag_110:\n    /* \"#utility.yul\":5889:5896   */\n  dup3\n    /* \"#utility.yul\":5886:5887   */\n  dup2\n    /* \"#utility.yul\":5883:5897   */\n  lt\n    /* \"#utility.yul\":5875:6083   */\n  iszero\n  tag_112\n  jumpi\n    /* \"#utility.yul\":5968:5977   */\n  dup5\n    /* \"#utility.yul\":5963:5966   */\n  dup10\n    /* \"#utility.yul\":5959:5978   */\n  add\n    /* \"#utility.yul\":5953:5979   */\n  mload\n    /* \"#utility.yul\":5945:5951   */\n  dup3\n    /* \"#utility.yul\":5938:5980   */\n  sstore\n    /* \"#utility.yul\":6019:6020   */\n  0x01\n    /* \"#utility.yul\":6011:6017   */\n  dup3\n    /* \"#utility.yul\":6007:6021   */\n  add\n    /* \"#utility.yul\":5997:6021   */\n  swap2\n  pop\n    /* \"#utility.yul\":6066:6068   */\n  0x20\n    /* \"#utility.yul\":6055:6064   */\n  dup6\n    /* \"#utility.yul\":6051:6069   */\n  add\n    /* \"#utility.yul\":6038:6069   */\n  swap5\n  pop\n    /* \"#utility.yul\":5912:5916   */\n  0x20\n    /* \"#utility.yul\":5909:5910   */\n  dup2\n    /* \"#utility.yul\":5905:5917   */\n  add\n    /* \"#utility.yul\":5900:5917   */\n  swap1\n  pop\n    /* \"#utility.yul\":5875:6083   */\n  jump(tag_110)\ntag_112:\n    /* \"#utility.yul\":6111:6117   */\n  dup7\n    /* \"#utility.yul\":6102:6109   */\n  dup4\n    /* \"#utility.yul\":6099:6118   */\n  lt\n    /* \"#utility.yul\":6096:6275   */\n  iszero\n  tag_113\n  jumpi\n    /* \"#utility.yul\":6169:6178   */\n  dup5\n    /* \"#utility.yul\":6164:6167   */\n  dup10\n    /* \"#utility.yul\":6160:6179   */\n  add\n    /* \"#utility.yul\":6154:6180   */\n  mload\n    /* \"#utility.yul\":6212:6260   */\n  tag_114\n    /* \"#utility.yul\":6254:6258   */\n  0x1f\n    /* \"#utility.yul\":6246:6252   */\n  dup10\n    /* \"#utility.yul\":6242:6259   */\n  and\n    /* \"#utility.yul\":6231:6240   */\n  dup3\n    /* \"#utility.yul\":6212:6260   */\n  tag_35\n  jump\t// in\ntag_114:\n    /* \"#utility.yul\":6204:6210   */\n  dup4\n    /* \"#utility.yul\":6197:6261   */\n  sstore\n    /* \"#utility.yul\":6119:6275   */\n  pop\n    /* \"#utility.yul\":6096:6275   */\ntag_113:\n    /* \"#utility.yul\":6321:6322   */\n  0x01\n    /* \"#utility.yul\":6317:6318   */\n  0x02\n    /* \"#utility.yul\":6309:6315   */\n  dup9\n    /* \"#utility.yul\":6305:6319   */\n  mul\n    /* \"#utility.yul\":6301:6323   */\n  add\n    /* \"#utility.yul\":6295:6299   */\n  dup9\n    /* \"#utility.yul\":6288:6324   */\n  sstore\n    /* \"#utility.yul\":5723:6334   */\n  pop\n  pop\n  pop\n    /* \"#utility.yul\":5686:6573   */\ntag_105:\n  pop\n    /* \"#utility.yul\":5276:6579   */\n  pop\n  pop\n  pop\n    /* \"#utility.yul\":5184:6579   */\n  pop\n  pop\n  jump\t// out\n    /* \"SimpleSwap.sol\":462:5901  contract SimpleSwap {... */\ntag_9:\n  dataSize(sub_0)\n  dup1\n  dataOffset(sub_0)\n  0x00\n  codecopy\n  0x00\n  return\nstop\n\nsub_0: assembly {\n        /* \"SimpleSwap.sol\":462:5901  contract SimpleSwap {... */\n      mstore(0x40, 0x80)\n      callvalue\n      dup1\n      iszero\n      tag_1\n      jumpi\n      revert(0x00, 0x00)\n    tag_1:\n      pop\n      jumpi(tag_2, lt(calldatasize, 0x04))\n      shr(0xe0, calldataload(0x00))\n      dup1\n      0x5f64b55b\n      gt\n      tag_12\n      jumpi\n      dup1\n      0x5f64b55b\n      eq\n      tag_7\n      jumpi\n      dup1\n      0x8da5cb5b\n      eq\n      tag_8\n      jumpi\n      dup1\n      0x95d89b41\n      eq\n      tag_9\n      jumpi\n      dup1\n      0xdc5fa6c5\n      eq\n      tag_10\n      jumpi\n      dup1\n      0xe8e33700\n      eq\n      tag_11\n      jumpi\n      jump(tag_2)\n    tag_12:\n      dup1\n      0x06fdde03\n      eq\n      tag_3\n      jumpi\n      dup1\n      0x0fc63d10\n      eq\n      tag_4\n      jumpi\n      dup1\n      0x19e36f3b\n      eq\n      tag_5\n      jumpi\n      dup1\n      0x313ce567\n      eq\n      tag_6\n      jumpi\n    tag_2:\n      revert(0x00, 0x00)\n        /* \"SimpleSwap.sol\":3376:3459  function name() external view returns (string memory) {... */\n    tag_3:\n      tag_13\n      tag_14\n      jump\t// in\n    tag_13:\n      mload(0x40)\n      tag_15\n      swap2\n      swap1\n      tag_16\n      jump\t// in\n    tag_15:\n      mload(0x40)\n      dup1\n      swap2\n      sub\n      swap1\n      return\n        /* \"SimpleSwap.sol\":904:925  address public tokenA */\n    tag_4:\n      tag_17\n      tag_18\n      jump\t// in\n    tag_17:\n      mload(0x40)\n      tag_19\n      swap2\n      swap1\n      tag_20\n      jump\t// in\n    tag_19:\n      mload(0x40)\n      dup1\n      swap2\n      sub\n      swap1\n      return\n        /* \"SimpleSwap.sol\":1145:1168  uint256 public reserveB */\n    tag_5:\n      tag_21\n      tag_22\n      jump\t// in\n    tag_21:\n      mload(0x40)\n      tag_23\n      swap2\n      swap1\n      tag_24\n      jump\t// in\n    tag_23:\n      mload(0x40)\n      dup1\n      swap2\n      sub\n      swap1\n      return\n        /* \"SimpleSwap.sol\":3678:3761  function decimals() external view returns (uint8) {... */\n    tag_6:\n      tag_25\n      tag_26\n      jump\t// in\n    tag_25:\n      mload(0x40)\n      tag_27\n      swap2\n      swap1\n      tag_28\n      jump\t// in\n    tag_27:\n      mload(0x40)\n      dup1\n      swap2\n      sub\n      swap1\n      return\n        /* \"SimpleSwap.sol\":967:988  address public tokenB */\n    tag_7:\n      tag_29\n      tag_30\n      jump\t// in\n    tag_29:\n      mload(0x40)\n      tag_31\n      swap2\n      swap1\n      tag_20\n      jump\t// in\n    tag_31:\n      mload(0x40)\n      dup1\n      swap2\n      sub\n      swap1\n      return\n        /* \"SimpleSwap.sol\":578:598  address public owner */\n    tag_8:\n      tag_32\n      tag_33\n      jump\t// in\n    tag_32:\n      mload(0x40)\n      tag_34\n      swap2\n      swap1\n      tag_20\n      jump\t// in\n    tag_34:\n      mload(0x40)\n      dup1\n      swap2\n      sub\n      swap1\n      return\n        /* \"SimpleSwap.sol\":3516:3603  function symbol() external view returns (string memory) {... */\n    tag_9:\n      tag_35\n      tag_36\n      jump\t// in\n    tag_35:\n      mload(0x40)\n      tag_37\n      swap2\n      swap1\n      tag_16\n      jump\t// in\n    tag_37:\n      mload(0x40)\n      dup1\n      swap2\n      sub\n      swap1\n      return\n        /* \"SimpleSwap.sol\":1055:1078  uint256 public reserveA */\n    tag_10:\n      tag_38\n      tag_39\n      jump\t// in\n    tag_38:\n      mload(0x40)\n      tag_40\n      swap2\n      swap1\n      tag_24\n      jump\t// in\n    tag_40:\n      mload(0x40)\n      dup1\n      swap2\n      sub\n      swap1\n      return\n        /* \"SimpleSwap.sol\":4403:5896  function addLiquidity(address tokenA, address tokenB, uint amountADesired, uint amountBDesired, uint amountAMin, uint amountBMin, address to, uint deadline) external returns (uint amountA, uint amountB, uint liquidity) {... */\n    tag_11:\n      tag_41\n      0x04\n      dup1\n      calldatasize\n      sub\n      dup2\n      add\n      swap1\n      tag_42\n      swap2\n      swap1\n      tag_43\n      jump\t// in\n    tag_42:\n      tag_44\n      jump\t// in\n    tag_41:\n      mload(0x40)\n      tag_45\n      swap4\n      swap3\n      swap2\n      swap1\n      tag_46\n      jump\t// in\n    tag_45:\n      mload(0x40)\n      dup1\n      swap2\n      sub\n      swap1\n      return\n        /* \"SimpleSwap.sol\":3376:3459  function name() external view returns (string memory) {... */\n    tag_14:\n        /* \"SimpleSwap.sol\":3415:3428  string memory */\n      0x60\n        /* \"SimpleSwap.sol\":3447:3452  _name */\n      0x01\n        /* \"SimpleSwap.sol\":3440:3452  return _name */\n      dup1\n      sload\n      tag_48\n      swap1\n      tag_49\n      jump\t// in\n    tag_48:\n      dup1\n      0x1f\n      add\n      0x20\n      dup1\n      swap2\n      div\n      mul\n      0x20\n      add\n      mload(0x40)\n      swap1\n      dup2\n      add\n      0x40\n      mstore\n      dup1\n      swap3\n      swap2\n      swap1\n      dup2\n      dup2\n      mstore\n      0x20\n      add\n      dup3\n      dup1\n      sload\n      tag_50\n      swap1\n      tag_49\n      jump\t// in\n    tag_50:\n      dup1\n      iszero\n      tag_51\n      jumpi\n      dup1\n      0x1f\n      lt\n      tag_52\n      jumpi\n      0x0100\n      dup1\n      dup4\n      sload\n      div\n      mul\n      dup4\n      mstore\n      swap2\n      0x20\n      add\n      swap2\n      jump(tag_51)\n    tag_52:\n      dup3\n      add\n      swap2\n      swap1\n      0x00\n      mstore\n      keccak256(0x00, 0x20)\n      swap1\n    tag_53:\n      dup2\n      sload\n      dup2\n      mstore\n      swap1\n      0x01\n      add\n      swap1\n      0x20\n      add\n      dup1\n      dup4\n      gt\n      tag_53\n      jumpi\n      dup3\n      swap1\n      sub\n      0x1f\n      and\n      dup3\n      add\n      swap2\n    tag_51:\n      pop\n      pop\n      pop\n      pop\n      pop\n      swap1\n      pop\n        /* \"SimpleSwap.sol\":3376:3459  function name() external view returns (string memory) {... */\n      swap1\n      jump\t// out\n        /* \"SimpleSwap.sol\":904:925  address public tokenA */\n    tag_18:\n      0x03\n      0x01\n      swap1\n      sload\n      swap1\n      0x0100\n      exp\n      swap1\n      div\n      0xffffffffffffffffffffffffffffffffffffffff\n      and\n      dup2\n      jump\t// out\n        /* \"SimpleSwap.sol\":1145:1168  uint256 public reserveB */\n    tag_22:\n      sload(0x06)\n      dup2\n      jump\t// out\n        /* \"SimpleSwap.sol\":3678:3761  function decimals() external view returns (uint8) {... */\n    tag_26:\n        /* \"SimpleSwap.sol\":3721:3726  uint8 */\n      0x00\n        /* \"SimpleSwap.sol\":3745:3754  _decimals */\n      0x03\n      0x00\n      swap1\n      sload\n      swap1\n      0x0100\n      exp\n      swap1\n      div\n      0xff\n      and\n        /* \"SimpleSwap.sol\":3738:3754  return _decimals */\n      swap1\n      pop\n        /* \"SimpleSwap.sol\":3678:3761  function decimals() external view returns (uint8) {... */\n      swap1\n      jump\t// out\n        /* \"SimpleSwap.sol\":967:988  address public tokenB */\n    tag_30:\n      0x04\n      0x00\n      swap1\n      sload\n      swap1\n      0x0100\n      exp\n      swap1\n      div\n      0xffffffffffffffffffffffffffffffffffffffff\n      and\n      dup2\n      jump\t// out\n        /* \"SimpleSwap.sol\":578:598  address public owner */\n    tag_33:\n      0x00\n      0x00\n      swap1\n      sload\n      swap1\n      0x0100\n      exp\n      swap1\n      div\n      0xffffffffffffffffffffffffffffffffffffffff\n      and\n      dup2\n      jump\t// out\n        /* \"SimpleSwap.sol\":3516:3603  function symbol() external view returns (string memory) {... */\n    tag_36:\n        /* \"SimpleSwap.sol\":3557:3570  string memory */\n      0x60\n        /* \"SimpleSwap.sol\":3589:3596  _symbol */\n      0x02\n        /* \"SimpleSwap.sol\":3582:3596  return _symbol */\n      dup1\n      sload\n      tag_56\n      swap1\n      tag_49\n      jump\t// in\n    tag_56:\n      dup1\n      0x1f\n      add\n      0x20\n      dup1\n      swap2\n      div\n      mul\n      0x20\n      add\n      mload(0x40)\n      swap1\n      dup2\n      add\n      0x40\n      mstore\n      dup1\n      swap3\n      swap2\n      swap1\n      dup2\n      dup2\n      mstore\n      0x20\n      add\n      dup3\n      dup1\n      sload\n      tag_57\n      swap1\n      tag_49\n      jump\t// in\n    tag_57:\n      dup1\n      iszero\n      tag_58\n      jumpi\n      dup1\n      0x1f\n      lt\n      tag_59\n      jumpi\n      0x0100\n      dup1\n      dup4\n      sload\n      div\n      mul\n      dup4\n      mstore\n      swap2\n      0x20\n      add\n      swap2\n      jump(tag_58)\n    tag_59:\n      dup3\n      add\n      swap2\n      swap1\n      0x00\n      mstore\n      keccak256(0x00, 0x20)\n      swap1\n    tag_60:\n      dup2\n      sload\n      dup2\n      mstore\n      swap1\n      0x01\n      add\n      swap1\n      0x20\n      add\n      dup1\n      dup4\n      gt\n      tag_60\n      jumpi\n      dup3\n      swap1\n      sub\n      0x1f\n      and\n      dup3\n      add\n      swap2\n    tag_58:\n      pop\n      pop\n      pop\n      pop\n      pop\n      swap1\n      pop\n        /* \"SimpleSwap.sol\":3516:3603  function symbol() external view returns (string memory) {... */\n      swap1\n      jump\t// out\n        /* \"SimpleSwap.sol\":1055:1078  uint256 public reserveA */\n    tag_39:\n      sload(0x05)\n      dup2\n      jump\t// out\n        /* \"SimpleSwap.sol\":4403:5896  function addLiquidity(address tokenA, address tokenB, uint amountADesired, uint amountBDesired, uint amountAMin, uint amountBMin, address to, uint deadline) external returns (uint amountA, uint amountB, uint liquidity) {... */\n    tag_44:\n        /* \"SimpleSwap.sol\":4578:4590  uint amountA */\n      0x00\n        /* \"SimpleSwap.sol\":4592:4604  uint amountB */\n      0x00\n        /* \"SimpleSwap.sol\":4606:4620  uint liquidity */\n      0x00\n        /* \"SimpleSwap.sol\":4650:4651  0 */\n      0x00\n        /* \"SimpleSwap.sol\":4638:4646  reserveA */\n      sload(0x05)\n        /* \"SimpleSwap.sol\":4638:4651  reserveA == 0 */\n      eq\n        /* \"SimpleSwap.sol\":4638:4668  reserveA == 0 && reserveB == 0 */\n      dup1\n      iszero\n      tag_62\n      jumpi\n      pop\n        /* \"SimpleSwap.sol\":4667:4668  0 */\n      0x00\n        /* \"SimpleSwap.sol\":4655:4663  reserveB */\n      sload(0x06)\n        /* \"SimpleSwap.sol\":4655:4668  reserveB == 0 */\n      eq\n        /* \"SimpleSwap.sol\":4638:4668  reserveA == 0 && reserveB == 0 */\n    tag_62:\n        /* \"SimpleSwap.sol\":4634:5688  if (reserveA == 0 && reserveB == 0) {... */\n      iszero\n      tag_63\n      jumpi\n        /* \"SimpleSwap.sol\":4758:4763  owner */\n      0x00\n      0x00\n      swap1\n      sload\n      swap1\n      0x0100\n      exp\n      swap1\n      div\n      0xffffffffffffffffffffffffffffffffffffffff\n      and\n        /* \"SimpleSwap.sol\":4744:4763  msg.sender == owner */\n      0xffffffffffffffffffffffffffffffffffffffff\n      and\n        /* \"SimpleSwap.sol\":4744:4754  msg.sender */\n      caller\n        /* \"SimpleSwap.sol\":4744:4763  msg.sender == owner */\n      0xffffffffffffffffffffffffffffffffffffffff\n      and\n      eq\n        /* \"SimpleSwap.sol\":4736:4793  require(msg.sender == owner, \"Only owner can initialize\") */\n      tag_64\n      jumpi\n      mload(0x40)\n      0x08c379a000000000000000000000000000000000000000000000000000000000\n      dup2\n      mstore\n      0x04\n      add\n      tag_65\n      swap1\n      tag_66\n      jump\t// in\n    tag_65:\n      mload(0x40)\n      dup1\n      swap2\n      sub\n      swap1\n      revert\n    tag_64:\n        /* \"SimpleSwap.sol\":5030:5041  1000 * 1e18 */\n      0x3635c9adc5dea00000\n        /* \"SimpleSwap.sol\":5020:5041  amountA = 1000 * 1e18 */\n      swap3\n      pop\n        /* \"SimpleSwap.sol\":5061:5072  1000 * 1e18 */\n      0x3635c9adc5dea00000\n        /* \"SimpleSwap.sol\":5051:5072  amountB = 1000 * 1e18 */\n      swap2\n      pop\n        /* \"SimpleSwap.sol\":5094:5105  1000 * 1e18 */\n      0x3635c9adc5dea00000\n        /* \"SimpleSwap.sol\":5082:5105  liquidity = 1000 * 1e18 */\n      swap1\n      pop\n        /* \"SimpleSwap.sol\":5149:5155  tokenA */\n      dup11\n        /* \"SimpleSwap.sol\":5142:5169  IERC20(tokenA).transferFrom */\n      0xffffffffffffffffffffffffffffffffffffffff\n      and\n      0x23b872dd\n        /* \"SimpleSwap.sol\":5170:5175  owner */\n      0x00\n      0x00\n      swap1\n      sload\n      swap1\n      0x0100\n      exp\n      swap1\n      div\n      0xffffffffffffffffffffffffffffffffffffffff\n      and\n        /* \"SimpleSwap.sol\":5185:5189  this */\n      address\n        /* \"SimpleSwap.sol\":5192:5199  amountA */\n      dup7\n        /* \"SimpleSwap.sol\":5142:5200  IERC20(tokenA).transferFrom(owner, address(this), amountA) */\n      mload(0x40)\n      dup5\n      0xffffffff\n      and\n      0xe0\n      shl\n      dup2\n      mstore\n      0x04\n      add\n      tag_67\n      swap4\n      swap3\n      swap2\n      swap1\n      tag_68\n      jump\t// in\n    tag_67:\n      0x20\n      mload(0x40)\n      dup1\n      dup4\n      sub\n      dup2\n      0x00\n      dup8\n      gas\n      call\n      iszero\n      dup1\n      iszero\n      tag_70\n      jumpi\n      returndatacopy(0x00, 0x00, returndatasize)\n      revert(0x00, returndatasize)\n    tag_70:\n      pop\n      pop\n      pop\n      pop\n      mload(0x40)\n      returndatasize\n      not(0x1f)\n      0x1f\n      dup3\n      add\n      and\n      dup3\n      add\n      dup1\n      0x40\n      mstore\n      pop\n      dup2\n      add\n      swap1\n      tag_71\n      swap2\n      swap1\n      tag_72\n      jump\t// in\n    tag_71:\n      pop\n        /* \"SimpleSwap.sol\":5217:5223  tokenB */\n      dup10\n        /* \"SimpleSwap.sol\":5210:5237  IERC20(tokenB).transferFrom */\n      0xffffffffffffffffffffffffffffffffffffffff\n      and\n      0x23b872dd\n        /* \"SimpleSwap.sol\":5238:5243  owner */\n      0x00\n      0x00\n      swap1\n      sload\n      swap1\n      0x0100\n      exp\n      swap1\n      div\n      0xffffffffffffffffffffffffffffffffffffffff\n      and\n        /* \"SimpleSwap.sol\":5253:5257  this */\n      address\n        /* \"SimpleSwap.sol\":5260:5267  amountB */\n      dup6\n        /* \"SimpleSwap.sol\":5210:5268  IERC20(tokenB).transferFrom(owner, address(this), amountB) */\n      mload(0x40)\n      dup5\n      0xffffffff\n      and\n      0xe0\n      shl\n      dup2\n      mstore\n      0x04\n      add\n      tag_73\n      swap4\n      swap3\n      swap2\n      swap1\n      tag_68\n      jump\t// in\n    tag_73:\n      0x20\n      mload(0x40)\n      dup1\n      dup4\n      sub\n      dup2\n      0x00\n      dup8\n      gas\n      call\n      iszero\n      dup1\n      iszero\n      tag_75\n      jumpi\n      returndatacopy(0x00, 0x00, returndatasize)\n      revert(0x00, returndatasize)\n    tag_75:\n      pop\n      pop\n      pop\n      pop\n      mload(0x40)\n      returndatasize\n      not(0x1f)\n      0x1f\n      dup3\n      add\n      and\n      dup3\n      add\n      dup1\n      0x40\n      mstore\n      pop\n      dup2\n      add\n      swap1\n      tag_76\n      swap2\n      swap1\n      tag_72\n      jump\t// in\n    tag_76:\n      pop\n        /* \"SimpleSwap.sol\":5308:5315  amountA */\n      dup3\n        /* \"SimpleSwap.sol\":5297:5305  reserveA */\n      0x05\n        /* \"SimpleSwap.sol\":5297:5315  reserveA = amountA */\n      dup2\n      swap1\n      sstore\n      pop\n        /* \"SimpleSwap.sol\":5336:5343  amountB */\n      dup2\n        /* \"SimpleSwap.sol\":5325:5333  reserveB */\n      0x06\n        /* \"SimpleSwap.sol\":5325:5343  reserveB = amountB */\n      dup2\n      swap1\n      sstore\n      pop\n        /* \"SimpleSwap.sol\":5368:5377  liquidity */\n      dup1\n        /* \"SimpleSwap.sol\":5353:5365  _totalSupply */\n      0x07\n        /* \"SimpleSwap.sol\":5353:5377  _totalSupply = liquidity */\n      dup2\n      swap1\n      sstore\n      pop\n        /* \"SimpleSwap.sol\":5404:5413  liquidity */\n      dup1\n        /* \"SimpleSwap.sol\":5387:5397  _balanceOf */\n      0x08\n        /* \"SimpleSwap.sol\":5387:5401  _balanceOf[to] */\n      0x00\n        /* \"SimpleSwap.sol\":5398:5400  to */\n      dup8\n        /* \"SimpleSwap.sol\":5387:5401  _balanceOf[to] */\n      0xffffffffffffffffffffffffffffffffffffffff\n      and\n      0xffffffffffffffffffffffffffffffffffffffff\n      and\n      dup2\n      mstore\n      0x20\n      add\n      swap1\n      dup2\n      mstore\n      0x20\n      add\n      0x00\n      keccak256\n        /* \"SimpleSwap.sol\":5387:5413  _balanceOf[to] = liquidity */\n      dup2\n      swap1\n      sstore\n      pop\n        /* \"SimpleSwap.sol\":5451:5456  owner */\n      0x00\n      0x00\n      swap1\n      sload\n      swap1\n      0x0100\n      exp\n      swap1\n      div\n      0xffffffffffffffffffffffffffffffffffffffff\n      and\n        /* \"SimpleSwap.sol\":5429:5486  InitialLiquidityAdded(owner, amountA, amountB, liquidity) */\n      0xffffffffffffffffffffffffffffffffffffffff\n      and\n      0xb74e6471b3628e5564a820a208c77a7cdc392155b3b943031f2926e8347a65ec\n        /* \"SimpleSwap.sol\":5458:5465  amountA */\n      dup5\n        /* \"SimpleSwap.sol\":5467:5474  amountB */\n      dup5\n        /* \"SimpleSwap.sol\":5476:5485  liquidity */\n      dup5\n        /* \"SimpleSwap.sol\":5429:5486  InitialLiquidityAdded(owner, amountA, amountB, liquidity) */\n      mload(0x40)\n      tag_77\n      swap4\n      swap3\n      swap2\n      swap1\n      tag_46\n      jump\t// in\n    tag_77:\n      mload(0x40)\n      dup1\n      swap2\n      sub\n      swap1\n      log2\n        /* \"SimpleSwap.sol\":5505:5541  return (amountA, amountB, liquidity) */\n      jump(tag_61)\n        /* \"SimpleSwap.sol\":4634:5688  if (reserveA == 0 && reserveB == 0) {... */\n    tag_63:\n        /* \"SimpleSwap.sol\":4403:5896  function addLiquidity(address tokenA, address tokenB, uint amountADesired, uint amountBDesired, uint amountAMin, uint amountBMin, address to, uint deadline) external returns (uint amountA, uint amountB, uint liquidity) {... */\n    tag_61:\n      swap9\n      pop\n      swap9\n      pop\n      swap9\n      swap6\n      pop\n      pop\n      pop\n      pop\n      pop\n      pop\n      jump\t// out\n        /* \"#utility.yul\":7:106   */\n    tag_79:\n        /* \"#utility.yul\":59:65   */\n      0x00\n        /* \"#utility.yul\":93:98   */\n      dup2\n        /* \"#utility.yul\":87:99   */\n      mload\n        /* \"#utility.yul\":77:99   */\n      swap1\n      pop\n        /* \"#utility.yul\":7:106   */\n      swap2\n      swap1\n      pop\n      jump\t// out\n        /* \"#utility.yul\":112:281   */\n    tag_80:\n        /* \"#utility.yul\":196:207   */\n      0x00\n        /* \"#utility.yul\":230:236   */\n      dup3\n        /* \"#utility.yul\":225:228   */\n      dup3\n        /* \"#utility.yul\":218:237   */\n      mstore\n        /* \"#utility.yul\":270:274   */\n      0x20\n        /* \"#utility.yul\":265:268   */\n      dup3\n        /* \"#utility.yul\":261:275   */\n      add\n        /* \"#utility.yul\":246:275   */\n      swap1\n      pop\n        /* \"#utility.yul\":112:281   */\n      swap3\n      swap2\n      pop\n      pop\n      jump\t// out\n        /* \"#utility.yul\":287:426   */\n    tag_81:\n        /* \"#utility.yul\":376:382   */\n      dup3\n        /* \"#utility.yul\":371:374   */\n      dup2\n        /* \"#utility.yul\":366:369   */\n      dup4\n        /* \"#utility.yul\":360:383   */\n      mcopy\n        /* \"#utility.yul\":417:418   */\n      0x00\n        /* \"#utility.yul\":408:414   */\n      dup4\n        /* \"#utility.yul\":403:406   */\n      dup4\n        /* \"#utility.yul\":399:415   */\n      add\n        /* \"#utility.yul\":392:419   */\n      mstore\n        /* \"#utility.yul\":287:426   */\n      pop\n      pop\n      pop\n      jump\t// out\n        /* \"#utility.yul\":432:534   */\n    tag_82:\n        /* \"#utility.yul\":473:479   */\n      0x00\n        /* \"#utility.yul\":524:526   */\n      0x1f\n        /* \"#utility.yul\":520:527   */\n      not\n        /* \"#utility.yul\":515:517   */\n      0x1f\n        /* \"#utility.yul\":508:513   */\n      dup4\n        /* \"#utility.yul\":504:518   */\n      add\n        /* \"#utility.yul\":500:528   */\n      and\n        /* \"#utility.yul\":490:528   */\n      swap1\n      pop\n        /* \"#utility.yul\":432:534   */\n      swap2\n      swap1\n      pop\n      jump\t// out\n        /* \"#utility.yul\":540:917   */\n    tag_83:\n        /* \"#utility.yul\":628:631   */\n      0x00\n        /* \"#utility.yul\":656:695   */\n      tag_110\n        /* \"#utility.yul\":689:694   */\n      dup3\n        /* \"#utility.yul\":656:695   */\n      tag_79\n      jump\t// in\n    tag_110:\n        /* \"#utility.yul\":711:782   */\n      tag_111\n        /* \"#utility.yul\":775:781   */\n      dup2\n        /* \"#utility.yul\":770:773   */\n      dup6\n        /* \"#utility.yul\":711:782   */\n      tag_80\n      jump\t// in\n    tag_111:\n        /* \"#utility.yul\":704:782   */\n      swap4\n      pop\n        /* \"#utility.yul\":791:856   */\n      tag_112\n        /* \"#utility.yul\":849:855   */\n      dup2\n        /* \"#utility.yul\":844:847   */\n      dup6\n        /* \"#utility.yul\":837:841   */\n      0x20\n        /* \"#utility.yul\":830:835   */\n      dup7\n        /* \"#utility.yul\":826:842   */\n      add\n        /* \"#utility.yul\":791:856   */\n      tag_81\n      jump\t// in\n    tag_112:\n        /* \"#utility.yul\":881:910   */\n      tag_113\n        /* \"#utility.yul\":903:909   */\n      dup2\n        /* \"#utility.yul\":881:910   */\n      tag_82\n      jump\t// in\n    tag_113:\n        /* \"#utility.yul\":876:879   */\n      dup5\n        /* \"#utility.yul\":872:911   */\n      add\n        /* \"#utility.yul\":865:911   */\n      swap2\n      pop\n        /* \"#utility.yul\":632:917   */\n      pop\n        /* \"#utility.yul\":540:917   */\n      swap3\n      swap2\n      pop\n      pop\n      jump\t// out\n        /* \"#utility.yul\":923:1236   */\n    tag_16:\n        /* \"#utility.yul\":1036:1040   */\n      0x00\n        /* \"#utility.yul\":1074:1076   */\n      0x20\n        /* \"#utility.yul\":1063:1072   */\n      dup3\n        /* \"#utility.yul\":1059:1077   */\n      add\n        /* \"#utility.yul\":1051:1077   */\n      swap1\n      pop\n        /* \"#utility.yul\":1123:1132   */\n      dup2\n        /* \"#utility.yul\":1117:1121   */\n      dup2\n        /* \"#utility.yul\":1113:1133   */\n      sub\n        /* \"#utility.yul\":1109:1110   */\n      0x00\n        /* \"#utility.yul\":1098:1107   */\n      dup4\n        /* \"#utility.yul\":1094:1111   */\n      add\n        /* \"#utility.yul\":1087:1134   */\n      mstore\n        /* \"#utility.yul\":1151:1229   */\n      tag_115\n        /* \"#utility.yul\":1224:1228   */\n      dup2\n        /* \"#utility.yul\":1215:1221   */\n      dup5\n        /* \"#utility.yul\":1151:1229   */\n      tag_83\n      jump\t// in\n    tag_115:\n        /* \"#utility.yul\":1143:1229   */\n      swap1\n      pop\n        /* \"#utility.yul\":923:1236   */\n      swap3\n      swap2\n      pop\n      pop\n      jump\t// out\n        /* \"#utility.yul\":1242:1368   */\n    tag_84:\n        /* \"#utility.yul\":1279:1286   */\n      0x00\n        /* \"#utility.yul\":1319:1361   */\n      0xffffffffffffffffffffffffffffffffffffffff\n        /* \"#utility.yul\":1312:1317   */\n      dup3\n        /* \"#utility.yul\":1308:1362   */\n      and\n        /* \"#utility.yul\":1297:1362   */\n      swap1\n      pop\n        /* \"#utility.yul\":1242:1368   */\n      swap2\n      swap1\n      pop\n      jump\t// out\n        /* \"#utility.yul\":1374:1470   */\n    tag_85:\n        /* \"#utility.yul\":1411:1418   */\n      0x00\n        /* \"#utility.yul\":1440:1464   */\n      tag_118\n        /* \"#utility.yul\":1458:1463   */\n      dup3\n        /* \"#utility.yul\":1440:1464   */\n      tag_84\n      jump\t// in\n    tag_118:\n        /* \"#utility.yul\":1429:1464   */\n      swap1\n      pop\n        /* \"#utility.yul\":1374:1470   */\n      swap2\n      swap1\n      pop\n      jump\t// out\n        /* \"#utility.yul\":1476:1594   */\n    tag_86:\n        /* \"#utility.yul\":1563:1587   */\n      tag_120\n        /* \"#utility.yul\":1581:1586   */\n      dup2\n        /* \"#utility.yul\":1563:1587   */\n      tag_85\n      jump\t// in\n    tag_120:\n        /* \"#utility.yul\":1558:1561   */\n      dup3\n        /* \"#utility.yul\":1551:1588   */\n      mstore\n        /* \"#utility.yul\":1476:1594   */\n      pop\n      pop\n      jump\t// out\n        /* \"#utility.yul\":1600:1822   */\n    tag_20:\n        /* \"#utility.yul\":1693:1697   */\n      0x00\n        /* \"#utility.yul\":1731:1733   */\n      0x20\n        /* \"#utility.yul\":1720:1729   */\n      dup3\n        /* \"#utility.yul\":1716:1734   */\n      add\n        /* \"#utility.yul\":1708:1734   */\n      swap1\n      pop\n        /* \"#utility.yul\":1744:1815   */\n      tag_122\n        /* \"#utility.yul\":1812:1813   */\n      0x00\n        /* \"#utility.yul\":1801:1810   */\n      dup4\n        /* \"#utility.yul\":1797:1814   */\n      add\n        /* \"#utility.yul\":1788:1794   */\n      dup5\n        /* \"#utility.yul\":1744:1815   */\n      tag_86\n      jump\t// in\n    tag_122:\n        /* \"#utility.yul\":1600:1822   */\n      swap3\n      swap2\n      pop\n      pop\n      jump\t// out\n        /* \"#utility.yul\":1828:1905   */\n    tag_87:\n        /* \"#utility.yul\":1865:1872   */\n      0x00\n        /* \"#utility.yul\":1894:1899   */\n      dup2\n        /* \"#utility.yul\":1883:1899   */\n      swap1\n      pop\n        /* \"#utility.yul\":1828:1905   */\n      swap2\n      swap1\n      pop\n      jump\t// out\n        /* \"#utility.yul\":1911:2029   */\n    tag_88:\n        /* \"#utility.yul\":1998:2022   */\n      tag_125\n        /* \"#utility.yul\":2016:2021   */\n      dup2\n        /* \"#utility.yul\":1998:2022   */\n      tag_87\n      jump\t// in\n    tag_125:\n        /* \"#utility.yul\":1993:1996   */\n      dup3\n        /* \"#utility.yul\":1986:2023   */\n      mstore\n        /* \"#utility.yul\":1911:2029   */\n      pop\n      pop\n      jump\t// out\n        /* \"#utility.yul\":2035:2257   */\n    tag_24:\n        /* \"#utility.yul\":2128:2132   */\n      0x00\n        /* \"#utility.yul\":2166:2168   */\n      0x20\n        /* \"#utility.yul\":2155:2164   */\n      dup3\n        /* \"#utility.yul\":2151:2169   */\n      add\n        /* \"#utility.yul\":2143:2169   */\n      swap1\n      pop\n        /* \"#utility.yul\":2179:2250   */\n      tag_127\n        /* \"#utility.yul\":2247:2248   */\n      0x00\n        /* \"#utility.yul\":2236:2245   */\n      dup4\n        /* \"#utility.yul\":2232:2249   */\n      add\n        /* \"#utility.yul\":2223:2229   */\n      dup5\n        /* \"#utility.yul\":2179:2250   */\n      tag_88\n      jump\t// in\n    tag_127:\n        /* \"#utility.yul\":2035:2257   */\n      swap3\n      swap2\n      pop\n      pop\n      jump\t// out\n        /* \"#utility.yul\":2263:2349   */\n    tag_89:\n        /* \"#utility.yul\":2298:2305   */\n      0x00\n        /* \"#utility.yul\":2338:2342   */\n      0xff\n        /* \"#utility.yul\":2331:2336   */\n      dup3\n        /* \"#utility.yul\":2327:2343   */\n      and\n        /* \"#utility.yul\":2316:2343   */\n      swap1\n      pop\n        /* \"#utility.yul\":2263:2349   */\n      swap2\n      swap1\n      pop\n      jump\t// out\n        /* \"#utility.yul\":2355:2467   */\n    tag_90:\n        /* \"#utility.yul\":2438:2460   */\n      tag_130\n        /* \"#utility.yul\":2454:2459   */\n      dup2\n        /* \"#utility.yul\":2438:2460   */\n      tag_89\n      jump\t// in\n    tag_130:\n        /* \"#utility.yul\":2433:2436   */\n      dup3\n        /* \"#utility.yul\":2426:2461   */\n      mstore\n        /* \"#utility.yul\":2355:2467   */\n      pop\n      pop\n      jump\t// out\n        /* \"#utility.yul\":2473:2687   */\n    tag_28:\n        /* \"#utility.yul\":2562:2566   */\n      0x00\n        /* \"#utility.yul\":2600:2602   */\n      0x20\n        /* \"#utility.yul\":2589:2598   */\n      dup3\n        /* \"#utility.yul\":2585:2603   */\n      add\n        /* \"#utility.yul\":2577:2603   */\n      swap1\n      pop\n        /* \"#utility.yul\":2613:2680   */\n      tag_132\n        /* \"#utility.yul\":2677:2678   */\n      0x00\n        /* \"#utility.yul\":2666:2675   */\n      dup4\n        /* \"#utility.yul\":2662:2679   */\n      add\n        /* \"#utility.yul\":2653:2659   */\n      dup5\n        /* \"#utility.yul\":2613:2680   */\n      tag_90\n      jump\t// in\n    tag_132:\n        /* \"#utility.yul\":2473:2687   */\n      swap3\n      swap2\n      pop\n      pop\n      jump\t// out\n        /* \"#utility.yul\":2774:2891   */\n    tag_92:\n        /* \"#utility.yul\":2883:2884   */\n      0x00\n        /* \"#utility.yul\":2880:2881   */\n      0x00\n        /* \"#utility.yul\":2873:2885   */\n      revert\n        /* \"#utility.yul\":3020:3142   */\n    tag_94:\n        /* \"#utility.yul\":3093:3117   */\n      tag_137\n        /* \"#utility.yul\":3111:3116   */\n      dup2\n        /* \"#utility.yul\":3093:3117   */\n      tag_85\n      jump\t// in\n    tag_137:\n        /* \"#utility.yul\":3086:3091   */\n      dup2\n        /* \"#utility.yul\":3083:3118   */\n      eq\n        /* \"#utility.yul\":3073:3136   */\n      tag_138\n      jumpi\n        /* \"#utility.yul\":3132:3133   */\n      0x00\n        /* \"#utility.yul\":3129:3130   */\n      0x00\n        /* \"#utility.yul\":3122:3134   */\n      revert\n        /* \"#utility.yul\":3073:3136   */\n    tag_138:\n        /* \"#utility.yul\":3020:3142   */\n      pop\n      jump\t// out\n        /* \"#utility.yul\":3148:3287   */\n    tag_95:\n        /* \"#utility.yul\":3194:3199   */\n      0x00\n        /* \"#utility.yul\":3232:3238   */\n      dup2\n        /* \"#utility.yul\":3219:3239   */\n      calldataload\n        /* \"#utility.yul\":3210:3239   */\n      swap1\n      pop\n        /* \"#utility.yul\":3248:3281   */\n      tag_140\n        /* \"#utility.yul\":3275:3280   */\n      dup2\n        /* \"#utility.yul\":3248:3281   */\n      tag_94\n      jump\t// in\n    tag_140:\n        /* \"#utility.yul\":3148:3287   */\n      swap3\n      swap2\n      pop\n      pop\n      jump\t// out\n        /* \"#utility.yul\":3293:3415   */\n    tag_96:\n        /* \"#utility.yul\":3366:3390   */\n      tag_142\n        /* \"#utility.yul\":3384:3389   */\n      dup2\n        /* \"#utility.yul\":3366:3390   */\n      tag_87\n      jump\t// in\n    tag_142:\n        /* \"#utility.yul\":3359:3364   */\n      dup2\n        /* \"#utility.yul\":3356:3391   */\n      eq\n        /* \"#utility.yul\":3346:3409   */\n      tag_143\n      jumpi\n        /* \"#utility.yul\":3405:3406   */\n      0x00\n        /* \"#utility.yul\":3402:3403   */\n      0x00\n        /* \"#utility.yul\":3395:3407   */\n      revert\n        /* \"#utility.yul\":3346:3409   */\n    tag_143:\n        /* \"#utility.yul\":3293:3415   */\n      pop\n      jump\t// out\n        /* \"#utility.yul\":3421:3560   */\n    tag_97:\n        /* \"#utility.yul\":3467:3472   */\n      0x00\n        /* \"#utility.yul\":3505:3511   */\n      dup2\n        /* \"#utility.yul\":3492:3512   */\n      calldataload\n        /* \"#utility.yul\":3483:3512   */\n      swap1\n      pop\n        /* \"#utility.yul\":3521:3554   */\n      tag_145\n        /* \"#utility.yul\":3548:3553   */\n      dup2\n        /* \"#utility.yul\":3521:3554   */\n      tag_96\n      jump\t// in\n    tag_145:\n        /* \"#utility.yul\":3421:3560   */\n      swap3\n      swap2\n      pop\n      pop\n      jump\t// out\n        /* \"#utility.yul\":3566:4915   */\n    tag_43:\n        /* \"#utility.yul\":3688:3694   */\n      0x00\n        /* \"#utility.yul\":3696:3702   */\n      0x00\n        /* \"#utility.yul\":3704:3710   */\n      0x00\n        /* \"#utility.yul\":3712:3718   */\n      0x00\n        /* \"#utility.yul\":3720:3726   */\n      0x00\n        /* \"#utility.yul\":3728:3734   */\n      0x00\n        /* \"#utility.yul\":3736:3742   */\n      0x00\n        /* \"#utility.yul\":3744:3750   */\n      0x00\n        /* \"#utility.yul\":3793:3796   */\n      0x0100\n        /* \"#utility.yul\":3781:3790   */\n      dup10\n        /* \"#utility.yul\":3772:3779   */\n      dup12\n        /* \"#utility.yul\":3768:3791   */\n      sub\n        /* \"#utility.yul\":3764:3797   */\n      slt\n        /* \"#utility.yul\":3761:3881   */\n      iszero\n      tag_147\n      jumpi\n        /* \"#utility.yul\":3800:3879   */\n      tag_148\n      tag_92\n      jump\t// in\n    tag_148:\n        /* \"#utility.yul\":3761:3881   */\n    tag_147:\n        /* \"#utility.yul\":3920:3921   */\n      0x00\n        /* \"#utility.yul\":3945:3998   */\n      tag_149\n        /* \"#utility.yul\":3990:3997   */\n      dup12\n        /* \"#utility.yul\":3981:3987   */\n      dup3\n        /* \"#utility.yul\":3970:3979   */\n      dup13\n        /* \"#utility.yul\":3966:3988   */\n      add\n        /* \"#utility.yul\":3945:3998   */\n      tag_95\n      jump\t// in\n    tag_149:\n        /* \"#utility.yul\":3935:3998   */\n      swap9\n      pop\n        /* \"#utility.yul\":3891:4008   */\n      pop\n        /* \"#utility.yul\":4047:4049   */\n      0x20\n        /* \"#utility.yul\":4073:4126   */\n      tag_150\n        /* \"#utility.yul\":4118:4125   */\n      dup12\n        /* \"#utility.yul\":4109:4115   */\n      dup3\n        /* \"#utility.yul\":4098:4107   */\n      dup13\n        /* \"#utility.yul\":4094:4116   */\n      add\n        /* \"#utility.yul\":4073:4126   */\n      tag_95\n      jump\t// in\n    tag_150:\n        /* \"#utility.yul\":4063:4126   */\n      swap8\n      pop\n        /* \"#utility.yul\":4018:4136   */\n      pop\n        /* \"#utility.yul\":4175:4177   */\n      0x40\n        /* \"#utility.yul\":4201:4254   */\n      tag_151\n        /* \"#utility.yul\":4246:4253   */\n      dup12\n        /* \"#utility.yul\":4237:4243   */\n      dup3\n        /* \"#utility.yul\":4226:4235   */\n      dup13\n        /* \"#utility.yul\":4222:4244   */\n      add\n        /* \"#utility.yul\":4201:4254   */\n      tag_97\n      jump\t// in\n    tag_151:\n        /* \"#utility.yul\":4191:4254   */\n      swap7\n      pop\n        /* \"#utility.yul\":4146:4264   */\n      pop\n        /* \"#utility.yul\":4303:4305   */\n      0x60\n        /* \"#utility.yul\":4329:4382   */\n      tag_152\n        /* \"#utility.yul\":4374:4381   */\n      dup12\n        /* \"#utility.yul\":4365:4371   */\n      dup3\n        /* \"#utility.yul\":4354:4363   */\n      dup13\n        /* \"#utility.yul\":4350:4372   */\n      add\n        /* \"#utility.yul\":4329:4382   */\n      tag_97\n      jump\t// in\n    tag_152:\n        /* \"#utility.yul\":4319:4382   */\n      swap6\n      pop\n        /* \"#utility.yul\":4274:4392   */\n      pop\n        /* \"#utility.yul\":4431:4434   */\n      0x80\n        /* \"#utility.yul\":4458:4511   */\n      tag_153\n        /* \"#utility.yul\":4503:4510   */\n      dup12\n        /* \"#utility.yul\":4494:4500   */\n      dup3\n        /* \"#utility.yul\":4483:4492   */\n      dup13\n        /* \"#utility.yul\":4479:4501   */\n      add\n        /* \"#utility.yul\":4458:4511   */\n      tag_97\n      jump\t// in\n    tag_153:\n        /* \"#utility.yul\":4448:4511   */\n      swap5\n      pop\n        /* \"#utility.yul\":4402:4521   */\n      pop\n        /* \"#utility.yul\":4560:4563   */\n      0xa0\n        /* \"#utility.yul\":4587:4640   */\n      tag_154\n        /* \"#utility.yul\":4632:4639   */\n      dup12\n        /* \"#utility.yul\":4623:4629   */\n      dup3\n        /* \"#utility.yul\":4612:4621   */\n      dup13\n        /* \"#utility.yul\":4608:4630   */\n      add\n        /* \"#utility.yul\":4587:4640   */\n      tag_97\n      jump\t// in\n    tag_154:\n        /* \"#utility.yul\":4577:4640   */\n      swap4\n      pop\n        /* \"#utility.yul\":4531:4650   */\n      pop\n        /* \"#utility.yul\":4689:4692   */\n      0xc0\n        /* \"#utility.yul\":4716:4769   */\n      tag_155\n        /* \"#utility.yul\":4761:4768   */\n      dup12\n        /* \"#utility.yul\":4752:4758   */\n      dup3\n        /* \"#utility.yul\":4741:4750   */\n      dup13\n        /* \"#utility.yul\":4737:4759   */\n      add\n        /* \"#utility.yul\":4716:4769   */\n      tag_95\n      jump\t// in\n    tag_155:\n        /* \"#utility.yul\":4706:4769   */\n      swap3\n      pop\n        /* \"#utility.yul\":4660:4779   */\n      pop\n        /* \"#utility.yul\":4818:4821   */\n      0xe0\n        /* \"#utility.yul\":4845:4898   */\n      tag_156\n        /* \"#utility.yul\":4890:4897   */\n      dup12\n        /* \"#utility.yul\":4881:4887   */\n      dup3\n        /* \"#utility.yul\":4870:4879   */\n      dup13\n        /* \"#utility.yul\":4866:4888   */\n      add\n        /* \"#utility.yul\":4845:4898   */\n      tag_97\n      jump\t// in\n    tag_156:\n        /* \"#utility.yul\":4835:4898   */\n      swap2\n      pop\n        /* \"#utility.yul\":4789:4908   */\n      pop\n        /* \"#utility.yul\":3566:4915   */\n      swap3\n      swap6\n      swap9\n      pop\n      swap3\n      swap6\n      swap9\n      swap1\n      swap4\n      swap7\n      pop\n      jump\t// out\n        /* \"#utility.yul\":4921:5363   */\n    tag_46:\n        /* \"#utility.yul\":5070:5074   */\n      0x00\n        /* \"#utility.yul\":5108:5110   */\n      0x60\n        /* \"#utility.yul\":5097:5106   */\n      dup3\n        /* \"#utility.yul\":5093:5111   */\n      add\n        /* \"#utility.yul\":5085:5111   */\n      swap1\n      pop\n        /* \"#utility.yul\":5121:5192   */\n      tag_158\n        /* \"#utility.yul\":5189:5190   */\n      0x00\n        /* \"#utility.yul\":5178:5187   */\n      dup4\n        /* \"#utility.yul\":5174:5191   */\n      add\n        /* \"#utility.yul\":5165:5171   */\n      dup7\n        /* \"#utility.yul\":5121:5192   */\n      tag_88\n      jump\t// in\n    tag_158:\n        /* \"#utility.yul\":5202:5274   */\n      tag_159\n        /* \"#utility.yul\":5270:5272   */\n      0x20\n        /* \"#utility.yul\":5259:5268   */\n      dup4\n        /* \"#utility.yul\":5255:5273   */\n      add\n        /* \"#utility.yul\":5246:5252   */\n      dup6\n        /* \"#utility.yul\":5202:5274   */\n      tag_88\n      jump\t// in\n    tag_159:\n        /* \"#utility.yul\":5284:5356   */\n      tag_160\n        /* \"#utility.yul\":5352:5354   */\n      0x40\n        /* \"#utility.yul\":5341:5350   */\n      dup4\n        /* \"#utility.yul\":5337:5355   */\n      add\n        /* \"#utility.yul\":5328:5334   */\n      dup5\n        /* \"#utility.yul\":5284:5356   */\n      tag_88\n      jump\t// in\n    tag_160:\n        /* \"#utility.yul\":4921:5363   */\n      swap5\n      swap4\n      pop\n      pop\n      pop\n      pop\n      jump\t// out\n        /* \"#utility.yul\":5369:5549   */\n    tag_98:\n        /* \"#utility.yul\":5417:5494   */\n      0x4e487b7100000000000000000000000000000000000000000000000000000000\n        /* \"#utility.yul\":5414:5415   */\n      0x00\n        /* \"#utility.yul\":5407:5495   */\n      mstore\n        /* \"#utility.yul\":5514:5518   */\n      0x22\n        /* \"#utility.yul\":5511:5512   */\n      0x04\n        /* \"#utility.yul\":5504:5519   */\n      mstore\n        /* \"#utility.yul\":5538:5542   */\n      0x24\n        /* \"#utility.yul\":5535:5536   */\n      0x00\n        /* \"#utility.yul\":5528:5543   */\n      revert\n        /* \"#utility.yul\":5555:5875   */\n    tag_49:\n        /* \"#utility.yul\":5599:5605   */\n      0x00\n        /* \"#utility.yul\":5636:5637   */\n      0x02\n        /* \"#utility.yul\":5630:5634   */\n      dup3\n        /* \"#utility.yul\":5626:5638   */\n      div\n        /* \"#utility.yul\":5616:5638   */\n      swap1\n      pop\n        /* \"#utility.yul\":5683:5684   */\n      0x01\n        /* \"#utility.yul\":5677:5681   */\n      dup3\n        /* \"#utility.yul\":5673:5685   */\n      and\n        /* \"#utility.yul\":5704:5722   */\n      dup1\n        /* \"#utility.yul\":5694:5775   */\n      tag_163\n      jumpi\n        /* \"#utility.yul\":5760:5764   */\n      0x7f\n        /* \"#utility.yul\":5752:5758   */\n      dup3\n        /* \"#utility.yul\":5748:5765   */\n      and\n        /* \"#utility.yul\":5738:5765   */\n      swap2\n      pop\n        /* \"#utility.yul\":5694:5775   */\n    tag_163:\n        /* \"#utility.yul\":5822:5824   */\n      0x20\n        /* \"#utility.yul\":5814:5820   */\n      dup3\n        /* \"#utility.yul\":5811:5825   */\n      lt\n        /* \"#utility.yul\":5791:5809   */\n      dup2\n        /* \"#utility.yul\":5788:5826   */\n      sub\n        /* \"#utility.yul\":5785:5869   */\n      tag_164\n      jumpi\n        /* \"#utility.yul\":5841:5859   */\n      tag_165\n      tag_98\n      jump\t// in\n    tag_165:\n        /* \"#utility.yul\":5785:5869   */\n    tag_164:\n        /* \"#utility.yul\":5606:5875   */\n      pop\n        /* \"#utility.yul\":5555:5875   */\n      swap2\n      swap1\n      pop\n      jump\t// out\n        /* \"#utility.yul\":5881:6056   */\n    tag_99:\n        /* \"#utility.yul\":6021:6048   */\n      0x4f6e6c79206f776e65722063616e20696e697469616c697a6500000000000000\n        /* \"#utility.yul\":6017:6018   */\n      0x00\n        /* \"#utility.yul\":6009:6015   */\n      dup3\n        /* \"#utility.yul\":6005:6019   */\n      add\n        /* \"#utility.yul\":5998:6049   */\n      mstore\n        /* \"#utility.yul\":5881:6056   */\n      pop\n      jump\t// out\n        /* \"#utility.yul\":6062:6428   */\n    tag_100:\n        /* \"#utility.yul\":6204:6207   */\n      0x00\n        /* \"#utility.yul\":6225:6292   */\n      tag_168\n        /* \"#utility.yul\":6289:6291   */\n      0x19\n        /* \"#utility.yul\":6284:6287   */\n      dup4\n        /* \"#utility.yul\":6225:6292   */\n      tag_80\n      jump\t// in\n    tag_168:\n        /* \"#utility.yul\":6218:6292   */\n      swap2\n      pop\n        /* \"#utility.yul\":6301:6394   */\n      tag_169\n        /* \"#utility.yul\":6390:6393   */\n      dup3\n        /* \"#utility.yul\":6301:6394   */\n      tag_99\n      jump\t// in\n    tag_169:\n        /* \"#utility.yul\":6419:6421   */\n      0x20\n        /* \"#utility.yul\":6414:6417   */\n      dup3\n        /* \"#utility.yul\":6410:6422   */\n      add\n        /* \"#utility.yul\":6403:6422   */\n      swap1\n      pop\n        /* \"#utility.yul\":6062:6428   */\n      swap2\n      swap1\n      pop\n      jump\t// out\n        /* \"#utility.yul\":6434:6853   */\n    tag_66:\n        /* \"#utility.yul\":6600:6604   */\n      0x00\n        /* \"#utility.yul\":6638:6640   */\n      0x20\n        /* \"#utility.yul\":6627:6636   */\n      dup3\n        /* \"#utility.yul\":6623:6641   */\n      add\n        /* \"#utility.yul\":6615:6641   */\n      swap1\n      pop\n        /* \"#utility.yul\":6687:6696   */\n      dup2\n        /* \"#utility.yul\":6681:6685   */\n      dup2\n        /* \"#utility.yul\":6677:6697   */\n      sub\n        /* \"#utility.yul\":6673:6674   */\n      0x00\n        /* \"#utility.yul\":6662:6671   */\n      dup4\n        /* \"#utility.yul\":6658:6675   */\n      add\n        /* \"#utility.yul\":6651:6698   */\n      mstore\n        /* \"#utility.yul\":6715:6846   */\n      tag_171\n        /* \"#utility.yul\":6841:6845   */\n      dup2\n        /* \"#utility.yul\":6715:6846   */\n      tag_100\n      jump\t// in\n    tag_171:\n        /* \"#utility.yul\":6707:6846   */\n      swap1\n      pop\n        /* \"#utility.yul\":6434:6853   */\n      swap2\n      swap1\n      pop\n      jump\t// out\n        /* \"#utility.yul\":6859:7301   */\n    tag_68:\n        /* \"#utility.yul\":7008:7012   */\n      0x00\n        /* \"#utility.yul\":7046:7048   */\n      0x60\n        /* \"#utility.yul\":7035:7044   */\n      dup3\n        /* \"#utility.yul\":7031:7049   */\n      add\n        /* \"#utility.yul\":7023:7049   */\n      swap1\n      pop\n        /* \"#utility.yul\":7059:7130   */\n      tag_173\n        /* \"#utility.yul\":7127:7128   */\n      0x00\n        /* \"#utility.yul\":7116:7125   */\n      dup4\n        /* \"#utility.yul\":7112:7129   */\n      add\n        /* \"#utility.yul\":7103:7109   */\n      dup7\n        /* \"#utility.yul\":7059:7130   */\n      tag_86\n      jump\t// in\n    tag_173:\n        /* \"#utility.yul\":7140:7212   */\n      tag_174\n        /* \"#utility.yul\":7208:7210   */\n      0x20\n        /* \"#utility.yul\":7197:7206   */\n      dup4\n        /* \"#utility.yul\":7193:7211   */\n      add\n        /* \"#utility.yul\":7184:7190   */\n      dup6\n        /* \"#utility.yul\":7140:7212   */\n      tag_86\n      jump\t// in\n    tag_174:\n        /* \"#utility.yul\":7222:7294   */\n      tag_175\n        /* \"#utility.yul\":7290:7292   */\n      0x40\n        /* \"#utility.yul\":7279:7288   */\n      dup4\n        /* \"#utility.yul\":7275:7293   */\n      add\n        /* \"#utility.yul\":7266:7272   */\n      dup5\n        /* \"#utility.yul\":7222:7294   */\n      tag_88\n      jump\t// in\n    tag_175:\n        /* \"#utility.yul\":6859:7301   */\n      swap5\n      swap4\n      pop\n      pop\n      pop\n      pop\n      jump\t// out\n        /* \"#utility.yul\":7307:7397   */\n    tag_101:\n        /* \"#utility.yul\":7341:7348   */\n      0x00\n        /* \"#utility.yul\":7384:7389   */\n      dup2\n        /* \"#utility.yul\":7377:7390   */\n      iszero\n        /* \"#utility.yul\":7370:7391   */\n      iszero\n        /* \"#utility.yul\":7359:7391   */\n      swap1\n      pop\n        /* \"#utility.yul\":7307:7397   */\n      swap2\n      swap1\n      pop\n      jump\t// out\n        /* \"#utility.yul\":7403:7519   */\n    tag_102:\n        /* \"#utility.yul\":7473:7494   */\n      tag_178\n        /* \"#utility.yul\":7488:7493   */\n      dup2\n        /* \"#utility.yul\":7473:7494   */\n      tag_101\n      jump\t// in\n    tag_178:\n        /* \"#utility.yul\":7466:7471   */\n      dup2\n        /* \"#utility.yul\":7463:7495   */\n      eq\n        /* \"#utility.yul\":7453:7513   */\n      tag_179\n      jumpi\n        /* \"#utility.yul\":7509:7510   */\n      0x00\n        /* \"#utility.yul\":7506:7507   */\n      0x00\n        /* \"#utility.yul\":7499:7511   */\n      revert\n        /* \"#utility.yul\":7453:7513   */\n    tag_179:\n        /* \"#utility.yul\":7403:7519   */\n      pop\n      jump\t// out\n        /* \"#utility.yul\":7525:7662   */\n    tag_103:\n        /* \"#utility.yul\":7579:7584   */\n      0x00\n        /* \"#utility.yul\":7610:7616   */\n      dup2\n        /* \"#utility.yul\":7604:7617   */\n      mload\n        /* \"#utility.yul\":7595:7617   */\n      swap1\n      pop\n        /* \"#utility.yul\":7626:7656   */\n      tag_181\n        /* \"#utility.yul\":7650:7655   */\n      dup2\n        /* \"#utility.yul\":7626:7656   */\n      tag_102\n      jump\t// in\n    tag_181:\n        /* \"#utility.yul\":7525:7662   */\n      swap3\n      swap2\n      pop\n      pop\n      jump\t// out\n        /* \"#utility.yul\":7668:8013   */\n    tag_72:\n        /* \"#utility.yul\":7735:7741   */\n      0x00\n        /* \"#utility.yul\":7784:7786   */\n      0x20\n        /* \"#utility.yul\":7772:7781   */\n      dup3\n        /* \"#utility.yul\":7763:7770   */\n      dup5\n        /* \"#utility.yul\":7759:7782   */\n      sub\n        /* \"#utility.yul\":7755:7787   */\n      slt\n        /* \"#utility.yul\":7752:7871   */\n      iszero\n      tag_183\n      jumpi\n        /* \"#utility.yul\":7790:7869   */\n      tag_184\n      tag_92\n      jump\t// in\n    tag_184:\n        /* \"#utility.yul\":7752:7871   */\n    tag_183:\n        /* \"#utility.yul\":7910:7911   */\n      0x00\n        /* \"#utility.yul\":7935:7996   */\n      tag_185\n        /* \"#utility.yul\":7988:7995   */\n      dup5\n        /* \"#utility.yul\":7979:7985   */\n      dup3\n        /* \"#utility.yul\":7968:7977   */\n      dup6\n        /* \"#utility.yul\":7964:7986   */\n      add\n        /* \"#utility.yul\":7935:7996   */\n      tag_103\n      jump\t// in\n    tag_185:\n        /* \"#utility.yul\":7925:7996   */\n      swap2\n      pop\n        /* \"#utility.yul\":7881:8006   */\n      pop\n        /* \"#utility.yul\":7668:8013   */\n      swap3\n      swap2\n      pop\n      pop\n      jump\t// out\n\n    auxdata: 0xa264697066735822122038b5ea7818893841423c58249a737f5f5cfa78b2468997c3660c6e7b772264f564736f6c634300081e0033\n}\n",
				"bytecode": {
					"linkReferences": {},
					"object": "608060405234801561000f575f5ffd5b50604051610fb9380380610fb9833981810160405281019061003191906101fb565b81600360016101000a81548173ffffffffffffffffffffffffffffffffffffffff021916908373ffffffffffffffffffffffffffffffffffffffff1602179055508060045f6101000a81548173ffffffffffffffffffffffffffffffffffffffff021916908373ffffffffffffffffffffffffffffffffffffffff1602179055506040518060400160405280601381526020017f53696d706c6553776170204c5020546f6b656e00000000000000000000000000815250600190816100f69190610476565b506040518060400160405280600481526020017f53534c50000000000000000000000000000000000000000000000000000000008152506002908161013b9190610476565b50601260035f6101000a81548160ff021916908360ff160217905550335f5f6101000a81548173ffffffffffffffffffffffffffffffffffffffff021916908373ffffffffffffffffffffffffffffffffffffffff1602179055505050610545565b5f5ffd5b5f73ffffffffffffffffffffffffffffffffffffffff82169050919050565b5f6101ca826101a1565b9050919050565b6101da816101c0565b81146101e4575f5ffd5b50565b5f815190506101f5816101d1565b92915050565b5f5f604083850312156102115761021061019d565b5b5f61021e858286016101e7565b925050602061022f858286016101e7565b9150509250929050565b5f81519050919050565b7f4e487b71000000000000000000000000000000000000000000000000000000005f52604160045260245ffd5b7f4e487b71000000000000000000000000000000000000000000000000000000005f52602260045260245ffd5b5f60028204905060018216806102b457607f821691505b6020821081036102c7576102c6610270565b5b50919050565b5f819050815f5260205f209050919050565b5f6020601f8301049050919050565b5f82821b905092915050565b5f600883026103297fffffffffffffffffffffffffffffffffffffffffffffffffffffffffffffffff826102ee565b61033386836102ee565b95508019841693508086168417925050509392505050565b5f819050919050565b5f819050919050565b5f61037761037261036d8461034b565b610354565b61034b565b9050919050565b5f819050919050565b6103908361035d565b6103a461039c8261037e565b8484546102fa565b825550505050565b5f5f905090565b6103bb6103ac565b6103c6818484610387565b505050565b5b818110156103e9576103de5f826103b3565b6001810190506103cc565b5050565b601f82111561042e576103ff816102cd565b610408846102df565b81016020851015610417578190505b61042b610423856102df565b8301826103cb565b50505b505050565b5f82821c905092915050565b5f61044e5f1984600802610433565b1980831691505092915050565b5f610466838361043f565b9150826002028217905092915050565b61047f82610239565b67ffffffffffffffff81111561049857610497610243565b5b6104a2825461029d565b6104ad8282856103ed565b5f60209050601f8311600181146104de575f84156104cc578287015190505b6104d6858261045b565b86555061053d565b601f1984166104ec866102cd565b5f5b82811015610513578489015182556001820191506020850194506020810190506104ee565b86831015610530578489015161052c601f89168261043f565b8355505b6001600288020188555050505b505050505050565b610a67806105525f395ff3fe608060405234801561000f575f5ffd5b5060043610610091575f3560e01c80635f64b55b116100645780635f64b55b1461010d5780638da5cb5b1461012b57806395d89b4114610149578063dc5fa6c514610167578063e8e337001461018557610091565b806306fdde03146100955780630fc63d10146100b357806319e36f3b146100d1578063313ce567146100ef575b5f5ffd5b61009d6101b7565b6040516100aa91906106bc565b60405180910390f35b6100bb610247565b6040516100c8919061071b565b60405180910390f35b6100d961026d565b6040516100e6919061074c565b60405180910390f35b6100f7610273565b6040516101049190610780565b60405180910390f35b610115610288565b604051610122919061071b565b60405180910390f35b6101336102ad565b604051610140919061071b565b60405180910390f35b6101516102d1565b60405161015e91906106bc565b60405180910390f35b61016f610361565b60405161017c919061074c565b60405180910390f35b61019f600480360381019061019a91906107f1565b610367565b6040516101ae939291906108a2565b60405180910390f35b6060600180546101c690610904565b80601f01602080910402602001604051908101604052809291908181526020018280546101f290610904565b801561023d5780601f106102145761010080835404028352916020019161023d565b820191905f5260205f20905b81548152906001019060200180831161022057829003601f168201915b5050505050905090565b600360019054906101000a900473ffffffffffffffffffffffffffffffffffffffff1681565b60065481565b5f60035f9054906101000a900460ff16905090565b60045f9054906101000a900473ffffffffffffffffffffffffffffffffffffffff1681565b5f5f9054906101000a900473ffffffffffffffffffffffffffffffffffffffff1681565b6060600280546102e090610904565b80601f016020809104026020016040519081016040528092919081815260200182805461030c90610904565b80156103575780601f1061032e57610100808354040283529160200191610357565b820191905f5260205f20905b81548152906001019060200180831161033a57829003601f168201915b5050505050905090565b60055481565b5f5f5f5f60055414801561037c57505f600654145b1561063d575f5f9054906101000a900473ffffffffffffffffffffffffffffffffffffffff1673ffffffffffffffffffffffffffffffffffffffff163373ffffffffffffffffffffffffffffffffffffffff161461040f576040517f08c379a00000000000000000000000000000000000000000000000000000000081526004016104069061097e565b60405180910390fd5b683635c9adc5dea000009250683635c9adc5dea000009150683635c9adc5dea0000090508a73ffffffffffffffffffffffffffffffffffffffff166323b872dd5f5f9054906101000a900473ffffffffffffffffffffffffffffffffffffffff1630866040518463ffffffff1660e01b81526004016104909392919061099c565b6020604051808303815f875af11580156104ac573d5f5f3e3d5ffd5b505050506040513d601f19601f820116820180604052508101906104d09190610a06565b508973ffffffffffffffffffffffffffffffffffffffff166323b872dd5f5f9054906101000a900473ffffffffffffffffffffffffffffffffffffffff1630856040518463ffffffff1660e01b815260040161052e9392919061099c565b6020604051808303815f875af115801561054a573d5f5f3e3d5ffd5b505050506040513d601f19601f8201168201806040525081019061056e9190610a06565b508260058190555081600681905550806007819055508060085f8773ffffffffffffffffffffffffffffffffffffffff1673ffffffffffffffffffffffffffffffffffffffff1681526020019081526020015f20819055505f5f9054906101000a900473ffffffffffffffffffffffffffffffffffffffff1673ffffffffffffffffffffffffffffffffffffffff167fb74e6471b3628e5564a820a208c77a7cdc392155b3b943031f2926e8347a65ec848484604051610630939291906108a2565b60405180910390a261063e565b5b985098509895505050505050565b5f81519050919050565b5f82825260208201905092915050565b8281835e5f83830152505050565b5f601f19601f8301169050919050565b5f61068e8261064c565b6106988185610656565b93506106a8818560208601610666565b6106b181610674565b840191505092915050565b5f6020820190508181035f8301526106d48184610684565b905092915050565b5f73ffffffffffffffffffffffffffffffffffffffff82169050919050565b5f610705826106dc565b9050919050565b610715816106fb565b82525050565b5f60208201905061072e5f83018461070c565b92915050565b5f819050919050565b61074681610734565b82525050565b5f60208201905061075f5f83018461073d565b92915050565b5f60ff82169050919050565b61077a81610765565b82525050565b5f6020820190506107935f830184610771565b92915050565b5f5ffd5b6107a6816106fb565b81146107b0575f5ffd5b50565b5f813590506107c18161079d565b92915050565b6107d081610734565b81146107da575f5ffd5b50565b5f813590506107eb816107c7565b92915050565b5f5f5f5f5f5f5f5f610100898b03121561080e5761080d610799565b5b5f61081b8b828c016107b3565b985050602061082c8b828c016107b3565b975050604061083d8b828c016107dd565b965050606061084e8b828c016107dd565b955050608061085f8b828c016107dd565b94505060a06108708b828c016107dd565b93505060c06108818b828c016107b3565b92505060e06108928b828c016107dd565b9150509295985092959890939650565b5f6060820190506108b55f83018661073d565b6108c2602083018561073d565b6108cf604083018461073d565b949350505050565b7f4e487b71000000000000000000000000000000000000000000000000000000005f52602260045260245ffd5b5f600282049050600182168061091b57607f821691505b60208210810361092e5761092d6108d7565b5b50919050565b7f4f6e6c79206f776e65722063616e20696e697469616c697a65000000000000005f82015250565b5f610968601983610656565b915061097382610934565b602082019050919050565b5f6020820190508181035f8301526109958161095c565b9050919050565b5f6060820190506109af5f83018661070c565b6109bc602083018561070c565b6109c9604083018461073d565b949350505050565b5f8115159050919050565b6109e5816109d1565b81146109ef575f5ffd5b50565b5f81519050610a00816109dc565b92915050565b5f60208284031215610a1b57610a1a610799565b5b5f610a28848285016109f2565b9150509291505056fea264697066735822122038b5ea7818893841423c58249a737f5f5cfa78b2468997c3660c6e7b772264f564736f6c634300081e0033",
					"opcodes": "PUSH1 0x80 PUSH1 0x40 MSTORE CALLVALUE DUP1 ISZERO PUSH2 0xF JUMPI PUSH0 PUSH0 REVERT JUMPDEST POP PUSH1 0x40 MLOAD PUSH2 0xFB9 CODESIZE SUB DUP1 PUSH2 0xFB9 DUP4 CODECOPY DUP2 DUP2 ADD PUSH1 0x40 MSTORE DUP2 ADD SWAP1 PUSH2 0x31 SWAP2 SWAP1 PUSH2 0x1FB JUMP JUMPDEST DUP2 PUSH1 0x3 PUSH1 0x1 PUSH2 0x100 EXP DUP2 SLOAD DUP2 PUSH20 0xFFFFFFFFFFFFFFFFFFFFFFFFFFFFFFFFFFFFFFFF MUL NOT AND SWAP1 DUP4 PUSH20 0xFFFFFFFFFFFFFFFFFFFFFFFFFFFFFFFFFFFFFFFF AND MUL OR SWAP1 SSTORE POP DUP1 PUSH1 0x4 PUSH0 PUSH2 0x100 EXP DUP2 SLOAD DUP2 PUSH20 0xFFFFFFFFFFFFFFFFFFFFFFFFFFFFFFFFFFFFFFFF MUL NOT AND SWAP1 DUP4 PUSH20 0xFFFFFFFFFFFFFFFFFFFFFFFFFFFFFFFFFFFFFFFF AND MUL OR SWAP1 SSTORE POP PUSH1 0x40 MLOAD DUP1 PUSH1 0x40 ADD PUSH1 0x40 MSTORE DUP1 PUSH1 0x13 DUP2 MSTORE PUSH1 0x20 ADD PUSH32 0x53696D706C6553776170204C5020546F6B656E00000000000000000000000000 DUP2 MSTORE POP PUSH1 0x1 SWAP1 DUP2 PUSH2 0xF6 SWAP2 SWAP1 PUSH2 0x476 JUMP JUMPDEST POP PUSH1 0x40 MLOAD DUP1 PUSH1 0x40 ADD PUSH1 0x40 MSTORE DUP1 PUSH1 0x4 DUP2 MSTORE PUSH1 0x20 ADD PUSH32 0x53534C5000000000000000000000000000000000000000000000000000000000 DUP2 MSTORE POP PUSH1 0x2 SWAP1 DUP2 PUSH2 0x13B SWAP2 SWAP1 PUSH2 0x476 JUMP JUMPDEST POP PUSH1 0x12 PUSH1 0x3 PUSH0 PUSH2 0x100 EXP DUP2 SLOAD DUP2 PUSH1 0xFF MUL NOT AND SWAP1 DUP4 PUSH1 0xFF AND MUL OR SWAP1 SSTORE POP CALLER PUSH0 PUSH0 PUSH2 0x100 EXP DUP2 SLOAD DUP2 PUSH20 0xFFFFFFFFFFFFFFFFFFFFFFFFFFFFFFFFFFFFFFFF MUL NOT AND SWAP1 DUP4 PUSH20 0xFFFFFFFFFFFFFFFFFFFFFFFFFFFFFFFFFFFFFFFF AND MUL OR SWAP1 SSTORE POP POP POP PUSH2 0x545 JUMP JUMPDEST PUSH0 PUSH0 REVERT JUMPDEST PUSH0 PUSH20 0xFFFFFFFFFFFFFFFFFFFFFFFFFFFFFFFFFFFFFFFF DUP3 AND SWAP1 POP SWAP2 SWAP1 POP JUMP JUMPDEST PUSH0 PUSH2 0x1CA DUP3 PUSH2 0x1A1 JUMP JUMPDEST SWAP1 POP SWAP2 SWAP1 POP JUMP JUMPDEST PUSH2 0x1DA DUP2 PUSH2 0x1C0 JUMP JUMPDEST DUP2 EQ PUSH2 0x1E4 JUMPI PUSH0 PUSH0 REVERT JUMPDEST POP JUMP JUMPDEST PUSH0 DUP2 MLOAD SWAP1 POP PUSH2 0x1F5 DUP2 PUSH2 0x1D1 JUMP JUMPDEST SWAP3 SWAP2 POP POP JUMP JUMPDEST PUSH0 PUSH0 PUSH1 0x40 DUP4 DUP6 SUB SLT ISZERO PUSH2 0x211 JUMPI PUSH2 0x210 PUSH2 0x19D JUMP JUMPDEST JUMPDEST PUSH0 PUSH2 0x21E DUP6 DUP3 DUP7 ADD PUSH2 0x1E7 JUMP JUMPDEST SWAP3 POP POP PUSH1 0x20 PUSH2 0x22F DUP6 DUP3 DUP7 ADD PUSH2 0x1E7 JUMP JUMPDEST SWAP2 POP POP SWAP3 POP SWAP3 SWAP1 POP JUMP JUMPDEST PUSH0 DUP2 MLOAD SWAP1 POP SWAP2 SWAP1 POP JUMP JUMPDEST PUSH32 0x4E487B7100000000000000000000000000000000000000000000000000000000 PUSH0 MSTORE PUSH1 0x41 PUSH1 0x4 MSTORE PUSH1 0x24 PUSH0 REVERT JUMPDEST PUSH32 0x4E487B7100000000000000000000000000000000000000000000000000000000 PUSH0 MSTORE PUSH1 0x22 PUSH1 0x4 MSTORE PUSH1 0x24 PUSH0 REVERT JUMPDEST PUSH0 PUSH1 0x2 DUP3 DIV SWAP1 POP PUSH1 0x1 DUP3 AND DUP1 PUSH2 0x2B4 JUMPI PUSH1 0x7F DUP3 AND SWAP2 POP JUMPDEST PUSH1 0x20 DUP3 LT DUP2 SUB PUSH2 0x2C7 JUMPI PUSH2 0x2C6 PUSH2 0x270 JUMP JUMPDEST JUMPDEST POP SWAP2 SWAP1 POP JUMP JUMPDEST PUSH0 DUP2 SWAP1 POP DUP2 PUSH0 MSTORE PUSH1 0x20 PUSH0 KECCAK256 SWAP1 POP SWAP2 SWAP1 POP JUMP JUMPDEST PUSH0 PUSH1 0x20 PUSH1 0x1F DUP4 ADD DIV SWAP1 POP SWAP2 SWAP1 POP JUMP JUMPDEST PUSH0 DUP3 DUP3 SHL SWAP1 POP SWAP3 SWAP2 POP POP JUMP JUMPDEST PUSH0 PUSH1 0x8 DUP4 MUL PUSH2 0x329 PUSH32 0xFFFFFFFFFFFFFFFFFFFFFFFFFFFFFFFFFFFFFFFFFFFFFFFFFFFFFFFFFFFFFFFF DUP3 PUSH2 0x2EE JUMP JUMPDEST PUSH2 0x333 DUP7 DUP4 PUSH2 0x2EE JUMP JUMPDEST SWAP6 POP DUP1 NOT DUP5 AND SWAP4 POP DUP1 DUP7 AND DUP5 OR SWAP3 POP POP POP SWAP4 SWAP3 POP POP POP JUMP JUMPDEST PUSH0 DUP2 SWAP1 POP SWAP2 SWAP1 POP JUMP JUMPDEST PUSH0 DUP2 SWAP1 POP SWAP2 SWAP1 POP JUMP JUMPDEST PUSH0 PUSH2 0x377 PUSH2 0x372 PUSH2 0x36D DUP5 PUSH2 0x34B JUMP JUMPDEST PUSH2 0x354 JUMP JUMPDEST PUSH2 0x34B JUMP JUMPDEST SWAP1 POP SWAP2 SWAP1 POP JUMP JUMPDEST PUSH0 DUP2 SWAP1 POP SWAP2 SWAP1 POP JUMP JUMPDEST PUSH2 0x390 DUP4 PUSH2 0x35D JUMP JUMPDEST PUSH2 0x3A4 PUSH2 0x39C DUP3 PUSH2 0x37E JUMP JUMPDEST DUP5 DUP5 SLOAD PUSH2 0x2FA JUMP JUMPDEST DUP3 SSTORE POP POP POP POP JUMP JUMPDEST PUSH0 PUSH0 SWAP1 POP SWAP1 JUMP JUMPDEST PUSH2 0x3BB PUSH2 0x3AC JUMP JUMPDEST PUSH2 0x3C6 DUP2 DUP5 DUP5 PUSH2 0x387 JUMP JUMPDEST POP POP POP JUMP JUMPDEST JUMPDEST DUP2 DUP2 LT ISZERO PUSH2 0x3E9 JUMPI PUSH2 0x3DE PUSH0 DUP3 PUSH2 0x3B3 JUMP JUMPDEST PUSH1 0x1 DUP2 ADD SWAP1 POP PUSH2 0x3CC JUMP JUMPDEST POP POP JUMP JUMPDEST PUSH1 0x1F DUP3 GT ISZERO PUSH2 0x42E JUMPI PUSH2 0x3FF DUP2 PUSH2 0x2CD JUMP JUMPDEST PUSH2 0x408 DUP5 PUSH2 0x2DF JUMP JUMPDEST DUP2 ADD PUSH1 0x20 DUP6 LT ISZERO PUSH2 0x417 JUMPI DUP2 SWAP1 POP JUMPDEST PUSH2 0x42B PUSH2 0x423 DUP6 PUSH2 0x2DF JUMP JUMPDEST DUP4 ADD DUP3 PUSH2 0x3CB JUMP JUMPDEST POP POP JUMPDEST POP POP POP JUMP JUMPDEST PUSH0 DUP3 DUP3 SHR SWAP1 POP SWAP3 SWAP2 POP POP JUMP JUMPDEST PUSH0 PUSH2 0x44E PUSH0 NOT DUP5 PUSH1 0x8 MUL PUSH2 0x433 JUMP JUMPDEST NOT DUP1 DUP4 AND SWAP2 POP POP SWAP3 SWAP2 POP POP JUMP JUMPDEST PUSH0 PUSH2 0x466 DUP4 DUP4 PUSH2 0x43F JUMP JUMPDEST SWAP2 POP DUP3 PUSH1 0x2 MUL DUP3 OR SWAP1 POP SWAP3 SWAP2 POP POP JUMP JUMPDEST PUSH2 0x47F DUP3 PUSH2 0x239 JUMP JUMPDEST PUSH8 0xFFFFFFFFFFFFFFFF DUP2 GT ISZERO PUSH2 0x498 JUMPI PUSH2 0x497 PUSH2 0x243 JUMP JUMPDEST JUMPDEST PUSH2 0x4A2 DUP3 SLOAD PUSH2 0x29D JUMP JUMPDEST PUSH2 0x4AD DUP3 DUP3 DUP6 PUSH2 0x3ED JUMP JUMPDEST PUSH0 PUSH1 0x20 SWAP1 POP PUSH1 0x1F DUP4 GT PUSH1 0x1 DUP2 EQ PUSH2 0x4DE JUMPI PUSH0 DUP5 ISZERO PUSH2 0x4CC JUMPI DUP3 DUP8 ADD MLOAD SWAP1 POP JUMPDEST PUSH2 0x4D6 DUP6 DUP3 PUSH2 0x45B JUMP JUMPDEST DUP7 SSTORE POP PUSH2 0x53D JUMP JUMPDEST PUSH1 0x1F NOT DUP5 AND PUSH2 0x4EC DUP7 PUSH2 0x2CD JUMP JUMPDEST PUSH0 JUMPDEST DUP3 DUP2 LT ISZERO PUSH2 0x513 JUMPI DUP5 DUP10 ADD MLOAD DUP3 SSTORE PUSH1 0x1 DUP3 ADD SWAP2 POP PUSH1 0x20 DUP6 ADD SWAP5 POP PUSH1 0x20 DUP2 ADD SWAP1 POP PUSH2 0x4EE JUMP JUMPDEST DUP7 DUP4 LT ISZERO PUSH2 0x530 JUMPI DUP5 DUP10 ADD MLOAD PUSH2 0x52C PUSH1 0x1F DUP10 AND DUP3 PUSH2 0x43F JUMP JUMPDEST DUP4 SSTORE POP JUMPDEST PUSH1 0x1 PUSH1 0x2 DUP9 MUL ADD DUP9 SSTORE POP POP POP JUMPDEST POP POP POP POP POP POP JUMP JUMPDEST PUSH2 0xA67 DUP1 PUSH2 0x552 PUSH0 CODECOPY PUSH0 RETURN INVALID PUSH1 0x80 PUSH1 0x40 MSTORE CALLVALUE DUP1 ISZERO PUSH2 0xF JUMPI PUSH0 PUSH0 REVERT JUMPDEST POP PUSH1 0x4 CALLDATASIZE LT PUSH2 0x91 JUMPI PUSH0 CALLDATALOAD PUSH1 0xE0 SHR DUP1 PUSH4 0x5F64B55B GT PUSH2 0x64 JUMPI DUP1 PUSH4 0x5F64B55B EQ PUSH2 0x10D JUMPI DUP1 PUSH4 0x8DA5CB5B EQ PUSH2 0x12B JUMPI DUP1 PUSH4 0x95D89B41 EQ PUSH2 0x149 JUMPI DUP1 PUSH4 0xDC5FA6C5 EQ PUSH2 0x167 JUMPI DUP1 PUSH4 0xE8E33700 EQ PUSH2 0x185 JUMPI PUSH2 0x91 JUMP JUMPDEST DUP1 PUSH4 0x6FDDE03 EQ PUSH2 0x95 JUMPI DUP1 PUSH4 0xFC63D10 EQ PUSH2 0xB3 JUMPI DUP1 PUSH4 0x19E36F3B EQ PUSH2 0xD1 JUMPI DUP1 PUSH4 0x313CE567 EQ PUSH2 0xEF JUMPI JUMPDEST PUSH0 PUSH0 REVERT JUMPDEST PUSH2 0x9D PUSH2 0x1B7 JUMP JUMPDEST PUSH1 0x40 MLOAD PUSH2 0xAA SWAP2 SWAP1 PUSH2 0x6BC JUMP JUMPDEST PUSH1 0x40 MLOAD DUP1 SWAP2 SUB SWAP1 RETURN JUMPDEST PUSH2 0xBB PUSH2 0x247 JUMP JUMPDEST PUSH1 0x40 MLOAD PUSH2 0xC8 SWAP2 SWAP1 PUSH2 0x71B JUMP JUMPDEST PUSH1 0x40 MLOAD DUP1 SWAP2 SUB SWAP1 RETURN JUMPDEST PUSH2 0xD9 PUSH2 0x26D JUMP JUMPDEST PUSH1 0x40 MLOAD PUSH2 0xE6 SWAP2 SWAP1 PUSH2 0x74C JUMP JUMPDEST PUSH1 0x40 MLOAD DUP1 SWAP2 SUB SWAP1 RETURN JUMPDEST PUSH2 0xF7 PUSH2 0x273 JUMP JUMPDEST PUSH1 0x40 MLOAD PUSH2 0x104 SWAP2 SWAP1 PUSH2 0x780 JUMP JUMPDEST PUSH1 0x40 MLOAD DUP1 SWAP2 SUB SWAP1 RETURN JUMPDEST PUSH2 0x115 PUSH2 0x288 JUMP JUMPDEST PUSH1 0x40 MLOAD PUSH2 0x122 SWAP2 SWAP1 PUSH2 0x71B JUMP JUMPDEST PUSH1 0x40 MLOAD DUP1 SWAP2 SUB SWAP1 RETURN JUMPDEST PUSH2 0x133 PUSH2 0x2AD JUMP JUMPDEST PUSH1 0x40 MLOAD PUSH2 0x140 SWAP2 SWAP1 PUSH2 0x71B JUMP JUMPDEST PUSH1 0x40 MLOAD DUP1 SWAP2 SUB SWAP1 RETURN JUMPDEST PUSH2 0x151 PUSH2 0x2D1 JUMP JUMPDEST PUSH1 0x40 MLOAD PUSH2 0x15E SWAP2 SWAP1 PUSH2 0x6BC JUMP JUMPDEST PUSH1 0x40 MLOAD DUP1 SWAP2 SUB SWAP1 RETURN JUMPDEST PUSH2 0x16F PUSH2 0x361 JUMP JUMPDEST PUSH1 0x40 MLOAD PUSH2 0x17C SWAP2 SWAP1 PUSH2 0x74C JUMP JUMPDEST PUSH1 0x40 MLOAD DUP1 SWAP2 SUB SWAP1 RETURN JUMPDEST PUSH2 0x19F PUSH1 0x4 DUP1 CALLDATASIZE SUB DUP2 ADD SWAP1 PUSH2 0x19A SWAP2 SWAP1 PUSH2 0x7F1 JUMP JUMPDEST PUSH2 0x367 JUMP JUMPDEST PUSH1 0x40 MLOAD PUSH2 0x1AE SWAP4 SWAP3 SWAP2 SWAP1 PUSH2 0x8A2 JUMP JUMPDEST PUSH1 0x40 MLOAD DUP1 SWAP2 SUB SWAP1 RETURN JUMPDEST PUSH1 0x60 PUSH1 0x1 DUP1 SLOAD PUSH2 0x1C6 SWAP1 PUSH2 0x904 JUMP JUMPDEST DUP1 PUSH1 0x1F ADD PUSH1 0x20 DUP1 SWAP2 DIV MUL PUSH1 0x20 ADD PUSH1 0x40 MLOAD SWAP1 DUP2 ADD PUSH1 0x40 MSTORE DUP1 SWAP3 SWAP2 SWAP1 DUP2 DUP2 MSTORE PUSH1 0x20 ADD DUP3 DUP1 SLOAD PUSH2 0x1F2 SWAP1 PUSH2 0x904 JUMP JUMPDEST DUP1 ISZERO PUSH2 0x23D JUMPI DUP1 PUSH1 0x1F LT PUSH2 0x214 JUMPI PUSH2 0x100 DUP1 DUP4 SLOAD DIV MUL DUP4 MSTORE SWAP2 PUSH1 0x20 ADD SWAP2 PUSH2 0x23D JUMP JUMPDEST DUP3 ADD SWAP2 SWAP1 PUSH0 MSTORE PUSH1 0x20 PUSH0 KECCAK256 SWAP1 JUMPDEST DUP2 SLOAD DUP2 MSTORE SWAP1 PUSH1 0x1 ADD SWAP1 PUSH1 0x20 ADD DUP1 DUP4 GT PUSH2 0x220 JUMPI DUP3 SWAP1 SUB PUSH1 0x1F AND DUP3 ADD SWAP2 JUMPDEST POP POP POP POP POP SWAP1 POP SWAP1 JUMP JUMPDEST PUSH1 0x3 PUSH1 0x1 SWAP1 SLOAD SWAP1 PUSH2 0x100 EXP SWAP1 DIV PUSH20 0xFFFFFFFFFFFFFFFFFFFFFFFFFFFFFFFFFFFFFFFF AND DUP2 JUMP JUMPDEST PUSH1 0x6 SLOAD DUP2 JUMP JUMPDEST PUSH0 PUSH1 0x3 PUSH0 SWAP1 SLOAD SWAP1 PUSH2 0x100 EXP SWAP1 DIV PUSH1 0xFF AND SWAP1 POP SWAP1 JUMP JUMPDEST PUSH1 0x4 PUSH0 SWAP1 SLOAD SWAP1 PUSH2 0x100 EXP SWAP1 DIV PUSH20 0xFFFFFFFFFFFFFFFFFFFFFFFFFFFFFFFFFFFFFFFF AND DUP2 JUMP JUMPDEST PUSH0 PUSH0 SWAP1 SLOAD SWAP1 PUSH2 0x100 EXP SWAP1 DIV PUSH20 0xFFFFFFFFFFFFFFFFFFFFFFFFFFFFFFFFFFFFFFFF AND DUP2 JUMP JUMPDEST PUSH1 0x60 PUSH1 0x2 DUP1 SLOAD PUSH2 0x2E0 SWAP1 PUSH2 0x904 JUMP JUMPDEST DUP1 PUSH1 0x1F ADD PUSH1 0x20 DUP1 SWAP2 DIV MUL PUSH1 0x20 ADD PUSH1 0x40 MLOAD SWAP1 DUP2 ADD PUSH1 0x40 MSTORE DUP1 SWAP3 SWAP2 SWAP1 DUP2 DUP2 MSTORE PUSH1 0x20 ADD DUP3 DUP1 SLOAD PUSH2 0x30C SWAP1 PUSH2 0x904 JUMP JUMPDEST DUP1 ISZERO PUSH2 0x357 JUMPI DUP1 PUSH1 0x1F LT PUSH2 0x32E JUMPI PUSH2 0x100 DUP1 DUP4 SLOAD DIV MUL DUP4 MSTORE SWAP2 PUSH1 0x20 ADD SWAP2 PUSH2 0x357 JUMP JUMPDEST DUP3 ADD SWAP2 SWAP1 PUSH0 MSTORE PUSH1 0x20 PUSH0 KECCAK256 SWAP1 JUMPDEST DUP2 SLOAD DUP2 MSTORE SWAP1 PUSH1 0x1 ADD SWAP1 PUSH1 0x20 ADD DUP1 DUP4 GT PUSH2 0x33A JUMPI DUP3 SWAP1 SUB PUSH1 0x1F AND DUP3 ADD SWAP2 JUMPDEST POP POP POP POP POP SWAP1 POP SWAP1 JUMP JUMPDEST PUSH1 0x5 SLOAD DUP2 JUMP JUMPDEST PUSH0 PUSH0 PUSH0 PUSH0 PUSH1 0x5 SLOAD EQ DUP1 ISZERO PUSH2 0x37C JUMPI POP PUSH0 PUSH1 0x6 SLOAD EQ JUMPDEST ISZERO PUSH2 0x63D JUMPI PUSH0 PUSH0 SWAP1 SLOAD SWAP1 PUSH2 0x100 EXP SWAP1 DIV PUSH20 0xFFFFFFFFFFFFFFFFFFFFFFFFFFFFFFFFFFFFFFFF AND PUSH20 0xFFFFFFFFFFFFFFFFFFFFFFFFFFFFFFFFFFFFFFFF AND CALLER PUSH20 0xFFFFFFFFFFFFFFFFFFFFFFFFFFFFFFFFFFFFFFFF AND EQ PUSH2 0x40F JUMPI PUSH1 0x40 MLOAD PUSH32 0x8C379A000000000000000000000000000000000000000000000000000000000 DUP2 MSTORE PUSH1 0x4 ADD PUSH2 0x406 SWAP1 PUSH2 0x97E JUMP JUMPDEST PUSH1 0x40 MLOAD DUP1 SWAP2 SUB SWAP1 REVERT JUMPDEST PUSH9 0x3635C9ADC5DEA00000 SWAP3 POP PUSH9 0x3635C9ADC5DEA00000 SWAP2 POP PUSH9 0x3635C9ADC5DEA00000 SWAP1 POP DUP11 PUSH20 0xFFFFFFFFFFFFFFFFFFFFFFFFFFFFFFFFFFFFFFFF AND PUSH4 0x23B872DD PUSH0 PUSH0 SWAP1 SLOAD SWAP1 PUSH2 0x100 EXP SWAP1 DIV PUSH20 0xFFFFFFFFFFFFFFFFFFFFFFFFFFFFFFFFFFFFFFFF AND ADDRESS DUP7 PUSH1 0x40 MLOAD DUP5 PUSH4 0xFFFFFFFF AND PUSH1 0xE0 SHL DUP2 MSTORE PUSH1 0x4 ADD PUSH2 0x490 SWAP4 SWAP3 SWAP2 SWAP1 PUSH2 0x99C JUMP JUMPDEST PUSH1 0x20 PUSH1 0x40 MLOAD DUP1 DUP4 SUB DUP2 PUSH0 DUP8 GAS CALL ISZERO DUP1 ISZERO PUSH2 0x4AC JUMPI RETURNDATASIZE PUSH0 PUSH0 RETURNDATACOPY RETURNDATASIZE PUSH0 REVERT JUMPDEST POP POP POP POP PUSH1 0x40 MLOAD RETURNDATASIZE PUSH1 0x1F NOT PUSH1 0x1F DUP3 ADD AND DUP3 ADD DUP1 PUSH1 0x40 MSTORE POP DUP2 ADD SWAP1 PUSH2 0x4D0 SWAP2 SWAP1 PUSH2 0xA06 JUMP JUMPDEST POP DUP10 PUSH20 0xFFFFFFFFFFFFFFFFFFFFFFFFFFFFFFFFFFFFFFFF AND PUSH4 0x23B872DD PUSH0 PUSH0 SWAP1 SLOAD SWAP1 PUSH2 0x100 EXP SWAP1 DIV PUSH20 0xFFFFFFFFFFFFFFFFFFFFFFFFFFFFFFFFFFFFFFFF AND ADDRESS DUP6 PUSH1 0x40 MLOAD DUP5 PUSH4 0xFFFFFFFF AND PUSH1 0xE0 SHL DUP2 MSTORE PUSH1 0x4 ADD PUSH2 0x52E SWAP4 SWAP3 SWAP2 SWAP1 PUSH2 0x99C JUMP JUMPDEST PUSH1 0x20 PUSH1 0x40 MLOAD DUP1 DUP4 SUB DUP2 PUSH0 DUP8 GAS CALL ISZERO DUP1 ISZERO PUSH2 0x54A JUMPI RETURNDATASIZE PUSH0 PUSH0 RETURNDATACOPY RETURNDATASIZE PUSH0 REVERT JUMPDEST POP POP POP POP PUSH1 0x40 MLOAD RETURNDATASIZE PUSH1 0x1F NOT PUSH1 0x1F DUP3 ADD AND DUP3 ADD DUP1 PUSH1 0x40 MSTORE POP DUP2 ADD SWAP1 PUSH2 0x56E SWAP2 SWAP1 PUSH2 0xA06 JUMP JUMPDEST POP DUP3 PUSH1 0x5 DUP2 SWAP1 SSTORE POP DUP2 PUSH1 0x6 DUP2 SWAP1 SSTORE POP DUP1 PUSH1 0x7 DUP2 SWAP1 SSTORE POP DUP1 PUSH1 0x8 PUSH0 DUP8 PUSH20 0xFFFFFFFFFFFFFFFFFFFFFFFFFFFFFFFFFFFFFFFF AND PUSH20 0xFFFFFFFFFFFFFFFFFFFFFFFFFFFFFFFFFFFFFFFF AND DUP2 MSTORE PUSH1 0x20 ADD SWAP1 DUP2 MSTORE PUSH1 0x20 ADD PUSH0 KECCAK256 DUP2 SWAP1 SSTORE POP PUSH0 PUSH0 SWAP1 SLOAD SWAP1 PUSH2 0x100 EXP SWAP1 DIV PUSH20 0xFFFFFFFFFFFFFFFFFFFFFFFFFFFFFFFFFFFFFFFF AND PUSH20 0xFFFFFFFFFFFFFFFFFFFFFFFFFFFFFFFFFFFFFFFF AND PUSH32 0xB74E6471B3628E5564A820A208C77A7CDC392155B3B943031F2926E8347A65EC DUP5 DUP5 DUP5 PUSH1 0x40 MLOAD PUSH2 0x630 SWAP4 SWAP3 SWAP2 SWAP1 PUSH2 0x8A2 JUMP JUMPDEST PUSH1 0x40 MLOAD DUP1 SWAP2 SUB SWAP1 LOG2 PUSH2 0x63E JUMP JUMPDEST JUMPDEST SWAP9 POP SWAP9 POP SWAP9 SWAP6 POP POP POP POP POP POP JUMP JUMPDEST PUSH0 DUP2 MLOAD SWAP1 POP SWAP2 SWAP1 POP JUMP JUMPDEST PUSH0 DUP3 DUP3 MSTORE PUSH1 0x20 DUP3 ADD SWAP1 POP SWAP3 SWAP2 POP POP JUMP JUMPDEST DUP3 DUP2 DUP4 MCOPY PUSH0 DUP4 DUP4 ADD MSTORE POP POP POP JUMP JUMPDEST PUSH0 PUSH1 0x1F NOT PUSH1 0x1F DUP4 ADD AND SWAP1 POP SWAP2 SWAP1 POP JUMP JUMPDEST PUSH0 PUSH2 0x68E DUP3 PUSH2 0x64C JUMP JUMPDEST PUSH2 0x698 DUP2 DUP6 PUSH2 0x656 JUMP JUMPDEST SWAP4 POP PUSH2 0x6A8 DUP2 DUP6 PUSH1 0x20 DUP7 ADD PUSH2 0x666 JUMP JUMPDEST PUSH2 0x6B1 DUP2 PUSH2 0x674 JUMP JUMPDEST DUP5 ADD SWAP2 POP POP SWAP3 SWAP2 POP POP JUMP JUMPDEST PUSH0 PUSH1 0x20 DUP3 ADD SWAP1 POP DUP2 DUP2 SUB PUSH0 DUP4 ADD MSTORE PUSH2 0x6D4 DUP2 DUP5 PUSH2 0x684 JUMP JUMPDEST SWAP1 POP SWAP3 SWAP2 POP POP JUMP JUMPDEST PUSH0 PUSH20 0xFFFFFFFFFFFFFFFFFFFFFFFFFFFFFFFFFFFFFFFF DUP3 AND SWAP1 POP SWAP2 SWAP1 POP JUMP JUMPDEST PUSH0 PUSH2 0x705 DUP3 PUSH2 0x6DC JUMP JUMPDEST SWAP1 POP SWAP2 SWAP1 POP JUMP JUMPDEST PUSH2 0x715 DUP2 PUSH2 0x6FB JUMP JUMPDEST DUP3 MSTORE POP POP JUMP JUMPDEST PUSH0 PUSH1 0x20 DUP3 ADD SWAP1 POP PUSH2 0x72E PUSH0 DUP4 ADD DUP5 PUSH2 0x70C JUMP JUMPDEST SWAP3 SWAP2 POP POP JUMP JUMPDEST PUSH0 DUP2 SWAP1 POP SWAP2 SWAP1 POP JUMP JUMPDEST PUSH2 0x746 DUP2 PUSH2 0x734 JUMP JUMPDEST DUP3 MSTORE POP POP JUMP JUMPDEST PUSH0 PUSH1 0x20 DUP3 ADD SWAP1 POP PUSH2 0x75F PUSH0 DUP4 ADD DUP5 PUSH2 0x73D JUMP JUMPDEST SWAP3 SWAP2 POP POP JUMP JUMPDEST PUSH0 PUSH1 0xFF DUP3 AND SWAP1 POP SWAP2 SWAP1 POP JUMP JUMPDEST PUSH2 0x77A DUP2 PUSH2 0x765 JUMP JUMPDEST DUP3 MSTORE POP POP JUMP JUMPDEST PUSH0 PUSH1 0x20 DUP3 ADD SWAP1 POP PUSH2 0x793 PUSH0 DUP4 ADD DUP5 PUSH2 0x771 JUMP JUMPDEST SWAP3 SWAP2 POP POP JUMP JUMPDEST PUSH0 PUSH0 REVERT JUMPDEST PUSH2 0x7A6 DUP2 PUSH2 0x6FB JUMP JUMPDEST DUP2 EQ PUSH2 0x7B0 JUMPI PUSH0 PUSH0 REVERT JUMPDEST POP JUMP JUMPDEST PUSH0 DUP2 CALLDATALOAD SWAP1 POP PUSH2 0x7C1 DUP2 PUSH2 0x79D JUMP JUMPDEST SWAP3 SWAP2 POP POP JUMP JUMPDEST PUSH2 0x7D0 DUP2 PUSH2 0x734 JUMP JUMPDEST DUP2 EQ PUSH2 0x7DA JUMPI PUSH0 PUSH0 REVERT JUMPDEST POP JUMP JUMPDEST PUSH0 DUP2 CALLDATALOAD SWAP1 POP PUSH2 0x7EB DUP2 PUSH2 0x7C7 JUMP JUMPDEST SWAP3 SWAP2 POP POP JUMP JUMPDEST PUSH0 PUSH0 PUSH0 PUSH0 PUSH0 PUSH0 PUSH0 PUSH0 PUSH2 0x100 DUP10 DUP12 SUB SLT ISZERO PUSH2 0x80E JUMPI PUSH2 0x80D PUSH2 0x799 JUMP JUMPDEST JUMPDEST PUSH0 PUSH2 0x81B DUP12 DUP3 DUP13 ADD PUSH2 0x7B3 JUMP JUMPDEST SWAP9 POP POP PUSH1 0x20 PUSH2 0x82C DUP12 DUP3 DUP13 ADD PUSH2 0x7B3 JUMP JUMPDEST SWAP8 POP POP PUSH1 0x40 PUSH2 0x83D DUP12 DUP3 DUP13 ADD PUSH2 0x7DD JUMP JUMPDEST SWAP7 POP POP PUSH1 0x60 PUSH2 0x84E DUP12 DUP3 DUP13 ADD PUSH2 0x7DD JUMP JUMPDEST SWAP6 POP POP PUSH1 0x80 PUSH2 0x85F DUP12 DUP3 DUP13 ADD PUSH2 0x7DD JUMP JUMPDEST SWAP5 POP POP PUSH1 0xA0 PUSH2 0x870 DUP12 DUP3 DUP13 ADD PUSH2 0x7DD JUMP JUMPDEST SWAP4 POP POP PUSH1 0xC0 PUSH2 0x881 DUP12 DUP3 DUP13 ADD PUSH2 0x7B3 JUMP JUMPDEST SWAP3 POP POP PUSH1 0xE0 PUSH2 0x892 DUP12 DUP3 DUP13 ADD PUSH2 0x7DD JUMP JUMPDEST SWAP2 POP POP SWAP3 SWAP6 SWAP9 POP SWAP3 SWAP6 SWAP9 SWAP1 SWAP4 SWAP7 POP JUMP JUMPDEST PUSH0 PUSH1 0x60 DUP3 ADD SWAP1 POP PUSH2 0x8B5 PUSH0 DUP4 ADD DUP7 PUSH2 0x73D JUMP JUMPDEST PUSH2 0x8C2 PUSH1 0x20 DUP4 ADD DUP6 PUSH2 0x73D JUMP JUMPDEST PUSH2 0x8CF PUSH1 0x40 DUP4 ADD DUP5 PUSH2 0x73D JUMP JUMPDEST SWAP5 SWAP4 POP POP POP POP JUMP JUMPDEST PUSH32 0x4E487B7100000000000000000000000000000000000000000000000000000000 PUSH0 MSTORE PUSH1 0x22 PUSH1 0x4 MSTORE PUSH1 0x24 PUSH0 REVERT JUMPDEST PUSH0 PUSH1 0x2 DUP3 DIV SWAP1 POP PUSH1 0x1 DUP3 AND DUP1 PUSH2 0x91B JUMPI PUSH1 0x7F DUP3 AND SWAP2 POP JUMPDEST PUSH1 0x20 DUP3 LT DUP2 SUB PUSH2 0x92E JUMPI PUSH2 0x92D PUSH2 0x8D7 JUMP JUMPDEST JUMPDEST POP SWAP2 SWAP1 POP JUMP JUMPDEST PUSH32 0x4F6E6C79206F776E65722063616E20696E697469616C697A6500000000000000 PUSH0 DUP3 ADD MSTORE POP JUMP JUMPDEST PUSH0 PUSH2 0x968 PUSH1 0x19 DUP4 PUSH2 0x656 JUMP JUMPDEST SWAP2 POP PUSH2 0x973 DUP3 PUSH2 0x934 JUMP JUMPDEST PUSH1 0x20 DUP3 ADD SWAP1 POP SWAP2 SWAP1 POP JUMP JUMPDEST PUSH0 PUSH1 0x20 DUP3 ADD SWAP1 POP DUP2 DUP2 SUB PUSH0 DUP4 ADD MSTORE PUSH2 0x995 DUP2 PUSH2 0x95C JUMP JUMPDEST SWAP1 POP SWAP2 SWAP1 POP JUMP JUMPDEST PUSH0 PUSH1 0x60 DUP3 ADD SWAP1 POP PUSH2 0x9AF PUSH0 DUP4 ADD DUP7 PUSH2 0x70C JUMP JUMPDEST PUSH2 0x9BC PUSH1 0x20 DUP4 ADD DUP6 PUSH2 0x70C JUMP JUMPDEST PUSH2 0x9C9 PUSH1 0x40 DUP4 ADD DUP5 PUSH2 0x73D JUMP JUMPDEST SWAP5 SWAP4 POP POP POP POP JUMP JUMPDEST PUSH0 DUP2 ISZERO ISZERO SWAP1 POP SWAP2 SWAP1 POP JUMP JUMPDEST PUSH2 0x9E5 DUP2 PUSH2 0x9D1 JUMP JUMPDEST DUP2 EQ PUSH2 0x9EF JUMPI PUSH0 PUSH0 REVERT JUMPDEST POP JUMP JUMPDEST PUSH0 DUP2 MLOAD SWAP1 POP PUSH2 0xA00 DUP2 PUSH2 0x9DC JUMP JUMPDEST SWAP3 SWAP2 POP POP JUMP JUMPDEST PUSH0 PUSH1 0x20 DUP3 DUP5 SUB SLT ISZERO PUSH2 0xA1B JUMPI PUSH2 0xA1A PUSH2 0x799 JUMP JUMPDEST JUMPDEST PUSH0 PUSH2 0xA28 DUP5 DUP3 DUP6 ADD PUSH2 0x9F2 JUMP JUMPDEST SWAP2 POP POP SWAP3 SWAP2 POP POP JUMP INVALID LOG2 PUSH5 0x6970667358 0x22 SLT KECCAK256 CODESIZE 0xB5 0xEA PUSH25 0x18893841423C58249A737F5F5CFA78B2468997C3660C6E7B77 0x22 PUSH5 0xF564736F6C PUSH4 0x4300081E STOP CALLER "
				},
				"gasEstimates": {
					"creation": {
						"codeDepositCost": "532600",
						"executionCost": "infinite",
						"totalCost": "infinite"
					},
					"external": {
						"addLiquidity(address,address,uint256,uint256,uint256,uint256,address,uint256)": "infinite",
						"decimals()": "2540",
						"name()": "infinite",
						"owner()": "2529",
						"reserveA()": "2491",
						"reserveB()": "2470",
						"symbol()": "infinite",
						"tokenA()": "2582",
						"tokenB()": "2508"
					}
				},
				"methodIdentifiers": {
					"addLiquidity(address,address,uint256,uint256,uint256,uint256,address,uint256)": "e8e33700",
					"decimals()": "313ce567",
					"name()": "06fdde03",
					"owner()": "8da5cb5b",
					"reserveA()": "dc5fa6c5",
					"reserveB()": "19e36f3b",
					"symbol()": "95d89b41",
					"tokenA()": "0fc63d10",
					"tokenB()": "5f64b55b"
				}
			},
			"storageLayout": {
				"storage": [
					{
						"astId": 84,
						"contract": "SimpleSwap.sol:SimpleSwap",
						"label": "owner",
						"offset": 0,
						"slot": "0",
						"type": "t_address"
					},
					{
						"astId": 87,
						"contract": "SimpleSwap.sol:SimpleSwap",
						"label": "_name",
						"offset": 0,
						"slot": "1",
						"type": "t_string_storage"
					},
					{
						"astId": 90,
						"contract": "SimpleSwap.sol:SimpleSwap",
						"label": "_symbol",
						"offset": 0,
						"slot": "2",
						"type": "t_string_storage"
					},
					{
						"astId": 93,
						"contract": "SimpleSwap.sol:SimpleSwap",
						"label": "_decimals",
						"offset": 0,
						"slot": "3",
						"type": "t_uint8"
					},
					{
						"astId": 96,
						"contract": "SimpleSwap.sol:SimpleSwap",
						"label": "tokenA",
						"offset": 1,
						"slot": "3",
						"type": "t_address"
					},
					{
						"astId": 99,
						"contract": "SimpleSwap.sol:SimpleSwap",
						"label": "tokenB",
						"offset": 0,
						"slot": "4",
						"type": "t_address"
					},
					{
						"astId": 102,
						"contract": "SimpleSwap.sol:SimpleSwap",
						"label": "reserveA",
						"offset": 0,
						"slot": "5",
						"type": "t_uint256"
					},
					{
						"astId": 105,
						"contract": "SimpleSwap.sol:SimpleSwap",
						"label": "reserveB",
						"offset": 0,
						"slot": "6",
						"type": "t_uint256"
					},
					{
						"astId": 108,
						"contract": "SimpleSwap.sol:SimpleSwap",
						"label": "_totalSupply",
						"offset": 0,
						"slot": "7",
						"type": "t_uint256"
					},
					{
						"astId": 113,
						"contract": "SimpleSwap.sol:SimpleSwap",
						"label": "_balanceOf",
						"offset": 0,
						"slot": "8",
						"type": "t_mapping(t_address,t_uint256)"
					}
				],
				"types": {
					"t_address": {
						"encoding": "inplace",
						"label": "address",
						"numberOfBytes": "20"
					},
					"t_mapping(t_address,t_uint256)": {
						"encoding": "mapping",
						"key": "t_address",
						"label": "mapping(address => uint256)",
						"numberOfBytes": "32",
						"value": "t_uint256"
					},
					"t_string_storage": {
						"encoding": "bytes",
						"label": "string",
						"numberOfBytes": "32"
					},
					"t_uint256": {
						"encoding": "inplace",
						"label": "uint256",
						"numberOfBytes": "32"
					},
					"t_uint8": {
						"encoding": "inplace",
						"label": "uint8",
						"numberOfBytes": "1"
					}
				}
			},
			"userdoc": {
				"events": {
					"InitialLiquidityAdded(address,uint256,uint256,uint256)": {
						"notice": "Emitted when INITIAL liquidity is added to the pool"
					},
					"LiquidityAdded(address,uint256,uint256,uint256)": {
						"notice": "Emitted when liquidity is added to the pool"
					},
					"LiquidityRemoved(address,uint256,uint256,uint256)": {
						"notice": "Emitted when liquidity is removed from the pool"
					},
					"TokensSwapped(address,address,uint256,address,uint256)": {
						"notice": "Emitted when a token swap is performed"
					}
				},
				"kind": "user",
				"methods": {
					"addLiquidity(address,address,uint256,uint256,uint256,uint256,address,uint256)": {
						"notice": "Adds liquidity to the pool and mints LP tokens"
					},
					"constructor": {
						"notice": "Initializes the contract with the two token addresses"
					},
					"decimals()": {
						"notice": "Returns the number of decimals used for the LP token"
					},
					"name()": {
						"notice": "Returns the name of the LP token"
					},
					"owner()": {
						"notice": "owner Address of the provider of LP tokens (initialized by the contract)"
					},
					"reserveA()": {
						"notice": "Current reserve of token A held by the pool"
					},
					"reserveB()": {
						"notice": "Current reserve of token B held by the pool"
					},
					"symbol()": {
						"notice": "Returns the symbol of the LP token"
					},
					"tokenA()": {
						"notice": "Address of token A"
					},
					"tokenB()": {
						"notice": "Address of token B"
					}
				},
				"notice": "ETHKIPU TP MODULE 3: A simplified implementation of a Uniswap-like liquidity pool for two ERC20 tokens.",
				"version": 1
			}
		}
	}
}