{
	"data": {
		"bytecode": {
			"linkReferences": {},
			"object": "608060405234801561000f575f5ffd5b50604051613533380380613533833981810160405281019061003191906101fb565b81600360016101000a81548173ffffffffffffffffffffffffffffffffffffffff021916908373ffffffffffffffffffffffffffffffffffffffff1602179055508060045f6101000a81548173ffffffffffffffffffffffffffffffffffffffff021916908373ffffffffffffffffffffffffffffffffffffffff1602179055506040518060400160405280601381526020017f53696d706c6553776170204c5020546f6b656e00000000000000000000000000815250600190816100f69190610476565b506040518060400160405280600481526020017f53534c50000000000000000000000000000000000000000000000000000000008152506002908161013b9190610476565b50601260035f6101000a81548160ff021916908360ff160217905550335f5f6101000a81548173ffffffffffffffffffffffffffffffffffffffff021916908373ffffffffffffffffffffffffffffffffffffffff1602179055505050610545565b5f5ffd5b5f73ffffffffffffffffffffffffffffffffffffffff82169050919050565b5f6101ca826101a1565b9050919050565b6101da816101c0565b81146101e4575f5ffd5b50565b5f815190506101f5816101d1565b92915050565b5f5f604083850312156102115761021061019d565b5b5f61021e858286016101e7565b925050602061022f858286016101e7565b9150509250929050565b5f81519050919050565b7f4e487b71000000000000000000000000000000000000000000000000000000005f52604160045260245ffd5b7f4e487b71000000000000000000000000000000000000000000000000000000005f52602260045260245ffd5b5f60028204905060018216806102b457607f821691505b6020821081036102c7576102c6610270565b5b50919050565b5f819050815f5260205f209050919050565b5f6020601f8301049050919050565b5f82821b905092915050565b5f600883026103297fffffffffffffffffffffffffffffffffffffffffffffffffffffffffffffffff826102ee565b61033386836102ee565b95508019841693508086168417925050509392505050565b5f819050919050565b5f819050919050565b5f61037761037261036d8461034b565b610354565b61034b565b9050919050565b5f819050919050565b6103908361035d565b6103a461039c8261037e565b8484546102fa565b825550505050565b5f5f905090565b6103bb6103ac565b6103c6818484610387565b505050565b5b818110156103e9576103de5f826103b3565b6001810190506103cc565b5050565b601f82111561042e576103ff816102cd565b610408846102df565b81016020851015610417578190505b61042b610423856102df565b8301826103cb565b50505b505050565b5f82821c905092915050565b5f61044e5f1984600802610433565b1980831691505092915050565b5f610466838361043f565b9150826002028217905092915050565b61047f82610239565b67ffffffffffffffff81111561049857610497610243565b5b6104a2825461029d565b6104ad8282856103ed565b5f60209050601f8311600181146104de575f84156104cc578287015190505b6104d6858261045b565b86555061053d565b601f1984166104ec866102cd565b5f5b82811015610513578489015182556001820191506020850194506020810190506104ee565b86831015610530578489015161052c601f89168261043f565b8355505b6001600288020188555050505b505050505050565b612fe1806105525f395ff3fe608060405234801561000f575f5ffd5b50600436106100cd575f3560e01c80635f64b55b1161008a578063ac41865a11610064578063ac41865a14610203578063baa2abde14610233578063dc5fa6c514610264578063e8e3370014610282576100cd565b80635f64b55b146101a95780638da5cb5b146101c757806395d89b41146101e5576100cd565b8063054d50d4146100d157806306fdde03146101015780630fc63d101461011f57806319e36f3b1461013d578063313ce5671461015b57806338ed173914610179575b5f5ffd5b6100eb60048036038101906100e69190611e9d565b6102b4565b6040516100f89190611efc565b60405180910390f35b61010961036f565b6040516101169190611f85565b60405180910390f35b6101276103ff565b6040516101349190611fe4565b60405180910390f35b610145610425565b6040516101529190611efc565b60405180910390f35b61016361042b565b6040516101709190612018565b60405180910390f35b610193600480360381019061018e91906120bc565b610440565b6040516101a09190612209565b60405180910390f35b6101b1610c44565b6040516101be9190611fe4565b60405180910390f35b6101cf610c69565b6040516101dc9190611fe4565b60405180910390f35b6101ed610c8d565b6040516101fa9190611f85565b60405180910390f35b61021d60048036038101906102189190612229565b610d1d565b60405161022a9190611efc565b60405180910390f35b61024d60048036038101906102489190612267565b610f2d565b60405161025b929190612304565b60405180910390f35b61026c611416565b6040516102799190611efc565b60405180910390f35b61029c6004803603810190610297919061232b565b61141c565b6040516102ab939291906123dc565b60405180910390f35b5f5f84116102f7576040517f08c379a00000000000000000000000000000000000000000000000000000000081526004016102ee9061245b565b60405180910390fd5b5f8311801561030557505f82115b610344576040517f08c379a000000000000000000000000000000000000000000000000000000000815260040161033b906124c3565b60405180910390fd5b8383610350919061250e565b828561035c9190612541565b61036691906125af565b90509392505050565b60606001805461037e9061260c565b80601f01602080910402602001604051908101604052809291908181526020018280546103aa9061260c565b80156103f55780601f106103cc576101008083540402835291602001916103f5565b820191905f5260205f20905b8154815290600101906020018083116103d857829003601f168201915b5050505050905090565b600360019054906101000a900473ffffffffffffffffffffffffffffffffffffffff1681565b60065481565b5f60035f9054906101000a900460ff16905090565b6060428211610484576040517f08c379a000000000000000000000000000000000000000000000000000000000815260040161047b90612686565b60405180910390fd5b6002858590501480156105125750848460018181106104a6576104a56126a4565b5b90506020020160208101906104bb91906126d1565b73ffffffffffffffffffffffffffffffffffffffff1685855f8181106104e4576104e36126a4565b5b90506020020160208101906104f991906126d1565b73ffffffffffffffffffffffffffffffffffffffff1614155b610551576040517f08c379a000000000000000000000000000000000000000000000000000000000815260040161054890612746565b60405180910390fd5b5f8711610593576040517f08c379a000000000000000000000000000000000000000000000000000000000815260040161058a906127ae565b60405180910390fd5b5f600360019054906101000a900473ffffffffffffffffffffffffffffffffffffffff1690505f60045f9054906101000a900473ffffffffffffffffffffffffffffffffffffffff1690505f60055490505f60065490508373ffffffffffffffffffffffffffffffffffffffff1689895f818110610614576106136126a4565b5b905060200201602081019061062991906126d1565b73ffffffffffffffffffffffffffffffffffffffff1614801561069f57508273ffffffffffffffffffffffffffffffffffffffff1689896001818110610672576106716126a4565b5b905060200201602081019061068791906126d1565b73ffffffffffffffffffffffffffffffffffffffff16145b8061075b57508273ffffffffffffffffffffffffffffffffffffffff1689895f8181106106cf576106ce6126a4565b5b90506020020160208101906106e491906126d1565b73ffffffffffffffffffffffffffffffffffffffff1614801561075a57508373ffffffffffffffffffffffffffffffffffffffff168989600181811061072d5761072c6126a4565b5b905060200201602081019061074291906126d1565b73ffffffffffffffffffffffffffffffffffffffff16145b5b61079a576040517f08c379a000000000000000000000000000000000000000000000000000000000815260040161079190612746565b60405180910390fd5b5f8473ffffffffffffffffffffffffffffffffffffffff168a8a5f8181106107c5576107c46126a4565b5b90506020020160208101906107da91906126d1565b73ffffffffffffffffffffffffffffffffffffffff160361097f578473ffffffffffffffffffffffffffffffffffffffff166323b872dd33308f6040518463ffffffff1660e01b8152600401610832939291906127cc565b6020604051808303815f875af115801561084e573d5f5f3e3d5ffd5b505050506040513d601f19601f820116820180604052508101906108729190612836565b508b8361087f919061250e565b828d61088b9190612541565b61089591906125af565b90508a8110156108da576040517f08c379a00000000000000000000000000000000000000000000000000000000081526004016108d1906128ab565b60405180910390fd5b8373ffffffffffffffffffffffffffffffffffffffff1663a9059cbb89836040518363ffffffff1660e01b81526004016109159291906128c9565b6020604051808303815f875af1158015610931573d5f5f3e3d5ffd5b505050506040513d601f19601f820116820180604052508101906109559190612836565b508b83610962919061250e565b600581905550808261097491906128f0565b600681905550610b05565b8373ffffffffffffffffffffffffffffffffffffffff166323b872dd33308f6040518463ffffffff1660e01b81526004016109bc939291906127cc565b6020604051808303815f875af11580156109d8573d5f5f3e3d5ffd5b505050506040513d601f19601f820116820180604052508101906109fc9190612836565b508b82610a09919061250e565b838d610a159190612541565b610a1f91906125af565b90508a811015610a64576040517f08c379a0000000000000000000000000000000000000000000000000000000008152600401610a5b906128ab565b60405180910390fd5b8473ffffffffffffffffffffffffffffffffffffffff1663a9059cbb89836040518363ffffffff1660e01b8152600401610a9f9291906128c9565b6020604051808303815f875af1158015610abb573d5f5f3e3d5ffd5b505050506040513d601f19601f82011682018060405250810190610adf9190612836565b508083610aec91906128f0565b6005819055508b82610afe919061250e565b6006819055505b600267ffffffffffffffff811115610b2057610b1f612923565b5b604051908082528060200260200182016040528015610b4e5781602001602082028036833780820191505090505b5095508b865f81518110610b6557610b646126a4565b5b6020026020010181815250508086600181518110610b8657610b856126a4565b5b6020026020010181815250503373ffffffffffffffffffffffffffffffffffffffff167f631fb37dba9bbcb8b2f3be2d669e365ae9f1bd850cc57dfe8b7ccd7d979a2bba8b8b5f818110610bdd57610bdc6126a4565b5b9050602002016020810190610bf291906126d1565b8e8d8d6001818110610c0757610c066126a4565b5b9050602002016020810190610c1c91906126d1565b85604051610c2d9493929190612950565b60405180910390a250505050509695505050505050565b60045f9054906101000a900473ffffffffffffffffffffffffffffffffffffffff1681565b5f5f9054906101000a900473ffffffffffffffffffffffffffffffffffffffff1681565b606060028054610c9c9061260c565b80601f0160208091040260200160405190810160405280929190818152602001828054610cc89061260c565b8015610d135780601f10610cea57610100808354040283529160200191610d13565b820191905f5260205f20905b815481529060010190602001808311610cf657829003601f168201915b5050505050905090565b5f600360019054906101000a900473ffffffffffffffffffffffffffffffffffffffff1673ffffffffffffffffffffffffffffffffffffffff168373ffffffffffffffffffffffffffffffffffffffff16148015610dc7575060045f9054906101000a900473ffffffffffffffffffffffffffffffffffffffff1673ffffffffffffffffffffffffffffffffffffffff168273ffffffffffffffffffffffffffffffffffffffff16145b80610e77575060045f9054906101000a900473ffffffffffffffffffffffffffffffffffffffff1673ffffffffffffffffffffffffffffffffffffffff168373ffffffffffffffffffffffffffffffffffffffff16148015610e765750600360019054906101000a900473ffffffffffffffffffffffffffffffffffffffff1673ffffffffffffffffffffffffffffffffffffffff168273ffffffffffffffffffffffffffffffffffffffff16145b5b610eb6576040517f08c379a0000000000000000000000000000000000000000000000000000000008152600401610ead906129dd565b60405180910390fd5b5f60055490505f60065490505f8211610f04576040517f08c379a0000000000000000000000000000000000000000000000000000000008152600401610efb90612a45565b60405180910390fd5b81670de0b6b3a764000082610f199190612541565b610f2391906125af565b9250505092915050565b5f5f428311610f71576040517f08c379a0000000000000000000000000000000000000000000000000000000008152600401610f6890612aad565b60405180910390fd5b5f60055490505f60065490505f60075490505f60085f3373ffffffffffffffffffffffffffffffffffffffff1673ffffffffffffffffffffffffffffffffffffffff1681526020019081526020015f20549050600360019054906101000a900473ffffffffffffffffffffffffffffffffffffffff1673ffffffffffffffffffffffffffffffffffffffff168d73ffffffffffffffffffffffffffffffffffffffff1614801561106d575060045f9054906101000a900473ffffffffffffffffffffffffffffffffffffffff1673ffffffffffffffffffffffffffffffffffffffff168c73ffffffffffffffffffffffffffffffffffffffff16145b6110ac576040517f08c379a00000000000000000000000000000000000000000000000000000000081526004016110a390612b15565b60405180910390fd5b81848c6110b99190612541565b6110c391906125af565b955081838c6110d29190612541565b6110dc91906125af565b945089861015611121576040517f08c379a000000000000000000000000000000000000000000000000000000000815260040161111890612b7d565b60405180910390fd5b88851015611164576040517f08c379a000000000000000000000000000000000000000000000000000000000815260040161115b90612be5565b60405180910390fd5b8a8110156111a7576040517f08c379a000000000000000000000000000000000000000000000000000000000815260040161119e90612c4d565b60405180910390fd5b8584101580156111b75750848310155b6111f6576040517f08c379a00000000000000000000000000000000000000000000000000000000081526004016111ed90612cb5565b60405180910390fd5b8a8161120291906128f0565b60085f3373ffffffffffffffffffffffffffffffffffffffff1673ffffffffffffffffffffffffffffffffffffffff1681526020019081526020015f20819055508a8261124f91906128f0565b600781905550600360019054906101000a900473ffffffffffffffffffffffffffffffffffffffff1673ffffffffffffffffffffffffffffffffffffffff1663a9059cbb89886040518363ffffffff1660e01b81526004016112b29291906128c9565b6020604051808303815f875af11580156112ce573d5f5f3e3d5ffd5b505050506040513d601f19601f820116820180604052508101906112f29190612836565b5060045f9054906101000a900473ffffffffffffffffffffffffffffffffffffffff1673ffffffffffffffffffffffffffffffffffffffff1663a9059cbb89876040518363ffffffff1660e01b815260040161134f9291906128c9565b6020604051808303815f875af115801561136b573d5f5f3e3d5ffd5b505050506040513d601f19601f8201168201806040525081019061138f9190612836565b50858461139c91906128f0565b60058190555084836113ae91906128f0565b6006819055503373ffffffffffffffffffffffffffffffffffffffff167f1dc8bb69df2b8e91fbdcbfcf93d951b3f0000f085a95fe3f7946d6161439245d87878e6040516113fe939291906123dc565b60405180910390a25050505097509795505050505050565b60055481565b5f5f5f5f600360019054906101000a900473ffffffffffffffffffffffffffffffffffffffff1690505f60045f9054906101000a900473ffffffffffffffffffffffffffffffffffffffff1690505f60055414801561147c57505f600654145b1561184b575f5f9054906101000a900473ffffffffffffffffffffffffffffffffffffffff1673ffffffffffffffffffffffffffffffffffffffff163373ffffffffffffffffffffffffffffffffffffffff161461150f576040517f08c379a000000000000000000000000000000000000000000000000000000000815260040161150690612d1d565b60405180910390fd5b5f5f9054906101000a900473ffffffffffffffffffffffffffffffffffffffff1673ffffffffffffffffffffffffffffffffffffffff168773ffffffffffffffffffffffffffffffffffffffff161461159d576040517f08c379a000000000000000000000000000000000000000000000000000000000815260040161159490612d85565b60405180910390fd5b888b10156115e0576040517f08c379a00000000000000000000000000000000000000000000000000000000081526004016115d790612ded565b60405180910390fd5b878a1015611623576040517f08c379a000000000000000000000000000000000000000000000000000000000815260040161161a90612e55565b60405180910390fd5b8a945089935061163d84866116389190612541565b611c8e565b92508173ffffffffffffffffffffffffffffffffffffffff166323b872dd5f5f9054906101000a900473ffffffffffffffffffffffffffffffffffffffff1630886040518463ffffffff1660e01b815260040161169c939291906127cc565b6020604051808303815f875af11580156116b8573d5f5f3e3d5ffd5b505050506040513d601f19601f820116820180604052508101906116dc9190612836565b508073ffffffffffffffffffffffffffffffffffffffff166323b872dd5f5f9054906101000a900473ffffffffffffffffffffffffffffffffffffffff1630876040518463ffffffff1660e01b815260040161173a939291906127cc565b6020604051808303815f875af1158015611756573d5f5f3e3d5ffd5b505050506040513d601f19601f8201168201806040525081019061177a9190612836565b508460058190555083600681905550826007819055508260085f8973ffffffffffffffffffffffffffffffffffffffff1673ffffffffffffffffffffffffffffffffffffffff1681526020019081526020015f20819055505f5f9054906101000a900473ffffffffffffffffffffffffffffffffffffffff1673ffffffffffffffffffffffffffffffffffffffff167fb74e6471b3628e5564a820a208c77a7cdc392155b3b943031f2926e8347a65ec86868660405161183c939291906123dc565b60405180910390a25050611c80565b42861161188d576040517f08c379a000000000000000000000000000000000000000000000000000000000815260040161188490612aad565b60405180910390fd5b8173ffffffffffffffffffffffffffffffffffffffff168d73ffffffffffffffffffffffffffffffffffffffff161480156118f357508073ffffffffffffffffffffffffffffffffffffffff168c73ffffffffffffffffffffffffffffffffffffffff16145b611932576040517f08c379a000000000000000000000000000000000000000000000000000000000815260040161192990612b15565b60405180910390fd5b5f60055490505f60065490505f82828f61194c9190612541565b61195691906125af565b90508c81116119ad578a8110156119a2576040517f08c379a000000000000000000000000000000000000000000000000000000000815260040161199990612ebd565b60405180910390fd5b8d9750809650611a55565b5f82848f6119bb9190612541565b6119c591906125af565b90508e811115611a0a576040517f08c379a0000000000000000000000000000000000000000000000000000000008152600401611a0190612f25565b60405180910390fd5b8c811015611a4d576040517f08c379a0000000000000000000000000000000000000000000000000000000008152600401611a4490612f8d565b60405180910390fd5b8098508d9750505b8473ffffffffffffffffffffffffffffffffffffffff166323b872dd33308b6040518463ffffffff1660e01b8152600401611a92939291906127cc565b6020604051808303815f875af1158015611aae573d5f5f3e3d5ffd5b505050506040513d601f19601f82011682018060405250810190611ad29190612836565b508373ffffffffffffffffffffffffffffffffffffffff166323b872dd33308a6040518463ffffffff1660e01b8152600401611b10939291906127cc565b6020604051808303815f875af1158015611b2c573d5f5f3e3d5ffd5b505050506040513d601f19601f82011682018060405250810190611b509190612836565b50611b8b836007548a611b639190612541565b611b6d91906125af565b836007548a611b7c9190612541565b611b8691906125af565b611e28565b95508760055f828254611b9e919061250e565b925050819055508660065f828254611bb6919061250e565b925050819055508560075f828254611bce919061250e565b925050819055508560085f8c73ffffffffffffffffffffffffffffffffffffffff1673ffffffffffffffffffffffffffffffffffffffff1681526020019081526020015f205f828254611c21919061250e565b925050819055503373ffffffffffffffffffffffffffffffffffffffff167f64b83944e79c3ce8d4c297411de637c3e102d064677aac0c163976ebdcd6f50e898989604051611c72939291906123dc565b60405180910390a250505050505b985098509895505050505050565b5f60018211611c9f57819050611e23565b5f8290505f600190507001000000000000000000000000000000008210611ccf57608082901c9150604081901b90505b680100000000000000008210611cee57604082901c9150602081901b90505b6401000000008210611d0957602082901c9150601081901b90505b620100008210611d2257601082901c9150600881901b90505b6101008210611d3a57600882901c9150600481901b90505b60108210611d5157600482901c9150600281901b90505b60048210611d6157600181901b90505b600181600302901c90506001818581611d7d57611d7c612582565b5b048201901c90506001818581611d9657611d95612582565b5b048201901c90506001818581611daf57611dae612582565b5b048201901c90506001818581611dc857611dc7612582565b5b048201901c90506001818581611de157611de0612582565b5b048201901c90506001818581611dfa57611df9612582565b5b048201901c9050611e1c818581611e1457611e13612582565b5b048211611e3e565b8103925050505b919050565b5f611e368284108484611e49565b905092915050565b5f8115159050919050565b5f611e5384611e3e565b82841802821890509392505050565b5f5ffd5b5f5ffd5b5f819050919050565b611e7c81611e6a565b8114611e86575f5ffd5b50565b5f81359050611e9781611e73565b92915050565b5f5f5f60608486031215611eb457611eb3611e62565b5b5f611ec186828701611e89565b9350506020611ed286828701611e89565b9250506040611ee386828701611e89565b9150509250925092565b611ef681611e6a565b82525050565b5f602082019050611f0f5f830184611eed565b92915050565b5f81519050919050565b5f82825260208201905092915050565b8281835e5f83830152505050565b5f601f19601f8301169050919050565b5f611f5782611f15565b611f618185611f1f565b9350611f71818560208601611f2f565b611f7a81611f3d565b840191505092915050565b5f6020820190508181035f830152611f9d8184611f4d565b905092915050565b5f73ffffffffffffffffffffffffffffffffffffffff82169050919050565b5f611fce82611fa5565b9050919050565b611fde81611fc4565b82525050565b5f602082019050611ff75f830184611fd5565b92915050565b5f60ff82169050919050565b61201281611ffd565b82525050565b5f60208201905061202b5f830184612009565b92915050565b5f5ffd5b5f5ffd5b5f5ffd5b5f5f83601f84011261205257612051612031565b5b8235905067ffffffffffffffff81111561206f5761206e612035565b5b60208301915083602082028301111561208b5761208a612039565b5b9250929050565b61209b81611fc4565b81146120a5575f5ffd5b50565b5f813590506120b681612092565b92915050565b5f5f5f5f5f5f60a087890312156120d6576120d5611e62565b5b5f6120e389828a01611e89565b96505060206120f489828a01611e89565b955050604087013567ffffffffffffffff81111561211557612114611e66565b5b61212189828a0161203d565b9450945050606061213489828a016120a8565b925050608061214589828a01611e89565b9150509295509295509295565b5f81519050919050565b5f82825260208201905092915050565b5f819050602082019050919050565b61218481611e6a565b82525050565b5f612195838361217b565b60208301905092915050565b5f602082019050919050565b5f6121b782612152565b6121c1818561215c565b93506121cc8361216c565b805f5b838110156121fc5781516121e3888261218a565b97506121ee836121a1565b9250506001810190506121cf565b5085935050505092915050565b5f6020820190508181035f83015261222181846121ad565b905092915050565b5f5f6040838503121561223f5761223e611e62565b5b5f61224c858286016120a8565b925050602061225d858286016120a8565b9150509250929050565b5f5f5f5f5f5f5f60e0888a03121561228257612281611e62565b5b5f61228f8a828b016120a8565b97505060206122a08a828b016120a8565b96505060406122b18a828b01611e89565b95505060606122c28a828b01611e89565b94505060806122d38a828b01611e89565b93505060a06122e48a828b016120a8565b92505060c06122f58a828b01611e89565b91505092959891949750929550565b5f6040820190506123175f830185611eed565b6123246020830184611eed565b9392505050565b5f5f5f5f5f5f5f5f610100898b03121561234857612347611e62565b5b5f6123558b828c016120a8565b98505060206123668b828c016120a8565b97505060406123778b828c01611e89565b96505060606123888b828c01611e89565b95505060806123998b828c01611e89565b94505060a06123aa8b828c01611e89565b93505060c06123bb8b828c016120a8565b92505060e06123cc8b828c01611e89565b9150509295985092959890939650565b5f6060820190506123ef5f830186611eed565b6123fc6020830185611eed565b6124096040830184611eed565b949350505050565b7f416d6f756e74496e203c203000000000000000000000000000000000000000005f82015250565b5f612445600c83611f1f565b915061245082612411565b602082019050919050565b5f6020820190508181035f83015261247281612439565b9050919050565b7f5265736572766573203c203000000000000000000000000000000000000000005f82015250565b5f6124ad600c83611f1f565b91506124b882612479565b602082019050919050565b5f6020820190508181035f8301526124da816124a1565b9050919050565b7f4e487b71000000000000000000000000000000000000000000000000000000005f52601160045260245ffd5b5f61251882611e6a565b915061252383611e6a565b925082820190508082111561253b5761253a6124e1565b5b92915050565b5f61254b82611e6a565b915061255683611e6a565b925082820261256481611e6a565b9150828204841483151761257b5761257a6124e1565b5b5092915050565b7f4e487b71000000000000000000000000000000000000000000000000000000005f52601260045260245ffd5b5f6125b982611e6a565b91506125c483611e6a565b9250826125d4576125d3612582565b5b828204905092915050565b7f4e487b71000000000000000000000000000000000000000000000000000000005f52602260045260245ffd5b5f600282049050600182168061262357607f821691505b602082108103612636576126356125df565b5b50919050565b7f5472616e736163742065787069726564000000000000000000000000000000005f82015250565b5f612670601083611f1f565b915061267b8261263c565b602082019050919050565b5f6020820190508181035f83015261269d81612664565b9050919050565b7f4e487b71000000000000000000000000000000000000000000000000000000005f52603260045260245ffd5b5f602082840312156126e6576126e5611e62565b5b5f6126f3848285016120a8565b91505092915050565b7f696e76616c696420746f6b656e730000000000000000000000000000000000005f82015250565b5f612730600e83611f1f565b915061273b826126fc565b602082019050919050565b5f6020820190508181035f83015261275d81612724565b9050919050565b7f616d6f756e74496e2030000000000000000000000000000000000000000000005f82015250565b5f612798600a83611f1f565b91506127a382612764565b602082019050919050565b5f6020820190508181035f8301526127c58161278c565b9050919050565b5f6060820190506127df5f830186611fd5565b6127ec6020830185611fd5565b6127f96040830184611eed565b949350505050565b5f8115159050919050565b61281581612801565b811461281f575f5ffd5b50565b5f815190506128308161280c565b92915050565b5f6020828403121561284b5761284a611e62565b5b5f61285884828501612822565b91505092915050565b7f696e73756666696369656e7420616d6f756e744f7574000000000000000000005f82015250565b5f612895601683611f1f565b91506128a082612861565b602082019050919050565b5f6020820190508181035f8301526128c281612889565b9050919050565b5f6040820190506128dc5f830185611fd5565b6128e96020830184611eed565b9392505050565b5f6128fa82611e6a565b915061290583611e6a565b925082820390508181111561291d5761291c6124e1565b5b92915050565b7f4e487b71000000000000000000000000000000000000000000000000000000005f52604160045260245ffd5b5f6080820190506129635f830187611fd5565b6129706020830186611eed565b61297d6040830185611fd5565b61298a6060830184611eed565b95945050505050565b7f496e76616c696420746f6b656e730000000000000000000000000000000000005f82015250565b5f6129c7600e83611f1f565b91506129d282612993565b602082019050919050565b5f6020820190508181035f8301526129f4816129bb565b9050919050565b7f4e6f2041207265736572766500000000000000000000000000000000000000005f82015250565b5f612a2f600c83611f1f565b9150612a3a826129fb565b602082019050919050565b5f6020820190508181035f830152612a5c81612a23565b9050919050565b7f65787069726564000000000000000000000000000000000000000000000000005f82015250565b5f612a97600783611f1f565b9150612aa282612a63565b602082019050919050565b5f6020820190508181035f830152612ac481612a8b565b9050919050565b7f62616420706169720000000000000000000000000000000000000000000000005f82015250565b5f612aff600883611f1f565b9150612b0a82612acb565b602082019050919050565b5f6020820190508181035f830152612b2c81612af3565b9050919050565b7f41203c206d696e000000000000000000000000000000000000000000000000005f82015250565b5f612b67600783611f1f565b9150612b7282612b33565b602082019050919050565b5f6020820190508181035f830152612b9481612b5b565b9050919050565b7f42203c206d696e000000000000000000000000000000000000000000000000005f82015250565b5f612bcf600783611f1f565b9150612bda82612b9b565b602082019050919050565b5f6020820190508181035f830152612bfc81612bc3565b9050919050565b7f4c50206c6f7700000000000000000000000000000000000000000000000000005f82015250565b5f612c37600683611f1f565b9150612c4282612c03565b602082019050919050565b5f6020820190508181035f830152612c6481612c2b565b9050919050565b7f7265736572766573206c6f7700000000000000000000000000000000000000005f82015250565b5f612c9f600c83611f1f565b9150612caa82612c6b565b602082019050919050565b5f6020820190508181035f830152612ccc81612c93565b9050919050565b7f6f6e6c79206f776e6572000000000000000000000000000000000000000000005f82015250565b5f612d07600a83611f1f565b9150612d1282612cd3565b602082019050919050565b5f6020820190508181035f830152612d3481612cfb565b9050919050565b7f696e6974204c50206f6e6c79206f776e657200000000000000000000000000005f82015250565b5f612d6f601283611f1f565b9150612d7a82612d3b565b602082019050919050565b5f6020820190508181035f830152612d9c81612d63565b9050919050565b7f696e73756666696369656e7420410000000000000000000000000000000000005f82015250565b5f612dd7600e83611f1f565b9150612de282612da3565b602082019050919050565b5f6020820190508181035f830152612e0481612dcb565b9050919050565b7f696e73756666696369656e7420420000000000000000000000000000000000005f82015250565b5f612e3f600e83611f1f565b9150612e4a82612e0b565b602082019050919050565b5f6020820190508181035f830152612e6c81612e33565b9050919050565b7f42206c6f770000000000000000000000000000000000000000000000000000005f82015250565b5f612ea7600583611f1f565b9150612eb282612e73565b602082019050919050565b5f6020820190508181035f830152612ed481612e9b565b9050919050565b7f746f6f206d7563682041000000000000000000000000000000000000000000005f82015250565b5f612f0f600a83611f1f565b9150612f1a82612edb565b602082019050919050565b5f6020820190508181035f830152612f3c81612f03565b9050919050565b7f41206c6f770000000000000000000000000000000000000000000000000000005f82015250565b5f612f77600583611f1f565b9150612f8282612f43565b602082019050919050565b5f6020820190508181035f830152612fa481612f6b565b905091905056fea264697066735822122065a8a61d4f1a8e6f60f31ec48c6be94f6aebbbd2fdbd8bc7ff0d3e8079c85d1964736f6c634300081e0033",
			"opcodes": "PUSH1 0x80 PUSH1 0x40 MSTORE CALLVALUE DUP1 ISZERO PUSH2 0xF JUMPI PUSH0 PUSH0 REVERT JUMPDEST POP PUSH1 0x40 MLOAD PUSH2 0x3533 CODESIZE SUB DUP1 PUSH2 0x3533 DUP4 CODECOPY DUP2 DUP2 ADD PUSH1 0x40 MSTORE DUP2 ADD SWAP1 PUSH2 0x31 SWAP2 SWAP1 PUSH2 0x1FB JUMP JUMPDEST DUP2 PUSH1 0x3 PUSH1 0x1 PUSH2 0x100 EXP DUP2 SLOAD DUP2 PUSH20 0xFFFFFFFFFFFFFFFFFFFFFFFFFFFFFFFFFFFFFFFF MUL NOT AND SWAP1 DUP4 PUSH20 0xFFFFFFFFFFFFFFFFFFFFFFFFFFFFFFFFFFFFFFFF AND MUL OR SWAP1 SSTORE POP DUP1 PUSH1 0x4 PUSH0 PUSH2 0x100 EXP DUP2 SLOAD DUP2 PUSH20 0xFFFFFFFFFFFFFFFFFFFFFFFFFFFFFFFFFFFFFFFF MUL NOT AND SWAP1 DUP4 PUSH20 0xFFFFFFFFFFFFFFFFFFFFFFFFFFFFFFFFFFFFFFFF AND MUL OR SWAP1 SSTORE POP PUSH1 0x40 MLOAD DUP1 PUSH1 0x40 ADD PUSH1 0x40 MSTORE DUP1 PUSH1 0x13 DUP2 MSTORE PUSH1 0x20 ADD PUSH32 0x53696D706C6553776170204C5020546F6B656E00000000000000000000000000 DUP2 MSTORE POP PUSH1 0x1 SWAP1 DUP2 PUSH2 0xF6 SWAP2 SWAP1 PUSH2 0x476 JUMP JUMPDEST POP PUSH1 0x40 MLOAD DUP1 PUSH1 0x40 ADD PUSH1 0x40 MSTORE DUP1 PUSH1 0x4 DUP2 MSTORE PUSH1 0x20 ADD PUSH32 0x53534C5000000000000000000000000000000000000000000000000000000000 DUP2 MSTORE POP PUSH1 0x2 SWAP1 DUP2 PUSH2 0x13B SWAP2 SWAP1 PUSH2 0x476 JUMP JUMPDEST POP PUSH1 0x12 PUSH1 0x3 PUSH0 PUSH2 0x100 EXP DUP2 SLOAD DUP2 PUSH1 0xFF MUL NOT AND SWAP1 DUP4 PUSH1 0xFF AND MUL OR SWAP1 SSTORE POP CALLER PUSH0 PUSH0 PUSH2 0x100 EXP DUP2 SLOAD DUP2 PUSH20 0xFFFFFFFFFFFFFFFFFFFFFFFFFFFFFFFFFFFFFFFF MUL NOT AND SWAP1 DUP4 PUSH20 0xFFFFFFFFFFFFFFFFFFFFFFFFFFFFFFFFFFFFFFFF AND MUL OR SWAP1 SSTORE POP POP POP PUSH2 0x545 JUMP JUMPDEST PUSH0 PUSH0 REVERT JUMPDEST PUSH0 PUSH20 0xFFFFFFFFFFFFFFFFFFFFFFFFFFFFFFFFFFFFFFFF DUP3 AND SWAP1 POP SWAP2 SWAP1 POP JUMP JUMPDEST PUSH0 PUSH2 0x1CA DUP3 PUSH2 0x1A1 JUMP JUMPDEST SWAP1 POP SWAP2 SWAP1 POP JUMP JUMPDEST PUSH2 0x1DA DUP2 PUSH2 0x1C0 JUMP JUMPDEST DUP2 EQ PUSH2 0x1E4 JUMPI PUSH0 PUSH0 REVERT JUMPDEST POP JUMP JUMPDEST PUSH0 DUP2 MLOAD SWAP1 POP PUSH2 0x1F5 DUP2 PUSH2 0x1D1 JUMP JUMPDEST SWAP3 SWAP2 POP POP JUMP JUMPDEST PUSH0 PUSH0 PUSH1 0x40 DUP4 DUP6 SUB SLT ISZERO PUSH2 0x211 JUMPI PUSH2 0x210 PUSH2 0x19D JUMP JUMPDEST JUMPDEST PUSH0 PUSH2 0x21E DUP6 DUP3 DUP7 ADD PUSH2 0x1E7 JUMP JUMPDEST SWAP3 POP POP PUSH1 0x20 PUSH2 0x22F DUP6 DUP3 DUP7 ADD PUSH2 0x1E7 JUMP JUMPDEST SWAP2 POP POP SWAP3 POP SWAP3 SWAP1 POP JUMP JUMPDEST PUSH0 DUP2 MLOAD SWAP1 POP SWAP2 SWAP1 POP JUMP JUMPDEST PUSH32 0x4E487B7100000000000000000000000000000000000000000000000000000000 PUSH0 MSTORE PUSH1 0x41 PUSH1 0x4 MSTORE PUSH1 0x24 PUSH0 REVERT JUMPDEST PUSH32 0x4E487B7100000000000000000000000000000000000000000000000000000000 PUSH0 MSTORE PUSH1 0x22 PUSH1 0x4 MSTORE PUSH1 0x24 PUSH0 REVERT JUMPDEST PUSH0 PUSH1 0x2 DUP3 DIV SWAP1 POP PUSH1 0x1 DUP3 AND DUP1 PUSH2 0x2B4 JUMPI PUSH1 0x7F DUP3 AND SWAP2 POP JUMPDEST PUSH1 0x20 DUP3 LT DUP2 SUB PUSH2 0x2C7 JUMPI PUSH2 0x2C6 PUSH2 0x270 JUMP JUMPDEST JUMPDEST POP SWAP2 SWAP1 POP JUMP JUMPDEST PUSH0 DUP2 SWAP1 POP DUP2 PUSH0 MSTORE PUSH1 0x20 PUSH0 KECCAK256 SWAP1 POP SWAP2 SWAP1 POP JUMP JUMPDEST PUSH0 PUSH1 0x20 PUSH1 0x1F DUP4 ADD DIV SWAP1 POP SWAP2 SWAP1 POP JUMP JUMPDEST PUSH0 DUP3 DUP3 SHL SWAP1 POP SWAP3 SWAP2 POP POP JUMP JUMPDEST PUSH0 PUSH1 0x8 DUP4 MUL PUSH2 0x329 PUSH32 0xFFFFFFFFFFFFFFFFFFFFFFFFFFFFFFFFFFFFFFFFFFFFFFFFFFFFFFFFFFFFFFFF DUP3 PUSH2 0x2EE JUMP JUMPDEST PUSH2 0x333 DUP7 DUP4 PUSH2 0x2EE JUMP JUMPDEST SWAP6 POP DUP1 NOT DUP5 AND SWAP4 POP DUP1 DUP7 AND DUP5 OR SWAP3 POP POP POP SWAP4 SWAP3 POP POP POP JUMP JUMPDEST PUSH0 DUP2 SWAP1 POP SWAP2 SWAP1 POP JUMP JUMPDEST PUSH0 DUP2 SWAP1 POP SWAP2 SWAP1 POP JUMP JUMPDEST PUSH0 PUSH2 0x377 PUSH2 0x372 PUSH2 0x36D DUP5 PUSH2 0x34B JUMP JUMPDEST PUSH2 0x354 JUMP JUMPDEST PUSH2 0x34B JUMP JUMPDEST SWAP1 POP SWAP2 SWAP1 POP JUMP JUMPDEST PUSH0 DUP2 SWAP1 POP SWAP2 SWAP1 POP JUMP JUMPDEST PUSH2 0x390 DUP4 PUSH2 0x35D JUMP JUMPDEST PUSH2 0x3A4 PUSH2 0x39C DUP3 PUSH2 0x37E JUMP JUMPDEST DUP5 DUP5 SLOAD PUSH2 0x2FA JUMP JUMPDEST DUP3 SSTORE POP POP POP POP JUMP JUMPDEST PUSH0 PUSH0 SWAP1 POP SWAP1 JUMP JUMPDEST PUSH2 0x3BB PUSH2 0x3AC JUMP JUMPDEST PUSH2 0x3C6 DUP2 DUP5 DUP5 PUSH2 0x387 JUMP JUMPDEST POP POP POP JUMP JUMPDEST JUMPDEST DUP2 DUP2 LT ISZERO PUSH2 0x3E9 JUMPI PUSH2 0x3DE PUSH0 DUP3 PUSH2 0x3B3 JUMP JUMPDEST PUSH1 0x1 DUP2 ADD SWAP1 POP PUSH2 0x3CC JUMP JUMPDEST POP POP JUMP JUMPDEST PUSH1 0x1F DUP3 GT ISZERO PUSH2 0x42E JUMPI PUSH2 0x3FF DUP2 PUSH2 0x2CD JUMP JUMPDEST PUSH2 0x408 DUP5 PUSH2 0x2DF JUMP JUMPDEST DUP2 ADD PUSH1 0x20 DUP6 LT ISZERO PUSH2 0x417 JUMPI DUP2 SWAP1 POP JUMPDEST PUSH2 0x42B PUSH2 0x423 DUP6 PUSH2 0x2DF JUMP JUMPDEST DUP4 ADD DUP3 PUSH2 0x3CB JUMP JUMPDEST POP POP JUMPDEST POP POP POP JUMP JUMPDEST PUSH0 DUP3 DUP3 SHR SWAP1 POP SWAP3 SWAP2 POP POP JUMP JUMPDEST PUSH0 PUSH2 0x44E PUSH0 NOT DUP5 PUSH1 0x8 MUL PUSH2 0x433 JUMP JUMPDEST NOT DUP1 DUP4 AND SWAP2 POP POP SWAP3 SWAP2 POP POP JUMP JUMPDEST PUSH0 PUSH2 0x466 DUP4 DUP4 PUSH2 0x43F JUMP JUMPDEST SWAP2 POP DUP3 PUSH1 0x2 MUL DUP3 OR SWAP1 POP SWAP3 SWAP2 POP POP JUMP JUMPDEST PUSH2 0x47F DUP3 PUSH2 0x239 JUMP JUMPDEST PUSH8 0xFFFFFFFFFFFFFFFF DUP2 GT ISZERO PUSH2 0x498 JUMPI PUSH2 0x497 PUSH2 0x243 JUMP JUMPDEST JUMPDEST PUSH2 0x4A2 DUP3 SLOAD PUSH2 0x29D JUMP JUMPDEST PUSH2 0x4AD DUP3 DUP3 DUP6 PUSH2 0x3ED JUMP JUMPDEST PUSH0 PUSH1 0x20 SWAP1 POP PUSH1 0x1F DUP4 GT PUSH1 0x1 DUP2 EQ PUSH2 0x4DE JUMPI PUSH0 DUP5 ISZERO PUSH2 0x4CC JUMPI DUP3 DUP8 ADD MLOAD SWAP1 POP JUMPDEST PUSH2 0x4D6 DUP6 DUP3 PUSH2 0x45B JUMP JUMPDEST DUP7 SSTORE POP PUSH2 0x53D JUMP JUMPDEST PUSH1 0x1F NOT DUP5 AND PUSH2 0x4EC DUP7 PUSH2 0x2CD JUMP JUMPDEST PUSH0 JUMPDEST DUP3 DUP2 LT ISZERO PUSH2 0x513 JUMPI DUP5 DUP10 ADD MLOAD DUP3 SSTORE PUSH1 0x1 DUP3 ADD SWAP2 POP PUSH1 0x20 DUP6 ADD SWAP5 POP PUSH1 0x20 DUP2 ADD SWAP1 POP PUSH2 0x4EE JUMP JUMPDEST DUP7 DUP4 LT ISZERO PUSH2 0x530 JUMPI DUP5 DUP10 ADD MLOAD PUSH2 0x52C PUSH1 0x1F DUP10 AND DUP3 PUSH2 0x43F JUMP JUMPDEST DUP4 SSTORE POP JUMPDEST PUSH1 0x1 PUSH1 0x2 DUP9 MUL ADD DUP9 SSTORE POP POP POP JUMPDEST POP POP POP POP POP POP JUMP JUMPDEST PUSH2 0x2FE1 DUP1 PUSH2 0x552 PUSH0 CODECOPY PUSH0 RETURN INVALID PUSH1 0x80 PUSH1 0x40 MSTORE CALLVALUE DUP1 ISZERO PUSH2 0xF JUMPI PUSH0 PUSH0 REVERT JUMPDEST POP PUSH1 0x4 CALLDATASIZE LT PUSH2 0xCD JUMPI PUSH0 CALLDATALOAD PUSH1 0xE0 SHR DUP1 PUSH4 0x5F64B55B GT PUSH2 0x8A JUMPI DUP1 PUSH4 0xAC41865A GT PUSH2 0x64 JUMPI DUP1 PUSH4 0xAC41865A EQ PUSH2 0x203 JUMPI DUP1 PUSH4 0xBAA2ABDE EQ PUSH2 0x233 JUMPI DUP1 PUSH4 0xDC5FA6C5 EQ PUSH2 0x264 JUMPI DUP1 PUSH4 0xE8E33700 EQ PUSH2 0x282 JUMPI PUSH2 0xCD JUMP JUMPDEST DUP1 PUSH4 0x5F64B55B EQ PUSH2 0x1A9 JUMPI DUP1 PUSH4 0x8DA5CB5B EQ PUSH2 0x1C7 JUMPI DUP1 PUSH4 0x95D89B41 EQ PUSH2 0x1E5 JUMPI PUSH2 0xCD JUMP JUMPDEST DUP1 PUSH4 0x54D50D4 EQ PUSH2 0xD1 JUMPI DUP1 PUSH4 0x6FDDE03 EQ PUSH2 0x101 JUMPI DUP1 PUSH4 0xFC63D10 EQ PUSH2 0x11F JUMPI DUP1 PUSH4 0x19E36F3B EQ PUSH2 0x13D JUMPI DUP1 PUSH4 0x313CE567 EQ PUSH2 0x15B JUMPI DUP1 PUSH4 0x38ED1739 EQ PUSH2 0x179 JUMPI JUMPDEST PUSH0 PUSH0 REVERT JUMPDEST PUSH2 0xEB PUSH1 0x4 DUP1 CALLDATASIZE SUB DUP2 ADD SWAP1 PUSH2 0xE6 SWAP2 SWAP1 PUSH2 0x1E9D JUMP JUMPDEST PUSH2 0x2B4 JUMP JUMPDEST PUSH1 0x40 MLOAD PUSH2 0xF8 SWAP2 SWAP1 PUSH2 0x1EFC JUMP JUMPDEST PUSH1 0x40 MLOAD DUP1 SWAP2 SUB SWAP1 RETURN JUMPDEST PUSH2 0x109 PUSH2 0x36F JUMP JUMPDEST PUSH1 0x40 MLOAD PUSH2 0x116 SWAP2 SWAP1 PUSH2 0x1F85 JUMP JUMPDEST PUSH1 0x40 MLOAD DUP1 SWAP2 SUB SWAP1 RETURN JUMPDEST PUSH2 0x127 PUSH2 0x3FF JUMP JUMPDEST PUSH1 0x40 MLOAD PUSH2 0x134 SWAP2 SWAP1 PUSH2 0x1FE4 JUMP JUMPDEST PUSH1 0x40 MLOAD DUP1 SWAP2 SUB SWAP1 RETURN JUMPDEST PUSH2 0x145 PUSH2 0x425 JUMP JUMPDEST PUSH1 0x40 MLOAD PUSH2 0x152 SWAP2 SWAP1 PUSH2 0x1EFC JUMP JUMPDEST PUSH1 0x40 MLOAD DUP1 SWAP2 SUB SWAP1 RETURN JUMPDEST PUSH2 0x163 PUSH2 0x42B JUMP JUMPDEST PUSH1 0x40 MLOAD PUSH2 0x170 SWAP2 SWAP1 PUSH2 0x2018 JUMP JUMPDEST PUSH1 0x40 MLOAD DUP1 SWAP2 SUB SWAP1 RETURN JUMPDEST PUSH2 0x193 PUSH1 0x4 DUP1 CALLDATASIZE SUB DUP2 ADD SWAP1 PUSH2 0x18E SWAP2 SWAP1 PUSH2 0x20BC JUMP JUMPDEST PUSH2 0x440 JUMP JUMPDEST PUSH1 0x40 MLOAD PUSH2 0x1A0 SWAP2 SWAP1 PUSH2 0x2209 JUMP JUMPDEST PUSH1 0x40 MLOAD DUP1 SWAP2 SUB SWAP1 RETURN JUMPDEST PUSH2 0x1B1 PUSH2 0xC44 JUMP JUMPDEST PUSH1 0x40 MLOAD PUSH2 0x1BE SWAP2 SWAP1 PUSH2 0x1FE4 JUMP JUMPDEST PUSH1 0x40 MLOAD DUP1 SWAP2 SUB SWAP1 RETURN JUMPDEST PUSH2 0x1CF PUSH2 0xC69 JUMP JUMPDEST PUSH1 0x40 MLOAD PUSH2 0x1DC SWAP2 SWAP1 PUSH2 0x1FE4 JUMP JUMPDEST PUSH1 0x40 MLOAD DUP1 SWAP2 SUB SWAP1 RETURN JUMPDEST PUSH2 0x1ED PUSH2 0xC8D JUMP JUMPDEST PUSH1 0x40 MLOAD PUSH2 0x1FA SWAP2 SWAP1 PUSH2 0x1F85 JUMP JUMPDEST PUSH1 0x40 MLOAD DUP1 SWAP2 SUB SWAP1 RETURN JUMPDEST PUSH2 0x21D PUSH1 0x4 DUP1 CALLDATASIZE SUB DUP2 ADD SWAP1 PUSH2 0x218 SWAP2 SWAP1 PUSH2 0x2229 JUMP JUMPDEST PUSH2 0xD1D JUMP JUMPDEST PUSH1 0x40 MLOAD PUSH2 0x22A SWAP2 SWAP1 PUSH2 0x1EFC JUMP JUMPDEST PUSH1 0x40 MLOAD DUP1 SWAP2 SUB SWAP1 RETURN JUMPDEST PUSH2 0x24D PUSH1 0x4 DUP1 CALLDATASIZE SUB DUP2 ADD SWAP1 PUSH2 0x248 SWAP2 SWAP1 PUSH2 0x2267 JUMP JUMPDEST PUSH2 0xF2D JUMP JUMPDEST PUSH1 0x40 MLOAD PUSH2 0x25B SWAP3 SWAP2 SWAP1 PUSH2 0x2304 JUMP JUMPDEST PUSH1 0x40 MLOAD DUP1 SWAP2 SUB SWAP1 RETURN JUMPDEST PUSH2 0x26C PUSH2 0x1416 JUMP JUMPDEST PUSH1 0x40 MLOAD PUSH2 0x279 SWAP2 SWAP1 PUSH2 0x1EFC JUMP JUMPDEST PUSH1 0x40 MLOAD DUP1 SWAP2 SUB SWAP1 RETURN JUMPDEST PUSH2 0x29C PUSH1 0x4 DUP1 CALLDATASIZE SUB DUP2 ADD SWAP1 PUSH2 0x297 SWAP2 SWAP1 PUSH2 0x232B JUMP JUMPDEST PUSH2 0x141C JUMP JUMPDEST PUSH1 0x40 MLOAD PUSH2 0x2AB SWAP4 SWAP3 SWAP2 SWAP1 PUSH2 0x23DC JUMP JUMPDEST PUSH1 0x40 MLOAD DUP1 SWAP2 SUB SWAP1 RETURN JUMPDEST PUSH0 PUSH0 DUP5 GT PUSH2 0x2F7 JUMPI PUSH1 0x40 MLOAD PUSH32 0x8C379A000000000000000000000000000000000000000000000000000000000 DUP2 MSTORE PUSH1 0x4 ADD PUSH2 0x2EE SWAP1 PUSH2 0x245B JUMP JUMPDEST PUSH1 0x40 MLOAD DUP1 SWAP2 SUB SWAP1 REVERT JUMPDEST PUSH0 DUP4 GT DUP1 ISZERO PUSH2 0x305 JUMPI POP PUSH0 DUP3 GT JUMPDEST PUSH2 0x344 JUMPI PUSH1 0x40 MLOAD PUSH32 0x8C379A000000000000000000000000000000000000000000000000000000000 DUP2 MSTORE PUSH1 0x4 ADD PUSH2 0x33B SWAP1 PUSH2 0x24C3 JUMP JUMPDEST PUSH1 0x40 MLOAD DUP1 SWAP2 SUB SWAP1 REVERT JUMPDEST DUP4 DUP4 PUSH2 0x350 SWAP2 SWAP1 PUSH2 0x250E JUMP JUMPDEST DUP3 DUP6 PUSH2 0x35C SWAP2 SWAP1 PUSH2 0x2541 JUMP JUMPDEST PUSH2 0x366 SWAP2 SWAP1 PUSH2 0x25AF JUMP JUMPDEST SWAP1 POP SWAP4 SWAP3 POP POP POP JUMP JUMPDEST PUSH1 0x60 PUSH1 0x1 DUP1 SLOAD PUSH2 0x37E SWAP1 PUSH2 0x260C JUMP JUMPDEST DUP1 PUSH1 0x1F ADD PUSH1 0x20 DUP1 SWAP2 DIV MUL PUSH1 0x20 ADD PUSH1 0x40 MLOAD SWAP1 DUP2 ADD PUSH1 0x40 MSTORE DUP1 SWAP3 SWAP2 SWAP1 DUP2 DUP2 MSTORE PUSH1 0x20 ADD DUP3 DUP1 SLOAD PUSH2 0x3AA SWAP1 PUSH2 0x260C JUMP JUMPDEST DUP1 ISZERO PUSH2 0x3F5 JUMPI DUP1 PUSH1 0x1F LT PUSH2 0x3CC JUMPI PUSH2 0x100 DUP1 DUP4 SLOAD DIV MUL DUP4 MSTORE SWAP2 PUSH1 0x20 ADD SWAP2 PUSH2 0x3F5 JUMP JUMPDEST DUP3 ADD SWAP2 SWAP1 PUSH0 MSTORE PUSH1 0x20 PUSH0 KECCAK256 SWAP1 JUMPDEST DUP2 SLOAD DUP2 MSTORE SWAP1 PUSH1 0x1 ADD SWAP1 PUSH1 0x20 ADD DUP1 DUP4 GT PUSH2 0x3D8 JUMPI DUP3 SWAP1 SUB PUSH1 0x1F AND DUP3 ADD SWAP2 JUMPDEST POP POP POP POP POP SWAP1 POP SWAP1 JUMP JUMPDEST PUSH1 0x3 PUSH1 0x1 SWAP1 SLOAD SWAP1 PUSH2 0x100 EXP SWAP1 DIV PUSH20 0xFFFFFFFFFFFFFFFFFFFFFFFFFFFFFFFFFFFFFFFF AND DUP2 JUMP JUMPDEST PUSH1 0x6 SLOAD DUP2 JUMP JUMPDEST PUSH0 PUSH1 0x3 PUSH0 SWAP1 SLOAD SWAP1 PUSH2 0x100 EXP SWAP1 DIV PUSH1 0xFF AND SWAP1 POP SWAP1 JUMP JUMPDEST PUSH1 0x60 TIMESTAMP DUP3 GT PUSH2 0x484 JUMPI PUSH1 0x40 MLOAD PUSH32 0x8C379A000000000000000000000000000000000000000000000000000000000 DUP2 MSTORE PUSH1 0x4 ADD PUSH2 0x47B SWAP1 PUSH2 0x2686 JUMP JUMPDEST PUSH1 0x40 MLOAD DUP1 SWAP2 SUB SWAP1 REVERT JUMPDEST PUSH1 0x2 DUP6 DUP6 SWAP1 POP EQ DUP1 ISZERO PUSH2 0x512 JUMPI POP DUP5 DUP5 PUSH1 0x1 DUP2 DUP2 LT PUSH2 0x4A6 JUMPI PUSH2 0x4A5 PUSH2 0x26A4 JUMP JUMPDEST JUMPDEST SWAP1 POP PUSH1 0x20 MUL ADD PUSH1 0x20 DUP2 ADD SWAP1 PUSH2 0x4BB SWAP2 SWAP1 PUSH2 0x26D1 JUMP JUMPDEST PUSH20 0xFFFFFFFFFFFFFFFFFFFFFFFFFFFFFFFFFFFFFFFF AND DUP6 DUP6 PUSH0 DUP2 DUP2 LT PUSH2 0x4E4 JUMPI PUSH2 0x4E3 PUSH2 0x26A4 JUMP JUMPDEST JUMPDEST SWAP1 POP PUSH1 0x20 MUL ADD PUSH1 0x20 DUP2 ADD SWAP1 PUSH2 0x4F9 SWAP2 SWAP1 PUSH2 0x26D1 JUMP JUMPDEST PUSH20 0xFFFFFFFFFFFFFFFFFFFFFFFFFFFFFFFFFFFFFFFF AND EQ ISZERO JUMPDEST PUSH2 0x551 JUMPI PUSH1 0x40 MLOAD PUSH32 0x8C379A000000000000000000000000000000000000000000000000000000000 DUP2 MSTORE PUSH1 0x4 ADD PUSH2 0x548 SWAP1 PUSH2 0x2746 JUMP JUMPDEST PUSH1 0x40 MLOAD DUP1 SWAP2 SUB SWAP1 REVERT JUMPDEST PUSH0 DUP8 GT PUSH2 0x593 JUMPI PUSH1 0x40 MLOAD PUSH32 0x8C379A000000000000000000000000000000000000000000000000000000000 DUP2 MSTORE PUSH1 0x4 ADD PUSH2 0x58A SWAP1 PUSH2 0x27AE JUMP JUMPDEST PUSH1 0x40 MLOAD DUP1 SWAP2 SUB SWAP1 REVERT JUMPDEST PUSH0 PUSH1 0x3 PUSH1 0x1 SWAP1 SLOAD SWAP1 PUSH2 0x100 EXP SWAP1 DIV PUSH20 0xFFFFFFFFFFFFFFFFFFFFFFFFFFFFFFFFFFFFFFFF AND SWAP1 POP PUSH0 PUSH1 0x4 PUSH0 SWAP1 SLOAD SWAP1 PUSH2 0x100 EXP SWAP1 DIV PUSH20 0xFFFFFFFFFFFFFFFFFFFFFFFFFFFFFFFFFFFFFFFF AND SWAP1 POP PUSH0 PUSH1 0x5 SLOAD SWAP1 POP PUSH0 PUSH1 0x6 SLOAD SWAP1 POP DUP4 PUSH20 0xFFFFFFFFFFFFFFFFFFFFFFFFFFFFFFFFFFFFFFFF AND DUP10 DUP10 PUSH0 DUP2 DUP2 LT PUSH2 0x614 JUMPI PUSH2 0x613 PUSH2 0x26A4 JUMP JUMPDEST JUMPDEST SWAP1 POP PUSH1 0x20 MUL ADD PUSH1 0x20 DUP2 ADD SWAP1 PUSH2 0x629 SWAP2 SWAP1 PUSH2 0x26D1 JUMP JUMPDEST PUSH20 0xFFFFFFFFFFFFFFFFFFFFFFFFFFFFFFFFFFFFFFFF AND EQ DUP1 ISZERO PUSH2 0x69F JUMPI POP DUP3 PUSH20 0xFFFFFFFFFFFFFFFFFFFFFFFFFFFFFFFFFFFFFFFF AND DUP10 DUP10 PUSH1 0x1 DUP2 DUP2 LT PUSH2 0x672 JUMPI PUSH2 0x671 PUSH2 0x26A4 JUMP JUMPDEST JUMPDEST SWAP1 POP PUSH1 0x20 MUL ADD PUSH1 0x20 DUP2 ADD SWAP1 PUSH2 0x687 SWAP2 SWAP1 PUSH2 0x26D1 JUMP JUMPDEST PUSH20 0xFFFFFFFFFFFFFFFFFFFFFFFFFFFFFFFFFFFFFFFF AND EQ JUMPDEST DUP1 PUSH2 0x75B JUMPI POP DUP3 PUSH20 0xFFFFFFFFFFFFFFFFFFFFFFFFFFFFFFFFFFFFFFFF AND DUP10 DUP10 PUSH0 DUP2 DUP2 LT PUSH2 0x6CF JUMPI PUSH2 0x6CE PUSH2 0x26A4 JUMP JUMPDEST JUMPDEST SWAP1 POP PUSH1 0x20 MUL ADD PUSH1 0x20 DUP2 ADD SWAP1 PUSH2 0x6E4 SWAP2 SWAP1 PUSH2 0x26D1 JUMP JUMPDEST PUSH20 0xFFFFFFFFFFFFFFFFFFFFFFFFFFFFFFFFFFFFFFFF AND EQ DUP1 ISZERO PUSH2 0x75A JUMPI POP DUP4 PUSH20 0xFFFFFFFFFFFFFFFFFFFFFFFFFFFFFFFFFFFFFFFF AND DUP10 DUP10 PUSH1 0x1 DUP2 DUP2 LT PUSH2 0x72D JUMPI PUSH2 0x72C PUSH2 0x26A4 JUMP JUMPDEST JUMPDEST SWAP1 POP PUSH1 0x20 MUL ADD PUSH1 0x20 DUP2 ADD SWAP1 PUSH2 0x742 SWAP2 SWAP1 PUSH2 0x26D1 JUMP JUMPDEST PUSH20 0xFFFFFFFFFFFFFFFFFFFFFFFFFFFFFFFFFFFFFFFF AND EQ JUMPDEST JUMPDEST PUSH2 0x79A JUMPI PUSH1 0x40 MLOAD PUSH32 0x8C379A000000000000000000000000000000000000000000000000000000000 DUP2 MSTORE PUSH1 0x4 ADD PUSH2 0x791 SWAP1 PUSH2 0x2746 JUMP JUMPDEST PUSH1 0x40 MLOAD DUP1 SWAP2 SUB SWAP1 REVERT JUMPDEST PUSH0 DUP5 PUSH20 0xFFFFFFFFFFFFFFFFFFFFFFFFFFFFFFFFFFFFFFFF AND DUP11 DUP11 PUSH0 DUP2 DUP2 LT PUSH2 0x7C5 JUMPI PUSH2 0x7C4 PUSH2 0x26A4 JUMP JUMPDEST JUMPDEST SWAP1 POP PUSH1 0x20 MUL ADD PUSH1 0x20 DUP2 ADD SWAP1 PUSH2 0x7DA SWAP2 SWAP1 PUSH2 0x26D1 JUMP JUMPDEST PUSH20 0xFFFFFFFFFFFFFFFFFFFFFFFFFFFFFFFFFFFFFFFF AND SUB PUSH2 0x97F JUMPI DUP5 PUSH20 0xFFFFFFFFFFFFFFFFFFFFFFFFFFFFFFFFFFFFFFFF AND PUSH4 0x23B872DD CALLER ADDRESS DUP16 PUSH1 0x40 MLOAD DUP5 PUSH4 0xFFFFFFFF AND PUSH1 0xE0 SHL DUP2 MSTORE PUSH1 0x4 ADD PUSH2 0x832 SWAP4 SWAP3 SWAP2 SWAP1 PUSH2 0x27CC JUMP JUMPDEST PUSH1 0x20 PUSH1 0x40 MLOAD DUP1 DUP4 SUB DUP2 PUSH0 DUP8 GAS CALL ISZERO DUP1 ISZERO PUSH2 0x84E JUMPI RETURNDATASIZE PUSH0 PUSH0 RETURNDATACOPY RETURNDATASIZE PUSH0 REVERT JUMPDEST POP POP POP POP PUSH1 0x40 MLOAD RETURNDATASIZE PUSH1 0x1F NOT PUSH1 0x1F DUP3 ADD AND DUP3 ADD DUP1 PUSH1 0x40 MSTORE POP DUP2 ADD SWAP1 PUSH2 0x872 SWAP2 SWAP1 PUSH2 0x2836 JUMP JUMPDEST POP DUP12 DUP4 PUSH2 0x87F SWAP2 SWAP1 PUSH2 0x250E JUMP JUMPDEST DUP3 DUP14 PUSH2 0x88B SWAP2 SWAP1 PUSH2 0x2541 JUMP JUMPDEST PUSH2 0x895 SWAP2 SWAP1 PUSH2 0x25AF JUMP JUMPDEST SWAP1 POP DUP11 DUP2 LT ISZERO PUSH2 0x8DA JUMPI PUSH1 0x40 MLOAD PUSH32 0x8C379A000000000000000000000000000000000000000000000000000000000 DUP2 MSTORE PUSH1 0x4 ADD PUSH2 0x8D1 SWAP1 PUSH2 0x28AB JUMP JUMPDEST PUSH1 0x40 MLOAD DUP1 SWAP2 SUB SWAP1 REVERT JUMPDEST DUP4 PUSH20 0xFFFFFFFFFFFFFFFFFFFFFFFFFFFFFFFFFFFFFFFF AND PUSH4 0xA9059CBB DUP10 DUP4 PUSH1 0x40 MLOAD DUP4 PUSH4 0xFFFFFFFF AND PUSH1 0xE0 SHL DUP2 MSTORE PUSH1 0x4 ADD PUSH2 0x915 SWAP3 SWAP2 SWAP1 PUSH2 0x28C9 JUMP JUMPDEST PUSH1 0x20 PUSH1 0x40 MLOAD DUP1 DUP4 SUB DUP2 PUSH0 DUP8 GAS CALL ISZERO DUP1 ISZERO PUSH2 0x931 JUMPI RETURNDATASIZE PUSH0 PUSH0 RETURNDATACOPY RETURNDATASIZE PUSH0 REVERT JUMPDEST POP POP POP POP PUSH1 0x40 MLOAD RETURNDATASIZE PUSH1 0x1F NOT PUSH1 0x1F DUP3 ADD AND DUP3 ADD DUP1 PUSH1 0x40 MSTORE POP DUP2 ADD SWAP1 PUSH2 0x955 SWAP2 SWAP1 PUSH2 0x2836 JUMP JUMPDEST POP DUP12 DUP4 PUSH2 0x962 SWAP2 SWAP1 PUSH2 0x250E JUMP JUMPDEST PUSH1 0x5 DUP2 SWAP1 SSTORE POP DUP1 DUP3 PUSH2 0x974 SWAP2 SWAP1 PUSH2 0x28F0 JUMP JUMPDEST PUSH1 0x6 DUP2 SWAP1 SSTORE POP PUSH2 0xB05 JUMP JUMPDEST DUP4 PUSH20 0xFFFFFFFFFFFFFFFFFFFFFFFFFFFFFFFFFFFFFFFF AND PUSH4 0x23B872DD CALLER ADDRESS DUP16 PUSH1 0x40 MLOAD DUP5 PUSH4 0xFFFFFFFF AND PUSH1 0xE0 SHL DUP2 MSTORE PUSH1 0x4 ADD PUSH2 0x9BC SWAP4 SWAP3 SWAP2 SWAP1 PUSH2 0x27CC JUMP JUMPDEST PUSH1 0x20 PUSH1 0x40 MLOAD DUP1 DUP4 SUB DUP2 PUSH0 DUP8 GAS CALL ISZERO DUP1 ISZERO PUSH2 0x9D8 JUMPI RETURNDATASIZE PUSH0 PUSH0 RETURNDATACOPY RETURNDATASIZE PUSH0 REVERT JUMPDEST POP POP POP POP PUSH1 0x40 MLOAD RETURNDATASIZE PUSH1 0x1F NOT PUSH1 0x1F DUP3 ADD AND DUP3 ADD DUP1 PUSH1 0x40 MSTORE POP DUP2 ADD SWAP1 PUSH2 0x9FC SWAP2 SWAP1 PUSH2 0x2836 JUMP JUMPDEST POP DUP12 DUP3 PUSH2 0xA09 SWAP2 SWAP1 PUSH2 0x250E JUMP JUMPDEST DUP4 DUP14 PUSH2 0xA15 SWAP2 SWAP1 PUSH2 0x2541 JUMP JUMPDEST PUSH2 0xA1F SWAP2 SWAP1 PUSH2 0x25AF JUMP JUMPDEST SWAP1 POP DUP11 DUP2 LT ISZERO PUSH2 0xA64 JUMPI PUSH1 0x40 MLOAD PUSH32 0x8C379A000000000000000000000000000000000000000000000000000000000 DUP2 MSTORE PUSH1 0x4 ADD PUSH2 0xA5B SWAP1 PUSH2 0x28AB JUMP JUMPDEST PUSH1 0x40 MLOAD DUP1 SWAP2 SUB SWAP1 REVERT JUMPDEST DUP5 PUSH20 0xFFFFFFFFFFFFFFFFFFFFFFFFFFFFFFFFFFFFFFFF AND PUSH4 0xA9059CBB DUP10 DUP4 PUSH1 0x40 MLOAD DUP4 PUSH4 0xFFFFFFFF AND PUSH1 0xE0 SHL DUP2 MSTORE PUSH1 0x4 ADD PUSH2 0xA9F SWAP3 SWAP2 SWAP1 PUSH2 0x28C9 JUMP JUMPDEST PUSH1 0x20 PUSH1 0x40 MLOAD DUP1 DUP4 SUB DUP2 PUSH0 DUP8 GAS CALL ISZERO DUP1 ISZERO PUSH2 0xABB JUMPI RETURNDATASIZE PUSH0 PUSH0 RETURNDATACOPY RETURNDATASIZE PUSH0 REVERT JUMPDEST POP POP POP POP PUSH1 0x40 MLOAD RETURNDATASIZE PUSH1 0x1F NOT PUSH1 0x1F DUP3 ADD AND DUP3 ADD DUP1 PUSH1 0x40 MSTORE POP DUP2 ADD SWAP1 PUSH2 0xADF SWAP2 SWAP1 PUSH2 0x2836 JUMP JUMPDEST POP DUP1 DUP4 PUSH2 0xAEC SWAP2 SWAP1 PUSH2 0x28F0 JUMP JUMPDEST PUSH1 0x5 DUP2 SWAP1 SSTORE POP DUP12 DUP3 PUSH2 0xAFE SWAP2 SWAP1 PUSH2 0x250E JUMP JUMPDEST PUSH1 0x6 DUP2 SWAP1 SSTORE POP JUMPDEST PUSH1 0x2 PUSH8 0xFFFFFFFFFFFFFFFF DUP2 GT ISZERO PUSH2 0xB20 JUMPI PUSH2 0xB1F PUSH2 0x2923 JUMP JUMPDEST JUMPDEST PUSH1 0x40 MLOAD SWAP1 DUP1 DUP3 MSTORE DUP1 PUSH1 0x20 MUL PUSH1 0x20 ADD DUP3 ADD PUSH1 0x40 MSTORE DUP1 ISZERO PUSH2 0xB4E JUMPI DUP2 PUSH1 0x20 ADD PUSH1 0x20 DUP3 MUL DUP1 CALLDATASIZE DUP4 CALLDATACOPY DUP1 DUP3 ADD SWAP2 POP POP SWAP1 POP JUMPDEST POP SWAP6 POP DUP12 DUP7 PUSH0 DUP2 MLOAD DUP2 LT PUSH2 0xB65 JUMPI PUSH2 0xB64 PUSH2 0x26A4 JUMP JUMPDEST JUMPDEST PUSH1 0x20 MUL PUSH1 0x20 ADD ADD DUP2 DUP2 MSTORE POP POP DUP1 DUP7 PUSH1 0x1 DUP2 MLOAD DUP2 LT PUSH2 0xB86 JUMPI PUSH2 0xB85 PUSH2 0x26A4 JUMP JUMPDEST JUMPDEST PUSH1 0x20 MUL PUSH1 0x20 ADD ADD DUP2 DUP2 MSTORE POP POP CALLER PUSH20 0xFFFFFFFFFFFFFFFFFFFFFFFFFFFFFFFFFFFFFFFF AND PUSH32 0x631FB37DBA9BBCB8B2F3BE2D669E365AE9F1BD850CC57DFE8B7CCD7D979A2BBA DUP12 DUP12 PUSH0 DUP2 DUP2 LT PUSH2 0xBDD JUMPI PUSH2 0xBDC PUSH2 0x26A4 JUMP JUMPDEST JUMPDEST SWAP1 POP PUSH1 0x20 MUL ADD PUSH1 0x20 DUP2 ADD SWAP1 PUSH2 0xBF2 SWAP2 SWAP1 PUSH2 0x26D1 JUMP JUMPDEST DUP15 DUP14 DUP14 PUSH1 0x1 DUP2 DUP2 LT PUSH2 0xC07 JUMPI PUSH2 0xC06 PUSH2 0x26A4 JUMP JUMPDEST JUMPDEST SWAP1 POP PUSH1 0x20 MUL ADD PUSH1 0x20 DUP2 ADD SWAP1 PUSH2 0xC1C SWAP2 SWAP1 PUSH2 0x26D1 JUMP JUMPDEST DUP6 PUSH1 0x40 MLOAD PUSH2 0xC2D SWAP5 SWAP4 SWAP3 SWAP2 SWAP1 PUSH2 0x2950 JUMP JUMPDEST PUSH1 0x40 MLOAD DUP1 SWAP2 SUB SWAP1 LOG2 POP POP POP POP POP SWAP7 SWAP6 POP POP POP POP POP POP JUMP JUMPDEST PUSH1 0x4 PUSH0 SWAP1 SLOAD SWAP1 PUSH2 0x100 EXP SWAP1 DIV PUSH20 0xFFFFFFFFFFFFFFFFFFFFFFFFFFFFFFFFFFFFFFFF AND DUP2 JUMP JUMPDEST PUSH0 PUSH0 SWAP1 SLOAD SWAP1 PUSH2 0x100 EXP SWAP1 DIV PUSH20 0xFFFFFFFFFFFFFFFFFFFFFFFFFFFFFFFFFFFFFFFF AND DUP2 JUMP JUMPDEST PUSH1 0x60 PUSH1 0x2 DUP1 SLOAD PUSH2 0xC9C SWAP1 PUSH2 0x260C JUMP JUMPDEST DUP1 PUSH1 0x1F ADD PUSH1 0x20 DUP1 SWAP2 DIV MUL PUSH1 0x20 ADD PUSH1 0x40 MLOAD SWAP1 DUP2 ADD PUSH1 0x40 MSTORE DUP1 SWAP3 SWAP2 SWAP1 DUP2 DUP2 MSTORE PUSH1 0x20 ADD DUP3 DUP1 SLOAD PUSH2 0xCC8 SWAP1 PUSH2 0x260C JUMP JUMPDEST DUP1 ISZERO PUSH2 0xD13 JUMPI DUP1 PUSH1 0x1F LT PUSH2 0xCEA JUMPI PUSH2 0x100 DUP1 DUP4 SLOAD DIV MUL DUP4 MSTORE SWAP2 PUSH1 0x20 ADD SWAP2 PUSH2 0xD13 JUMP JUMPDEST DUP3 ADD SWAP2 SWAP1 PUSH0 MSTORE PUSH1 0x20 PUSH0 KECCAK256 SWAP1 JUMPDEST DUP2 SLOAD DUP2 MSTORE SWAP1 PUSH1 0x1 ADD SWAP1 PUSH1 0x20 ADD DUP1 DUP4 GT PUSH2 0xCF6 JUMPI DUP3 SWAP1 SUB PUSH1 0x1F AND DUP3 ADD SWAP2 JUMPDEST POP POP POP POP POP SWAP1 POP SWAP1 JUMP JUMPDEST PUSH0 PUSH1 0x3 PUSH1 0x1 SWAP1 SLOAD SWAP1 PUSH2 0x100 EXP SWAP1 DIV PUSH20 0xFFFFFFFFFFFFFFFFFFFFFFFFFFFFFFFFFFFFFFFF AND PUSH20 0xFFFFFFFFFFFFFFFFFFFFFFFFFFFFFFFFFFFFFFFF AND DUP4 PUSH20 0xFFFFFFFFFFFFFFFFFFFFFFFFFFFFFFFFFFFFFFFF AND EQ DUP1 ISZERO PUSH2 0xDC7 JUMPI POP PUSH1 0x4 PUSH0 SWAP1 SLOAD SWAP1 PUSH2 0x100 EXP SWAP1 DIV PUSH20 0xFFFFFFFFFFFFFFFFFFFFFFFFFFFFFFFFFFFFFFFF AND PUSH20 0xFFFFFFFFFFFFFFFFFFFFFFFFFFFFFFFFFFFFFFFF AND DUP3 PUSH20 0xFFFFFFFFFFFFFFFFFFFFFFFFFFFFFFFFFFFFFFFF AND EQ JUMPDEST DUP1 PUSH2 0xE77 JUMPI POP PUSH1 0x4 PUSH0 SWAP1 SLOAD SWAP1 PUSH2 0x100 EXP SWAP1 DIV PUSH20 0xFFFFFFFFFFFFFFFFFFFFFFFFFFFFFFFFFFFFFFFF AND PUSH20 0xFFFFFFFFFFFFFFFFFFFFFFFFFFFFFFFFFFFFFFFF AND DUP4 PUSH20 0xFFFFFFFFFFFFFFFFFFFFFFFFFFFFFFFFFFFFFFFF AND EQ DUP1 ISZERO PUSH2 0xE76 JUMPI POP PUSH1 0x3 PUSH1 0x1 SWAP1 SLOAD SWAP1 PUSH2 0x100 EXP SWAP1 DIV PUSH20 0xFFFFFFFFFFFFFFFFFFFFFFFFFFFFFFFFFFFFFFFF AND PUSH20 0xFFFFFFFFFFFFFFFFFFFFFFFFFFFFFFFFFFFFFFFF AND DUP3 PUSH20 0xFFFFFFFFFFFFFFFFFFFFFFFFFFFFFFFFFFFFFFFF AND EQ JUMPDEST JUMPDEST PUSH2 0xEB6 JUMPI PUSH1 0x40 MLOAD PUSH32 0x8C379A000000000000000000000000000000000000000000000000000000000 DUP2 MSTORE PUSH1 0x4 ADD PUSH2 0xEAD SWAP1 PUSH2 0x29DD JUMP JUMPDEST PUSH1 0x40 MLOAD DUP1 SWAP2 SUB SWAP1 REVERT JUMPDEST PUSH0 PUSH1 0x5 SLOAD SWAP1 POP PUSH0 PUSH1 0x6 SLOAD SWAP1 POP PUSH0 DUP3 GT PUSH2 0xF04 JUMPI PUSH1 0x40 MLOAD PUSH32 0x8C379A000000000000000000000000000000000000000000000000000000000 DUP2 MSTORE PUSH1 0x4 ADD PUSH2 0xEFB SWAP1 PUSH2 0x2A45 JUMP JUMPDEST PUSH1 0x40 MLOAD DUP1 SWAP2 SUB SWAP1 REVERT JUMPDEST DUP2 PUSH8 0xDE0B6B3A7640000 DUP3 PUSH2 0xF19 SWAP2 SWAP1 PUSH2 0x2541 JUMP JUMPDEST PUSH2 0xF23 SWAP2 SWAP1 PUSH2 0x25AF JUMP JUMPDEST SWAP3 POP POP POP SWAP3 SWAP2 POP POP JUMP JUMPDEST PUSH0 PUSH0 TIMESTAMP DUP4 GT PUSH2 0xF71 JUMPI PUSH1 0x40 MLOAD PUSH32 0x8C379A000000000000000000000000000000000000000000000000000000000 DUP2 MSTORE PUSH1 0x4 ADD PUSH2 0xF68 SWAP1 PUSH2 0x2AAD JUMP JUMPDEST PUSH1 0x40 MLOAD DUP1 SWAP2 SUB SWAP1 REVERT JUMPDEST PUSH0 PUSH1 0x5 SLOAD SWAP1 POP PUSH0 PUSH1 0x6 SLOAD SWAP1 POP PUSH0 PUSH1 0x7 SLOAD SWAP1 POP PUSH0 PUSH1 0x8 PUSH0 CALLER PUSH20 0xFFFFFFFFFFFFFFFFFFFFFFFFFFFFFFFFFFFFFFFF AND PUSH20 0xFFFFFFFFFFFFFFFFFFFFFFFFFFFFFFFFFFFFFFFF AND DUP2 MSTORE PUSH1 0x20 ADD SWAP1 DUP2 MSTORE PUSH1 0x20 ADD PUSH0 KECCAK256 SLOAD SWAP1 POP PUSH1 0x3 PUSH1 0x1 SWAP1 SLOAD SWAP1 PUSH2 0x100 EXP SWAP1 DIV PUSH20 0xFFFFFFFFFFFFFFFFFFFFFFFFFFFFFFFFFFFFFFFF AND PUSH20 0xFFFFFFFFFFFFFFFFFFFFFFFFFFFFFFFFFFFFFFFF AND DUP14 PUSH20 0xFFFFFFFFFFFFFFFFFFFFFFFFFFFFFFFFFFFFFFFF AND EQ DUP1 ISZERO PUSH2 0x106D JUMPI POP PUSH1 0x4 PUSH0 SWAP1 SLOAD SWAP1 PUSH2 0x100 EXP SWAP1 DIV PUSH20 0xFFFFFFFFFFFFFFFFFFFFFFFFFFFFFFFFFFFFFFFF AND PUSH20 0xFFFFFFFFFFFFFFFFFFFFFFFFFFFFFFFFFFFFFFFF AND DUP13 PUSH20 0xFFFFFFFFFFFFFFFFFFFFFFFFFFFFFFFFFFFFFFFF AND EQ JUMPDEST PUSH2 0x10AC JUMPI PUSH1 0x40 MLOAD PUSH32 0x8C379A000000000000000000000000000000000000000000000000000000000 DUP2 MSTORE PUSH1 0x4 ADD PUSH2 0x10A3 SWAP1 PUSH2 0x2B15 JUMP JUMPDEST PUSH1 0x40 MLOAD DUP1 SWAP2 SUB SWAP1 REVERT JUMPDEST DUP2 DUP5 DUP13 PUSH2 0x10B9 SWAP2 SWAP1 PUSH2 0x2541 JUMP JUMPDEST PUSH2 0x10C3 SWAP2 SWAP1 PUSH2 0x25AF JUMP JUMPDEST SWAP6 POP DUP2 DUP4 DUP13 PUSH2 0x10D2 SWAP2 SWAP1 PUSH2 0x2541 JUMP JUMPDEST PUSH2 0x10DC SWAP2 SWAP1 PUSH2 0x25AF JUMP JUMPDEST SWAP5 POP DUP10 DUP7 LT ISZERO PUSH2 0x1121 JUMPI PUSH1 0x40 MLOAD PUSH32 0x8C379A000000000000000000000000000000000000000000000000000000000 DUP2 MSTORE PUSH1 0x4 ADD PUSH2 0x1118 SWAP1 PUSH2 0x2B7D JUMP JUMPDEST PUSH1 0x40 MLOAD DUP1 SWAP2 SUB SWAP1 REVERT JUMPDEST DUP9 DUP6 LT ISZERO PUSH2 0x1164 JUMPI PUSH1 0x40 MLOAD PUSH32 0x8C379A000000000000000000000000000000000000000000000000000000000 DUP2 MSTORE PUSH1 0x4 ADD PUSH2 0x115B SWAP1 PUSH2 0x2BE5 JUMP JUMPDEST PUSH1 0x40 MLOAD DUP1 SWAP2 SUB SWAP1 REVERT JUMPDEST DUP11 DUP2 LT ISZERO PUSH2 0x11A7 JUMPI PUSH1 0x40 MLOAD PUSH32 0x8C379A000000000000000000000000000000000000000000000000000000000 DUP2 MSTORE PUSH1 0x4 ADD PUSH2 0x119E SWAP1 PUSH2 0x2C4D JUMP JUMPDEST PUSH1 0x40 MLOAD DUP1 SWAP2 SUB SWAP1 REVERT JUMPDEST DUP6 DUP5 LT ISZERO DUP1 ISZERO PUSH2 0x11B7 JUMPI POP DUP5 DUP4 LT ISZERO JUMPDEST PUSH2 0x11F6 JUMPI PUSH1 0x40 MLOAD PUSH32 0x8C379A000000000000000000000000000000000000000000000000000000000 DUP2 MSTORE PUSH1 0x4 ADD PUSH2 0x11ED SWAP1 PUSH2 0x2CB5 JUMP JUMPDEST PUSH1 0x40 MLOAD DUP1 SWAP2 SUB SWAP1 REVERT JUMPDEST DUP11 DUP2 PUSH2 0x1202 SWAP2 SWAP1 PUSH2 0x28F0 JUMP JUMPDEST PUSH1 0x8 PUSH0 CALLER PUSH20 0xFFFFFFFFFFFFFFFFFFFFFFFFFFFFFFFFFFFFFFFF AND PUSH20 0xFFFFFFFFFFFFFFFFFFFFFFFFFFFFFFFFFFFFFFFF AND DUP2 MSTORE PUSH1 0x20 ADD SWAP1 DUP2 MSTORE PUSH1 0x20 ADD PUSH0 KECCAK256 DUP2 SWAP1 SSTORE POP DUP11 DUP3 PUSH2 0x124F SWAP2 SWAP1 PUSH2 0x28F0 JUMP JUMPDEST PUSH1 0x7 DUP2 SWAP1 SSTORE POP PUSH1 0x3 PUSH1 0x1 SWAP1 SLOAD SWAP1 PUSH2 0x100 EXP SWAP1 DIV PUSH20 0xFFFFFFFFFFFFFFFFFFFFFFFFFFFFFFFFFFFFFFFF AND PUSH20 0xFFFFFFFFFFFFFFFFFFFFFFFFFFFFFFFFFFFFFFFF AND PUSH4 0xA9059CBB DUP10 DUP9 PUSH1 0x40 MLOAD DUP4 PUSH4 0xFFFFFFFF AND PUSH1 0xE0 SHL DUP2 MSTORE PUSH1 0x4 ADD PUSH2 0x12B2 SWAP3 SWAP2 SWAP1 PUSH2 0x28C9 JUMP JUMPDEST PUSH1 0x20 PUSH1 0x40 MLOAD DUP1 DUP4 SUB DUP2 PUSH0 DUP8 GAS CALL ISZERO DUP1 ISZERO PUSH2 0x12CE JUMPI RETURNDATASIZE PUSH0 PUSH0 RETURNDATACOPY RETURNDATASIZE PUSH0 REVERT JUMPDEST POP POP POP POP PUSH1 0x40 MLOAD RETURNDATASIZE PUSH1 0x1F NOT PUSH1 0x1F DUP3 ADD AND DUP3 ADD DUP1 PUSH1 0x40 MSTORE POP DUP2 ADD SWAP1 PUSH2 0x12F2 SWAP2 SWAP1 PUSH2 0x2836 JUMP JUMPDEST POP PUSH1 0x4 PUSH0 SWAP1 SLOAD SWAP1 PUSH2 0x100 EXP SWAP1 DIV PUSH20 0xFFFFFFFFFFFFFFFFFFFFFFFFFFFFFFFFFFFFFFFF AND PUSH20 0xFFFFFFFFFFFFFFFFFFFFFFFFFFFFFFFFFFFFFFFF AND PUSH4 0xA9059CBB DUP10 DUP8 PUSH1 0x40 MLOAD DUP4 PUSH4 0xFFFFFFFF AND PUSH1 0xE0 SHL DUP2 MSTORE PUSH1 0x4 ADD PUSH2 0x134F SWAP3 SWAP2 SWAP1 PUSH2 0x28C9 JUMP JUMPDEST PUSH1 0x20 PUSH1 0x40 MLOAD DUP1 DUP4 SUB DUP2 PUSH0 DUP8 GAS CALL ISZERO DUP1 ISZERO PUSH2 0x136B JUMPI RETURNDATASIZE PUSH0 PUSH0 RETURNDATACOPY RETURNDATASIZE PUSH0 REVERT JUMPDEST POP POP POP POP PUSH1 0x40 MLOAD RETURNDATASIZE PUSH1 0x1F NOT PUSH1 0x1F DUP3 ADD AND DUP3 ADD DUP1 PUSH1 0x40 MSTORE POP DUP2 ADD SWAP1 PUSH2 0x138F SWAP2 SWAP1 PUSH2 0x2836 JUMP JUMPDEST POP DUP6 DUP5 PUSH2 0x139C SWAP2 SWAP1 PUSH2 0x28F0 JUMP JUMPDEST PUSH1 0x5 DUP2 SWAP1 SSTORE POP DUP5 DUP4 PUSH2 0x13AE SWAP2 SWAP1 PUSH2 0x28F0 JUMP JUMPDEST PUSH1 0x6 DUP2 SWAP1 SSTORE POP CALLER PUSH20 0xFFFFFFFFFFFFFFFFFFFFFFFFFFFFFFFFFFFFFFFF AND PUSH32 0x1DC8BB69DF2B8E91FBDCBFCF93D951B3F0000F085A95FE3F7946D6161439245D DUP8 DUP8 DUP15 PUSH1 0x40 MLOAD PUSH2 0x13FE SWAP4 SWAP3 SWAP2 SWAP1 PUSH2 0x23DC JUMP JUMPDEST PUSH1 0x40 MLOAD DUP1 SWAP2 SUB SWAP1 LOG2 POP POP POP POP SWAP8 POP SWAP8 SWAP6 POP POP POP POP POP POP JUMP JUMPDEST PUSH1 0x5 SLOAD DUP2 JUMP JUMPDEST PUSH0 PUSH0 PUSH0 PUSH0 PUSH1 0x3 PUSH1 0x1 SWAP1 SLOAD SWAP1 PUSH2 0x100 EXP SWAP1 DIV PUSH20 0xFFFFFFFFFFFFFFFFFFFFFFFFFFFFFFFFFFFFFFFF AND SWAP1 POP PUSH0 PUSH1 0x4 PUSH0 SWAP1 SLOAD SWAP1 PUSH2 0x100 EXP SWAP1 DIV PUSH20 0xFFFFFFFFFFFFFFFFFFFFFFFFFFFFFFFFFFFFFFFF AND SWAP1 POP PUSH0 PUSH1 0x5 SLOAD EQ DUP1 ISZERO PUSH2 0x147C JUMPI POP PUSH0 PUSH1 0x6 SLOAD EQ JUMPDEST ISZERO PUSH2 0x184B JUMPI PUSH0 PUSH0 SWAP1 SLOAD SWAP1 PUSH2 0x100 EXP SWAP1 DIV PUSH20 0xFFFFFFFFFFFFFFFFFFFFFFFFFFFFFFFFFFFFFFFF AND PUSH20 0xFFFFFFFFFFFFFFFFFFFFFFFFFFFFFFFFFFFFFFFF AND CALLER PUSH20 0xFFFFFFFFFFFFFFFFFFFFFFFFFFFFFFFFFFFFFFFF AND EQ PUSH2 0x150F JUMPI PUSH1 0x40 MLOAD PUSH32 0x8C379A000000000000000000000000000000000000000000000000000000000 DUP2 MSTORE PUSH1 0x4 ADD PUSH2 0x1506 SWAP1 PUSH2 0x2D1D JUMP JUMPDEST PUSH1 0x40 MLOAD DUP1 SWAP2 SUB SWAP1 REVERT JUMPDEST PUSH0 PUSH0 SWAP1 SLOAD SWAP1 PUSH2 0x100 EXP SWAP1 DIV PUSH20 0xFFFFFFFFFFFFFFFFFFFFFFFFFFFFFFFFFFFFFFFF AND PUSH20 0xFFFFFFFFFFFFFFFFFFFFFFFFFFFFFFFFFFFFFFFF AND DUP8 PUSH20 0xFFFFFFFFFFFFFFFFFFFFFFFFFFFFFFFFFFFFFFFF AND EQ PUSH2 0x159D JUMPI PUSH1 0x40 MLOAD PUSH32 0x8C379A000000000000000000000000000000000000000000000000000000000 DUP2 MSTORE PUSH1 0x4 ADD PUSH2 0x1594 SWAP1 PUSH2 0x2D85 JUMP JUMPDEST PUSH1 0x40 MLOAD DUP1 SWAP2 SUB SWAP1 REVERT JUMPDEST DUP9 DUP12 LT ISZERO PUSH2 0x15E0 JUMPI PUSH1 0x40 MLOAD PUSH32 0x8C379A000000000000000000000000000000000000000000000000000000000 DUP2 MSTORE PUSH1 0x4 ADD PUSH2 0x15D7 SWAP1 PUSH2 0x2DED JUMP JUMPDEST PUSH1 0x40 MLOAD DUP1 SWAP2 SUB SWAP1 REVERT JUMPDEST DUP8 DUP11 LT ISZERO PUSH2 0x1623 JUMPI PUSH1 0x40 MLOAD PUSH32 0x8C379A000000000000000000000000000000000000000000000000000000000 DUP2 MSTORE PUSH1 0x4 ADD PUSH2 0x161A SWAP1 PUSH2 0x2E55 JUMP JUMPDEST PUSH1 0x40 MLOAD DUP1 SWAP2 SUB SWAP1 REVERT JUMPDEST DUP11 SWAP5 POP DUP10 SWAP4 POP PUSH2 0x163D DUP5 DUP7 PUSH2 0x1638 SWAP2 SWAP1 PUSH2 0x2541 JUMP JUMPDEST PUSH2 0x1C8E JUMP JUMPDEST SWAP3 POP DUP2 PUSH20 0xFFFFFFFFFFFFFFFFFFFFFFFFFFFFFFFFFFFFFFFF AND PUSH4 0x23B872DD PUSH0 PUSH0 SWAP1 SLOAD SWAP1 PUSH2 0x100 EXP SWAP1 DIV PUSH20 0xFFFFFFFFFFFFFFFFFFFFFFFFFFFFFFFFFFFFFFFF AND ADDRESS DUP9 PUSH1 0x40 MLOAD DUP5 PUSH4 0xFFFFFFFF AND PUSH1 0xE0 SHL DUP2 MSTORE PUSH1 0x4 ADD PUSH2 0x169C SWAP4 SWAP3 SWAP2 SWAP1 PUSH2 0x27CC JUMP JUMPDEST PUSH1 0x20 PUSH1 0x40 MLOAD DUP1 DUP4 SUB DUP2 PUSH0 DUP8 GAS CALL ISZERO DUP1 ISZERO PUSH2 0x16B8 JUMPI RETURNDATASIZE PUSH0 PUSH0 RETURNDATACOPY RETURNDATASIZE PUSH0 REVERT JUMPDEST POP POP POP POP PUSH1 0x40 MLOAD RETURNDATASIZE PUSH1 0x1F NOT PUSH1 0x1F DUP3 ADD AND DUP3 ADD DUP1 PUSH1 0x40 MSTORE POP DUP2 ADD SWAP1 PUSH2 0x16DC SWAP2 SWAP1 PUSH2 0x2836 JUMP JUMPDEST POP DUP1 PUSH20 0xFFFFFFFFFFFFFFFFFFFFFFFFFFFFFFFFFFFFFFFF AND PUSH4 0x23B872DD PUSH0 PUSH0 SWAP1 SLOAD SWAP1 PUSH2 0x100 EXP SWAP1 DIV PUSH20 0xFFFFFFFFFFFFFFFFFFFFFFFFFFFFFFFFFFFFFFFF AND ADDRESS DUP8 PUSH1 0x40 MLOAD DUP5 PUSH4 0xFFFFFFFF AND PUSH1 0xE0 SHL DUP2 MSTORE PUSH1 0x4 ADD PUSH2 0x173A SWAP4 SWAP3 SWAP2 SWAP1 PUSH2 0x27CC JUMP JUMPDEST PUSH1 0x20 PUSH1 0x40 MLOAD DUP1 DUP4 SUB DUP2 PUSH0 DUP8 GAS CALL ISZERO DUP1 ISZERO PUSH2 0x1756 JUMPI RETURNDATASIZE PUSH0 PUSH0 RETURNDATACOPY RETURNDATASIZE PUSH0 REVERT JUMPDEST POP POP POP POP PUSH1 0x40 MLOAD RETURNDATASIZE PUSH1 0x1F NOT PUSH1 0x1F DUP3 ADD AND DUP3 ADD DUP1 PUSH1 0x40 MSTORE POP DUP2 ADD SWAP1 PUSH2 0x177A SWAP2 SWAP1 PUSH2 0x2836 JUMP JUMPDEST POP DUP5 PUSH1 0x5 DUP2 SWAP1 SSTORE POP DUP4 PUSH1 0x6 DUP2 SWAP1 SSTORE POP DUP3 PUSH1 0x7 DUP2 SWAP1 SSTORE POP DUP3 PUSH1 0x8 PUSH0 DUP10 PUSH20 0xFFFFFFFFFFFFFFFFFFFFFFFFFFFFFFFFFFFFFFFF AND PUSH20 0xFFFFFFFFFFFFFFFFFFFFFFFFFFFFFFFFFFFFFFFF AND DUP2 MSTORE PUSH1 0x20 ADD SWAP1 DUP2 MSTORE PUSH1 0x20 ADD PUSH0 KECCAK256 DUP2 SWAP1 SSTORE POP PUSH0 PUSH0 SWAP1 SLOAD SWAP1 PUSH2 0x100 EXP SWAP1 DIV PUSH20 0xFFFFFFFFFFFFFFFFFFFFFFFFFFFFFFFFFFFFFFFF AND PUSH20 0xFFFFFFFFFFFFFFFFFFFFFFFFFFFFFFFFFFFFFFFF AND PUSH32 0xB74E6471B3628E5564A820A208C77A7CDC392155B3B943031F2926E8347A65EC DUP7 DUP7 DUP7 PUSH1 0x40 MLOAD PUSH2 0x183C SWAP4 SWAP3 SWAP2 SWAP1 PUSH2 0x23DC JUMP JUMPDEST PUSH1 0x40 MLOAD DUP1 SWAP2 SUB SWAP1 LOG2 POP POP PUSH2 0x1C80 JUMP JUMPDEST TIMESTAMP DUP7 GT PUSH2 0x188D JUMPI PUSH1 0x40 MLOAD PUSH32 0x8C379A000000000000000000000000000000000000000000000000000000000 DUP2 MSTORE PUSH1 0x4 ADD PUSH2 0x1884 SWAP1 PUSH2 0x2AAD JUMP JUMPDEST PUSH1 0x40 MLOAD DUP1 SWAP2 SUB SWAP1 REVERT JUMPDEST DUP2 PUSH20 0xFFFFFFFFFFFFFFFFFFFFFFFFFFFFFFFFFFFFFFFF AND DUP14 PUSH20 0xFFFFFFFFFFFFFFFFFFFFFFFFFFFFFFFFFFFFFFFF AND EQ DUP1 ISZERO PUSH2 0x18F3 JUMPI POP DUP1 PUSH20 0xFFFFFFFFFFFFFFFFFFFFFFFFFFFFFFFFFFFFFFFF AND DUP13 PUSH20 0xFFFFFFFFFFFFFFFFFFFFFFFFFFFFFFFFFFFFFFFF AND EQ JUMPDEST PUSH2 0x1932 JUMPI PUSH1 0x40 MLOAD PUSH32 0x8C379A000000000000000000000000000000000000000000000000000000000 DUP2 MSTORE PUSH1 0x4 ADD PUSH2 0x1929 SWAP1 PUSH2 0x2B15 JUMP JUMPDEST PUSH1 0x40 MLOAD DUP1 SWAP2 SUB SWAP1 REVERT JUMPDEST PUSH0 PUSH1 0x5 SLOAD SWAP1 POP PUSH0 PUSH1 0x6 SLOAD SWAP1 POP PUSH0 DUP3 DUP3 DUP16 PUSH2 0x194C SWAP2 SWAP1 PUSH2 0x2541 JUMP JUMPDEST PUSH2 0x1956 SWAP2 SWAP1 PUSH2 0x25AF JUMP JUMPDEST SWAP1 POP DUP13 DUP2 GT PUSH2 0x19AD JUMPI DUP11 DUP2 LT ISZERO PUSH2 0x19A2 JUMPI PUSH1 0x40 MLOAD PUSH32 0x8C379A000000000000000000000000000000000000000000000000000000000 DUP2 MSTORE PUSH1 0x4 ADD PUSH2 0x1999 SWAP1 PUSH2 0x2EBD JUMP JUMPDEST PUSH1 0x40 MLOAD DUP1 SWAP2 SUB SWAP1 REVERT JUMPDEST DUP14 SWAP8 POP DUP1 SWAP7 POP PUSH2 0x1A55 JUMP JUMPDEST PUSH0 DUP3 DUP5 DUP16 PUSH2 0x19BB SWAP2 SWAP1 PUSH2 0x2541 JUMP JUMPDEST PUSH2 0x19C5 SWAP2 SWAP1 PUSH2 0x25AF JUMP JUMPDEST SWAP1 POP DUP15 DUP2 GT ISZERO PUSH2 0x1A0A JUMPI PUSH1 0x40 MLOAD PUSH32 0x8C379A000000000000000000000000000000000000000000000000000000000 DUP2 MSTORE PUSH1 0x4 ADD PUSH2 0x1A01 SWAP1 PUSH2 0x2F25 JUMP JUMPDEST PUSH1 0x40 MLOAD DUP1 SWAP2 SUB SWAP1 REVERT JUMPDEST DUP13 DUP2 LT ISZERO PUSH2 0x1A4D JUMPI PUSH1 0x40 MLOAD PUSH32 0x8C379A000000000000000000000000000000000000000000000000000000000 DUP2 MSTORE PUSH1 0x4 ADD PUSH2 0x1A44 SWAP1 PUSH2 0x2F8D JUMP JUMPDEST PUSH1 0x40 MLOAD DUP1 SWAP2 SUB SWAP1 REVERT JUMPDEST DUP1 SWAP9 POP DUP14 SWAP8 POP POP JUMPDEST DUP5 PUSH20 0xFFFFFFFFFFFFFFFFFFFFFFFFFFFFFFFFFFFFFFFF AND PUSH4 0x23B872DD CALLER ADDRESS DUP12 PUSH1 0x40 MLOAD DUP5 PUSH4 0xFFFFFFFF AND PUSH1 0xE0 SHL DUP2 MSTORE PUSH1 0x4 ADD PUSH2 0x1A92 SWAP4 SWAP3 SWAP2 SWAP1 PUSH2 0x27CC JUMP JUMPDEST PUSH1 0x20 PUSH1 0x40 MLOAD DUP1 DUP4 SUB DUP2 PUSH0 DUP8 GAS CALL ISZERO DUP1 ISZERO PUSH2 0x1AAE JUMPI RETURNDATASIZE PUSH0 PUSH0 RETURNDATACOPY RETURNDATASIZE PUSH0 REVERT JUMPDEST POP POP POP POP PUSH1 0x40 MLOAD RETURNDATASIZE PUSH1 0x1F NOT PUSH1 0x1F DUP3 ADD AND DUP3 ADD DUP1 PUSH1 0x40 MSTORE POP DUP2 ADD SWAP1 PUSH2 0x1AD2 SWAP2 SWAP1 PUSH2 0x2836 JUMP JUMPDEST POP DUP4 PUSH20 0xFFFFFFFFFFFFFFFFFFFFFFFFFFFFFFFFFFFFFFFF AND PUSH4 0x23B872DD CALLER ADDRESS DUP11 PUSH1 0x40 MLOAD DUP5 PUSH4 0xFFFFFFFF AND PUSH1 0xE0 SHL DUP2 MSTORE PUSH1 0x4 ADD PUSH2 0x1B10 SWAP4 SWAP3 SWAP2 SWAP1 PUSH2 0x27CC JUMP JUMPDEST PUSH1 0x20 PUSH1 0x40 MLOAD DUP1 DUP4 SUB DUP2 PUSH0 DUP8 GAS CALL ISZERO DUP1 ISZERO PUSH2 0x1B2C JUMPI RETURNDATASIZE PUSH0 PUSH0 RETURNDATACOPY RETURNDATASIZE PUSH0 REVERT JUMPDEST POP POP POP POP PUSH1 0x40 MLOAD RETURNDATASIZE PUSH1 0x1F NOT PUSH1 0x1F DUP3 ADD AND DUP3 ADD DUP1 PUSH1 0x40 MSTORE POP DUP2 ADD SWAP1 PUSH2 0x1B50 SWAP2 SWAP1 PUSH2 0x2836 JUMP JUMPDEST POP PUSH2 0x1B8B DUP4 PUSH1 0x7 SLOAD DUP11 PUSH2 0x1B63 SWAP2 SWAP1 PUSH2 0x2541 JUMP JUMPDEST PUSH2 0x1B6D SWAP2 SWAP1 PUSH2 0x25AF JUMP JUMPDEST DUP4 PUSH1 0x7 SLOAD DUP11 PUSH2 0x1B7C SWAP2 SWAP1 PUSH2 0x2541 JUMP JUMPDEST PUSH2 0x1B86 SWAP2 SWAP1 PUSH2 0x25AF JUMP JUMPDEST PUSH2 0x1E28 JUMP JUMPDEST SWAP6 POP DUP8 PUSH1 0x5 PUSH0 DUP3 DUP3 SLOAD PUSH2 0x1B9E SWAP2 SWAP1 PUSH2 0x250E JUMP JUMPDEST SWAP3 POP POP DUP2 SWAP1 SSTORE POP DUP7 PUSH1 0x6 PUSH0 DUP3 DUP3 SLOAD PUSH2 0x1BB6 SWAP2 SWAP1 PUSH2 0x250E JUMP JUMPDEST SWAP3 POP POP DUP2 SWAP1 SSTORE POP DUP6 PUSH1 0x7 PUSH0 DUP3 DUP3 SLOAD PUSH2 0x1BCE SWAP2 SWAP1 PUSH2 0x250E JUMP JUMPDEST SWAP3 POP POP DUP2 SWAP1 SSTORE POP DUP6 PUSH1 0x8 PUSH0 DUP13 PUSH20 0xFFFFFFFFFFFFFFFFFFFFFFFFFFFFFFFFFFFFFFFF AND PUSH20 0xFFFFFFFFFFFFFFFFFFFFFFFFFFFFFFFFFFFFFFFF AND DUP2 MSTORE PUSH1 0x20 ADD SWAP1 DUP2 MSTORE PUSH1 0x20 ADD PUSH0 KECCAK256 PUSH0 DUP3 DUP3 SLOAD PUSH2 0x1C21 SWAP2 SWAP1 PUSH2 0x250E JUMP JUMPDEST SWAP3 POP POP DUP2 SWAP1 SSTORE POP CALLER PUSH20 0xFFFFFFFFFFFFFFFFFFFFFFFFFFFFFFFFFFFFFFFF AND PUSH32 0x64B83944E79C3CE8D4C297411DE637C3E102D064677AAC0C163976EBDCD6F50E DUP10 DUP10 DUP10 PUSH1 0x40 MLOAD PUSH2 0x1C72 SWAP4 SWAP3 SWAP2 SWAP1 PUSH2 0x23DC JUMP JUMPDEST PUSH1 0x40 MLOAD DUP1 SWAP2 SUB SWAP1 LOG2 POP POP POP POP POP JUMPDEST SWAP9 POP SWAP9 POP SWAP9 SWAP6 POP POP POP POP POP POP JUMP JUMPDEST PUSH0 PUSH1 0x1 DUP3 GT PUSH2 0x1C9F JUMPI DUP2 SWAP1 POP PUSH2 0x1E23 JUMP JUMPDEST PUSH0 DUP3 SWAP1 POP PUSH0 PUSH1 0x1 SWAP1 POP PUSH17 0x100000000000000000000000000000000 DUP3 LT PUSH2 0x1CCF JUMPI PUSH1 0x80 DUP3 SWAP1 SHR SWAP2 POP PUSH1 0x40 DUP2 SWAP1 SHL SWAP1 POP JUMPDEST PUSH9 0x10000000000000000 DUP3 LT PUSH2 0x1CEE JUMPI PUSH1 0x40 DUP3 SWAP1 SHR SWAP2 POP PUSH1 0x20 DUP2 SWAP1 SHL SWAP1 POP JUMPDEST PUSH5 0x100000000 DUP3 LT PUSH2 0x1D09 JUMPI PUSH1 0x20 DUP3 SWAP1 SHR SWAP2 POP PUSH1 0x10 DUP2 SWAP1 SHL SWAP1 POP JUMPDEST PUSH3 0x10000 DUP3 LT PUSH2 0x1D22 JUMPI PUSH1 0x10 DUP3 SWAP1 SHR SWAP2 POP PUSH1 0x8 DUP2 SWAP1 SHL SWAP1 POP JUMPDEST PUSH2 0x100 DUP3 LT PUSH2 0x1D3A JUMPI PUSH1 0x8 DUP3 SWAP1 SHR SWAP2 POP PUSH1 0x4 DUP2 SWAP1 SHL SWAP1 POP JUMPDEST PUSH1 0x10 DUP3 LT PUSH2 0x1D51 JUMPI PUSH1 0x4 DUP3 SWAP1 SHR SWAP2 POP PUSH1 0x2 DUP2 SWAP1 SHL SWAP1 POP JUMPDEST PUSH1 0x4 DUP3 LT PUSH2 0x1D61 JUMPI PUSH1 0x1 DUP2 SWAP1 SHL SWAP1 POP JUMPDEST PUSH1 0x1 DUP2 PUSH1 0x3 MUL SWAP1 SHR SWAP1 POP PUSH1 0x1 DUP2 DUP6 DUP2 PUSH2 0x1D7D JUMPI PUSH2 0x1D7C PUSH2 0x2582 JUMP JUMPDEST JUMPDEST DIV DUP3 ADD SWAP1 SHR SWAP1 POP PUSH1 0x1 DUP2 DUP6 DUP2 PUSH2 0x1D96 JUMPI PUSH2 0x1D95 PUSH2 0x2582 JUMP JUMPDEST JUMPDEST DIV DUP3 ADD SWAP1 SHR SWAP1 POP PUSH1 0x1 DUP2 DUP6 DUP2 PUSH2 0x1DAF JUMPI PUSH2 0x1DAE PUSH2 0x2582 JUMP JUMPDEST JUMPDEST DIV DUP3 ADD SWAP1 SHR SWAP1 POP PUSH1 0x1 DUP2 DUP6 DUP2 PUSH2 0x1DC8 JUMPI PUSH2 0x1DC7 PUSH2 0x2582 JUMP JUMPDEST JUMPDEST DIV DUP3 ADD SWAP1 SHR SWAP1 POP PUSH1 0x1 DUP2 DUP6 DUP2 PUSH2 0x1DE1 JUMPI PUSH2 0x1DE0 PUSH2 0x2582 JUMP JUMPDEST JUMPDEST DIV DUP3 ADD SWAP1 SHR SWAP1 POP PUSH1 0x1 DUP2 DUP6 DUP2 PUSH2 0x1DFA JUMPI PUSH2 0x1DF9 PUSH2 0x2582 JUMP JUMPDEST JUMPDEST DIV DUP3 ADD SWAP1 SHR SWAP1 POP PUSH2 0x1E1C DUP2 DUP6 DUP2 PUSH2 0x1E14 JUMPI PUSH2 0x1E13 PUSH2 0x2582 JUMP JUMPDEST JUMPDEST DIV DUP3 GT PUSH2 0x1E3E JUMP JUMPDEST DUP2 SUB SWAP3 POP POP POP JUMPDEST SWAP2 SWAP1 POP JUMP JUMPDEST PUSH0 PUSH2 0x1E36 DUP3 DUP5 LT DUP5 DUP5 PUSH2 0x1E49 JUMP JUMPDEST SWAP1 POP SWAP3 SWAP2 POP POP JUMP JUMPDEST PUSH0 DUP2 ISZERO ISZERO SWAP1 POP SWAP2 SWAP1 POP JUMP JUMPDEST PUSH0 PUSH2 0x1E53 DUP5 PUSH2 0x1E3E JUMP JUMPDEST DUP3 DUP5 XOR MUL DUP3 XOR SWAP1 POP SWAP4 SWAP3 POP POP POP JUMP JUMPDEST PUSH0 PUSH0 REVERT JUMPDEST PUSH0 PUSH0 REVERT JUMPDEST PUSH0 DUP2 SWAP1 POP SWAP2 SWAP1 POP JUMP JUMPDEST PUSH2 0x1E7C DUP2 PUSH2 0x1E6A JUMP JUMPDEST DUP2 EQ PUSH2 0x1E86 JUMPI PUSH0 PUSH0 REVERT JUMPDEST POP JUMP JUMPDEST PUSH0 DUP2 CALLDATALOAD SWAP1 POP PUSH2 0x1E97 DUP2 PUSH2 0x1E73 JUMP JUMPDEST SWAP3 SWAP2 POP POP JUMP JUMPDEST PUSH0 PUSH0 PUSH0 PUSH1 0x60 DUP5 DUP7 SUB SLT ISZERO PUSH2 0x1EB4 JUMPI PUSH2 0x1EB3 PUSH2 0x1E62 JUMP JUMPDEST JUMPDEST PUSH0 PUSH2 0x1EC1 DUP7 DUP3 DUP8 ADD PUSH2 0x1E89 JUMP JUMPDEST SWAP4 POP POP PUSH1 0x20 PUSH2 0x1ED2 DUP7 DUP3 DUP8 ADD PUSH2 0x1E89 JUMP JUMPDEST SWAP3 POP POP PUSH1 0x40 PUSH2 0x1EE3 DUP7 DUP3 DUP8 ADD PUSH2 0x1E89 JUMP JUMPDEST SWAP2 POP POP SWAP3 POP SWAP3 POP SWAP3 JUMP JUMPDEST PUSH2 0x1EF6 DUP2 PUSH2 0x1E6A JUMP JUMPDEST DUP3 MSTORE POP POP JUMP JUMPDEST PUSH0 PUSH1 0x20 DUP3 ADD SWAP1 POP PUSH2 0x1F0F PUSH0 DUP4 ADD DUP5 PUSH2 0x1EED JUMP JUMPDEST SWAP3 SWAP2 POP POP JUMP JUMPDEST PUSH0 DUP2 MLOAD SWAP1 POP SWAP2 SWAP1 POP JUMP JUMPDEST PUSH0 DUP3 DUP3 MSTORE PUSH1 0x20 DUP3 ADD SWAP1 POP SWAP3 SWAP2 POP POP JUMP JUMPDEST DUP3 DUP2 DUP4 MCOPY PUSH0 DUP4 DUP4 ADD MSTORE POP POP POP JUMP JUMPDEST PUSH0 PUSH1 0x1F NOT PUSH1 0x1F DUP4 ADD AND SWAP1 POP SWAP2 SWAP1 POP JUMP JUMPDEST PUSH0 PUSH2 0x1F57 DUP3 PUSH2 0x1F15 JUMP JUMPDEST PUSH2 0x1F61 DUP2 DUP6 PUSH2 0x1F1F JUMP JUMPDEST SWAP4 POP PUSH2 0x1F71 DUP2 DUP6 PUSH1 0x20 DUP7 ADD PUSH2 0x1F2F JUMP JUMPDEST PUSH2 0x1F7A DUP2 PUSH2 0x1F3D JUMP JUMPDEST DUP5 ADD SWAP2 POP POP SWAP3 SWAP2 POP POP JUMP JUMPDEST PUSH0 PUSH1 0x20 DUP3 ADD SWAP1 POP DUP2 DUP2 SUB PUSH0 DUP4 ADD MSTORE PUSH2 0x1F9D DUP2 DUP5 PUSH2 0x1F4D JUMP JUMPDEST SWAP1 POP SWAP3 SWAP2 POP POP JUMP JUMPDEST PUSH0 PUSH20 0xFFFFFFFFFFFFFFFFFFFFFFFFFFFFFFFFFFFFFFFF DUP3 AND SWAP1 POP SWAP2 SWAP1 POP JUMP JUMPDEST PUSH0 PUSH2 0x1FCE DUP3 PUSH2 0x1FA5 JUMP JUMPDEST SWAP1 POP SWAP2 SWAP1 POP JUMP JUMPDEST PUSH2 0x1FDE DUP2 PUSH2 0x1FC4 JUMP JUMPDEST DUP3 MSTORE POP POP JUMP JUMPDEST PUSH0 PUSH1 0x20 DUP3 ADD SWAP1 POP PUSH2 0x1FF7 PUSH0 DUP4 ADD DUP5 PUSH2 0x1FD5 JUMP JUMPDEST SWAP3 SWAP2 POP POP JUMP JUMPDEST PUSH0 PUSH1 0xFF DUP3 AND SWAP1 POP SWAP2 SWAP1 POP JUMP JUMPDEST PUSH2 0x2012 DUP2 PUSH2 0x1FFD JUMP JUMPDEST DUP3 MSTORE POP POP JUMP JUMPDEST PUSH0 PUSH1 0x20 DUP3 ADD SWAP1 POP PUSH2 0x202B PUSH0 DUP4 ADD DUP5 PUSH2 0x2009 JUMP JUMPDEST SWAP3 SWAP2 POP POP JUMP JUMPDEST PUSH0 PUSH0 REVERT JUMPDEST PUSH0 PUSH0 REVERT JUMPDEST PUSH0 PUSH0 REVERT JUMPDEST PUSH0 PUSH0 DUP4 PUSH1 0x1F DUP5 ADD SLT PUSH2 0x2052 JUMPI PUSH2 0x2051 PUSH2 0x2031 JUMP JUMPDEST JUMPDEST DUP3 CALLDATALOAD SWAP1 POP PUSH8 0xFFFFFFFFFFFFFFFF DUP2 GT ISZERO PUSH2 0x206F JUMPI PUSH2 0x206E PUSH2 0x2035 JUMP JUMPDEST JUMPDEST PUSH1 0x20 DUP4 ADD SWAP2 POP DUP4 PUSH1 0x20 DUP3 MUL DUP4 ADD GT ISZERO PUSH2 0x208B JUMPI PUSH2 0x208A PUSH2 0x2039 JUMP JUMPDEST JUMPDEST SWAP3 POP SWAP3 SWAP1 POP JUMP JUMPDEST PUSH2 0x209B DUP2 PUSH2 0x1FC4 JUMP JUMPDEST DUP2 EQ PUSH2 0x20A5 JUMPI PUSH0 PUSH0 REVERT JUMPDEST POP JUMP JUMPDEST PUSH0 DUP2 CALLDATALOAD SWAP1 POP PUSH2 0x20B6 DUP2 PUSH2 0x2092 JUMP JUMPDEST SWAP3 SWAP2 POP POP JUMP JUMPDEST PUSH0 PUSH0 PUSH0 PUSH0 PUSH0 PUSH0 PUSH1 0xA0 DUP8 DUP10 SUB SLT ISZERO PUSH2 0x20D6 JUMPI PUSH2 0x20D5 PUSH2 0x1E62 JUMP JUMPDEST JUMPDEST PUSH0 PUSH2 0x20E3 DUP10 DUP3 DUP11 ADD PUSH2 0x1E89 JUMP JUMPDEST SWAP7 POP POP PUSH1 0x20 PUSH2 0x20F4 DUP10 DUP3 DUP11 ADD PUSH2 0x1E89 JUMP JUMPDEST SWAP6 POP POP PUSH1 0x40 DUP8 ADD CALLDATALOAD PUSH8 0xFFFFFFFFFFFFFFFF DUP2 GT ISZERO PUSH2 0x2115 JUMPI PUSH2 0x2114 PUSH2 0x1E66 JUMP JUMPDEST JUMPDEST PUSH2 0x2121 DUP10 DUP3 DUP11 ADD PUSH2 0x203D JUMP JUMPDEST SWAP5 POP SWAP5 POP POP PUSH1 0x60 PUSH2 0x2134 DUP10 DUP3 DUP11 ADD PUSH2 0x20A8 JUMP JUMPDEST SWAP3 POP POP PUSH1 0x80 PUSH2 0x2145 DUP10 DUP3 DUP11 ADD PUSH2 0x1E89 JUMP JUMPDEST SWAP2 POP POP SWAP3 SWAP6 POP SWAP3 SWAP6 POP SWAP3 SWAP6 JUMP JUMPDEST PUSH0 DUP2 MLOAD SWAP1 POP SWAP2 SWAP1 POP JUMP JUMPDEST PUSH0 DUP3 DUP3 MSTORE PUSH1 0x20 DUP3 ADD SWAP1 POP SWAP3 SWAP2 POP POP JUMP JUMPDEST PUSH0 DUP2 SWAP1 POP PUSH1 0x20 DUP3 ADD SWAP1 POP SWAP2 SWAP1 POP JUMP JUMPDEST PUSH2 0x2184 DUP2 PUSH2 0x1E6A JUMP JUMPDEST DUP3 MSTORE POP POP JUMP JUMPDEST PUSH0 PUSH2 0x2195 DUP4 DUP4 PUSH2 0x217B JUMP JUMPDEST PUSH1 0x20 DUP4 ADD SWAP1 POP SWAP3 SWAP2 POP POP JUMP JUMPDEST PUSH0 PUSH1 0x20 DUP3 ADD SWAP1 POP SWAP2 SWAP1 POP JUMP JUMPDEST PUSH0 PUSH2 0x21B7 DUP3 PUSH2 0x2152 JUMP JUMPDEST PUSH2 0x21C1 DUP2 DUP6 PUSH2 0x215C JUMP JUMPDEST SWAP4 POP PUSH2 0x21CC DUP4 PUSH2 0x216C JUMP JUMPDEST DUP1 PUSH0 JUMPDEST DUP4 DUP2 LT ISZERO PUSH2 0x21FC JUMPI DUP2 MLOAD PUSH2 0x21E3 DUP9 DUP3 PUSH2 0x218A JUMP JUMPDEST SWAP8 POP PUSH2 0x21EE DUP4 PUSH2 0x21A1 JUMP JUMPDEST SWAP3 POP POP PUSH1 0x1 DUP2 ADD SWAP1 POP PUSH2 0x21CF JUMP JUMPDEST POP DUP6 SWAP4 POP POP POP POP SWAP3 SWAP2 POP POP JUMP JUMPDEST PUSH0 PUSH1 0x20 DUP3 ADD SWAP1 POP DUP2 DUP2 SUB PUSH0 DUP4 ADD MSTORE PUSH2 0x2221 DUP2 DUP5 PUSH2 0x21AD JUMP JUMPDEST SWAP1 POP SWAP3 SWAP2 POP POP JUMP JUMPDEST PUSH0 PUSH0 PUSH1 0x40 DUP4 DUP6 SUB SLT ISZERO PUSH2 0x223F JUMPI PUSH2 0x223E PUSH2 0x1E62 JUMP JUMPDEST JUMPDEST PUSH0 PUSH2 0x224C DUP6 DUP3 DUP7 ADD PUSH2 0x20A8 JUMP JUMPDEST SWAP3 POP POP PUSH1 0x20 PUSH2 0x225D DUP6 DUP3 DUP7 ADD PUSH2 0x20A8 JUMP JUMPDEST SWAP2 POP POP SWAP3 POP SWAP3 SWAP1 POP JUMP JUMPDEST PUSH0 PUSH0 PUSH0 PUSH0 PUSH0 PUSH0 PUSH0 PUSH1 0xE0 DUP9 DUP11 SUB SLT ISZERO PUSH2 0x2282 JUMPI PUSH2 0x2281 PUSH2 0x1E62 JUMP JUMPDEST JUMPDEST PUSH0 PUSH2 0x228F DUP11 DUP3 DUP12 ADD PUSH2 0x20A8 JUMP JUMPDEST SWAP8 POP POP PUSH1 0x20 PUSH2 0x22A0 DUP11 DUP3 DUP12 ADD PUSH2 0x20A8 JUMP JUMPDEST SWAP7 POP POP PUSH1 0x40 PUSH2 0x22B1 DUP11 DUP3 DUP12 ADD PUSH2 0x1E89 JUMP JUMPDEST SWAP6 POP POP PUSH1 0x60 PUSH2 0x22C2 DUP11 DUP3 DUP12 ADD PUSH2 0x1E89 JUMP JUMPDEST SWAP5 POP POP PUSH1 0x80 PUSH2 0x22D3 DUP11 DUP3 DUP12 ADD PUSH2 0x1E89 JUMP JUMPDEST SWAP4 POP POP PUSH1 0xA0 PUSH2 0x22E4 DUP11 DUP3 DUP12 ADD PUSH2 0x20A8 JUMP JUMPDEST SWAP3 POP POP PUSH1 0xC0 PUSH2 0x22F5 DUP11 DUP3 DUP12 ADD PUSH2 0x1E89 JUMP JUMPDEST SWAP2 POP POP SWAP3 SWAP6 SWAP9 SWAP2 SWAP5 SWAP8 POP SWAP3 SWAP6 POP JUMP JUMPDEST PUSH0 PUSH1 0x40 DUP3 ADD SWAP1 POP PUSH2 0x2317 PUSH0 DUP4 ADD DUP6 PUSH2 0x1EED JUMP JUMPDEST PUSH2 0x2324 PUSH1 0x20 DUP4 ADD DUP5 PUSH2 0x1EED JUMP JUMPDEST SWAP4 SWAP3 POP POP POP JUMP JUMPDEST PUSH0 PUSH0 PUSH0 PUSH0 PUSH0 PUSH0 PUSH0 PUSH0 PUSH2 0x100 DUP10 DUP12 SUB SLT ISZERO PUSH2 0x2348 JUMPI PUSH2 0x2347 PUSH2 0x1E62 JUMP JUMPDEST JUMPDEST PUSH0 PUSH2 0x2355 DUP12 DUP3 DUP13 ADD PUSH2 0x20A8 JUMP JUMPDEST SWAP9 POP POP PUSH1 0x20 PUSH2 0x2366 DUP12 DUP3 DUP13 ADD PUSH2 0x20A8 JUMP JUMPDEST SWAP8 POP POP PUSH1 0x40 PUSH2 0x2377 DUP12 DUP3 DUP13 ADD PUSH2 0x1E89 JUMP JUMPDEST SWAP7 POP POP PUSH1 0x60 PUSH2 0x2388 DUP12 DUP3 DUP13 ADD PUSH2 0x1E89 JUMP JUMPDEST SWAP6 POP POP PUSH1 0x80 PUSH2 0x2399 DUP12 DUP3 DUP13 ADD PUSH2 0x1E89 JUMP JUMPDEST SWAP5 POP POP PUSH1 0xA0 PUSH2 0x23AA DUP12 DUP3 DUP13 ADD PUSH2 0x1E89 JUMP JUMPDEST SWAP4 POP POP PUSH1 0xC0 PUSH2 0x23BB DUP12 DUP3 DUP13 ADD PUSH2 0x20A8 JUMP JUMPDEST SWAP3 POP POP PUSH1 0xE0 PUSH2 0x23CC DUP12 DUP3 DUP13 ADD PUSH2 0x1E89 JUMP JUMPDEST SWAP2 POP POP SWAP3 SWAP6 SWAP9 POP SWAP3 SWAP6 SWAP9 SWAP1 SWAP4 SWAP7 POP JUMP JUMPDEST PUSH0 PUSH1 0x60 DUP3 ADD SWAP1 POP PUSH2 0x23EF PUSH0 DUP4 ADD DUP7 PUSH2 0x1EED JUMP JUMPDEST PUSH2 0x23FC PUSH1 0x20 DUP4 ADD DUP6 PUSH2 0x1EED JUMP JUMPDEST PUSH2 0x2409 PUSH1 0x40 DUP4 ADD DUP5 PUSH2 0x1EED JUMP JUMPDEST SWAP5 SWAP4 POP POP POP POP JUMP JUMPDEST PUSH32 0x416D6F756E74496E203C20300000000000000000000000000000000000000000 PUSH0 DUP3 ADD MSTORE POP JUMP JUMPDEST PUSH0 PUSH2 0x2445 PUSH1 0xC DUP4 PUSH2 0x1F1F JUMP JUMPDEST SWAP2 POP PUSH2 0x2450 DUP3 PUSH2 0x2411 JUMP JUMPDEST PUSH1 0x20 DUP3 ADD SWAP1 POP SWAP2 SWAP1 POP JUMP JUMPDEST PUSH0 PUSH1 0x20 DUP3 ADD SWAP1 POP DUP2 DUP2 SUB PUSH0 DUP4 ADD MSTORE PUSH2 0x2472 DUP2 PUSH2 0x2439 JUMP JUMPDEST SWAP1 POP SWAP2 SWAP1 POP JUMP JUMPDEST PUSH32 0x5265736572766573203C20300000000000000000000000000000000000000000 PUSH0 DUP3 ADD MSTORE POP JUMP JUMPDEST PUSH0 PUSH2 0x24AD PUSH1 0xC DUP4 PUSH2 0x1F1F JUMP JUMPDEST SWAP2 POP PUSH2 0x24B8 DUP3 PUSH2 0x2479 JUMP JUMPDEST PUSH1 0x20 DUP3 ADD SWAP1 POP SWAP2 SWAP1 POP JUMP JUMPDEST PUSH0 PUSH1 0x20 DUP3 ADD SWAP1 POP DUP2 DUP2 SUB PUSH0 DUP4 ADD MSTORE PUSH2 0x24DA DUP2 PUSH2 0x24A1 JUMP JUMPDEST SWAP1 POP SWAP2 SWAP1 POP JUMP JUMPDEST PUSH32 0x4E487B7100000000000000000000000000000000000000000000000000000000 PUSH0 MSTORE PUSH1 0x11 PUSH1 0x4 MSTORE PUSH1 0x24 PUSH0 REVERT JUMPDEST PUSH0 PUSH2 0x2518 DUP3 PUSH2 0x1E6A JUMP JUMPDEST SWAP2 POP PUSH2 0x2523 DUP4 PUSH2 0x1E6A JUMP JUMPDEST SWAP3 POP DUP3 DUP3 ADD SWAP1 POP DUP1 DUP3 GT ISZERO PUSH2 0x253B JUMPI PUSH2 0x253A PUSH2 0x24E1 JUMP JUMPDEST JUMPDEST SWAP3 SWAP2 POP POP JUMP JUMPDEST PUSH0 PUSH2 0x254B DUP3 PUSH2 0x1E6A JUMP JUMPDEST SWAP2 POP PUSH2 0x2556 DUP4 PUSH2 0x1E6A JUMP JUMPDEST SWAP3 POP DUP3 DUP3 MUL PUSH2 0x2564 DUP2 PUSH2 0x1E6A JUMP JUMPDEST SWAP2 POP DUP3 DUP3 DIV DUP5 EQ DUP4 ISZERO OR PUSH2 0x257B JUMPI PUSH2 0x257A PUSH2 0x24E1 JUMP JUMPDEST JUMPDEST POP SWAP3 SWAP2 POP POP JUMP JUMPDEST PUSH32 0x4E487B7100000000000000000000000000000000000000000000000000000000 PUSH0 MSTORE PUSH1 0x12 PUSH1 0x4 MSTORE PUSH1 0x24 PUSH0 REVERT JUMPDEST PUSH0 PUSH2 0x25B9 DUP3 PUSH2 0x1E6A JUMP JUMPDEST SWAP2 POP PUSH2 0x25C4 DUP4 PUSH2 0x1E6A JUMP JUMPDEST SWAP3 POP DUP3 PUSH2 0x25D4 JUMPI PUSH2 0x25D3 PUSH2 0x2582 JUMP JUMPDEST JUMPDEST DUP3 DUP3 DIV SWAP1 POP SWAP3 SWAP2 POP POP JUMP JUMPDEST PUSH32 0x4E487B7100000000000000000000000000000000000000000000000000000000 PUSH0 MSTORE PUSH1 0x22 PUSH1 0x4 MSTORE PUSH1 0x24 PUSH0 REVERT JUMPDEST PUSH0 PUSH1 0x2 DUP3 DIV SWAP1 POP PUSH1 0x1 DUP3 AND DUP1 PUSH2 0x2623 JUMPI PUSH1 0x7F DUP3 AND SWAP2 POP JUMPDEST PUSH1 0x20 DUP3 LT DUP2 SUB PUSH2 0x2636 JUMPI PUSH2 0x2635 PUSH2 0x25DF JUMP JUMPDEST JUMPDEST POP SWAP2 SWAP1 POP JUMP JUMPDEST PUSH32 0x5472616E73616374206578706972656400000000000000000000000000000000 PUSH0 DUP3 ADD MSTORE POP JUMP JUMPDEST PUSH0 PUSH2 0x2670 PUSH1 0x10 DUP4 PUSH2 0x1F1F JUMP JUMPDEST SWAP2 POP PUSH2 0x267B DUP3 PUSH2 0x263C JUMP JUMPDEST PUSH1 0x20 DUP3 ADD SWAP1 POP SWAP2 SWAP1 POP JUMP JUMPDEST PUSH0 PUSH1 0x20 DUP3 ADD SWAP1 POP DUP2 DUP2 SUB PUSH0 DUP4 ADD MSTORE PUSH2 0x269D DUP2 PUSH2 0x2664 JUMP JUMPDEST SWAP1 POP SWAP2 SWAP1 POP JUMP JUMPDEST PUSH32 0x4E487B7100000000000000000000000000000000000000000000000000000000 PUSH0 MSTORE PUSH1 0x32 PUSH1 0x4 MSTORE PUSH1 0x24 PUSH0 REVERT JUMPDEST PUSH0 PUSH1 0x20 DUP3 DUP5 SUB SLT ISZERO PUSH2 0x26E6 JUMPI PUSH2 0x26E5 PUSH2 0x1E62 JUMP JUMPDEST JUMPDEST PUSH0 PUSH2 0x26F3 DUP5 DUP3 DUP6 ADD PUSH2 0x20A8 JUMP JUMPDEST SWAP2 POP POP SWAP3 SWAP2 POP POP JUMP JUMPDEST PUSH32 0x696E76616C696420746F6B656E73000000000000000000000000000000000000 PUSH0 DUP3 ADD MSTORE POP JUMP JUMPDEST PUSH0 PUSH2 0x2730 PUSH1 0xE DUP4 PUSH2 0x1F1F JUMP JUMPDEST SWAP2 POP PUSH2 0x273B DUP3 PUSH2 0x26FC JUMP JUMPDEST PUSH1 0x20 DUP3 ADD SWAP1 POP SWAP2 SWAP1 POP JUMP JUMPDEST PUSH0 PUSH1 0x20 DUP3 ADD SWAP1 POP DUP2 DUP2 SUB PUSH0 DUP4 ADD MSTORE PUSH2 0x275D DUP2 PUSH2 0x2724 JUMP JUMPDEST SWAP1 POP SWAP2 SWAP1 POP JUMP JUMPDEST PUSH32 0x616D6F756E74496E203000000000000000000000000000000000000000000000 PUSH0 DUP3 ADD MSTORE POP JUMP JUMPDEST PUSH0 PUSH2 0x2798 PUSH1 0xA DUP4 PUSH2 0x1F1F JUMP JUMPDEST SWAP2 POP PUSH2 0x27A3 DUP3 PUSH2 0x2764 JUMP JUMPDEST PUSH1 0x20 DUP3 ADD SWAP1 POP SWAP2 SWAP1 POP JUMP JUMPDEST PUSH0 PUSH1 0x20 DUP3 ADD SWAP1 POP DUP2 DUP2 SUB PUSH0 DUP4 ADD MSTORE PUSH2 0x27C5 DUP2 PUSH2 0x278C JUMP JUMPDEST SWAP1 POP SWAP2 SWAP1 POP JUMP JUMPDEST PUSH0 PUSH1 0x60 DUP3 ADD SWAP1 POP PUSH2 0x27DF PUSH0 DUP4 ADD DUP7 PUSH2 0x1FD5 JUMP JUMPDEST PUSH2 0x27EC PUSH1 0x20 DUP4 ADD DUP6 PUSH2 0x1FD5 JUMP JUMPDEST PUSH2 0x27F9 PUSH1 0x40 DUP4 ADD DUP5 PUSH2 0x1EED JUMP JUMPDEST SWAP5 SWAP4 POP POP POP POP JUMP JUMPDEST PUSH0 DUP2 ISZERO ISZERO SWAP1 POP SWAP2 SWAP1 POP JUMP JUMPDEST PUSH2 0x2815 DUP2 PUSH2 0x2801 JUMP JUMPDEST DUP2 EQ PUSH2 0x281F JUMPI PUSH0 PUSH0 REVERT JUMPDEST POP JUMP JUMPDEST PUSH0 DUP2 MLOAD SWAP1 POP PUSH2 0x2830 DUP2 PUSH2 0x280C JUMP JUMPDEST SWAP3 SWAP2 POP POP JUMP JUMPDEST PUSH0 PUSH1 0x20 DUP3 DUP5 SUB SLT ISZERO PUSH2 0x284B JUMPI PUSH2 0x284A PUSH2 0x1E62 JUMP JUMPDEST JUMPDEST PUSH0 PUSH2 0x2858 DUP5 DUP3 DUP6 ADD PUSH2 0x2822 JUMP JUMPDEST SWAP2 POP POP SWAP3 SWAP2 POP POP JUMP JUMPDEST PUSH32 0x696E73756666696369656E7420616D6F756E744F757400000000000000000000 PUSH0 DUP3 ADD MSTORE POP JUMP JUMPDEST PUSH0 PUSH2 0x2895 PUSH1 0x16 DUP4 PUSH2 0x1F1F JUMP JUMPDEST SWAP2 POP PUSH2 0x28A0 DUP3 PUSH2 0x2861 JUMP JUMPDEST PUSH1 0x20 DUP3 ADD SWAP1 POP SWAP2 SWAP1 POP JUMP JUMPDEST PUSH0 PUSH1 0x20 DUP3 ADD SWAP1 POP DUP2 DUP2 SUB PUSH0 DUP4 ADD MSTORE PUSH2 0x28C2 DUP2 PUSH2 0x2889 JUMP JUMPDEST SWAP1 POP SWAP2 SWAP1 POP JUMP JUMPDEST PUSH0 PUSH1 0x40 DUP3 ADD SWAP1 POP PUSH2 0x28DC PUSH0 DUP4 ADD DUP6 PUSH2 0x1FD5 JUMP JUMPDEST PUSH2 0x28E9 PUSH1 0x20 DUP4 ADD DUP5 PUSH2 0x1EED JUMP JUMPDEST SWAP4 SWAP3 POP POP POP JUMP JUMPDEST PUSH0 PUSH2 0x28FA DUP3 PUSH2 0x1E6A JUMP JUMPDEST SWAP2 POP PUSH2 0x2905 DUP4 PUSH2 0x1E6A JUMP JUMPDEST SWAP3 POP DUP3 DUP3 SUB SWAP1 POP DUP2 DUP2 GT ISZERO PUSH2 0x291D JUMPI PUSH2 0x291C PUSH2 0x24E1 JUMP JUMPDEST JUMPDEST SWAP3 SWAP2 POP POP JUMP JUMPDEST PUSH32 0x4E487B7100000000000000000000000000000000000000000000000000000000 PUSH0 MSTORE PUSH1 0x41 PUSH1 0x4 MSTORE PUSH1 0x24 PUSH0 REVERT JUMPDEST PUSH0 PUSH1 0x80 DUP3 ADD SWAP1 POP PUSH2 0x2963 PUSH0 DUP4 ADD DUP8 PUSH2 0x1FD5 JUMP JUMPDEST PUSH2 0x2970 PUSH1 0x20 DUP4 ADD DUP7 PUSH2 0x1EED JUMP JUMPDEST PUSH2 0x297D PUSH1 0x40 DUP4 ADD DUP6 PUSH2 0x1FD5 JUMP JUMPDEST PUSH2 0x298A PUSH1 0x60 DUP4 ADD DUP5 PUSH2 0x1EED JUMP JUMPDEST SWAP6 SWAP5 POP POP POP POP POP JUMP JUMPDEST PUSH32 0x496E76616C696420746F6B656E73000000000000000000000000000000000000 PUSH0 DUP3 ADD MSTORE POP JUMP JUMPDEST PUSH0 PUSH2 0x29C7 PUSH1 0xE DUP4 PUSH2 0x1F1F JUMP JUMPDEST SWAP2 POP PUSH2 0x29D2 DUP3 PUSH2 0x2993 JUMP JUMPDEST PUSH1 0x20 DUP3 ADD SWAP1 POP SWAP2 SWAP1 POP JUMP JUMPDEST PUSH0 PUSH1 0x20 DUP3 ADD SWAP1 POP DUP2 DUP2 SUB PUSH0 DUP4 ADD MSTORE PUSH2 0x29F4 DUP2 PUSH2 0x29BB JUMP JUMPDEST SWAP1 POP SWAP2 SWAP1 POP JUMP JUMPDEST PUSH32 0x4E6F204120726573657276650000000000000000000000000000000000000000 PUSH0 DUP3 ADD MSTORE POP JUMP JUMPDEST PUSH0 PUSH2 0x2A2F PUSH1 0xC DUP4 PUSH2 0x1F1F JUMP JUMPDEST SWAP2 POP PUSH2 0x2A3A DUP3 PUSH2 0x29FB JUMP JUMPDEST PUSH1 0x20 DUP3 ADD SWAP1 POP SWAP2 SWAP1 POP JUMP JUMPDEST PUSH0 PUSH1 0x20 DUP3 ADD SWAP1 POP DUP2 DUP2 SUB PUSH0 DUP4 ADD MSTORE PUSH2 0x2A5C DUP2 PUSH2 0x2A23 JUMP JUMPDEST SWAP1 POP SWAP2 SWAP1 POP JUMP JUMPDEST PUSH32 0x6578706972656400000000000000000000000000000000000000000000000000 PUSH0 DUP3 ADD MSTORE POP JUMP JUMPDEST PUSH0 PUSH2 0x2A97 PUSH1 0x7 DUP4 PUSH2 0x1F1F JUMP JUMPDEST SWAP2 POP PUSH2 0x2AA2 DUP3 PUSH2 0x2A63 JUMP JUMPDEST PUSH1 0x20 DUP3 ADD SWAP1 POP SWAP2 SWAP1 POP JUMP JUMPDEST PUSH0 PUSH1 0x20 DUP3 ADD SWAP1 POP DUP2 DUP2 SUB PUSH0 DUP4 ADD MSTORE PUSH2 0x2AC4 DUP2 PUSH2 0x2A8B JUMP JUMPDEST SWAP1 POP SWAP2 SWAP1 POP JUMP JUMPDEST PUSH32 0x6261642070616972000000000000000000000000000000000000000000000000 PUSH0 DUP3 ADD MSTORE POP JUMP JUMPDEST PUSH0 PUSH2 0x2AFF PUSH1 0x8 DUP4 PUSH2 0x1F1F JUMP JUMPDEST SWAP2 POP PUSH2 0x2B0A DUP3 PUSH2 0x2ACB JUMP JUMPDEST PUSH1 0x20 DUP3 ADD SWAP1 POP SWAP2 SWAP1 POP JUMP JUMPDEST PUSH0 PUSH1 0x20 DUP3 ADD SWAP1 POP DUP2 DUP2 SUB PUSH0 DUP4 ADD MSTORE PUSH2 0x2B2C DUP2 PUSH2 0x2AF3 JUMP JUMPDEST SWAP1 POP SWAP2 SWAP1 POP JUMP JUMPDEST PUSH32 0x41203C206D696E00000000000000000000000000000000000000000000000000 PUSH0 DUP3 ADD MSTORE POP JUMP JUMPDEST PUSH0 PUSH2 0x2B67 PUSH1 0x7 DUP4 PUSH2 0x1F1F JUMP JUMPDEST SWAP2 POP PUSH2 0x2B72 DUP3 PUSH2 0x2B33 JUMP JUMPDEST PUSH1 0x20 DUP3 ADD SWAP1 POP SWAP2 SWAP1 POP JUMP JUMPDEST PUSH0 PUSH1 0x20 DUP3 ADD SWAP1 POP DUP2 DUP2 SUB PUSH0 DUP4 ADD MSTORE PUSH2 0x2B94 DUP2 PUSH2 0x2B5B JUMP JUMPDEST SWAP1 POP SWAP2 SWAP1 POP JUMP JUMPDEST PUSH32 0x42203C206D696E00000000000000000000000000000000000000000000000000 PUSH0 DUP3 ADD MSTORE POP JUMP JUMPDEST PUSH0 PUSH2 0x2BCF PUSH1 0x7 DUP4 PUSH2 0x1F1F JUMP JUMPDEST SWAP2 POP PUSH2 0x2BDA DUP3 PUSH2 0x2B9B JUMP JUMPDEST PUSH1 0x20 DUP3 ADD SWAP1 POP SWAP2 SWAP1 POP JUMP JUMPDEST PUSH0 PUSH1 0x20 DUP3 ADD SWAP1 POP DUP2 DUP2 SUB PUSH0 DUP4 ADD MSTORE PUSH2 0x2BFC DUP2 PUSH2 0x2BC3 JUMP JUMPDEST SWAP1 POP SWAP2 SWAP1 POP JUMP JUMPDEST PUSH32 0x4C50206C6F770000000000000000000000000000000000000000000000000000 PUSH0 DUP3 ADD MSTORE POP JUMP JUMPDEST PUSH0 PUSH2 0x2C37 PUSH1 0x6 DUP4 PUSH2 0x1F1F JUMP JUMPDEST SWAP2 POP PUSH2 0x2C42 DUP3 PUSH2 0x2C03 JUMP JUMPDEST PUSH1 0x20 DUP3 ADD SWAP1 POP SWAP2 SWAP1 POP JUMP JUMPDEST PUSH0 PUSH1 0x20 DUP3 ADD SWAP1 POP DUP2 DUP2 SUB PUSH0 DUP4 ADD MSTORE PUSH2 0x2C64 DUP2 PUSH2 0x2C2B JUMP JUMPDEST SWAP1 POP SWAP2 SWAP1 POP JUMP JUMPDEST PUSH32 0x7265736572766573206C6F770000000000000000000000000000000000000000 PUSH0 DUP3 ADD MSTORE POP JUMP JUMPDEST PUSH0 PUSH2 0x2C9F PUSH1 0xC DUP4 PUSH2 0x1F1F JUMP JUMPDEST SWAP2 POP PUSH2 0x2CAA DUP3 PUSH2 0x2C6B JUMP JUMPDEST PUSH1 0x20 DUP3 ADD SWAP1 POP SWAP2 SWAP1 POP JUMP JUMPDEST PUSH0 PUSH1 0x20 DUP3 ADD SWAP1 POP DUP2 DUP2 SUB PUSH0 DUP4 ADD MSTORE PUSH2 0x2CCC DUP2 PUSH2 0x2C93 JUMP JUMPDEST SWAP1 POP SWAP2 SWAP1 POP JUMP JUMPDEST PUSH32 0x6F6E6C79206F776E657200000000000000000000000000000000000000000000 PUSH0 DUP3 ADD MSTORE POP JUMP JUMPDEST PUSH0 PUSH2 0x2D07 PUSH1 0xA DUP4 PUSH2 0x1F1F JUMP JUMPDEST SWAP2 POP PUSH2 0x2D12 DUP3 PUSH2 0x2CD3 JUMP JUMPDEST PUSH1 0x20 DUP3 ADD SWAP1 POP SWAP2 SWAP1 POP JUMP JUMPDEST PUSH0 PUSH1 0x20 DUP3 ADD SWAP1 POP DUP2 DUP2 SUB PUSH0 DUP4 ADD MSTORE PUSH2 0x2D34 DUP2 PUSH2 0x2CFB JUMP JUMPDEST SWAP1 POP SWAP2 SWAP1 POP JUMP JUMPDEST PUSH32 0x696E6974204C50206F6E6C79206F776E65720000000000000000000000000000 PUSH0 DUP3 ADD MSTORE POP JUMP JUMPDEST PUSH0 PUSH2 0x2D6F PUSH1 0x12 DUP4 PUSH2 0x1F1F JUMP JUMPDEST SWAP2 POP PUSH2 0x2D7A DUP3 PUSH2 0x2D3B JUMP JUMPDEST PUSH1 0x20 DUP3 ADD SWAP1 POP SWAP2 SWAP1 POP JUMP JUMPDEST PUSH0 PUSH1 0x20 DUP3 ADD SWAP1 POP DUP2 DUP2 SUB PUSH0 DUP4 ADD MSTORE PUSH2 0x2D9C DUP2 PUSH2 0x2D63 JUMP JUMPDEST SWAP1 POP SWAP2 SWAP1 POP JUMP JUMPDEST PUSH32 0x696E73756666696369656E742041000000000000000000000000000000000000 PUSH0 DUP3 ADD MSTORE POP JUMP JUMPDEST PUSH0 PUSH2 0x2DD7 PUSH1 0xE DUP4 PUSH2 0x1F1F JUMP JUMPDEST SWAP2 POP PUSH2 0x2DE2 DUP3 PUSH2 0x2DA3 JUMP JUMPDEST PUSH1 0x20 DUP3 ADD SWAP1 POP SWAP2 SWAP1 POP JUMP JUMPDEST PUSH0 PUSH1 0x20 DUP3 ADD SWAP1 POP DUP2 DUP2 SUB PUSH0 DUP4 ADD MSTORE PUSH2 0x2E04 DUP2 PUSH2 0x2DCB JUMP JUMPDEST SWAP1 POP SWAP2 SWAP1 POP JUMP JUMPDEST PUSH32 0x696E73756666696369656E742042000000000000000000000000000000000000 PUSH0 DUP3 ADD MSTORE POP JUMP JUMPDEST PUSH0 PUSH2 0x2E3F PUSH1 0xE DUP4 PUSH2 0x1F1F JUMP JUMPDEST SWAP2 POP PUSH2 0x2E4A DUP3 PUSH2 0x2E0B JUMP JUMPDEST PUSH1 0x20 DUP3 ADD SWAP1 POP SWAP2 SWAP1 POP JUMP JUMPDEST PUSH0 PUSH1 0x20 DUP3 ADD SWAP1 POP DUP2 DUP2 SUB PUSH0 DUP4 ADD MSTORE PUSH2 0x2E6C DUP2 PUSH2 0x2E33 JUMP JUMPDEST SWAP1 POP SWAP2 SWAP1 POP JUMP JUMPDEST PUSH32 0x42206C6F77000000000000000000000000000000000000000000000000000000 PUSH0 DUP3 ADD MSTORE POP JUMP JUMPDEST PUSH0 PUSH2 0x2EA7 PUSH1 0x5 DUP4 PUSH2 0x1F1F JUMP JUMPDEST SWAP2 POP PUSH2 0x2EB2 DUP3 PUSH2 0x2E73 JUMP JUMPDEST PUSH1 0x20 DUP3 ADD SWAP1 POP SWAP2 SWAP1 POP JUMP JUMPDEST PUSH0 PUSH1 0x20 DUP3 ADD SWAP1 POP DUP2 DUP2 SUB PUSH0 DUP4 ADD MSTORE PUSH2 0x2ED4 DUP2 PUSH2 0x2E9B JUMP JUMPDEST SWAP1 POP SWAP2 SWAP1 POP JUMP JUMPDEST PUSH32 0x746F6F206D756368204100000000000000000000000000000000000000000000 PUSH0 DUP3 ADD MSTORE POP JUMP JUMPDEST PUSH0 PUSH2 0x2F0F PUSH1 0xA DUP4 PUSH2 0x1F1F JUMP JUMPDEST SWAP2 POP PUSH2 0x2F1A DUP3 PUSH2 0x2EDB JUMP JUMPDEST PUSH1 0x20 DUP3 ADD SWAP1 POP SWAP2 SWAP1 POP JUMP JUMPDEST PUSH0 PUSH1 0x20 DUP3 ADD SWAP1 POP DUP2 DUP2 SUB PUSH0 DUP4 ADD MSTORE PUSH2 0x2F3C DUP2 PUSH2 0x2F03 JUMP JUMPDEST SWAP1 POP SWAP2 SWAP1 POP JUMP JUMPDEST PUSH32 0x41206C6F77000000000000000000000000000000000000000000000000000000 PUSH0 DUP3 ADD MSTORE POP JUMP JUMPDEST PUSH0 PUSH2 0x2F77 PUSH1 0x5 DUP4 PUSH2 0x1F1F JUMP JUMPDEST SWAP2 POP PUSH2 0x2F82 DUP3 PUSH2 0x2F43 JUMP JUMPDEST PUSH1 0x20 DUP3 ADD SWAP1 POP SWAP2 SWAP1 POP JUMP JUMPDEST PUSH0 PUSH1 0x20 DUP3 ADD SWAP1 POP DUP2 DUP2 SUB PUSH0 DUP4 ADD MSTORE PUSH2 0x2FA4 DUP2 PUSH2 0x2F6B JUMP JUMPDEST SWAP1 POP SWAP2 SWAP1 POP JUMP INVALID LOG2 PUSH5 0x6970667358 0x22 SLT KECCAK256 PUSH6 0xA8A61D4F1A8E PUSH16 0x60F31EC48C6BE94F6AEBBBD2FDBD8BC7 SELFDESTRUCT 0xD RETURNDATACOPY DUP1 PUSH26 0xC85D1964736F6C634300081E0033000000000000000000000000 "
		},
		"gasEstimates": {
			"creation": {
				"codeDepositCost": "2451400",
				"executionCost": "infinite",
				"totalCost": "infinite"
			},
			"external": {
				"addLiquidity(address,address,uint256,uint256,uint256,uint256,address,uint256)": "infinite",
				"decimals()": "2562",
				"getAmountOut(uint256,uint256,uint256)": "infinite",
				"getPrice(address,address)": "infinite",
				"name()": "infinite",
				"owner()": "2552",
				"removeLiquidity(address,address,uint256,uint256,uint256,address,uint256)": "infinite",
				"reserveA()": "2491",
				"reserveB()": "2492",
				"swapExactTokensForTokens(uint256,uint256,address[],address,uint256)": "infinite",
				"symbol()": "infinite",
				"tokenA()": "2604",
				"tokenB()": "2531"
			}
		},
		"methodIdentifiers": {
			"addLiquidity(address,address,uint256,uint256,uint256,uint256,address,uint256)": "e8e33700",
			"decimals()": "313ce567",
			"getAmountOut(uint256,uint256,uint256)": "054d50d4",
			"getPrice(address,address)": "ac41865a",
			"name()": "06fdde03",
			"owner()": "8da5cb5b",
			"removeLiquidity(address,address,uint256,uint256,uint256,address,uint256)": "baa2abde",
			"reserveA()": "dc5fa6c5",
			"reserveB()": "19e36f3b",
			"swapExactTokensForTokens(uint256,uint256,address[],address,uint256)": "38ed1739",
			"symbol()": "95d89b41",
			"tokenA()": "0fc63d10",
			"tokenB()": "5f64b55b"
		}
	},
	"abi": [
		{
			"inputs": [
				{
					"internalType": "address",
					"name": "_tokenA",
					"type": "address"
				},
				{
					"internalType": "address",
					"name": "_tokenB",
					"type": "address"
				}
			],
			"stateMutability": "nonpayable",
			"type": "constructor"
		},
		{
			"anonymous": false,
			"inputs": [
				{
					"indexed": true,
					"internalType": "address",
					"name": "provider",
					"type": "address"
				},
				{
					"indexed": false,
					"internalType": "uint256",
					"name": "amountA",
					"type": "uint256"
				},
				{
					"indexed": false,
					"internalType": "uint256",
					"name": "amountB",
					"type": "uint256"
				},
				{
					"indexed": false,
					"internalType": "uint256",
					"name": "liquidityMinted",
					"type": "uint256"
				}
			],
			"name": "InitialLiquidityAdded",
			"type": "event"
		},
		{
			"anonymous": false,
			"inputs": [
				{
					"indexed": true,
					"internalType": "address",
					"name": "provider",
					"type": "address"
				},
				{
					"indexed": false,
					"internalType": "uint256",
					"name": "amountA",
					"type": "uint256"
				},
				{
					"indexed": false,
					"internalType": "uint256",
					"name": "amountB",
					"type": "uint256"
				},
				{
					"indexed": false,
					"internalType": "uint256",
					"name": "liquidityMinted",
					"type": "uint256"
				}
			],
			"name": "LiquidityAdded",
			"type": "event"
		},
		{
			"anonymous": false,
			"inputs": [
				{
					"indexed": true,
					"internalType": "address",
					"name": "provider",
					"type": "address"
				},
				{
					"indexed": false,
					"internalType": "uint256",
					"name": "amountA",
					"type": "uint256"
				},
				{
					"indexed": false,
					"internalType": "uint256",
					"name": "amountB",
					"type": "uint256"
				},
				{
					"indexed": false,
					"internalType": "uint256",
					"name": "liquidityBurned",
					"type": "uint256"
				}
			],
			"name": "LiquidityRemoved",
			"type": "event"
		},
		{
			"anonymous": false,
			"inputs": [
				{
					"indexed": true,
					"internalType": "address",
					"name": "swapper",
					"type": "address"
				},
				{
					"indexed": false,
					"internalType": "address",
					"name": "tokenIn",
					"type": "address"
				},
				{
					"indexed": false,
					"internalType": "uint256",
					"name": "amountIn",
					"type": "uint256"
				},
				{
					"indexed": false,
					"internalType": "address",
					"name": "tokenOut",
					"type": "address"
				},
				{
					"indexed": false,
					"internalType": "uint256",
					"name": "amountOut",
					"type": "uint256"
				}
			],
			"name": "TokensSwapped",
			"type": "event"
		},
		{
			"inputs": [
				{
					"internalType": "address",
					"name": "tokenA_",
					"type": "address"
				},
				{
					"internalType": "address",
					"name": "tokenB_",
					"type": "address"
				},
				{
					"internalType": "uint256",
					"name": "amountADesired",
					"type": "uint256"
				},
				{
					"internalType": "uint256",
					"name": "amountBDesired",
					"type": "uint256"
				},
				{
					"internalType": "uint256",
					"name": "amountAMin",
					"type": "uint256"
				},
				{
					"internalType": "uint256",
					"name": "amountBMin",
					"type": "uint256"
				},
				{
					"internalType": "address",
					"name": "to",
					"type": "address"
				},
				{
					"internalType": "uint256",
					"name": "deadline",
					"type": "uint256"
				}
			],
			"name": "addLiquidity",
			"outputs": [
				{
					"internalType": "uint256",
					"name": "amountA",
					"type": "uint256"
				},
				{
					"internalType": "uint256",
					"name": "amountB",
					"type": "uint256"
				},
				{
					"internalType": "uint256",
					"name": "liquidity",
					"type": "uint256"
				}
			],
			"stateMutability": "nonpayable",
			"type": "function"
		},
		{
			"inputs": [],
			"name": "decimals",
			"outputs": [
				{
					"internalType": "uint8",
					"name": "",
					"type": "uint8"
				}
			],
			"stateMutability": "view",
			"type": "function"
		},
		{
			"inputs": [
				{
					"internalType": "uint256",
					"name": "amountIn",
					"type": "uint256"
				},
				{
					"internalType": "uint256",
					"name": "reserveIn",
					"type": "uint256"
				},
				{
					"internalType": "uint256",
					"name": "reserveOut",
					"type": "uint256"
				}
			],
			"name": "getAmountOut",
			"outputs": [
				{
					"internalType": "uint256",
					"name": "amountOut",
					"type": "uint256"
				}
			],
			"stateMutability": "pure",
			"type": "function"
		},
		{
			"inputs": [
				{
					"internalType": "address",
					"name": "tokenA_",
					"type": "address"
				},
				{
					"internalType": "address",
					"name": "tokenB_",
					"type": "address"
				}
			],
			"name": "getPrice",
			"outputs": [
				{
					"internalType": "uint256",
					"name": "price",
					"type": "uint256"
				}
			],
			"stateMutability": "view",
			"type": "function"
		},
		{
			"inputs": [],
			"name": "name",
			"outputs": [
				{
					"internalType": "string",
					"name": "",
					"type": "string"
				}
			],
			"stateMutability": "view",
			"type": "function"
		},
		{
			"inputs": [],
			"name": "owner",
			"outputs": [
				{
					"internalType": "address",
					"name": "",
					"type": "address"
				}
			],
			"stateMutability": "view",
			"type": "function"
		},
		{
			"inputs": [
				{
					"internalType": "address",
					"name": "tokenA_",
					"type": "address"
				},
				{
					"internalType": "address",
					"name": "tokenB_",
					"type": "address"
				},
				{
					"internalType": "uint256",
					"name": "liquidity",
					"type": "uint256"
				},
				{
					"internalType": "uint256",
					"name": "amountAMin",
					"type": "uint256"
				},
				{
					"internalType": "uint256",
					"name": "amountBMin",
					"type": "uint256"
				},
				{
					"internalType": "address",
					"name": "to",
					"type": "address"
				},
				{
					"internalType": "uint256",
					"name": "deadline",
					"type": "uint256"
				}
			],
			"name": "removeLiquidity",
			"outputs": [
				{
					"internalType": "uint256",
					"name": "amountA",
					"type": "uint256"
				},
				{
					"internalType": "uint256",
					"name": "amountB",
					"type": "uint256"
				}
			],
			"stateMutability": "nonpayable",
			"type": "function"
		},
		{
			"inputs": [],
			"name": "reserveA",
			"outputs": [
				{
					"internalType": "uint256",
					"name": "",
					"type": "uint256"
				}
			],
			"stateMutability": "view",
			"type": "function"
		},
		{
			"inputs": [],
			"name": "reserveB",
			"outputs": [
				{
					"internalType": "uint256",
					"name": "",
					"type": "uint256"
				}
			],
			"stateMutability": "view",
			"type": "function"
		},
		{
			"inputs": [
				{
					"internalType": "uint256",
					"name": "amountIn",
					"type": "uint256"
				},
				{
					"internalType": "uint256",
					"name": "amountOutMin",
					"type": "uint256"
				},
				{
					"internalType": "address[]",
					"name": "path",
					"type": "address[]"
				},
				{
					"internalType": "address",
					"name": "to",
					"type": "address"
				},
				{
					"internalType": "uint256",
					"name": "deadline",
					"type": "uint256"
				}
			],
			"name": "swapExactTokensForTokens",
			"outputs": [
				{
					"internalType": "uint256[]",
					"name": "amounts",
					"type": "uint256[]"
				}
			],
			"stateMutability": "nonpayable",
			"type": "function"
		},
		{
			"inputs": [],
			"name": "symbol",
			"outputs": [
				{
					"internalType": "string",
					"name": "",
					"type": "string"
				}
			],
			"stateMutability": "view",
			"type": "function"
		},
		{
			"inputs": [],
			"name": "tokenA",
			"outputs": [
				{
					"internalType": "address",
					"name": "",
					"type": "address"
				}
			],
			"stateMutability": "view",
			"type": "function"
		},
		{
			"inputs": [],
			"name": "tokenB",
			"outputs": [
				{
					"internalType": "address",
					"name": "",
					"type": "address"
				}
			],
			"stateMutability": "view",
			"type": "function"
		}
	]
}